{
  "contractName": "AssetTransferProcessor",
  "abi": [
    {
      "anonymous": false,
      "inputs": [
        {
          "indexed": true,
          "internalType": "bytes32",
          "name": "txId",
          "type": "bytes32"
        },
        {
          "indexed": false,
          "internalType": "address",
          "name": "asset",
          "type": "address"
        },
        {
          "indexed": false,
          "internalType": "uint256",
          "name": "amount",
          "type": "uint256"
        }
      ],
      "name": "AssetLocked",
      "type": "event"
    },
    {
      "anonymous": false,
      "inputs": [
        {
          "indexed": true,
          "internalType": "bytes32",
          "name": "txId",
          "type": "bytes32"
        },
        {
          "indexed": false,
          "internalType": "address",
          "name": "asset",
          "type": "address"
        },
        {
          "indexed": false,
          "internalType": "uint256",
          "name": "amount",
          "type": "uint256"
        }
      ],
      "name": "AssetReleased",
      "type": "event"
    },
    {
      "anonymous": false,
      "inputs": [
        {
          "indexed": true,
          "internalType": "bytes32",
          "name": "role",
          "type": "bytes32"
        },
        {
          "indexed": true,
          "internalType": "bytes32",
          "name": "previousAdminRole",
          "type": "bytes32"
        },
        {
          "indexed": true,
          "internalType": "bytes32",
          "name": "newAdminRole",
          "type": "bytes32"
        }
      ],
      "name": "RoleAdminChanged",
      "type": "event"
    },
    {
      "anonymous": false,
      "inputs": [
        {
          "indexed": true,
          "internalType": "bytes32",
          "name": "role",
          "type": "bytes32"
        },
        {
          "indexed": true,
          "internalType": "address",
          "name": "account",
          "type": "address"
        },
        {
          "indexed": true,
          "internalType": "address",
          "name": "sender",
          "type": "address"
        }
      ],
      "name": "RoleGranted",
      "type": "event"
    },
    {
      "anonymous": false,
      "inputs": [
        {
          "indexed": true,
          "internalType": "bytes32",
          "name": "role",
          "type": "bytes32"
        },
        {
          "indexed": true,
          "internalType": "address",
          "name": "account",
          "type": "address"
        },
        {
          "indexed": true,
          "internalType": "address",
          "name": "sender",
          "type": "address"
        }
      ],
      "name": "RoleRevoked",
      "type": "event"
    },
    {
      "inputs": [],
      "name": "DEFAULT_ADMIN_ROLE",
      "outputs": [
        {
          "internalType": "bytes32",
          "name": "",
          "type": "bytes32"
        }
      ],
      "stateMutability": "view",
      "type": "function",
      "constant": true
    },
    {
      "inputs": [
        {
          "internalType": "bytes32",
          "name": "",
          "type": "bytes32"
        }
      ],
      "name": "assetTransfers",
      "outputs": [
        {
          "internalType": "bytes32",
          "name": "txId",
          "type": "bytes32"
        },
        {
          "internalType": "address",
          "name": "asset",
          "type": "address"
        },
        {
          "internalType": "uint256",
          "name": "amount",
          "type": "uint256"
        },
        {
          "internalType": "uint256",
          "name": "lockTime",
          "type": "uint256"
        },
        {
          "internalType": "bytes32",
          "name": "hashLock",
          "type": "bytes32"
        },
        {
          "internalType": "bool",
          "name": "isCompleted",
          "type": "bool"
        }
      ],
      "stateMutability": "view",
      "type": "function",
      "constant": true
    },
    {
      "inputs": [
        {
          "internalType": "bytes32",
          "name": "role",
          "type": "bytes32"
        }
      ],
      "name": "getRoleAdmin",
      "outputs": [
        {
          "internalType": "bytes32",
          "name": "",
          "type": "bytes32"
        }
      ],
      "stateMutability": "view",
      "type": "function",
      "constant": true
    },
    {
      "inputs": [
        {
          "internalType": "bytes32",
          "name": "role",
          "type": "bytes32"
        },
        {
          "internalType": "address",
          "name": "account",
          "type": "address"
        }
      ],
      "name": "grantRole",
      "outputs": [],
      "stateMutability": "nonpayable",
      "type": "function"
    },
    {
      "inputs": [
        {
          "internalType": "bytes32",
          "name": "role",
          "type": "bytes32"
        },
        {
          "internalType": "address",
          "name": "account",
          "type": "address"
        }
      ],
      "name": "hasRole",
      "outputs": [
        {
          "internalType": "bool",
          "name": "",
          "type": "bool"
        }
      ],
      "stateMutability": "view",
      "type": "function",
      "constant": true
    },
    {
      "inputs": [
        {
          "internalType": "bytes32",
          "name": "role",
          "type": "bytes32"
        },
        {
          "internalType": "address",
          "name": "account",
          "type": "address"
        }
      ],
      "name": "renounceRole",
      "outputs": [],
      "stateMutability": "nonpayable",
      "type": "function"
    },
    {
      "inputs": [
        {
          "internalType": "bytes32",
          "name": "role",
          "type": "bytes32"
        },
        {
          "internalType": "address",
          "name": "account",
          "type": "address"
        }
      ],
      "name": "revokeRole",
      "outputs": [],
      "stateMutability": "nonpayable",
      "type": "function"
    },
    {
      "inputs": [
        {
          "internalType": "bytes4",
          "name": "interfaceId",
          "type": "bytes4"
        }
      ],
      "name": "supportsInterface",
      "outputs": [
        {
          "internalType": "bool",
          "name": "",
          "type": "bool"
        }
      ],
      "stateMutability": "view",
      "type": "function",
      "constant": true
    },
    {
      "inputs": [
        {
          "internalType": "bytes32",
          "name": "txId",
          "type": "bytes32"
        },
        {
          "internalType": "address",
          "name": "asset",
          "type": "address"
        },
        {
          "internalType": "uint256",
          "name": "amount",
          "type": "uint256"
        },
        {
          "internalType": "bytes32",
          "name": "hashLock",
          "type": "bytes32"
        }
      ],
      "name": "initiateAssetTransfer",
      "outputs": [],
      "stateMutability": "nonpayable",
      "type": "function"
    }
  ],
  "bytecode": "0x608060405234801561001057600080fd5b5060016000556109af806100256000396000f3fe608060405234801561001057600080fd5b50600436106100935760003560e01c806336568abe1161006657806336568abe1461011a5780633e1fe4331461012d57806391d14854146101b5578063a217fddf146101c8578063d547741f146101d057600080fd5b806301ffc9a714610098578063248a9ca3146100c0578063298eb5f4146100f25780632f2ff15d14610107575b600080fd5b6100ab6100a6366004610764565b6101e3565b60405190151581526020015b60405180910390f35b6100e46100ce36600461078e565b6000908152600160208190526040909120015490565b6040519081526020016100b7565b6101056101003660046107c3565b61021a565b005b6101056101153660046107fe565b61031f565b6101056101283660046107fe565b61034a565b61017e61013b36600461078e565b600260208190526000918252604090912080546001820154928201546003830154600484015460059094015492946001600160a01b031693919290919060ff1686565b604080519687526001600160a01b0390951660208701529385019290925260608401526080830152151560a082015260c0016100b7565b6100ab6101c33660046107fe565b6103cd565b6100e4600081565b6101056101de3660046107fe565b6103f8565b60006001600160e01b03198216637965db0b60e01b148061021457506301ffc9a760e01b6001600160e01b03198316145b92915050565b61022261041e565b6040518060c00160405280858152602001846001600160a01b0316815260200183815260200142610e106102569190610840565b815260208082018490526000604092830181905287815260028083529083902084518155848301516001820180546001600160a01b0319166001600160a01b039283161790558585015192820192909255606085015160038201556080850151600482015560a0909401516005909401805460ff19169415159490941790935581519286168352820184905285917ffc712fbf182c5c3495e9b806924d87d2c2d76347e43f97ad3ea72f1b289abbdf910160405180910390a26103196001600055565b50505050565b6000828152600160208190526040909120015461033b81610477565b6103458383610484565b505050565b6001600160a01b03811633146103bf5760405162461bcd60e51b815260206004820152602f60248201527f416363657373436f6e74726f6c3a2063616e206f6e6c792072656e6f756e636560448201526e103937b632b9903337b91039b2b63360891b60648201526084015b60405180910390fd5b6103c982826104ef565b5050565b60009182526001602090815260408084206001600160a01b0393909316845291905290205460ff1690565b6000828152600160208190526040909120015461041481610477565b61034583836104ef565b6002600054036104705760405162461bcd60e51b815260206004820152601f60248201527f5265656e7472616e637947756172643a207265656e7472616e742063616c6c0060448201526064016103b6565b6002600055565b6104818133610556565b50565b61048e82826103cd565b6103c95760008281526001602081815260408084206001600160a01b0386168086529252808420805460ff19169093179092559051339285917f2f8788117e7eff1d82e926ec794901d17c78024a50270940304540a733656f0d9190a45050565b6104f982826103cd565b156103c95760008281526001602090815260408083206001600160a01b0385168085529252808320805460ff1916905551339285917ff6391f5c32d9c69d2a47ea670b442974b53935d1edc7fd64eb21e047a839171b9190a45050565b61056082826103cd565b6103c95761056d816105af565b6105788360206105c1565b604051602001610589929190610877565b60408051601f198184030181529082905262461bcd60e51b82526103b6916004016108ec565b60606102146001600160a01b03831660145b606060006105d083600261091f565b6105db906002610840565b67ffffffffffffffff8111156105f3576105f3610936565b6040519080825280601f01601f19166020018201604052801561061d576020820181803683370190505b509050600360fc1b816000815181106106385761063861094c565b60200101906001600160f81b031916908160001a905350600f60fb1b816001815181106106675761066761094c565b60200101906001600160f81b031916908160001a905350600061068b84600261091f565b610696906001610840565b90505b600181111561070e576f181899199a1a9b1b9c1cb0b131b232b360811b85600f16601081106106ca576106ca61094c565b1a60f81b8282815181106106e0576106e061094c565b60200101906001600160f81b031916908160001a90535060049490941c9361070781610962565b9050610699565b50831561075d5760405162461bcd60e51b815260206004820181905260248201527f537472696e67733a20686578206c656e67746820696e73756666696369656e7460448201526064016103b6565b9392505050565b60006020828403121561077657600080fd5b81356001600160e01b03198116811461075d57600080fd5b6000602082840312156107a057600080fd5b5035919050565b80356001600160a01b03811681146107be57600080fd5b919050565b600080600080608085870312156107d957600080fd5b843593506107e9602086016107a7565b93969395505050506040820135916060013590565b6000806040838503121561081157600080fd5b82359150610821602084016107a7565b90509250929050565b634e487b7160e01b600052601160045260246000fd5b808201808211156102145761021461082a565b60005b8381101561086e578181015183820152602001610856565b50506000910152565b7f416363657373436f6e74726f6c3a206163636f756e74200000000000000000008152600083516108af816017850160208801610853565b7001034b99036b4b9b9b4b733903937b6329607d1b60179184019182015283516108e0816028840160208801610853565b01602801949350505050565b602081526000825180602084015261090b816040850160208701610853565b601f01601f19169190910160400192915050565b80820281158282048414176102145761021461082a565b634e487b7160e01b600052604160045260246000fd5b634e487b7160e01b600052603260045260246000fd5b6000816109715761097161082a565b50600019019056fea2646970667358221220bdead61c1a0518ec7b5b3c09f04c104a6e6db204516b9d142b77f2d19c853b3f64736f6c63430008110033",
  "immutableReferences": {},
  "source": "// SPDX-License-Identifier: MIT\npragma solidity ^0.8.0;\n\nimport \"@openzeppelin/contracts/security/ReentrancyGuard.sol\";\nimport \"@openzeppelin/contracts/security/Pausable.sol\";\nimport \"@openzeppelin/contracts/access/AccessControl.sol\";\nimport \"../../library/FixedPointMath.sol\";\nimport \"../../library/TransactionTypes.sol\";\n\n/**\n * @title PacechainChannel\n * @dev Manages transmission channels between blockchains\n */\ncontract PacechainChannel is ReentrancyGuard, Pausable, AccessControl {\n    using TransactionTypes for TransactionTypes.Channel;\n    using FixedPointMath for uint256;\n    \n    bytes32 public constant CHANNEL_OPERATOR = keccak256(\"CHANNEL_OPERATOR\");\n    \n    mapping(bytes32 => TransactionTypes.Channel) public channels;\n    mapping(bytes32 => TransactionTypes.SpeculativeTx) public speculativeTxs;\n    mapping(bytes32 => TransactionTypes.ConfirmableTx) public confirmableTxs;\n    \n    event ChannelCreated(bytes32 indexed channelId, address sourceBridge, address targetBridge);\n    event SpeculativeTxCreated(bytes32 indexed txId, address sender, uint256 anticipatedTime);\n    event ConfirmableTxCreated(bytes32 indexed txId, bytes32 speculativeTxId);\n    \n    constructor() {\n        _setupRole(DEFAULT_ADMIN_ROLE, msg.sender);\n    }\n    \n    function createChannel(\n        address sourceBridge,\n        address targetBridge,\n        uint256 confidenceThreshold\n    ) external onlyRole(CHANNEL_OPERATOR) returns (bytes32) {\n        require(sourceBridge != address(0), \"Invalid source bridge\");\n        require(targetBridge != address(0), \"Invalid target bridge\");\n        require(confidenceThreshold > 0, \"Invalid threshold\");\n\n        bytes32 channelId = keccak256(abi.encodePacked(\n            sourceBridge,\n            targetBridge,\n            block.timestamp\n        ));\n        \n        channels[channelId] = TransactionTypes.Channel({\n            id: channelId,\n            sourceBridge: sourceBridge,\n            targetBridge: targetBridge,\n            creationTime: block.timestamp,\n            isActive: true,\n            confidenceThreshold: confidenceThreshold\n        });\n        \n        emit ChannelCreated(channelId, sourceBridge, targetBridge);\n        return channelId;\n    }\n}\n\n/**\n * @title SpeculativeTransactionHandler\n * @dev Handles creation and management of speculative transactions\n */\ncontract SpeculativeTransactionHandler is ReentrancyGuard, AccessControl {\n    using TransactionTypes for TransactionTypes.SpeculativeTx;\n    \n    struct RBFParams {\n        uint256 beta;\n        uint256 epsilon;\n        bytes interpolationData;\n    }\n    \n    mapping(bytes32 => RBFParams) public rbfParams;\n    \n    event SpeculativeCalculationComplete(bytes32 indexed txId, uint256 beta, uint256 epsilon);\n    \n    struct RBFPoint {\n        uint256 x;\n        uint256 y;\n        uint256 lambda;\n    }\n\n    struct RBFCalculation {\n        uint256 beta;\n        uint256 epsilon;\n        uint256 pointCount;\n        mapping(uint256 => RBFPoint) points;\n    }\n\n    mapping(bytes32 => RBFCalculation) private rbfCalculations;\n\n    uint256 private constant PRECISION = 1e18;\n\n    function calculateRBFInterpolation(\n        bytes32 txId,\n        bytes memory data,\n        uint256 beta\n    ) external nonReentrant returns (bytes memory) {\n        (RBFPoint[] memory inputPoints) = abi.decode(data, (RBFPoint[]));\n        require(inputPoints.length > 0, \"No input points provided\");\n\n        RBFCalculation storage calc = rbfCalculations[txId];\n        calc.beta = beta;\n        calc.pointCount = inputPoints.length;\n\n        uint256[] memory virtualPoints = new uint256[](inputPoints.length);\n        \n        for (uint256 i = 0; i < inputPoints.length; i++) {\n            uint256 sum = 0;\n            \n            for (uint256 j = 0; j < inputPoints.length; j++) {\n                uint256 distance = calculateSquaredDistance(\n                    inputPoints[i].x,\n                    inputPoints[i].y,\n                    inputPoints[j].x,\n                    inputPoints[j].y\n                );\n                \n                uint256 phi = calculateGaussianRBF(distance, beta);\n                sum = addFixedPoint(sum, multiplyFixedPoint(inputPoints[j].lambda, phi));\n            }\n            \n            virtualPoints[i] = sum;\n            calc.points[i] = RBFPoint({\n                x: inputPoints[i].x,\n                y: inputPoints[i].y,\n                lambda: sum\n            });\n        }\n\n        require(monitorConvergence(txId, virtualPoints), \"RBF interpolation did not converge\");\n\n        return abi.encode(virtualPoints);\n    }\n\n    function calculateSquaredDistance(\n        uint256 x1,\n        uint256 y1,\n        uint256 x2,\n        uint256 y2\n    ) internal pure returns (uint256) {\n        uint256 dx = x1 > x2 ? x1 - x2 : x2 - x1;\n        uint256 dy = y1 > y2 ? y1 - y2 : y2 - y1;\n        \n        return addFixedPoint(\n            multiplyFixedPoint(dx, dx),\n            multiplyFixedPoint(dy, dy)\n        );\n    }\n\n    function calculateGaussianRBF(\n        uint256 distance,\n        uint256 beta\n    ) internal pure returns (uint256) {\n        uint256 exponent = multiplyFixedPoint(beta, distance);\n        return exponentialDecay(exponent);\n    }\n\n    function exponentialDecay(uint256 x) internal pure returns (uint256) {\n        uint256 result = PRECISION;\n        uint256 term = PRECISION;\n        \n        for (uint256 i = 1; i <= 5; i++) {\n            term = multiplyFixedPoint(term, x) / i;\n            if (i % 2 == 1) {\n                result = result > term ? result - term : 0;\n            } else {\n                result = addFixedPoint(result, term);\n            }\n        }\n        \n        return result;\n    }\n\n    function monitorConvergence(\n        bytes32 txId,\n        uint256[] memory virtualPoints\n    ) internal view returns (bool) {\n        RBFCalculation storage calc = rbfCalculations[txId];\n        \n        for (uint256 i = 0; i < virtualPoints.length; i++) {\n            uint256 difference = virtualPoints[i] > calc.points[i].lambda ?\n                virtualPoints[i] - calc.points[i].lambda :\n                calc.points[i].lambda - virtualPoints[i];\n                \n            if (difference > calc.epsilon) {\n                return false;\n            }\n        }\n        \n        return true;\n    }\n\n    function multiplyFixedPoint(uint256 a, uint256 b) internal pure returns (uint256) {\n        return (a * b) / PRECISION;\n    }\n\n    function addFixedPoint(uint256 a, uint256 b) internal pure returns (uint256) {\n        return a + b;\n    }\n}\n/**\n * @title ConfidenceScoreCalculator\n * @dev Calculates and manages confidence scores for transactions\n */\n\ncontract ConfidenceScoreCalculator is AccessControl {\n    using FixedPointMath for uint256;\n\n    mapping(address => uint256[]) private transactionFrequencies;\n    mapping(address => ScoreComponents) public scoreComponents;\n    mapping(address => ReputationData) private reputationStore;\n\n    uint256 private constant MAX_FREQUENCY_SAMPLES = 100;\n    uint256 private constant PRECISION = 1e18;\n    \n    uint256 private constant OPTIMAL_LOAD = 700 * 1e15;\n    uint256 private constant LOAD_SENSITIVITY = 50 * 1e15;\n    uint256 private constant DELTA = 800 * 1e15;\n    uint256 private constant K = 100 * 1e15;\n    uint256 private constant TAU = 10;\n    uint256 private constant ALPHA = 600 * 1e15;\n    uint256 private constant BETA = 400 * 1e15;\n    uint256 private constant LAMBDA = 100 * 1e15;\n    uint256 private constant GAMMA = 800 * 1e15;\n\n    uint256 public constant HIGH_CONFIDENCE_THRESHOLD = 800;\n    uint256 public constant LOW_CONFIDENCE_THRESHOLD = 500;\n    \n    uint256 public constant SENDER_REPUTATION_WEIGHT = 300;\n    uint256 public constant TRANSACTION_PATTERN_WEIGHT = 200;\n    uint256 public constant ZK_VERIFICATION_WEIGHT = 300;\n    uint256 public constant NETWORK_STATE_WEIGHT = 200;\n\n    struct ScoreComponents {\n        uint256 senderReputation;\n        uint256 transactionPattern;\n        uint256 zkVerification;\n        uint256 networkState;\n    }\n\n    struct ReputationData {\n        uint256 successfulTx;\n        uint256 totalTx;\n        uint256 failedAttempts;\n    }\n\n    event ConfidenceScoreCalculated(address indexed sender, uint256 score);\n    event ReputationUpdated(address indexed sender, uint256 successfulTx, uint256 totalTx);\n\n    constructor() {\n        _setupRole(DEFAULT_ADMIN_ROLE, msg.sender);\n    }\n\n    function calculateConfidenceScore(\n        address sender,\n        uint256 txFrequency,\n        bool zkProofValid,\n        uint256 networkLoad\n    ) external view returns (uint256) {\n        require(sender != address(0), \"Invalid sender address\");\n        \n        uint256 senderScore = calculateSenderReputation(sender);\n        uint256 patternScore = calculateTransactionPattern(txFrequency);\n        uint256 zkScore = calculateZKScore(zkProofValid, txFrequency);\n        uint256 networkScore = calculateNetworkScore(networkLoad);\n        \n        return (senderScore * SENDER_REPUTATION_WEIGHT +\n                patternScore * TRANSACTION_PATTERN_WEIGHT +\n                zkScore * ZK_VERIFICATION_WEIGHT +\n                networkScore * NETWORK_STATE_WEIGHT) / 1000;\n    }\n\n    function calculateSenderReputation(address sender) internal view returns (uint256) {\n        ReputationData storage repData = reputationStore[sender];\n        \n        if (repData.totalTx == 0) return 0;\n\n        uint256 successRatio = (repData.successfulTx * PRECISION) / repData.totalTx;\n        uint256 weightedSuccess = successRatio.multiplyFixedPoint(ALPHA);\n        \n        uint256 failurePenalty = FixedPointMath.exponentialDecay(\n            uint256(repData.failedAttempts).multiplyFixedPoint(LAMBDA)\n        );\n        uint256 weightedFailure = failurePenalty.multiplyFixedPoint(BETA);\n        \n        return weightedSuccess.addFixedPoint(weightedFailure);\n    }\n\n    function calculateTransactionPattern(uint256 frequency) internal view returns (uint256) {\n        uint256 meanFreq = getMeanFrequency();\n        uint256 variance = getVariance();\n        \n        if (variance == 0) return PRECISION;\n        \n        uint256 diff = frequency > meanFreq ? \n            frequency - meanFreq : \n            meanFreq - frequency;\n        uint256 diffSquared = diff.multiplyFixedPoint(diff);\n        \n        uint256 denominator = 2 * variance;\n        uint256 exponent = diffSquared / denominator;\n        uint256 expValue = FixedPointMath.exponentialDecay(exponent);\n        \n        return GAMMA.multiplyFixedPoint(expValue);\n    }\n\n    function calculateZKScore(\n        bool proofValid,\n        uint256 verificationTime\n    ) internal pure returns (uint256) {\n        if (!proofValid) return 0;\n        \n        uint256 timeScore;\n        if (verificationTime <= TAU) {\n            timeScore = PRECISION;\n        } else {\n            uint256 timeDiff = verificationTime - TAU;\n            uint256 exponent = K.multiplyFixedPoint(timeDiff);\n            timeScore = PRECISION / (PRECISION + FixedPointMath.exponentialGrowth(exponent));\n        }\n        \n        uint256 proofScore = DELTA.multiplyFixedPoint(PRECISION);\n        uint256 timeWeightedScore = (PRECISION - DELTA).multiplyFixedPoint(timeScore);\n        \n        return proofScore.addFixedPoint(timeWeightedScore);\n    }\n\n    function calculateNetworkScore(uint256 networkLoad) internal pure returns (uint256) {\n        if (networkLoad >= PRECISION) return 0;\n        \n        uint256 resourceRatio = PRECISION - networkLoad;\n        uint256 loadDiff = networkLoad > OPTIMAL_LOAD ? \n            networkLoad - OPTIMAL_LOAD : \n            OPTIMAL_LOAD - networkLoad;\n            \n        uint256 exponent = LOAD_SENSITIVITY.multiplyFixedPoint(loadDiff);\n        uint256 loadFactor = PRECISION / (PRECISION + FixedPointMath.exponentialGrowth(exponent));\n        \n        return resourceRatio.multiplyFixedPoint(loadFactor);\n    }\n\n    function getMeanFrequency() internal view returns (uint256) {\n        uint256[] storage frequencies = transactionFrequencies[msg.sender];\n        if (frequencies.length == 0) return 0;\n        \n        uint256 sum = 0;\n        for (uint256 i = 0; i < frequencies.length; i++) {\n            sum = sum.addFixedPoint(frequencies[i]);\n        }\n        return sum / frequencies.length;\n    }\n    \n    function getVariance() internal view returns (uint256) {\n        uint256[] storage frequencies = transactionFrequencies[msg.sender];\n        if (frequencies.length == 0) return 0;\n        \n        uint256 mean = getMeanFrequency();\n        uint256 sumSquaredDiff = 0;\n        \n        for (uint256 i = 0; i < frequencies.length; i++) {\n            uint256 diff = frequencies[i] > mean ? \n                frequencies[i] - mean : \n                mean - frequencies[i];\n            sumSquaredDiff = sumSquaredDiff.addFixedPoint(diff.multiplyFixedPoint(diff));\n        }\n        \n        return sumSquaredDiff / frequencies.length;\n    }\n\n    function updateTransactionFrequency(uint256 frequency) external {\n        uint256[] storage frequencies = transactionFrequencies[msg.sender];\n        \n        if (frequencies.length >= MAX_FREQUENCY_SAMPLES) {\n            // Remove oldest frequency\n            for (uint256 i = 0; i < frequencies.length - 1; i++) {\n                frequencies[i] = frequencies[i + 1];\n            }\n            frequencies[frequencies.length - 1] = frequency;\n        } else {\n            frequencies.push(frequency);\n        }\n    }\n}\n\ncontract AssetTransferProcessor is ReentrancyGuard, AccessControl {\n    struct AssetTransfer {\n        bytes32 txId;\n        address asset;\n        uint256 amount;\n        uint256 lockTime;\n        bytes32 hashLock;\n        bool isCompleted;\n    }\n    \n    mapping(bytes32 => AssetTransfer) public assetTransfers;\n    \n    event AssetLocked(bytes32 indexed txId, address asset, uint256 amount);\n    event AssetReleased(bytes32 indexed txId, address asset, uint256 amount);\n    \n    function initiateAssetTransfer(\n        bytes32 txId,\n        address asset,\n        uint256 amount,\n        bytes32 hashLock\n    ) external nonReentrant {\n        assetTransfers[txId] = AssetTransfer({\n            txId: txId,\n            asset: asset,\n            amount: amount,\n            lockTime: block.timestamp + 1 hours,\n            hashLock: hashLock,\n            isCompleted: false\n        });\n        \n        emit AssetLocked(txId, asset, amount);\n    }\n}",
  "sourcePath": "C:\\Users\\Bonsu\\Documents\\crosschainproject\\contracts\\passchain\\PacechainChannel.sol",
  "compiler": {
    "name": "solc",
    "version": "0.8.17+commit.8df45f5f.Emscripten.clang"
  },
  "schemaVersion": "3.4.16",
  "updatedAt": "2025-02-07T14:38:22.494Z",
  "networkType": "ethereum",
  "devdoc": {
    "kind": "dev",
    "methods": {
      "getRoleAdmin(bytes32)": {
        "details": "Returns the admin role that controls `role`. See {grantRole} and {revokeRole}. To change a role's admin, use {_setRoleAdmin}."
      },
      "grantRole(bytes32,address)": {
        "details": "Grants `role` to `account`. If `account` had not been already granted `role`, emits a {RoleGranted} event. Requirements: - the caller must have ``role``'s admin role. May emit a {RoleGranted} event."
      },
      "hasRole(bytes32,address)": {
        "details": "Returns `true` if `account` has been granted `role`."
      },
      "renounceRole(bytes32,address)": {
        "details": "Revokes `role` from the calling account. Roles are often managed via {grantRole} and {revokeRole}: this function's purpose is to provide a mechanism for accounts to lose their privileges if they are compromised (such as when a trusted device is misplaced). If the calling account had been revoked `role`, emits a {RoleRevoked} event. Requirements: - the caller must be `account`. May emit a {RoleRevoked} event."
      },
      "revokeRole(bytes32,address)": {
        "details": "Revokes `role` from `account`. If `account` had been granted `role`, emits a {RoleRevoked} event. Requirements: - the caller must have ``role``'s admin role. May emit a {RoleRevoked} event."
      },
      "supportsInterface(bytes4)": {
        "details": "See {IERC165-supportsInterface}."
      }
    },
    "version": 1
  },
  "userdoc": {
    "kind": "user",
    "methods": {},
    "version": 1
  }
}