{
  "contractName": "BeeRoutingAlgorithm",
  "abi": [
    {
      "anonymous": false,
      "inputs": [
        {
          "indexed": true,
          "internalType": "bytes32",
          "name": "clusterId",
          "type": "bytes32"
        },
        {
          "indexed": false,
          "internalType": "address",
          "name": "leader",
          "type": "address"
        }
      ],
      "name": "ClusterFormed",
      "type": "event"
    },
    {
      "anonymous": false,
      "inputs": [
        {
          "indexed": true,
          "internalType": "address",
          "name": "node",
          "type": "address"
        },
        {
          "indexed": true,
          "internalType": "bytes32",
          "name": "clusterId",
          "type": "bytes32"
        }
      ],
      "name": "NodeAssigned",
      "type": "event"
    },
    {
      "anonymous": false,
      "inputs": [
        {
          "indexed": true,
          "internalType": "bytes32",
          "name": "role",
          "type": "bytes32"
        },
        {
          "indexed": true,
          "internalType": "bytes32",
          "name": "previousAdminRole",
          "type": "bytes32"
        },
        {
          "indexed": true,
          "internalType": "bytes32",
          "name": "newAdminRole",
          "type": "bytes32"
        }
      ],
      "name": "RoleAdminChanged",
      "type": "event"
    },
    {
      "anonymous": false,
      "inputs": [
        {
          "indexed": true,
          "internalType": "bytes32",
          "name": "role",
          "type": "bytes32"
        },
        {
          "indexed": true,
          "internalType": "address",
          "name": "account",
          "type": "address"
        },
        {
          "indexed": true,
          "internalType": "address",
          "name": "sender",
          "type": "address"
        }
      ],
      "name": "RoleGranted",
      "type": "event"
    },
    {
      "anonymous": false,
      "inputs": [
        {
          "indexed": true,
          "internalType": "bytes32",
          "name": "role",
          "type": "bytes32"
        },
        {
          "indexed": true,
          "internalType": "address",
          "name": "account",
          "type": "address"
        },
        {
          "indexed": true,
          "internalType": "address",
          "name": "sender",
          "type": "address"
        }
      ],
      "name": "RoleRevoked",
      "type": "event"
    },
    {
      "anonymous": false,
      "inputs": [
        {
          "indexed": true,
          "internalType": "bytes32",
          "name": "clusterId",
          "type": "bytes32"
        },
        {
          "indexed": false,
          "internalType": "bytes32",
          "name": "sessionKey",
          "type": "bytes32"
        }
      ],
      "name": "SessionKeyGenerated",
      "type": "event"
    },
    {
      "inputs": [],
      "name": "CLUSTER_ADMIN",
      "outputs": [
        {
          "internalType": "bytes32",
          "name": "",
          "type": "bytes32"
        }
      ],
      "stateMutability": "view",
      "type": "function"
    },
    {
      "inputs": [],
      "name": "DEFAULT_ADMIN_ROLE",
      "outputs": [
        {
          "internalType": "bytes32",
          "name": "",
          "type": "bytes32"
        }
      ],
      "stateMutability": "view",
      "type": "function"
    },
    {
      "inputs": [],
      "name": "MAX_CLUSTER_SIZE",
      "outputs": [
        {
          "internalType": "uint256",
          "name": "",
          "type": "uint256"
        }
      ],
      "stateMutability": "view",
      "type": "function"
    },
    {
      "inputs": [],
      "name": "MIN_CLUSTER_SIZE",
      "outputs": [
        {
          "internalType": "uint256",
          "name": "",
          "type": "uint256"
        }
      ],
      "stateMutability": "view",
      "type": "function"
    },
    {
      "inputs": [],
      "name": "VALIDATION_THRESHOLD",
      "outputs": [
        {
          "internalType": "uint256",
          "name": "",
          "type": "uint256"
        }
      ],
      "stateMutability": "view",
      "type": "function"
    },
    {
      "inputs": [
        {
          "internalType": "bytes32",
          "name": "",
          "type": "bytes32"
        },
        {
          "internalType": "address",
          "name": "",
          "type": "address"
        }
      ],
      "name": "clusterMembers",
      "outputs": [
        {
          "internalType": "bool",
          "name": "",
          "type": "bool"
        }
      ],
      "stateMutability": "view",
      "type": "function"
    },
    {
      "inputs": [
        {
          "internalType": "bytes32",
          "name": "",
          "type": "bytes32"
        }
      ],
      "name": "clusters",
      "outputs": [
        {
          "internalType": "bytes32",
          "name": "id",
          "type": "bytes32"
        },
        {
          "internalType": "address",
          "name": "leader",
          "type": "address"
        },
        {
          "internalType": "uint256",
          "name": "formationTime",
          "type": "uint256"
        },
        {
          "internalType": "uint256",
          "name": "nodeCount",
          "type": "uint256"
        },
        {
          "internalType": "uint256",
          "name": "processedTxCount",
          "type": "uint256"
        },
        {
          "internalType": "bytes32",
          "name": "sessionKey",
          "type": "bytes32"
        },
        {
          "internalType": "bool",
          "name": "isActive",
          "type": "bool"
        }
      ],
      "stateMutability": "view",
      "type": "function"
    },
    {
      "inputs": [
        {
          "internalType": "bytes32",
          "name": "role",
          "type": "bytes32"
        }
      ],
      "name": "getRoleAdmin",
      "outputs": [
        {
          "internalType": "bytes32",
          "name": "",
          "type": "bytes32"
        }
      ],
      "stateMutability": "view",
      "type": "function"
    },
    {
      "inputs": [
        {
          "internalType": "bytes32",
          "name": "role",
          "type": "bytes32"
        },
        {
          "internalType": "address",
          "name": "account",
          "type": "address"
        }
      ],
      "name": "grantRole",
      "outputs": [],
      "stateMutability": "nonpayable",
      "type": "function"
    },
    {
      "inputs": [
        {
          "internalType": "bytes32",
          "name": "role",
          "type": "bytes32"
        },
        {
          "internalType": "address",
          "name": "account",
          "type": "address"
        }
      ],
      "name": "hasRole",
      "outputs": [
        {
          "internalType": "bool",
          "name": "",
          "type": "bool"
        }
      ],
      "stateMutability": "view",
      "type": "function"
    },
    {
      "inputs": [
        {
          "internalType": "address",
          "name": "",
          "type": "address"
        }
      ],
      "name": "nodes",
      "outputs": [
        {
          "internalType": "address",
          "name": "nodeAddress",
          "type": "address"
        },
        {
          "internalType": "enum NodeTypes.NodeRole",
          "name": "role",
          "type": "uint8"
        },
        {
          "internalType": "uint256",
          "name": "capacity",
          "type": "uint256"
        },
        {
          "internalType": "uint256",
          "name": "performance",
          "type": "uint256"
        },
        {
          "internalType": "bool",
          "name": "isActive",
          "type": "bool"
        },
        {
          "internalType": "bytes32",
          "name": "clusterId",
          "type": "bytes32"
        }
      ],
      "stateMutability": "view",
      "type": "function"
    },
    {
      "inputs": [
        {
          "internalType": "bytes32",
          "name": "role",
          "type": "bytes32"
        },
        {
          "internalType": "address",
          "name": "account",
          "type": "address"
        }
      ],
      "name": "renounceRole",
      "outputs": [],
      "stateMutability": "nonpayable",
      "type": "function"
    },
    {
      "inputs": [
        {
          "internalType": "bytes32",
          "name": "role",
          "type": "bytes32"
        },
        {
          "internalType": "address",
          "name": "account",
          "type": "address"
        }
      ],
      "name": "revokeRole",
      "outputs": [],
      "stateMutability": "nonpayable",
      "type": "function"
    },
    {
      "inputs": [
        {
          "internalType": "bytes32",
          "name": "",
          "type": "bytes32"
        }
      ],
      "name": "routes",
      "outputs": [
        {
          "internalType": "uint256",
          "name": "pathScore",
          "type": "uint256"
        },
        {
          "internalType": "bool",
          "name": "isOptimal",
          "type": "bool"
        }
      ],
      "stateMutability": "view",
      "type": "function"
    },
    {
      "inputs": [
        {
          "internalType": "bytes4",
          "name": "interfaceId",
          "type": "bytes4"
        }
      ],
      "name": "supportsInterface",
      "outputs": [
        {
          "internalType": "bool",
          "name": "",
          "type": "bool"
        }
      ],
      "stateMutability": "view",
      "type": "function"
    },
    {
      "inputs": [
        {
          "internalType": "bytes32",
          "name": "txId",
          "type": "bytes32"
        },
        {
          "internalType": "uint256",
          "name": "txSize",
          "type": "uint256"
        },
        {
          "internalType": "enum NodeTypes.NodeRole[]",
          "name": "requiredRoles",
          "type": "uint8[]"
        }
      ],
      "name": "findOptimalRoute",
      "outputs": [
        {
          "internalType": "bytes32[]",
          "name": "",
          "type": "bytes32[]"
        }
      ],
      "stateMutability": "nonpayable",
      "type": "function"
    }
  ],
  "bytecode": "0x608060405234801561001057600080fd5b5061001c600033610021565b6100cd565b61002b828261002f565b5050565b6000828152602081815260408083206001600160a01b038516845290915290205460ff1661002b576000828152602081815260408083206001600160a01b03851684529091529020805460ff191660011790556100893390565b6001600160a01b0316816001600160a01b0316837f2f8788117e7eff1d82e926ec794901d17c78024a50270940304540a733656f0d60405160405180910390a45050565b6111ca806100dc6000396000f3fe608060405234801561001057600080fd5b50600436106101005760003560e01c806336568abe1161009757806391d148541161006657806391d148541461032f5780639c5ca62314610342578063a217fddf14610362578063d547741f1461036a57600080fd5b806336568abe146102bf5780634789015c146102d25780637f747c54146103005780638ec1daee1461032757600080fd5b8063248a9ca3116100d3578063248a9ca3146101e9578063293995281461020c5780632e41e2e8146102145780632f2ff15d146102aa57600080fd5b806301ffc9a714610105578063066e94811461012d57806314552f261461016f578063189a5a1714610185575b600080fd5b610118610113366004610da2565b61037d565b60405190151581526020015b60405180910390f35b61015a61013b366004610dcc565b6004602052600090815260409020600181015460029091015460ff1682565b60408051928352901515602083015201610124565b610177604681565b604051908152602001610124565b6101d7610193366004610e01565b6001602081905260009182526040909120805491810154600282015460038301546004909301546001600160a01b0385169460ff600160a01b909104811694169086565b60405161012496959493929190610e32565b6101776101f7366004610dcc565b60009081526020819052604090206001015490565b610177600a81565b61026b610222366004610dcc565b6002602081905260009182526040909120805460018201549282015460038301546004840154600585015460069095015493956001600160a01b03169492939192909160ff1687565b604080519788526001600160a01b039096166020880152948601939093526060850191909152608084015260a0830152151560c082015260e001610124565b6102bd6102b8366004610e8a565b6103b4565b005b6102bd6102cd366004610e8a565b6103de565b6101186102e0366004610e8a565b600360209081526000928352604080842090915290825290205460ff1681565b6101777f494524d2d1f4acd3eed6a4679ede5f8aa5fa9493ca9319f21d8a90f197e849bc81565b610177600381565b61011861033d366004610e8a565b610461565b610355610350366004610edb565b61048a565b6040516101249190610fb5565b610177600081565b6102bd610378366004610e8a565b6104ef565b60006001600160e01b03198216637965db0b60e01b14806103ae57506301ffc9a760e01b6001600160e01b03198316145b92915050565b6000828152602081905260409020600101546103cf81610514565b6103d98383610521565b505050565b6001600160a01b03811633146104535760405162461bcd60e51b815260206004820152602f60248201527f416363657373436f6e74726f6c3a2063616e206f6e6c792072656e6f756e636560448201526e103937b632b9903337b91039b2b63360891b60648201526084015b60405180910390fd5b61045d82826105a5565b5050565b6000918252602082815260408084206001600160a01b0393909316845291905290205460ff1690565b60008381526004602052604081206060916104a5858561060a565b90506000806104b48388610887565b815191935091506104cb9085906020850190610d42565b506001848101919091556002909301805460ff191690931790925550949350505050565b60008281526020819052604090206001015461050a81610514565b6103d983836105a5565b61051e81336109c5565b50565b61052b8282610461565b61045d576000828152602081815260408083206001600160a01b03851684529091529020805460ff191660011790556105613390565b6001600160a01b0316816001600160a01b0316837f2f8788117e7eff1d82e926ec794901d17c78024a50270940304540a733656f0d60405160405180910390a45050565b6105af8282610461565b1561045d576000828152602081815260408083206001600160a01b0385168085529252808320805460ff1916905551339285917ff6391f5c32d9c69d2a47ea670b442974b53935d1edc7fd64eb21e047a839171b9190a45050565b60408051600a80825261016082019092526060916000918291602082016101408036833701905050905060005b600a8110156107e15760008181526002602052604081205482910361065c57506107e1565b6000818152600260205260409020600681015460ff1661067d5750506107cf565b600160005b88518110156107885760008061069786610a1e565b905060005b8151811015610762576000600160008484815181106106bd576106bd610ff9565b60200260200101516001600160a01b03166001600160a01b0316815260200190815260200160002090508c85815181106106f9576106f9610ff9565b6020026020010151600281111561071257610712610e1c565b8154600160a01b900460ff16600281111561072f5761072f610e1c565b1480156107405750600381015460ff165b1561074f576001935050610762565b508061075a81611025565b91505061069c565b508161077357600093505050610788565b5050808061078090611025565b915050610682565b5080801561079a575088826003015410155b156107cb57828587815181106107b2576107b2610ff9565b6020908102919091010152856107c781611025565b9650505b5050505b806107d981611025565b915050610637565b5060008267ffffffffffffffff8111156107fd576107fd610eb6565b604051908082528060200260200182016040528015610826578160200160208202803683370190505b50905060005b8381101561087d5782818151811061084657610846610ff9565b602002602001015182828151811061086057610860610ff9565b60209081029190910101528061087581611025565b91505061082c565b5095945050505050565b6060600083516000036108ac57505060408051600080825260208201909252906109be565b604080516001808252818301909252600091602080830190803683370190505090506000805b86518110156109b7576000600260008984815181106108f3576108f3610ff9565b6020026020010151815260200190815260200160002090506000606460288360030154610920919061103e565b61092a9190611055565b905060006064603c8460040154610941919061103e565b61094b9190611055565b905060006109598284611077565b9050858111156109a0578095508a858151811061097857610978610ff9565b60200260200101518760008151811061099357610993610ff9565b6020026020010181815250505b5050505080806109af90611025565b9150506108d2565b5090925090505b9250929050565b6109cf8282610461565b61045d576109dc81610b8d565b6109e7836020610b9f565b6040516020016109f89291906110ae565b60408051601f198184030181529082905262461bcd60e51b825261044a91600401611123565b60408051600a80825261016082019092526060916000918291602082016101408036833701905050905060005b6001600160a01b038181161015610adb5760008581526003602090815260408083206001600160a01b038516845290915290205460ff1615610ac95780828481518110610a9a57610a9a610ff9565b6001600160a01b039092166020928302919091019091015282610abc81611025565b935050600a831015610adb575b610ad4816001611156565b9050610a4b565b5060008267ffffffffffffffff811115610af757610af7610eb6565b604051908082528060200260200182016040528015610b20578160200160208202803683370190505b50905060005b83811015610b8457828181518110610b4057610b40610ff9565b6020026020010151828281518110610b5a57610b5a610ff9565b6001600160a01b039092166020928302919091019091015280610b7c81611025565b915050610b26565b50949350505050565b60606103ae6001600160a01b03831660145b60606000610bae83600261103e565b610bb9906002611077565b67ffffffffffffffff811115610bd157610bd1610eb6565b6040519080825280601f01601f191660200182016040528015610bfb576020820181803683370190505b509050600360fc1b81600081518110610c1657610c16610ff9565b60200101906001600160f81b031916908160001a905350600f60fb1b81600181518110610c4557610c45610ff9565b60200101906001600160f81b031916908160001a9053506000610c6984600261103e565b610c74906001611077565b90505b6001811115610cec576f181899199a1a9b1b9c1cb0b131b232b360811b85600f1660108110610ca857610ca8610ff9565b1a60f81b828281518110610cbe57610cbe610ff9565b60200101906001600160f81b031916908160001a90535060049490941c93610ce58161117d565b9050610c77565b508315610d3b5760405162461bcd60e51b815260206004820181905260248201527f537472696e67733a20686578206c656e67746820696e73756666696369656e74604482015260640161044a565b9392505050565b828054828255906000526020600020908101928215610d7d579160200282015b82811115610d7d578251825591602001919060010190610d62565b50610d89929150610d8d565b5090565b5b80821115610d895760008155600101610d8e565b600060208284031215610db457600080fd5b81356001600160e01b031981168114610d3b57600080fd5b600060208284031215610dde57600080fd5b5035919050565b80356001600160a01b0381168114610dfc57600080fd5b919050565b600060208284031215610e1357600080fd5b610d3b82610de5565b634e487b7160e01b600052602160045260246000fd5b6001600160a01b038716815260c0810160038710610e6057634e487b7160e01b600052602160045260246000fd5b6020820196909652604081019490945260608401929092521515608083015260a090910152919050565b60008060408385031215610e9d57600080fd5b82359150610ead60208401610de5565b90509250929050565b634e487b7160e01b600052604160045260246000fd5b803560038110610dfc57600080fd5b600080600060608486031215610ef057600080fd5b833592506020808501359250604085013567ffffffffffffffff80821115610f1757600080fd5b818701915087601f830112610f2b57600080fd5b813581811115610f3d57610f3d610eb6565b8060051b604051601f19603f83011681018181108582111715610f6257610f62610eb6565b60405291825284820192508381018501918a831115610f8057600080fd5b938501935b82851015610fa557610f9685610ecc565b84529385019392850192610f85565b8096505050505050509250925092565b6020808252825182820181905260009190848201906040850190845b81811015610fed57835183529284019291840191600101610fd1565b50909695505050505050565b634e487b7160e01b600052603260045260246000fd5b634e487b7160e01b600052601160045260246000fd5b6000600182016110375761103761100f565b5060010190565b80820281158282048414176103ae576103ae61100f565b60008261107257634e487b7160e01b600052601260045260246000fd5b500490565b808201808211156103ae576103ae61100f565b60005b838110156110a557818101518382015260200161108d565b50506000910152565b7f416363657373436f6e74726f6c3a206163636f756e74200000000000000000008152600083516110e681601785016020880161108a565b7001034b99036b4b9b9b4b733903937b6329607d1b601791840191820152835161111781602884016020880161108a565b01602801949350505050565b602081526000825180602084015261114281604085016020870161108a565b601f01601f19169190910160400192915050565b6001600160a01b038181168382160190808211156111765761117661100f565b5092915050565b60008161118c5761118c61100f565b50600019019056fea26469706673582212207a31f3b13f514bb709216971e559d9f066a773848bdef235b9d1af36a12b51de64736f6c63430008110033",
  "immutableReferences": {},
  "source": "// SPDX-License-Identifier: MIT\npragma solidity ^0.8.0;\n\nimport \"@openzeppelin/contracts/security/ReentrancyGuard.sol\";\nimport \"@openzeppelin/contracts/access/AccessControl.sol\";\n\n// NodeTypes library remains unchanged\nlibrary NodeTypes {\n    enum NodeRole {\n        DESIGNATOR,\n        VALIDATOR,\n        EXECUTOR\n    }\n\n    struct Node {\n        address nodeAddress;\n        NodeRole role;\n        uint256 capacity;\n        uint256 performance;\n        bool isActive;\n        bytes32 clusterId;\n    }\n\n    struct Cluster {\n        bytes32 id;\n        address leader;\n        uint256 formationTime;\n        uint256 nodeCount;\n        uint256 processedTxCount;\n        bytes32 sessionKey;\n        bool isActive;\n    }\n}\n\ncontract ClusterManager is AccessControl {\n    using NodeTypes for NodeTypes.Node;\n    using NodeTypes for NodeTypes.Cluster;\n\n    bytes32 public constant CLUSTER_ADMIN = keccak256(\"CLUSTER_ADMIN\");\n    \n    mapping(address => NodeTypes.Node) public nodes;\n    mapping(bytes32 => NodeTypes.Cluster) public clusters;\n    mapping(bytes32 => mapping(address => bool)) public clusterMembers;\n    \n    uint256 public constant MIN_CLUSTER_SIZE = 3;\n    uint256 public constant MAX_CLUSTER_SIZE = 10;\n    uint256 public constant VALIDATION_THRESHOLD = 70;\n    \n    event ClusterFormed(bytes32 indexed clusterId, address leader);\n    event NodeAssigned(address indexed node, bytes32 indexed clusterId);\n    event SessionKeyGenerated(bytes32 indexed clusterId, bytes32 sessionKey);\n    \n    constructor() {\n        _setupRole(DEFAULT_ADMIN_ROLE, msg.sender);\n    }\n    \n    function generateSessionKey(\n        bytes32 clusterId\n    ) internal returns (bytes32) {\n        NodeTypes.Cluster storage cluster = clusters[clusterId];\n        require(cluster.isActive, \"Cluster not active\");\n        \n        bytes32 randomValue = keccak256(abi.encodePacked(\n            block.timestamp,\n            block.number,\n            blockhash(block.number - 1), // Use blockhash as a source of randomness\n            clusterId,\n            msg.sender\n        ));\n        \n        cluster.sessionKey = randomValue;\n        emit SessionKeyGenerated(clusterId, randomValue);\n        \n        return randomValue;\n    } // Added closing brace here\n}\n\ncontract BeeRoutingAlgorithm is ClusterManager {\n    struct Route {\n        bytes32[] clusterPath;\n        uint256 pathScore;\n        bool isOptimal;\n    }\n    \n    mapping(bytes32 => Route) public routes;\n    \n    // Routing parameters\n    uint256 private constant CAPACITY_WEIGHT = 40;\n    uint256 private constant PERFORMANCE_WEIGHT = 60;\n    uint256 private constant SCORE_THRESHOLD = 75;\n    \n    function findOptimalRoute(\n        bytes32 txId,\n        uint256 txSize,\n        NodeTypes.NodeRole[] memory requiredRoles\n    ) public returns (bytes32[] memory) {\n        Route storage route = routes[txId];\n        \n        bytes32[] memory eligibleClusters = findEligibleClusters(\n            txSize,\n            requiredRoles\n        );\n        \n        (bytes32[] memory optimalPath, uint256 pathScore) = calculateOptimalPath(\n            eligibleClusters,\n            txSize\n        );\n        \n        route.clusterPath = optimalPath;\n        route.pathScore = pathScore;\n        route.isOptimal = true;\n        \n        return optimalPath;\n    }\n    \n   function findEligibleClusters(\n    uint256 txSize,\n    NodeTypes.NodeRole[] memory requiredRoles\n) internal view returns (bytes32[] memory) {\n    uint256 clusterCount = 0;\n    bytes32[] memory tempClusters = new bytes32[](10); // Temporary fixed size array\n    \n    // Iterate through clusters using a counter approach\n    for (uint256 i = 0; i < 10; i++) { // Assuming max 10 clusters, adjust as needed\n        bytes32 clusterId = bytes32(i); // Convert index to bytes32\n        \n        if (clusters[clusterId].id == 0) break; // Stop if cluster doesn't exist\n        \n        NodeTypes.Cluster storage cluster = clusters[clusterId];\n        if (!cluster.isActive) continue;\n        \n        // Check if cluster has required roles\n        bool hasAllRoles = true;\n        for (uint j = 0; j < requiredRoles.length; j++) {\n            bool roleFound = false;\n            \n            // Iterate through possible node addresses \n            // (you'll need to track these separately)\n            address[] memory clusterNodeAddresses = getClusterNodeAddresses(clusterId);\n            \n            for (uint k = 0; k < clusterNodeAddresses.length; k++) {\n                NodeTypes.Node storage node = nodes[clusterNodeAddresses[k]];\n                if (node.role == requiredRoles[j] && node.isActive) {\n                    roleFound = true;\n                    break;\n                }\n            }\n            \n            if (!roleFound) {\n                hasAllRoles = false;\n                break;\n            }\n        }\n        \n        // Check capacity\n        if (hasAllRoles && cluster.nodeCount >= txSize) {\n            tempClusters[clusterCount] = clusterId;\n            clusterCount++;\n        }\n    }\n    \n    // Create correctly sized array\n    bytes32[] memory eligibleClusters = new bytes32[](clusterCount);\n    for (uint256 k = 0; k < clusterCount; k++) {\n        eligibleClusters[k] = tempClusters[k];\n    }\n    \n    return eligibleClusters;\n}\n\n// Helper function to get node addresses for a cluster\nfunction getClusterNodeAddresses(bytes32 clusterId) internal view returns (address[] memory) {\n    uint256 nodeCount = 0;\n    address[] memory tempAddresses = new address[](10); // Assuming max 10 nodes per cluster\n    \n    for (address nodeAddr = address(0); nodeAddr < address(type(uint160).max); nodeAddr = address(uint160(nodeAddr) + 1)) {\n        if (clusterMembers[clusterId][nodeAddr]) {\n            tempAddresses[nodeCount] = nodeAddr;\n            nodeCount++;\n            \n            if (nodeCount >= 10) break; // Prevent potential infinite loop\n        }\n    }\n    \n    // Create correctly sized array\n    address[] memory clusterNodeAddresses = new address[](nodeCount);\n    for (uint256 i = 0; i < nodeCount; i++) {\n        clusterNodeAddresses[i] = tempAddresses[i];\n    }\n    \n    return clusterNodeAddresses;\n}\n    \nfunction calculateOptimalPath(\n    bytes32[] memory eligibleClusters,\n    uint256 /* txSize */\n) internal view returns (bytes32[] memory, uint256) {\n    if (eligibleClusters.length == 0) {\n        return (new bytes32[](0), 0);\n    }\n    \n    bytes32[] memory optimalPath = new bytes32[](1);\n    uint256 highestScore = 0;\n    \n    for (uint256 i = 0; i < eligibleClusters.length; i++) {\n        NodeTypes.Cluster storage cluster = clusters[eligibleClusters[i]];\n        \n        // Calculate weighted score based on node count and processed transactions\n        uint256 nodeCountScore = (cluster.nodeCount * CAPACITY_WEIGHT) / 100;\n        uint256 performanceScore = (cluster.processedTxCount * PERFORMANCE_WEIGHT) / 100;\n        uint256 totalScore = nodeCountScore + performanceScore;\n        \n        if (totalScore > highestScore) {\n            highestScore = totalScore;\n            optimalPath[0] = eligibleClusters[i];\n        }\n    }\n    \n    return (optimalPath, highestScore);\n}\n}\n/**\n * @title PasschainValidator\n * @dev Manages PoA validation process for transactions\n */\ncontract PasschainValidator is BeeRoutingAlgorithm, ReentrancyGuard {\n    struct ValidationProcess {\n        bytes32 txId;\n        bytes32 clusterId;\n        uint256 validationsRequired;\n        uint256 validationsReceived;\n        uint256 validationsPositive;\n        bool isComplete;\n        mapping(address => bool) hasValidated;\n    }\n    \n    mapping(bytes32 => ValidationProcess) public validationProcesses;\n    \n    event ValidationStarted(bytes32 indexed txId, bytes32 indexed clusterId);\n    event ValidationSubmitted(bytes32 indexed txId, address validator, bool result);\n    event ValidationComplete(bytes32 indexed txId, bool isValid);\n    \n    function initiateValidation(\n        bytes32 txId,\n        bytes memory txData\n    ) external nonReentrant {\n        require(!validationProcesses[txId].isComplete, \"Already validated\");\n        \n        // Find optimal cluster route\n        NodeTypes.NodeRole[] memory roles = new NodeTypes.NodeRole[](3);\n        roles[0] = NodeTypes.NodeRole.DESIGNATOR;\n        roles[1] = NodeTypes.NodeRole.VALIDATOR;\n        roles[2] = NodeTypes.NodeRole.EXECUTOR;\n        \n        bytes32[] memory routePath = this.findOptimalRoute(\n            txId,\n            txData.length,\n            roles\n        );\n        require(routePath.length > 0, \"No valid route found\");\n        \n        // Setup validation process\n        ValidationProcess storage process = validationProcesses[txId];\n        process.txId = txId;\n        process.clusterId = routePath[0];\n        process.validationsRequired = calculateRequiredValidations(routePath[0]);\n        \n        emit ValidationStarted(txId, routePath[0]);\n    }\n    \n    function submitValidation(\n        bytes32 txId,\n        bool isValid\n    ) external nonReentrant {\n        ValidationProcess storage process = validationProcesses[txId];\n        require(!process.isComplete, \"Validation complete\");\n        require(!process.hasValidated[msg.sender], \"Already validated\");\n        require(\n            clusterMembers[process.clusterId][msg.sender],\n            \"Not cluster member\"\n        );\n        \n        process.hasValidated[msg.sender] = true;\n        process.validationsReceived++;\n        if (isValid) {\n            process.validationsPositive++;\n        }\n        \n        emit ValidationSubmitted(txId, msg.sender, isValid);\n        \n        // Check if validation is complete\n        if (process.validationsReceived >= process.validationsRequired) {\n            bool validationResult = (\n                process.validationsPositive * 100 / process.validationsReceived\n            ) >= VALIDATION_THRESHOLD;\n            \n            process.isComplete = true;\n            emit ValidationComplete(txId, validationResult);\n        }\n    }\n    \n    function calculateRequiredValidations(\n        bytes32 clusterId\n    ) internal view returns (uint256) {\n        NodeTypes.Cluster storage cluster = clusters[clusterId];\n        return (cluster.nodeCount * 2) / 3; // Require 2/3 majority\n    }\n}\n\n/**\n * @title ClusterCommunication\n * @dev Handles secure communication within and between clusters\n */\ncontract ClusterCommunication is PasschainValidator {\n    struct SecureMessage {\n        bytes32 messageId;\n        bytes encryptedContent;\n        bytes mac;\n        address sender;\n        address recipient;\n        uint256 timestamp;\n    }\n    \n    mapping(bytes32 => SecureMessage) public messages;\n    \n    event MessageSent(bytes32 indexed messageId, address indexed recipient);\n    \n    function sendClusterMessage(\n        bytes32 clusterId,\n        address recipient,\n        bytes memory content\n    ) external nonReentrant {\n        require(\n            clusterMembers[clusterId][msg.sender],\n            \"Not in cluster\"\n        );\n        \n        bytes32 messageId = keccak256(abi.encodePacked(\n            clusterId,\n            msg.sender,\n            recipient,\n            block.timestamp\n        ));\n        \n        // AES-GCM encryption would be implemented here\n        bytes memory encrypted = content; // Placeholder\n        \n        // HMAC generation\n        bytes memory mac = abi.encodePacked(\n            keccak256(abi.encodePacked(content, clusters[clusterId].sessionKey))\n        );\n        \n        messages[messageId] = SecureMessage({\n            messageId: messageId,\n            encryptedContent: encrypted,\n            mac: mac,\n            sender: msg.sender,\n            recipient: recipient,\n            timestamp: block.timestamp\n        });\n        \n        emit MessageSent(messageId, recipient);\n    }\n}",
  "sourcePath": "C:\\Users\\Bonsu\\Documents\\crosschainproject\\contracts\\passchain\\ClusterManager.sol",
  "compiler": {
    "name": "solc",
    "version": "0.8.17+commit.8df45f5f.Emscripten.clang"
  },
  "schemaVersion": "3.4.16",
  "updatedAt": "2025-02-07T14:38:19.811Z",
  "devdoc": {
    "kind": "dev",
    "methods": {
      "getRoleAdmin(bytes32)": {
        "details": "Returns the admin role that controls `role`. See {grantRole} and {revokeRole}. To change a role's admin, use {_setRoleAdmin}."
      },
      "grantRole(bytes32,address)": {
        "details": "Grants `role` to `account`. If `account` had not been already granted `role`, emits a {RoleGranted} event. Requirements: - the caller must have ``role``'s admin role. May emit a {RoleGranted} event."
      },
      "hasRole(bytes32,address)": {
        "details": "Returns `true` if `account` has been granted `role`."
      },
      "renounceRole(bytes32,address)": {
        "details": "Revokes `role` from the calling account. Roles are often managed via {grantRole} and {revokeRole}: this function's purpose is to provide a mechanism for accounts to lose their privileges if they are compromised (such as when a trusted device is misplaced). If the calling account had been revoked `role`, emits a {RoleRevoked} event. Requirements: - the caller must be `account`. May emit a {RoleRevoked} event."
      },
      "revokeRole(bytes32,address)": {
        "details": "Revokes `role` from `account`. If `account` had been granted `role`, emits a {RoleRevoked} event. Requirements: - the caller must have ``role``'s admin role. May emit a {RoleRevoked} event."
      },
      "supportsInterface(bytes4)": {
        "details": "See {IERC165-supportsInterface}."
      }
    },
    "version": 1
  },
  "userdoc": {
    "kind": "user",
    "methods": {},
    "version": 1
  }
}