{
  "contractName": "BlockchainMonitor",
  "abi": [
    {
      "anonymous": false,
      "inputs": [
        {
          "indexed": true,
          "internalType": "string",
          "name": "blockchainID",
          "type": "string"
        },
        {
          "indexed": false,
          "internalType": "uint256",
          "name": "timestamp",
          "type": "uint256"
        }
      ],
      "name": "BlockchainDeactivated",
      "type": "event"
    },
    {
      "anonymous": false,
      "inputs": [
        {
          "indexed": true,
          "internalType": "string",
          "name": "blockchainID",
          "type": "string"
        },
        {
          "indexed": false,
          "internalType": "uint256",
          "name": "timestamp",
          "type": "uint256"
        }
      ],
      "name": "BlockchainRegistered",
      "type": "event"
    },
    {
      "anonymous": false,
      "inputs": [
        {
          "indexed": true,
          "internalType": "string",
          "name": "blockchainID",
          "type": "string"
        },
        {
          "indexed": false,
          "internalType": "bool",
          "name": "connected",
          "type": "bool"
        },
        {
          "indexed": false,
          "internalType": "uint256",
          "name": "quality",
          "type": "uint256"
        }
      ],
      "name": "ConnectionStatusUpdated",
      "type": "event"
    },
    {
      "anonymous": false,
      "inputs": [
        {
          "indexed": true,
          "internalType": "address",
          "name": "previousOwner",
          "type": "address"
        },
        {
          "indexed": true,
          "internalType": "address",
          "name": "newOwner",
          "type": "address"
        }
      ],
      "name": "OwnershipTransferred",
      "type": "event"
    },
    {
      "anonymous": false,
      "inputs": [
        {
          "indexed": false,
          "internalType": "address",
          "name": "account",
          "type": "address"
        }
      ],
      "name": "Paused",
      "type": "event"
    },
    {
      "anonymous": false,
      "inputs": [
        {
          "indexed": true,
          "internalType": "string",
          "name": "blockchainID",
          "type": "string"
        },
        {
          "indexed": false,
          "internalType": "bytes32",
          "name": "requirement",
          "type": "bytes32"
        },
        {
          "indexed": false,
          "internalType": "bool",
          "name": "met",
          "type": "bool"
        }
      ],
      "name": "RequirementUpdated",
      "type": "event"
    },
    {
      "anonymous": false,
      "inputs": [
        {
          "indexed": true,
          "internalType": "string",
          "name": "blockchainID",
          "type": "string"
        },
        {
          "indexed": false,
          "internalType": "string",
          "name": "alertType",
          "type": "string"
        },
        {
          "indexed": false,
          "internalType": "uint256",
          "name": "timestamp",
          "type": "uint256"
        }
      ],
      "name": "SecurityAlertRaised",
      "type": "event"
    },
    {
      "anonymous": false,
      "inputs": [
        {
          "indexed": true,
          "internalType": "string",
          "name": "blockchainID",
          "type": "string"
        },
        {
          "indexed": false,
          "internalType": "uint256",
          "name": "score",
          "type": "uint256"
        }
      ],
      "name": "SecurityScoreUpdated",
      "type": "event"
    },
    {
      "anonymous": false,
      "inputs": [
        {
          "indexed": false,
          "internalType": "address",
          "name": "account",
          "type": "address"
        }
      ],
      "name": "Unpaused",
      "type": "event"
    },
    {
      "inputs": [
        {
          "internalType": "uint256",
          "name": "",
          "type": "uint256"
        }
      ],
      "name": "allBlockchainIDs",
      "outputs": [
        {
          "internalType": "string",
          "name": "",
          "type": "string"
        }
      ],
      "stateMutability": "view",
      "type": "function",
      "constant": true
    },
    {
      "inputs": [
        {
          "internalType": "string",
          "name": "",
          "type": "string"
        }
      ],
      "name": "blockchainMonitoring",
      "outputs": [
        {
          "internalType": "uint256",
          "name": "lastCheckTimestamp",
          "type": "uint256"
        },
        {
          "internalType": "uint256",
          "name": "connectionQuality",
          "type": "uint256"
        },
        {
          "internalType": "uint256",
          "name": "securityScore",
          "type": "uint256"
        },
        {
          "internalType": "bool",
          "name": "isConnected",
          "type": "bool"
        }
      ],
      "stateMutability": "view",
      "type": "function",
      "constant": true
    },
    {
      "inputs": [
        {
          "internalType": "string",
          "name": "_blockchainID",
          "type": "string"
        }
      ],
      "name": "deactivateBlockchain",
      "outputs": [],
      "stateMutability": "nonpayable",
      "type": "function"
    },
    {
      "inputs": [],
      "name": "owner",
      "outputs": [
        {
          "internalType": "address",
          "name": "",
          "type": "address"
        }
      ],
      "stateMutability": "view",
      "type": "function",
      "constant": true
    },
    {
      "inputs": [],
      "name": "paused",
      "outputs": [
        {
          "internalType": "bool",
          "name": "",
          "type": "bool"
        }
      ],
      "stateMutability": "view",
      "type": "function",
      "constant": true
    },
    {
      "inputs": [
        {
          "internalType": "string",
          "name": "_blockchainID",
          "type": "string"
        },
        {
          "internalType": "string",
          "name": "_dataStructure",
          "type": "string"
        },
        {
          "internalType": "string",
          "name": "_programmingLanguage",
          "type": "string"
        },
        {
          "internalType": "string",
          "name": "_networkProtocol",
          "type": "string"
        }
      ],
      "name": "registerBlockchain",
      "outputs": [],
      "stateMutability": "nonpayable",
      "type": "function"
    },
    {
      "inputs": [
        {
          "internalType": "string",
          "name": "",
          "type": "string"
        }
      ],
      "name": "registeredBlockchains",
      "outputs": [
        {
          "internalType": "string",
          "name": "blockchainID",
          "type": "string"
        },
        {
          "internalType": "string",
          "name": "dataStructure",
          "type": "string"
        },
        {
          "internalType": "string",
          "name": "programmingLanguage",
          "type": "string"
        },
        {
          "internalType": "string",
          "name": "networkProtocol",
          "type": "string"
        },
        {
          "internalType": "uint256",
          "name": "currentState",
          "type": "uint256"
        },
        {
          "internalType": "uint256",
          "name": "registrationTime",
          "type": "uint256"
        },
        {
          "internalType": "bool",
          "name": "isActive",
          "type": "bool"
        }
      ],
      "stateMutability": "view",
      "type": "function",
      "constant": true
    },
    {
      "inputs": [
        {
          "internalType": "uint256",
          "name": "",
          "type": "uint256"
        }
      ],
      "name": "registrationRequirements",
      "outputs": [
        {
          "internalType": "bytes32",
          "name": "",
          "type": "bytes32"
        }
      ],
      "stateMutability": "view",
      "type": "function",
      "constant": true
    },
    {
      "inputs": [],
      "name": "renounceOwnership",
      "outputs": [],
      "stateMutability": "nonpayable",
      "type": "function"
    },
    {
      "inputs": [
        {
          "internalType": "address",
          "name": "newOwner",
          "type": "address"
        }
      ],
      "name": "transferOwnership",
      "outputs": [],
      "stateMutability": "nonpayable",
      "type": "function"
    },
    {
      "inputs": [
        {
          "internalType": "string",
          "name": "_blockchainID",
          "type": "string"
        },
        {
          "internalType": "bytes32",
          "name": "_requirement",
          "type": "bytes32"
        },
        {
          "internalType": "bool",
          "name": "_met",
          "type": "bool"
        }
      ],
      "name": "updateRequirementStatus",
      "outputs": [],
      "stateMutability": "nonpayable",
      "type": "function"
    },
    {
      "inputs": [
        {
          "internalType": "string",
          "name": "_blockchainID",
          "type": "string"
        },
        {
          "internalType": "bool",
          "name": "_isConnected",
          "type": "bool"
        },
        {
          "internalType": "uint256",
          "name": "_connectionQuality",
          "type": "uint256"
        },
        {
          "internalType": "uint256",
          "name": "_securityScore",
          "type": "uint256"
        }
      ],
      "name": "updateMonitoringInfo",
      "outputs": [],
      "stateMutability": "nonpayable",
      "type": "function"
    },
    {
      "inputs": [
        {
          "internalType": "string",
          "name": "_blockchainID",
          "type": "string"
        }
      ],
      "name": "getMonitoringInfo",
      "outputs": [
        {
          "internalType": "uint256",
          "name": "lastCheck",
          "type": "uint256"
        },
        {
          "internalType": "bool",
          "name": "connected",
          "type": "bool"
        },
        {
          "internalType": "uint256",
          "name": "connectionQuality",
          "type": "uint256"
        },
        {
          "internalType": "uint256",
          "name": "securityScore",
          "type": "uint256"
        }
      ],
      "stateMutability": "view",
      "type": "function",
      "constant": true
    }
  ],
  "bytecode": "0x608060405234801561001057600080fd5b5061001a336100df565b6003805460ff60a01b191690556001600481905560028054808301825560008290527f528df42986b9a769889b14dfe3e72b1122ae9654c0bad54ff789b588ced831007f405787fa12a823e0f2b7631cc41b3ba8828b3321ca811111fa75cd3aa3bb5ace91820155815480840183557f22686843848346ccd56af0a07244c85039147de4f51293187579f736ddaa8c969082015581549283019091557f1a266a7e5fe931dca671b98b043b87f483fe5a44e2f4528836cb2f152c9ba9c9910155610131565b600380546001600160a01b038381166001600160a01b0319831681179093556040519116919082907f8be0079c531659141344cd1fd0a4f28419497f9722a3daafe3b4186f6b6457e090600090a35050565b61131a806101406000396000f3fe608060405234801561001057600080fd5b50600436106100cf5760003560e01c806355621b161161008c578063715018a611610066578063715018a6146102305780637729a094146102385780638da5cb5b1461024b578063f2fde38b1461026657600080fd5b806355621b161461018e5780635c975abb146101f35780635d6cf7681461021057600080fd5b80630c80de39146100d457806320736b8b146100e95780632ae741be146100fc578063361a750f1461012257806338cf37f0146101355780634e8fa1321461015b575b600080fd5b6100e76100e2366004610eb1565b610279565b005b6100e76100f7366004610f5e565b610445565b61010f61010a366004610f9b565b610534565b6040519081526020015b60405180910390f35b6100e7610130366004610fc9565b610555565b610148610143366004610f5e565b610661565b6040516101199796959493929190611070565b61016e610169366004610f5e565b6108cb565b604080519485529215156020850152918301526060820152608001610119565b6101d161019c366004610f5e565b805160208183018101805160058252928201919093012091528054600182015460028301546003909301549192909160ff1684565b6040805194855260208501939093529183015215156060820152608001610119565b600354600160a01b900460ff166040519015158152602001610119565b61022361021e366004610f9b565b610919565b60405161011991906110df565b6100e76109c5565b6100e76102463660046110f9565b6109d9565b6003546040516001600160a01b039091168152602001610119565b6100e7610274366004611156565b610c43565b610281610cbc565b610289610d09565b60008451116102d75760405162461bcd60e51b8152602060048201526015602482015274125b9d985b1a5908189b1bd8dad8da185a5b881251605a1b60448201526064015b60405180910390fd5b6000846040516102e7919061117f565b9081526040519081900360200190206006015460ff161561033f5760405162461bcd60e51b8152602060048201526012602482015271105b1c9958591e481c9959da5cdd195c995960721b60448201526064016102ce565b60008085604051610350919061117f565b90815260405190819003602001902090508061036c8682611224565b506001810161037b8582611224565b506002810161038a8482611224565b50600381016103998382611224565b5042600582015560068101805460ff19166001908117909155805480820182556000919091527fb10e2d527612073b26eecdfd717e6a320cf44b4afac2b0732d9fcbe2b7fa0cf6016103eb8682611224565b50846040516103fa919061117f565b604051908190038120428252907fcf2b19499ec1b1490335489ea94fd56b1748d902e7af2ae536a125d545b9ed889060200160405180910390a25061043f6001600455565b50505050565b61044d610d62565b60008160405161045d919061117f565b9081526040519081900360200190206006015460ff166104b75760405162461bcd60e51b8152602060048201526015602482015274426c6f636b636861696e206e6f742061637469766560581b60448201526064016102ce565b600080826040516104c8919061117f565b908152604051908190036020018120600601805492151560ff19909316929092179091556104f790829061117f565b604051908190038120428252907f0f82cb17ee5a2e0b92e9b76e8f3f6ec5925ba87a3a826eeae2c967997f1c56289060200160405180910390a250565b6002818154811061054457600080fd5b600091825260209091200154905081565b61055d610d62565b60008360405161056d919061117f565b9081526040519081900360200190206006015460ff166105cf5760405162461bcd60e51b815260206004820152601960248201527f426c6f636b636861696e206e6f7420726567697374657265640000000000000060448201526064016102ce565b806000846040516105e0919061117f565b9081526040805160209281900383018120600087815260079091019093529120805460ff19169215159290921790915561061b90849061117f565b604080519182900382208483528315156020840152917f6660be2e51b659448a4bcad38122afaea200f6104ce7c624b9043de4189318e3910160405180910390a2505050565b80516020818301810180516000825292820191909301209152805481906106879061119b565b80601f01602080910402602001604051908101604052809291908181526020018280546106b39061119b565b80156107005780601f106106d557610100808354040283529160200191610700565b820191906000526020600020905b8154815290600101906020018083116106e357829003601f168201915b5050505050908060010180546107159061119b565b80601f01602080910402602001604051908101604052809291908181526020018280546107419061119b565b801561078e5780601f106107635761010080835404028352916020019161078e565b820191906000526020600020905b81548152906001019060200180831161077157829003601f168201915b5050505050908060020180546107a39061119b565b80601f01602080910402602001604051908101604052809291908181526020018280546107cf9061119b565b801561081c5780601f106107f15761010080835404028352916020019161081c565b820191906000526020600020905b8154815290600101906020018083116107ff57829003601f168201915b5050505050908060030180546108319061119b565b80601f016020809104026020016040519081016040528092919081815260200182805461085d9061119b565b80156108aa5780601f1061087f576101008083540402835291602001916108aa565b820191906000526020600020905b81548152906001019060200180831161088d57829003601f168201915b50505050600483015460058401546006909401549293909290915060ff1687565b60008060008060006005866040516108e3919061117f565b90815260405190819003602001902080546003820154600183015460029093015491975060ff1695509093509150509193509193565b6001818154811061092957600080fd5b9060005260206000200160009150905080546109449061119b565b80601f01602080910402602001604051908101604052809291908181526020018280546109709061119b565b80156109bd5780601f10610992576101008083540402835291602001916109bd565b820191906000526020600020905b8154815290600101906020018083116109a057829003601f168201915b505050505081565b6109cd610d62565b6109d76000610dbc565b565b6109e1610d62565b6000846040516109f1919061117f565b9081526040519081900360200190206006015460ff16610a4b5760405162461bcd60e51b8152602060048201526015602482015274426c6f636b636861696e206e6f742061637469766560581b60448201526064016102ce565b6064821115610a9c5760405162461bcd60e51b815260206004820152601a60248201527f496e76616c696420636f6e6e656374696f6e207175616c69747900000000000060448201526064016102ce565b6064811115610ae65760405162461bcd60e51b8152602060048201526016602482015275496e76616c69642073656375726974792073636f726560501b60448201526064016102ce565b6000600585604051610af8919061117f565b90815260405190819003602001812042815560038101805487151560ff1990911617905560018101859055600281018490559150610b3790869061117f565b60408051918290038220861515835260208301869052917ff726972199627b6056dcab72ef8b2f320311264d879019993a4440d192d6a8b8910160405180910390a284604051610b87919061117f565b604051908190038120838252907ffada41a5520aedeeb88f7781715f7fc2ac197a2a27f61d5407814aba506659e09060200160405180910390a26032821015610c3c5784604051610bd8919061117f565b60408051918290038220818352601283830152714c4f575f53454355524954595f53434f524560701b6060840152426020840152905190917fbe4decedefe6703e2a595c5fed8cba562f01851353b26cbee98f7bc83531c05c919081900360800190a25b5050505050565b610c4b610d62565b6001600160a01b038116610cb05760405162461bcd60e51b815260206004820152602660248201527f4f776e61626c653a206e6577206f776e657220697320746865207a65726f206160448201526564647265737360d01b60648201526084016102ce565b610cb981610dbc565b50565b600354600160a01b900460ff16156109d75760405162461bcd60e51b815260206004820152601060248201526f14185d5cd8589b194e881c185d5cd95960821b60448201526064016102ce565b600260045403610d5b5760405162461bcd60e51b815260206004820152601f60248201527f5265656e7472616e637947756172643a207265656e7472616e742063616c6c0060448201526064016102ce565b6002600455565b6003546001600160a01b031633146109d75760405162461bcd60e51b815260206004820181905260248201527f4f776e61626c653a2063616c6c6572206973206e6f7420746865206f776e657260448201526064016102ce565b600380546001600160a01b038381166001600160a01b0319831681179093556040519116919082907f8be0079c531659141344cd1fd0a4f28419497f9722a3daafe3b4186f6b6457e090600090a35050565b634e487b7160e01b600052604160045260246000fd5b600082601f830112610e3557600080fd5b813567ffffffffffffffff80821115610e5057610e50610e0e565b604051601f8301601f19908116603f01168101908282118183101715610e7857610e78610e0e565b81604052838152866020858801011115610e9157600080fd5b836020870160208301376000602085830101528094505050505092915050565b60008060008060808587031215610ec757600080fd5b843567ffffffffffffffff80821115610edf57600080fd5b610eeb88838901610e24565b95506020870135915080821115610f0157600080fd5b610f0d88838901610e24565b94506040870135915080821115610f2357600080fd5b610f2f88838901610e24565b93506060870135915080821115610f4557600080fd5b50610f5287828801610e24565b91505092959194509250565b600060208284031215610f7057600080fd5b813567ffffffffffffffff811115610f8757600080fd5b610f9384828501610e24565b949350505050565b600060208284031215610fad57600080fd5b5035919050565b80358015158114610fc457600080fd5b919050565b600080600060608486031215610fde57600080fd5b833567ffffffffffffffff811115610ff557600080fd5b61100186828701610e24565b9350506020840135915061101760408501610fb4565b90509250925092565b60005b8381101561103b578181015183820152602001611023565b50506000910152565b6000815180845261105c816020860160208601611020565b601f01601f19169290920160200192915050565b60e08152600061108360e083018a611044565b8281036020840152611095818a611044565b905082810360408401526110a98189611044565b905082810360608401526110bd8188611044565b6080840196909652505060a0810192909252151560c090910152949350505050565b6020815260006110f26020830184611044565b9392505050565b6000806000806080858703121561110f57600080fd5b843567ffffffffffffffff81111561112657600080fd5b61113287828801610e24565b94505061114160208601610fb4565b93969395505050506040820135916060013590565b60006020828403121561116857600080fd5b81356001600160a01b03811681146110f257600080fd5b60008251611191818460208701611020565b9190910192915050565b600181811c908216806111af57607f821691505b6020821081036111cf57634e487b7160e01b600052602260045260246000fd5b50919050565b601f82111561121f57600081815260208120601f850160051c810160208610156111fc5750805b601f850160051c820191505b8181101561121b57828155600101611208565b5050505b505050565b815167ffffffffffffffff81111561123e5761123e610e0e565b6112528161124c845461119b565b846111d5565b602080601f831160018114611287576000841561126f5750858301515b600019600386901b1c1916600185901b17855561121b565b600085815260208120601f198616915b828110156112b657888601518255948401946001909101908401611297565b50858210156112d45787850151600019600388901b60f8161c191681555b5050505050600190811b0190555056fea2646970667358221220038316ee024e0d3b73b243f909e19135bcfde6eee87993d090d1982e42a00d1f64736f6c63430008110033",
  "immutableReferences": {},
  "source": "// SPDX-License-Identifier: MIT\npragma solidity ^0.8.0;\n\nimport \"@openzeppelin/contracts/access/Ownable.sol\";\nimport \"@openzeppelin/contracts/security/Pausable.sol\";\nimport \"@openzeppelin/contracts/security/ReentrancyGuard.sol\";\n\n/**\n * @title BlockchainRegistryBase\n * @dev Base contract containing shared data structures and events\n */\ncontract BlockchainRegistryBase {\n    struct BlockchainInfo {\n        string blockchainID;          // Unique identifier for the blockchain\n        string dataStructure;         // Data structure format\n        string programmingLanguage;   // Primary programming language\n        string networkProtocol;       // Network protocol format\n        uint256 currentState;         // Current state of the blockchain\n        uint256 registrationTime;     // When the blockchain was registered\n        bool isActive;                // Whether the blockchain is currently active\n        mapping(bytes32 => bool) metRequirements;  // Track which requirements are met\n    }\n\n    // Events\n    event BlockchainRegistered(string indexed blockchainID, uint256 timestamp);\n    event BlockchainDeactivated(string indexed blockchainID, uint256 timestamp);\n    event RequirementUpdated(string indexed blockchainID, bytes32 requirement, bool met);\n    event SecurityAlertRaised(string indexed blockchainID, string alertType, uint256 timestamp);\n    \n    // Mapping from blockchain ID to its information\n    mapping(string => BlockchainInfo) public registeredBlockchains;\n    \n    // Array to keep track of all registered blockchain IDs\n    string[] public allBlockchainIDs;\n    \n    // Required characteristics for registration\n    bytes32[] public registrationRequirements;\n}\n\n/**\n * @title BlockchainRegistry\n * @dev Handles the registration of blockchains in the PAYS system\n */\ncontract BlockchainRegistry is BlockchainRegistryBase, Ownable, Pausable, ReentrancyGuard {\n    constructor() {\n        // Initialize default registration requirements\n        registrationRequirements.push(keccak256(\"VALID_CONSENSUS\"));\n        registrationRequirements.push(keccak256(\"SECURE_PROTOCOL\"));\n        registrationRequirements.push(keccak256(\"HEADER_VERIFICATION\"));\n    }\n\n    /**\n     * @dev Register a new blockchain with the system\n     */\n    function registerBlockchain(\n        string memory _blockchainID,\n        string memory _dataStructure,\n        string memory _programmingLanguage,\n        string memory _networkProtocol\n    ) external whenNotPaused nonReentrant {\n        require(bytes(_blockchainID).length > 0, \"Invalid blockchain ID\");\n        require(!registeredBlockchains[_blockchainID].isActive, \"Already registered\");\n\n        BlockchainInfo storage newChain = registeredBlockchains[_blockchainID];\n        newChain.blockchainID = _blockchainID;\n        newChain.dataStructure = _dataStructure;\n        newChain.programmingLanguage = _programmingLanguage;\n        newChain.networkProtocol = _networkProtocol;\n        newChain.registrationTime = block.timestamp;\n        newChain.isActive = true;\n        \n        allBlockchainIDs.push(_blockchainID);\n        \n        emit BlockchainRegistered(_blockchainID, block.timestamp);\n    }\n\n    /**\n     * @dev Update requirement status for a blockchain\n     */\n    function updateRequirementStatus(\n        string memory _blockchainID,\n        bytes32 _requirement,\n        bool _met\n    ) external onlyOwner {\n        require(registeredBlockchains[_blockchainID].isActive, \"Blockchain not registered\");\n        \n        registeredBlockchains[_blockchainID].metRequirements[_requirement] = _met;\n        emit RequirementUpdated(_blockchainID, _requirement, _met);\n    }\n\n    /**\n     * @dev Deactivate a blockchain registration\n     */\n    function deactivateBlockchain(string memory _blockchainID) external onlyOwner {\n        require(registeredBlockchains[_blockchainID].isActive, \"Blockchain not active\");\n        \n        registeredBlockchains[_blockchainID].isActive = false;\n        emit BlockchainDeactivated(_blockchainID, block.timestamp);\n    }\n}\n\n/**\n * @title BlockchainMonitor\n * @dev Monitors registered blockchains for security and connectivity\n */\ncontract BlockchainMonitor is BlockchainRegistry {\n    struct MonitoringInfo {\n        uint256 lastCheckTimestamp;\n        uint256 connectionQuality;    // 0-100 scale\n        uint256 securityScore;        // 0-100 scale\n        bool isConnected;\n    }\n\n    mapping(string => MonitoringInfo) public blockchainMonitoring;\n\n    event ConnectionStatusUpdated(string indexed blockchainID, bool connected, uint256 quality);\n    event SecurityScoreUpdated(string indexed blockchainID, uint256 score);\n\n    /**\n     * @dev Update monitoring information for a blockchain\n     */\n    function updateMonitoringInfo(\n        string memory _blockchainID,\n        bool _isConnected,\n        uint256 _connectionQuality,\n        uint256 _securityScore\n    ) external onlyOwner {\n        require(registeredBlockchains[_blockchainID].isActive, \"Blockchain not active\");\n        require(_connectionQuality <= 100, \"Invalid connection quality\");\n        require(_securityScore <= 100, \"Invalid security score\");\n\n        MonitoringInfo storage info = blockchainMonitoring[_blockchainID];\n        info.lastCheckTimestamp = block.timestamp;\n        info.isConnected = _isConnected;\n        info.connectionQuality = _connectionQuality;\n        info.securityScore = _securityScore;\n\n        emit ConnectionStatusUpdated(_blockchainID, _isConnected, _connectionQuality);\n        emit SecurityScoreUpdated(_blockchainID, _securityScore);\n\n        // Raise security alert if score is too low\n        if (_securityScore < 50) {\n            emit SecurityAlertRaised(_blockchainID, \"LOW_SECURITY_SCORE\", block.timestamp);\n        }\n    }\n\n    /**\n     * @dev Get monitoring information for a blockchain\n     */\n    function getMonitoringInfo(string memory _blockchainID) \n        external \n        view \n        returns (\n            uint256 lastCheck,\n            bool connected,\n            uint256 connectionQuality,\n            uint256 securityScore\n        )\n    {\n        MonitoringInfo storage info = blockchainMonitoring[_blockchainID];\n        return (\n            info.lastCheckTimestamp,\n            info.isConnected,\n            info.connectionQuality,\n            info.securityScore\n        );\n    }\n}",
  "sourcePath": "C:\\Users\\Bonsu\\Documents\\crosschainproject\\contracts\\blockchain\\BlockchainRegistryBase.sol",
  "compiler": {
    "name": "solc",
    "version": "0.8.17+commit.8df45f5f.Emscripten.clang"
  },
  "schemaVersion": "3.4.16",
  "updatedAt": "2025-02-07T14:38:21.486Z",
  "networkType": "ethereum",
  "devdoc": {
    "details": "Monitors registered blockchains for security and connectivity",
    "kind": "dev",
    "methods": {
      "deactivateBlockchain(string)": {
        "details": "Deactivate a blockchain registration"
      },
      "getMonitoringInfo(string)": {
        "details": "Get monitoring information for a blockchain"
      },
      "owner()": {
        "details": "Returns the address of the current owner."
      },
      "paused()": {
        "details": "Returns true if the contract is paused, and false otherwise."
      },
      "registerBlockchain(string,string,string,string)": {
        "details": "Register a new blockchain with the system"
      },
      "renounceOwnership()": {
        "details": "Leaves the contract without owner. It will not be possible to call `onlyOwner` functions. Can only be called by the current owner. NOTE: Renouncing ownership will leave the contract without an owner, thereby disabling any functionality that is only available to the owner."
      },
      "transferOwnership(address)": {
        "details": "Transfers ownership of the contract to a new account (`newOwner`). Can only be called by the current owner."
      },
      "updateMonitoringInfo(string,bool,uint256,uint256)": {
        "details": "Update monitoring information for a blockchain"
      },
      "updateRequirementStatus(string,bytes32,bool)": {
        "details": "Update requirement status for a blockchain"
      }
    },
    "title": "BlockchainMonitor",
    "version": 1
  },
  "userdoc": {
    "kind": "user",
    "methods": {},
    "version": 1
  }
}