{
  "contractName": "BlockchainRegistry",
  "abi": [
    {
      "inputs": [],
      "stateMutability": "nonpayable",
      "type": "constructor"
    },
    {
      "anonymous": false,
      "inputs": [
        {
          "indexed": true,
          "internalType": "string",
          "name": "blockchainID",
          "type": "string"
        },
        {
          "indexed": false,
          "internalType": "uint256",
          "name": "timestamp",
          "type": "uint256"
        }
      ],
      "name": "BlockchainDeactivated",
      "type": "event"
    },
    {
      "anonymous": false,
      "inputs": [
        {
          "indexed": true,
          "internalType": "string",
          "name": "blockchainID",
          "type": "string"
        },
        {
          "indexed": false,
          "internalType": "uint256",
          "name": "timestamp",
          "type": "uint256"
        }
      ],
      "name": "BlockchainRegistered",
      "type": "event"
    },
    {
      "anonymous": false,
      "inputs": [
        {
          "indexed": true,
          "internalType": "address",
          "name": "previousOwner",
          "type": "address"
        },
        {
          "indexed": true,
          "internalType": "address",
          "name": "newOwner",
          "type": "address"
        }
      ],
      "name": "OwnershipTransferred",
      "type": "event"
    },
    {
      "anonymous": false,
      "inputs": [
        {
          "indexed": false,
          "internalType": "address",
          "name": "account",
          "type": "address"
        }
      ],
      "name": "Paused",
      "type": "event"
    },
    {
      "anonymous": false,
      "inputs": [
        {
          "indexed": true,
          "internalType": "string",
          "name": "blockchainID",
          "type": "string"
        },
        {
          "indexed": false,
          "internalType": "bytes32",
          "name": "requirement",
          "type": "bytes32"
        },
        {
          "indexed": false,
          "internalType": "bool",
          "name": "met",
          "type": "bool"
        }
      ],
      "name": "RequirementUpdated",
      "type": "event"
    },
    {
      "anonymous": false,
      "inputs": [
        {
          "indexed": true,
          "internalType": "string",
          "name": "blockchainID",
          "type": "string"
        },
        {
          "indexed": false,
          "internalType": "string",
          "name": "alertType",
          "type": "string"
        },
        {
          "indexed": false,
          "internalType": "uint256",
          "name": "timestamp",
          "type": "uint256"
        }
      ],
      "name": "SecurityAlertRaised",
      "type": "event"
    },
    {
      "anonymous": false,
      "inputs": [
        {
          "indexed": false,
          "internalType": "address",
          "name": "account",
          "type": "address"
        }
      ],
      "name": "Unpaused",
      "type": "event"
    },
    {
      "inputs": [
        {
          "internalType": "uint256",
          "name": "",
          "type": "uint256"
        }
      ],
      "name": "allBlockchainIDs",
      "outputs": [
        {
          "internalType": "string",
          "name": "",
          "type": "string"
        }
      ],
      "stateMutability": "view",
      "type": "function",
      "constant": true
    },
    {
      "inputs": [],
      "name": "owner",
      "outputs": [
        {
          "internalType": "address",
          "name": "",
          "type": "address"
        }
      ],
      "stateMutability": "view",
      "type": "function",
      "constant": true
    },
    {
      "inputs": [],
      "name": "paused",
      "outputs": [
        {
          "internalType": "bool",
          "name": "",
          "type": "bool"
        }
      ],
      "stateMutability": "view",
      "type": "function",
      "constant": true
    },
    {
      "inputs": [
        {
          "internalType": "string",
          "name": "",
          "type": "string"
        }
      ],
      "name": "registeredBlockchains",
      "outputs": [
        {
          "internalType": "string",
          "name": "blockchainID",
          "type": "string"
        },
        {
          "internalType": "string",
          "name": "dataStructure",
          "type": "string"
        },
        {
          "internalType": "string",
          "name": "programmingLanguage",
          "type": "string"
        },
        {
          "internalType": "string",
          "name": "networkProtocol",
          "type": "string"
        },
        {
          "internalType": "uint256",
          "name": "currentState",
          "type": "uint256"
        },
        {
          "internalType": "uint256",
          "name": "registrationTime",
          "type": "uint256"
        },
        {
          "internalType": "bool",
          "name": "isActive",
          "type": "bool"
        }
      ],
      "stateMutability": "view",
      "type": "function",
      "constant": true
    },
    {
      "inputs": [
        {
          "internalType": "uint256",
          "name": "",
          "type": "uint256"
        }
      ],
      "name": "registrationRequirements",
      "outputs": [
        {
          "internalType": "bytes32",
          "name": "",
          "type": "bytes32"
        }
      ],
      "stateMutability": "view",
      "type": "function",
      "constant": true
    },
    {
      "inputs": [],
      "name": "renounceOwnership",
      "outputs": [],
      "stateMutability": "nonpayable",
      "type": "function"
    },
    {
      "inputs": [
        {
          "internalType": "address",
          "name": "newOwner",
          "type": "address"
        }
      ],
      "name": "transferOwnership",
      "outputs": [],
      "stateMutability": "nonpayable",
      "type": "function"
    },
    {
      "inputs": [
        {
          "internalType": "string",
          "name": "_blockchainID",
          "type": "string"
        },
        {
          "internalType": "string",
          "name": "_dataStructure",
          "type": "string"
        },
        {
          "internalType": "string",
          "name": "_programmingLanguage",
          "type": "string"
        },
        {
          "internalType": "string",
          "name": "_networkProtocol",
          "type": "string"
        }
      ],
      "name": "registerBlockchain",
      "outputs": [],
      "stateMutability": "nonpayable",
      "type": "function"
    },
    {
      "inputs": [
        {
          "internalType": "string",
          "name": "_blockchainID",
          "type": "string"
        },
        {
          "internalType": "bytes32",
          "name": "_requirement",
          "type": "bytes32"
        },
        {
          "internalType": "bool",
          "name": "_met",
          "type": "bool"
        }
      ],
      "name": "updateRequirementStatus",
      "outputs": [],
      "stateMutability": "nonpayable",
      "type": "function"
    },
    {
      "inputs": [
        {
          "internalType": "string",
          "name": "_blockchainID",
          "type": "string"
        }
      ],
      "name": "deactivateBlockchain",
      "outputs": [],
      "stateMutability": "nonpayable",
      "type": "function"
    }
  ],
  "bytecode": "0x608060405234801561001057600080fd5b5061001a336100df565b6003805460ff60a01b191690556001600481905560028054808301825560008290527f528df42986b9a769889b14dfe3e72b1122ae9654c0bad54ff789b588ced831007f405787fa12a823e0f2b7631cc41b3ba8828b3321ca811111fa75cd3aa3bb5ace91820155815480840183557f22686843848346ccd56af0a07244c85039147de4f51293187579f736ddaa8c969082015581549283019091557f1a266a7e5fe931dca671b98b043b87f483fe5a44e2f4528836cb2f152c9ba9c9910155610131565b600380546001600160a01b038381166001600160a01b0319831681179093556040519116919082907f8be0079c531659141344cd1fd0a4f28419497f9722a3daafe3b4186f6b6457e090600090a35050565b610f1d806101406000396000f3fe608060405234801561001057600080fd5b506004361061009e5760003560e01c80635c975abb116100665780635c975abb1461012a5780635d6cf76814610147578063715018a6146101675780638da5cb5b1461016f578063f2fde38b1461018a57600080fd5b80630c80de39146100a357806320736b8b146100b85780632ae741be146100cb578063361a750f146100f157806338cf37f014610104575b600080fd5b6100b66100b1366004610b1d565b61019d565b005b6100b66100c6366004610bca565b610369565b6100de6100d9366004610c07565b610458565b6040519081526020015b60405180910390f35b6100b66100ff366004610c20565b610479565b610117610112366004610bca565b610585565b6040516100e89796959493929190610cd0565b600354600160a01b900460ff1660405190151581526020016100e8565b61015a610155366004610c07565b6107ef565b6040516100e89190610d3f565b6100b661089b565b6003546040516001600160a01b0390911681526020016100e8565b6100b6610198366004610d59565b6108af565b6101a5610928565b6101ad610975565b60008451116101fb5760405162461bcd60e51b8152602060048201526015602482015274125b9d985b1a5908189b1bd8dad8da185a5b881251605a1b60448201526064015b60405180910390fd5b60008460405161020b9190610d82565b9081526040519081900360200190206006015460ff16156102635760405162461bcd60e51b8152602060048201526012602482015271105b1c9958591e481c9959da5cdd195c995960721b60448201526064016101f2565b600080856040516102749190610d82565b9081526040519081900360200190209050806102908682610e27565b506001810161029f8582610e27565b50600281016102ae8482610e27565b50600381016102bd8382610e27565b5042600582015560068101805460ff19166001908117909155805480820182556000919091527fb10e2d527612073b26eecdfd717e6a320cf44b4afac2b0732d9fcbe2b7fa0cf60161030f8682610e27565b508460405161031e9190610d82565b604051908190038120428252907fcf2b19499ec1b1490335489ea94fd56b1748d902e7af2ae536a125d545b9ed889060200160405180910390a2506103636001600455565b50505050565b6103716109ce565b6000816040516103819190610d82565b9081526040519081900360200190206006015460ff166103db5760405162461bcd60e51b8152602060048201526015602482015274426c6f636b636861696e206e6f742061637469766560581b60448201526064016101f2565b600080826040516103ec9190610d82565b908152604051908190036020018120600601805492151560ff199093169290921790915561041b908290610d82565b604051908190038120428252907f0f82cb17ee5a2e0b92e9b76e8f3f6ec5925ba87a3a826eeae2c967997f1c56289060200160405180910390a250565b6002818154811061046857600080fd5b600091825260209091200154905081565b6104816109ce565b6000836040516104919190610d82565b9081526040519081900360200190206006015460ff166104f35760405162461bcd60e51b815260206004820152601960248201527f426c6f636b636861696e206e6f7420726567697374657265640000000000000060448201526064016101f2565b806000846040516105049190610d82565b9081526040805160209281900383018120600087815260079091019093529120805460ff19169215159290921790915561053f908490610d82565b604080519182900382208483528315156020840152917f6660be2e51b659448a4bcad38122afaea200f6104ce7c624b9043de4189318e3910160405180910390a2505050565b80516020818301810180516000825292820191909301209152805481906105ab90610d9e565b80601f01602080910402602001604051908101604052809291908181526020018280546105d790610d9e565b80156106245780601f106105f957610100808354040283529160200191610624565b820191906000526020600020905b81548152906001019060200180831161060757829003601f168201915b50505050509080600101805461063990610d9e565b80601f016020809104026020016040519081016040528092919081815260200182805461066590610d9e565b80156106b25780601f10610687576101008083540402835291602001916106b2565b820191906000526020600020905b81548152906001019060200180831161069557829003601f168201915b5050505050908060020180546106c790610d9e565b80601f01602080910402602001604051908101604052809291908181526020018280546106f390610d9e565b80156107405780601f1061071557610100808354040283529160200191610740565b820191906000526020600020905b81548152906001019060200180831161072357829003601f168201915b50505050509080600301805461075590610d9e565b80601f016020809104026020016040519081016040528092919081815260200182805461078190610d9e565b80156107ce5780601f106107a3576101008083540402835291602001916107ce565b820191906000526020600020905b8154815290600101906020018083116107b157829003601f168201915b50505050600483015460058401546006909401549293909290915060ff1687565b600181815481106107ff57600080fd5b90600052602060002001600091509050805461081a90610d9e565b80601f016020809104026020016040519081016040528092919081815260200182805461084690610d9e565b80156108935780601f1061086857610100808354040283529160200191610893565b820191906000526020600020905b81548152906001019060200180831161087657829003601f168201915b505050505081565b6108a36109ce565b6108ad6000610a28565b565b6108b76109ce565b6001600160a01b03811661091c5760405162461bcd60e51b815260206004820152602660248201527f4f776e61626c653a206e6577206f776e657220697320746865207a65726f206160448201526564647265737360d01b60648201526084016101f2565b61092581610a28565b50565b600354600160a01b900460ff16156108ad5760405162461bcd60e51b815260206004820152601060248201526f14185d5cd8589b194e881c185d5cd95960821b60448201526064016101f2565b6002600454036109c75760405162461bcd60e51b815260206004820152601f60248201527f5265656e7472616e637947756172643a207265656e7472616e742063616c6c0060448201526064016101f2565b6002600455565b6003546001600160a01b031633146108ad5760405162461bcd60e51b815260206004820181905260248201527f4f776e61626c653a2063616c6c6572206973206e6f7420746865206f776e657260448201526064016101f2565b600380546001600160a01b038381166001600160a01b0319831681179093556040519116919082907f8be0079c531659141344cd1fd0a4f28419497f9722a3daafe3b4186f6b6457e090600090a35050565b634e487b7160e01b600052604160045260246000fd5b600082601f830112610aa157600080fd5b813567ffffffffffffffff80821115610abc57610abc610a7a565b604051601f8301601f19908116603f01168101908282118183101715610ae457610ae4610a7a565b81604052838152866020858801011115610afd57600080fd5b836020870160208301376000602085830101528094505050505092915050565b60008060008060808587031215610b3357600080fd5b843567ffffffffffffffff80821115610b4b57600080fd5b610b5788838901610a90565b95506020870135915080821115610b6d57600080fd5b610b7988838901610a90565b94506040870135915080821115610b8f57600080fd5b610b9b88838901610a90565b93506060870135915080821115610bb157600080fd5b50610bbe87828801610a90565b91505092959194509250565b600060208284031215610bdc57600080fd5b813567ffffffffffffffff811115610bf357600080fd5b610bff84828501610a90565b949350505050565b600060208284031215610c1957600080fd5b5035919050565b600080600060608486031215610c3557600080fd5b833567ffffffffffffffff811115610c4c57600080fd5b610c5886828701610a90565b9350506020840135915060408401358015158114610c7557600080fd5b809150509250925092565b60005b83811015610c9b578181015183820152602001610c83565b50506000910152565b60008151808452610cbc816020860160208601610c80565b601f01601f19169290920160200192915050565b60e081526000610ce360e083018a610ca4565b8281036020840152610cf5818a610ca4565b90508281036040840152610d098189610ca4565b90508281036060840152610d1d8188610ca4565b6080840196909652505060a0810192909252151560c090910152949350505050565b602081526000610d526020830184610ca4565b9392505050565b600060208284031215610d6b57600080fd5b81356001600160a01b0381168114610d5257600080fd5b60008251610d94818460208701610c80565b9190910192915050565b600181811c90821680610db257607f821691505b602082108103610dd257634e487b7160e01b600052602260045260246000fd5b50919050565b601f821115610e2257600081815260208120601f850160051c81016020861015610dff5750805b601f850160051c820191505b81811015610e1e57828155600101610e0b565b5050505b505050565b815167ffffffffffffffff811115610e4157610e41610a7a565b610e5581610e4f8454610d9e565b84610dd8565b602080601f831160018114610e8a5760008415610e725750858301515b600019600386901b1c1916600185901b178555610e1e565b600085815260208120601f198616915b82811015610eb957888601518255948401946001909101908401610e9a565b5085821015610ed75787850151600019600388901b60f8161c191681555b5050505050600190811b0190555056fea2646970667358221220bcffacce17593415f62e5cf02f2bd131d84d0f9c27ae82c670b62f1521e48f0564736f6c63430008110033",
  "immutableReferences": {},
  "source": "// SPDX-License-Identifier: MIT\npragma solidity ^0.8.0;\n\nimport \"@openzeppelin/contracts/access/Ownable.sol\";\nimport \"@openzeppelin/contracts/security/Pausable.sol\";\nimport \"@openzeppelin/contracts/security/ReentrancyGuard.sol\";\n\n/**\n * @title BlockchainRegistryBase\n * @dev Base contract containing shared data structures and events\n */\ncontract BlockchainRegistryBase {\n    struct BlockchainInfo {\n        string blockchainID;          // Unique identifier for the blockchain\n        string dataStructure;         // Data structure format\n        string programmingLanguage;   // Primary programming language\n        string networkProtocol;       // Network protocol format\n        uint256 currentState;         // Current state of the blockchain\n        uint256 registrationTime;     // When the blockchain was registered\n        bool isActive;                // Whether the blockchain is currently active\n        mapping(bytes32 => bool) metRequirements;  // Track which requirements are met\n    }\n\n    // Events\n    event BlockchainRegistered(string indexed blockchainID, uint256 timestamp);\n    event BlockchainDeactivated(string indexed blockchainID, uint256 timestamp);\n    event RequirementUpdated(string indexed blockchainID, bytes32 requirement, bool met);\n    event SecurityAlertRaised(string indexed blockchainID, string alertType, uint256 timestamp);\n    \n    // Mapping from blockchain ID to its information\n    mapping(string => BlockchainInfo) public registeredBlockchains;\n    \n    // Array to keep track of all registered blockchain IDs\n    string[] public allBlockchainIDs;\n    \n    // Required characteristics for registration\n    bytes32[] public registrationRequirements;\n}\n\n/**\n * @title BlockchainRegistry\n * @dev Handles the registration of blockchains in the PAYS system\n */\ncontract BlockchainRegistry is BlockchainRegistryBase, Ownable, Pausable, ReentrancyGuard {\n    constructor() {\n        // Initialize default registration requirements\n        registrationRequirements.push(keccak256(\"VALID_CONSENSUS\"));\n        registrationRequirements.push(keccak256(\"SECURE_PROTOCOL\"));\n        registrationRequirements.push(keccak256(\"HEADER_VERIFICATION\"));\n    }\n\n    /**\n     * @dev Register a new blockchain with the system\n     */\n    function registerBlockchain(\n        string memory _blockchainID,\n        string memory _dataStructure,\n        string memory _programmingLanguage,\n        string memory _networkProtocol\n    ) external whenNotPaused nonReentrant {\n        require(bytes(_blockchainID).length > 0, \"Invalid blockchain ID\");\n        require(!registeredBlockchains[_blockchainID].isActive, \"Already registered\");\n\n        BlockchainInfo storage newChain = registeredBlockchains[_blockchainID];\n        newChain.blockchainID = _blockchainID;\n        newChain.dataStructure = _dataStructure;\n        newChain.programmingLanguage = _programmingLanguage;\n        newChain.networkProtocol = _networkProtocol;\n        newChain.registrationTime = block.timestamp;\n        newChain.isActive = true;\n        \n        allBlockchainIDs.push(_blockchainID);\n        \n        emit BlockchainRegistered(_blockchainID, block.timestamp);\n    }\n\n    /**\n     * @dev Update requirement status for a blockchain\n     */\n    function updateRequirementStatus(\n        string memory _blockchainID,\n        bytes32 _requirement,\n        bool _met\n    ) external onlyOwner {\n        require(registeredBlockchains[_blockchainID].isActive, \"Blockchain not registered\");\n        \n        registeredBlockchains[_blockchainID].metRequirements[_requirement] = _met;\n        emit RequirementUpdated(_blockchainID, _requirement, _met);\n    }\n\n    /**\n     * @dev Deactivate a blockchain registration\n     */\n    function deactivateBlockchain(string memory _blockchainID) external onlyOwner {\n        require(registeredBlockchains[_blockchainID].isActive, \"Blockchain not active\");\n        \n        registeredBlockchains[_blockchainID].isActive = false;\n        emit BlockchainDeactivated(_blockchainID, block.timestamp);\n    }\n}\n\n/**\n * @title BlockchainMonitor\n * @dev Monitors registered blockchains for security and connectivity\n */\ncontract BlockchainMonitor is BlockchainRegistry {\n    struct MonitoringInfo {\n        uint256 lastCheckTimestamp;\n        uint256 connectionQuality;    // 0-100 scale\n        uint256 securityScore;        // 0-100 scale\n        bool isConnected;\n    }\n\n    mapping(string => MonitoringInfo) public blockchainMonitoring;\n\n    event ConnectionStatusUpdated(string indexed blockchainID, bool connected, uint256 quality);\n    event SecurityScoreUpdated(string indexed blockchainID, uint256 score);\n\n    /**\n     * @dev Update monitoring information for a blockchain\n     */\n    function updateMonitoringInfo(\n        string memory _blockchainID,\n        bool _isConnected,\n        uint256 _connectionQuality,\n        uint256 _securityScore\n    ) external onlyOwner {\n        require(registeredBlockchains[_blockchainID].isActive, \"Blockchain not active\");\n        require(_connectionQuality <= 100, \"Invalid connection quality\");\n        require(_securityScore <= 100, \"Invalid security score\");\n\n        MonitoringInfo storage info = blockchainMonitoring[_blockchainID];\n        info.lastCheckTimestamp = block.timestamp;\n        info.isConnected = _isConnected;\n        info.connectionQuality = _connectionQuality;\n        info.securityScore = _securityScore;\n\n        emit ConnectionStatusUpdated(_blockchainID, _isConnected, _connectionQuality);\n        emit SecurityScoreUpdated(_blockchainID, _securityScore);\n\n        // Raise security alert if score is too low\n        if (_securityScore < 50) {\n            emit SecurityAlertRaised(_blockchainID, \"LOW_SECURITY_SCORE\", block.timestamp);\n        }\n    }\n\n    /**\n     * @dev Get monitoring information for a blockchain\n     */\n    function getMonitoringInfo(string memory _blockchainID) \n        external \n        view \n        returns (\n            uint256 lastCheck,\n            bool connected,\n            uint256 connectionQuality,\n            uint256 securityScore\n        )\n    {\n        MonitoringInfo storage info = blockchainMonitoring[_blockchainID];\n        return (\n            info.lastCheckTimestamp,\n            info.isConnected,\n            info.connectionQuality,\n            info.securityScore\n        );\n    }\n}",
  "sourcePath": "C:\\Users\\Bonsu\\Documents\\crosschainproject\\contracts\\blockchain\\BlockchainRegistryBase.sol",
  "compiler": {
    "name": "solc",
    "version": "0.8.17+commit.8df45f5f.Emscripten.clang"
  },
  "schemaVersion": "3.4.16",
  "updatedAt": "2025-02-07T14:38:21.482Z",
  "networkType": "ethereum",
  "devdoc": {
    "details": "Handles the registration of blockchains in the PAYS system",
    "kind": "dev",
    "methods": {
      "deactivateBlockchain(string)": {
        "details": "Deactivate a blockchain registration"
      },
      "owner()": {
        "details": "Returns the address of the current owner."
      },
      "paused()": {
        "details": "Returns true if the contract is paused, and false otherwise."
      },
      "registerBlockchain(string,string,string,string)": {
        "details": "Register a new blockchain with the system"
      },
      "renounceOwnership()": {
        "details": "Leaves the contract without owner. It will not be possible to call `onlyOwner` functions. Can only be called by the current owner. NOTE: Renouncing ownership will leave the contract without an owner, thereby disabling any functionality that is only available to the owner."
      },
      "transferOwnership(address)": {
        "details": "Transfers ownership of the contract to a new account (`newOwner`). Can only be called by the current owner."
      },
      "updateRequirementStatus(string,bytes32,bool)": {
        "details": "Update requirement status for a blockchain"
      }
    },
    "title": "BlockchainRegistry",
    "version": 1
  },
  "userdoc": {
    "kind": "user",
    "methods": {},
    "version": 1
  }
}