{
  "contractName": "BlockchainRegistryBase",
  "abi": [
    {
      "anonymous": false,
      "inputs": [
        {
          "indexed": true,
          "internalType": "string",
          "name": "blockchainID",
          "type": "string"
        },
        {
          "indexed": false,
          "internalType": "uint256",
          "name": "timestamp",
          "type": "uint256"
        }
      ],
      "name": "BlockchainDeactivated",
      "type": "event"
    },
    {
      "anonymous": false,
      "inputs": [
        {
          "indexed": true,
          "internalType": "string",
          "name": "blockchainID",
          "type": "string"
        },
        {
          "indexed": false,
          "internalType": "uint256",
          "name": "timestamp",
          "type": "uint256"
        }
      ],
      "name": "BlockchainRegistered",
      "type": "event"
    },
    {
      "anonymous": false,
      "inputs": [
        {
          "indexed": true,
          "internalType": "string",
          "name": "blockchainID",
          "type": "string"
        },
        {
          "indexed": false,
          "internalType": "bytes32",
          "name": "requirement",
          "type": "bytes32"
        },
        {
          "indexed": false,
          "internalType": "bool",
          "name": "met",
          "type": "bool"
        }
      ],
      "name": "RequirementUpdated",
      "type": "event"
    },
    {
      "anonymous": false,
      "inputs": [
        {
          "indexed": true,
          "internalType": "string",
          "name": "blockchainID",
          "type": "string"
        },
        {
          "indexed": false,
          "internalType": "string",
          "name": "alertType",
          "type": "string"
        },
        {
          "indexed": false,
          "internalType": "uint256",
          "name": "timestamp",
          "type": "uint256"
        }
      ],
      "name": "SecurityAlertRaised",
      "type": "event"
    },
    {
      "inputs": [
        {
          "internalType": "uint256",
          "name": "",
          "type": "uint256"
        }
      ],
      "name": "allBlockchainIDs",
      "outputs": [
        {
          "internalType": "string",
          "name": "",
          "type": "string"
        }
      ],
      "stateMutability": "view",
      "type": "function",
      "constant": true
    },
    {
      "inputs": [
        {
          "internalType": "string",
          "name": "",
          "type": "string"
        }
      ],
      "name": "registeredBlockchains",
      "outputs": [
        {
          "internalType": "string",
          "name": "blockchainID",
          "type": "string"
        },
        {
          "internalType": "string",
          "name": "dataStructure",
          "type": "string"
        },
        {
          "internalType": "string",
          "name": "programmingLanguage",
          "type": "string"
        },
        {
          "internalType": "string",
          "name": "networkProtocol",
          "type": "string"
        },
        {
          "internalType": "uint256",
          "name": "currentState",
          "type": "uint256"
        },
        {
          "internalType": "uint256",
          "name": "registrationTime",
          "type": "uint256"
        },
        {
          "internalType": "bool",
          "name": "isActive",
          "type": "bool"
        }
      ],
      "stateMutability": "view",
      "type": "function",
      "constant": true
    },
    {
      "inputs": [
        {
          "internalType": "uint256",
          "name": "",
          "type": "uint256"
        }
      ],
      "name": "registrationRequirements",
      "outputs": [
        {
          "internalType": "bytes32",
          "name": "",
          "type": "bytes32"
        }
      ],
      "stateMutability": "view",
      "type": "function",
      "constant": true
    }
  ],
  "bytecode": "0x608060405234801561001057600080fd5b50610608806100206000396000f3fe608060405234801561001057600080fd5b50600436106100415760003560e01c80632ae741be1461004657806338cf37f01461006c5780635d6cf76814610092575b600080fd5b6100596100543660046103e9565b6100b2565b6040519081526020015b60405180910390f35b61007f61007a366004610418565b6100d3565b604051610063979695949392919061050f565b6100a56100a03660046103e9565b61033d565b604051610063919061057e565b600281815481106100c257600080fd5b600091825260209091200154905081565b80516020818301810180516000825292820191909301209152805481906100f990610598565b80601f016020809104026020016040519081016040528092919081815260200182805461012590610598565b80156101725780601f1061014757610100808354040283529160200191610172565b820191906000526020600020905b81548152906001019060200180831161015557829003601f168201915b50505050509080600101805461018790610598565b80601f01602080910402602001604051908101604052809291908181526020018280546101b390610598565b80156102005780601f106101d557610100808354040283529160200191610200565b820191906000526020600020905b8154815290600101906020018083116101e357829003601f168201915b50505050509080600201805461021590610598565b80601f016020809104026020016040519081016040528092919081815260200182805461024190610598565b801561028e5780601f106102635761010080835404028352916020019161028e565b820191906000526020600020905b81548152906001019060200180831161027157829003601f168201915b5050505050908060030180546102a390610598565b80601f01602080910402602001604051908101604052809291908181526020018280546102cf90610598565b801561031c5780601f106102f15761010080835404028352916020019161031c565b820191906000526020600020905b8154815290600101906020018083116102ff57829003601f168201915b50505050600483015460058401546006909401549293909290915060ff1687565b6001818154811061034d57600080fd5b90600052602060002001600091509050805461036890610598565b80601f016020809104026020016040519081016040528092919081815260200182805461039490610598565b80156103e15780601f106103b6576101008083540402835291602001916103e1565b820191906000526020600020905b8154815290600101906020018083116103c457829003601f168201915b505050505081565b6000602082840312156103fb57600080fd5b5035919050565b634e487b7160e01b600052604160045260246000fd5b60006020828403121561042a57600080fd5b813567ffffffffffffffff8082111561044257600080fd5b818401915084601f83011261045657600080fd5b81358181111561046857610468610402565b604051601f8201601f19908116603f0116810190838211818310171561049057610490610402565b816040528281528760208487010111156104a957600080fd5b826020860160208301376000928101602001929092525095945050505050565b6000815180845260005b818110156104ef576020818501810151868301820152016104d3565b506000602082860101526020601f19601f83011685010191505092915050565b60e08152600061052260e083018a6104c9565b8281036020840152610534818a6104c9565b9050828103604084015261054881896104c9565b9050828103606084015261055c81886104c9565b6080840196909652505060a0810192909252151560c090910152949350505050565b60208152600061059160208301846104c9565b9392505050565b600181811c908216806105ac57607f821691505b6020821081036105cc57634e487b7160e01b600052602260045260246000fd5b5091905056fea2646970667358221220a180930a9f947d554214c8759a2d020b9462d6180427976074a0e256784f4a1d64736f6c63430008110033",
  "immutableReferences": {},
  "source": "// SPDX-License-Identifier: MIT\npragma solidity ^0.8.0;\n\nimport \"@openzeppelin/contracts/access/Ownable.sol\";\nimport \"@openzeppelin/contracts/security/Pausable.sol\";\nimport \"@openzeppelin/contracts/security/ReentrancyGuard.sol\";\n\n/**\n * @title BlockchainRegistryBase\n * @dev Base contract containing shared data structures and events\n */\ncontract BlockchainRegistryBase {\n    struct BlockchainInfo {\n        string blockchainID;          // Unique identifier for the blockchain\n        string dataStructure;         // Data structure format\n        string programmingLanguage;   // Primary programming language\n        string networkProtocol;       // Network protocol format\n        uint256 currentState;         // Current state of the blockchain\n        uint256 registrationTime;     // When the blockchain was registered\n        bool isActive;                // Whether the blockchain is currently active\n        mapping(bytes32 => bool) metRequirements;  // Track which requirements are met\n    }\n\n    // Events\n    event BlockchainRegistered(string indexed blockchainID, uint256 timestamp);\n    event BlockchainDeactivated(string indexed blockchainID, uint256 timestamp);\n    event RequirementUpdated(string indexed blockchainID, bytes32 requirement, bool met);\n    event SecurityAlertRaised(string indexed blockchainID, string alertType, uint256 timestamp);\n    \n    // Mapping from blockchain ID to its information\n    mapping(string => BlockchainInfo) public registeredBlockchains;\n    \n    // Array to keep track of all registered blockchain IDs\n    string[] public allBlockchainIDs;\n    \n    // Required characteristics for registration\n    bytes32[] public registrationRequirements;\n}\n\n/**\n * @title BlockchainRegistry\n * @dev Handles the registration of blockchains in the PAYS system\n */\ncontract BlockchainRegistry is BlockchainRegistryBase, Ownable, Pausable, ReentrancyGuard {\n    constructor() {\n        // Initialize default registration requirements\n        registrationRequirements.push(keccak256(\"VALID_CONSENSUS\"));\n        registrationRequirements.push(keccak256(\"SECURE_PROTOCOL\"));\n        registrationRequirements.push(keccak256(\"HEADER_VERIFICATION\"));\n    }\n\n    /**\n     * @dev Register a new blockchain with the system\n     */\n    function registerBlockchain(\n        string memory _blockchainID,\n        string memory _dataStructure,\n        string memory _programmingLanguage,\n        string memory _networkProtocol\n    ) external whenNotPaused nonReentrant {\n        require(bytes(_blockchainID).length > 0, \"Invalid blockchain ID\");\n        require(!registeredBlockchains[_blockchainID].isActive, \"Already registered\");\n\n        BlockchainInfo storage newChain = registeredBlockchains[_blockchainID];\n        newChain.blockchainID = _blockchainID;\n        newChain.dataStructure = _dataStructure;\n        newChain.programmingLanguage = _programmingLanguage;\n        newChain.networkProtocol = _networkProtocol;\n        newChain.registrationTime = block.timestamp;\n        newChain.isActive = true;\n        \n        allBlockchainIDs.push(_blockchainID);\n        \n        emit BlockchainRegistered(_blockchainID, block.timestamp);\n    }\n\n    /**\n     * @dev Update requirement status for a blockchain\n     */\n    function updateRequirementStatus(\n        string memory _blockchainID,\n        bytes32 _requirement,\n        bool _met\n    ) external onlyOwner {\n        require(registeredBlockchains[_blockchainID].isActive, \"Blockchain not registered\");\n        \n        registeredBlockchains[_blockchainID].metRequirements[_requirement] = _met;\n        emit RequirementUpdated(_blockchainID, _requirement, _met);\n    }\n\n    /**\n     * @dev Deactivate a blockchain registration\n     */\n    function deactivateBlockchain(string memory _blockchainID) external onlyOwner {\n        require(registeredBlockchains[_blockchainID].isActive, \"Blockchain not active\");\n        \n        registeredBlockchains[_blockchainID].isActive = false;\n        emit BlockchainDeactivated(_blockchainID, block.timestamp);\n    }\n}\n\n/**\n * @title BlockchainMonitor\n * @dev Monitors registered blockchains for security and connectivity\n */\ncontract BlockchainMonitor is BlockchainRegistry {\n    struct MonitoringInfo {\n        uint256 lastCheckTimestamp;\n        uint256 connectionQuality;    // 0-100 scale\n        uint256 securityScore;        // 0-100 scale\n        bool isConnected;\n    }\n\n    mapping(string => MonitoringInfo) public blockchainMonitoring;\n\n    event ConnectionStatusUpdated(string indexed blockchainID, bool connected, uint256 quality);\n    event SecurityScoreUpdated(string indexed blockchainID, uint256 score);\n\n    /**\n     * @dev Update monitoring information for a blockchain\n     */\n    function updateMonitoringInfo(\n        string memory _blockchainID,\n        bool _isConnected,\n        uint256 _connectionQuality,\n        uint256 _securityScore\n    ) external onlyOwner {\n        require(registeredBlockchains[_blockchainID].isActive, \"Blockchain not active\");\n        require(_connectionQuality <= 100, \"Invalid connection quality\");\n        require(_securityScore <= 100, \"Invalid security score\");\n\n        MonitoringInfo storage info = blockchainMonitoring[_blockchainID];\n        info.lastCheckTimestamp = block.timestamp;\n        info.isConnected = _isConnected;\n        info.connectionQuality = _connectionQuality;\n        info.securityScore = _securityScore;\n\n        emit ConnectionStatusUpdated(_blockchainID, _isConnected, _connectionQuality);\n        emit SecurityScoreUpdated(_blockchainID, _securityScore);\n\n        // Raise security alert if score is too low\n        if (_securityScore < 50) {\n            emit SecurityAlertRaised(_blockchainID, \"LOW_SECURITY_SCORE\", block.timestamp);\n        }\n    }\n\n    /**\n     * @dev Get monitoring information for a blockchain\n     */\n    function getMonitoringInfo(string memory _blockchainID) \n        external \n        view \n        returns (\n            uint256 lastCheck,\n            bool connected,\n            uint256 connectionQuality,\n            uint256 securityScore\n        )\n    {\n        MonitoringInfo storage info = blockchainMonitoring[_blockchainID];\n        return (\n            info.lastCheckTimestamp,\n            info.isConnected,\n            info.connectionQuality,\n            info.securityScore\n        );\n    }\n}",
  "sourcePath": "C:\\Users\\Bonsu\\Documents\\crosschainproject\\contracts\\blockchain\\BlockchainRegistryBase.sol",
  "compiler": {
    "name": "solc",
    "version": "0.8.17+commit.8df45f5f.Emscripten.clang"
  },
  "schemaVersion": "3.4.16",
  "updatedAt": "2025-02-07T14:38:21.479Z",
  "networkType": "ethereum",
  "devdoc": {
    "details": "Base contract containing shared data structures and events",
    "kind": "dev",
    "methods": {},
    "title": "BlockchainRegistryBase",
    "version": 1
  },
  "userdoc": {
    "kind": "user",
    "methods": {},
    "version": 1
  }
}