{
  "contractName": "ChaCha20Poly1305",
  "abi": [
    {
      "inputs": [
        {
          "internalType": "bytes",
          "name": "plaintext",
          "type": "bytes"
        },
        {
          "internalType": "bytes32",
          "name": "key",
          "type": "bytes32"
        },
        {
          "internalType": "bytes12",
          "name": "nonce",
          "type": "bytes12"
        }
      ],
      "name": "encrypt",
      "outputs": [
        {
          "internalType": "bytes",
          "name": "ciphertext",
          "type": "bytes"
        },
        {
          "internalType": "bytes",
          "name": "tag",
          "type": "bytes"
        }
      ],
      "stateMutability": "pure",
      "type": "function"
    }
  ],
  "bytecode": "0x608060405234801561001057600080fd5b50610be7806100206000396000f3fe608060405234801561001057600080fd5b506004361061002b5760003560e01c8063aa4e074714610030575b600080fd5b61004361003e36600461098d565b61005a565b604051610051929190610a9e565b60405180910390f35b606080600061006b8585600061016d565b9050600061007882610363565b9050865167ffffffffffffffff8111156100945761009461095a565b6040519080825280601f01601f1916602001820160405280156100be576020820181803683370190505b50935060005b875181101561015657816100d9604083610acc565b815181106100e9576100e9610aee565b602001015160f81c60f81b60f81c88828151811061010957610109610aee565b602001015160f81c60f81b60f81c1860f81b85828151811061012d5761012d610aee565b60200101906001600160f81b031916908160001a9053508061014e81610b1a565b9150506100c4565b5061016184876106dc565b92505050935093915050565b610175610923565b61017d610923565b8051636170786590528051633320646e60209091015280516379622d326040909101528051636b20657460609091015260005b6008811015610208576101c4816020610b33565b82519087901c906101d6836004610b4a565b601081106101e6576101e6610aee565b63ffffffff90921660209290920201528061020081610b1a565b9150506101b0565b50805163ffffffff841661018090910152604080516001600160a01b0319861660208201528151600c818303018152602c90910190915260005b600381101561035857601882610259836004610b33565b610264906003610b4a565b8151811061027457610274610aee565b016020015160f81c901b60108361028c846004610b33565b610297906002610b4a565b815181106102a7576102a7610aee565b016020015160f81c901b6008846102bf856004610b33565b6102ca906001610b4a565b815181106102da576102da610aee565b016020015160f81c901b846102f0856004610b33565b8151811061030057610300610aee565b602001015160f81c60f81b60f81c60ff16171717836000015182600d6103269190610b4a565b6010811061033657610336610aee565b63ffffffff90921660209290920201528061035081610b1a565b915050610242565b509095945050505050565b606061036d61093b565b60005b60108110156103c5578351816010811061038c5761038c610aee565b60200201518282601081106103a3576103a3610aee565b63ffffffff9092166020929092020152806103bd81610b1a565b915050610370565b5060005b60148110156105e257815160808301516103f591908460085b602002015185600c5b6020020151610871565b63ffffffff9081166101808701529081166101008601529081166080850152168252602082015160a083015161043791908460095b602002015185600d6103eb565b63ffffffff9081166101a087015290811661012086015290811660a0850152166020830152604082015160c083015161047c919084600a5b602002015185600e6103eb565b63ffffffff9081166101c087015290811661014086015290811660c0850152166040830152606082015160e08301516104c1919084600b5b602002015185600f6103eb565b63ffffffff9081166101e087015290811661016086015290811660e0850152166060830152815160a08301516104fa919084600a6104b4565b63ffffffff9081166101e087015290811661014086015290811660a0850152168252602082015160c0830151610533919084600b6103e2565b63ffffffff90811661018087015290811661016086015290811660c0850152166020830152604082015160e083015161056f919084600861042a565b63ffffffff9081166101a087015290811661010086015290811660e0850152166040830152606082015160808301516105ab919084600961046f565b63ffffffff9081166101c087015290811661012086015290811660808501521660608301526105db600282610b4a565b90506103c9565b506040805181815260608101825260009160208201818036833701905050905060005b60108110156106d4578451600090826010811061062457610624610aee565b602002015184836010811061063b5761063b610aee565b602002015161064a9190610b5d565b905060005b60048110156106bf57610663816008610b33565b63ffffffff8316901c60f81b848261067c866004610b33565b6106869190610b4a565b8151811061069657610696610aee565b60200101906001600160f81b031916908160001a905350806106b781610b1a565b91505061064f565b505080806106cc90610b1a565b915050610605565b509392505050565b60606106fb604051806040016040528060008152602001600081525090565b6f0ffffffc0ffffffc0ffffffc0fffffff831681526000602082018190526010905b85518110156107e45760008187516107359190610b81565b9050828111156107425750815b6000805b8281101561079557610759816008610b33565b896107648387610b4a565b8151811061077457610774610aee565b016020015160f81c901b91909117908061078d81610b1a565b915050610746565b50838210156107af576107a9826008610b33565b6001901b175b600160821b81866020015108602086018190528551600160821b91096020860152506107dd90508282610b4a565b905061071d565b50604080516010808252818301909252600091602082018180368337505050602084015190915060005b601081101561086357610822816008610b33565b82901c60f81b83828151811061083a5761083a610aee565b60200101906001600160f81b031916908160001a9053508061085b81610b1a565b91505061080e565b509093505050505b92915050565b60008080806108808789610b5d565b975061088f88861860106108ee565b945061089b8587610b5d565b95506108aa868818600c6108ee565b96506108b68789610b5d565b97506108c588861860086108ee565b94506108d18587610b5d565b95506108e086881860076108ee565b979895965093949350505050565b60006108fb826020610b94565b63ffffffff168363ffffffff16901c8263ffffffff168463ffffffff16901b17905092915050565b604051806020016040528061093661093b565b905290565b6040518061020001604052806010906020820280368337509192915050565b634e487b7160e01b600052604160045260246000fd5b80356001600160a01b03198116811461098857600080fd5b919050565b6000806000606084860312156109a257600080fd5b833567ffffffffffffffff808211156109ba57600080fd5b818601915086601f8301126109ce57600080fd5b8135818111156109e0576109e061095a565b604051601f8201601f19908116603f01168101908382118183101715610a0857610a0861095a565b81604052828152896020848701011115610a2157600080fd5b82602086016020830137600060208483010152809750505050505060208401359150610a4f60408501610970565b90509250925092565b6000815180845260005b81811015610a7e57602081850181015186830182015201610a62565b506000602082860101526020601f19601f83011685010191505092915050565b604081526000610ab16040830185610a58565b8281036020840152610ac38185610a58565b95945050505050565b600082610ae957634e487b7160e01b600052601260045260246000fd5b500690565b634e487b7160e01b600052603260045260246000fd5b634e487b7160e01b600052601160045260246000fd5b600060018201610b2c57610b2c610b04565b5060010190565b808202811582820484141761086b5761086b610b04565b8082018082111561086b5761086b610b04565b63ffffffff818116838216019080821115610b7a57610b7a610b04565b5092915050565b8181038181111561086b5761086b610b04565b63ffffffff828116828216039080821115610b7a57610b7a610b0456fea26469706673582212207f5eb0e0192a4d1194524a8da0211974cb8d72f3d0ecfe817185c981b63c82db64736f6c63430008110033",
  "immutableReferences": {},
  "source": "// SPDX-License-Identifier: MIT\npragma solidity ^0.8.0;\n\nimport \"@openzeppelin/contracts/security/ReentrancyGuard.sol\";\nimport \"@openzeppelin/contracts/utils/Counters.sol\";\n\n/**\n * @title ChaCha20Poly1305\n * @dev Implementation of ChaCha20-Poly1305 AEAD\n */\ncontract ChaCha20Poly1305 {\n    uint256 constant CHACHA20_ROUNDS = 20;\n    \n    struct ChaChaState {\n        uint32[16] state;  // 4x4 state matrix\n    }\n\n    struct Poly1305State {\n        uint256 r;  // Key part for Poly1305\n        uint256 s;  // Accumulator\n    }\n\n    /**\n     * @dev Initialize ChaCha20 state\n     */\n    function initializeState(\n        bytes32 key,\n        bytes12 nonce,\n        uint32 counter\n    ) internal pure returns (ChaChaState memory) {\n        ChaChaState memory state;\n        \n        // Constants for ChaCha20\n        state.state[0] = 0x61707865; // \"expa\"\n        state.state[1] = 0x3320646e; // \"nd 3\"\n        state.state[2] = 0x79622d32; // \"2-by\"\n        state.state[3] = 0x6b206574; // \"te k\"\n\n        // Key setup (8 words)\n        for (uint i = 0; i < 8; i++) {\n            state.state[4 + i] = uint32(uint256(key) >> (i * 32));\n        }\n\n        // Counter\n        state.state[12] = counter;\n\n        // Nonce (3 words)\n        bytes memory nonceBytes = abi.encodePacked(nonce);\n        for (uint i = 0; i < 3; i++) {\n            state.state[13 + i] = uint32(uint8(nonceBytes[i * 4])) |\n                                 (uint32(uint8(nonceBytes[i * 4 + 1])) << 8) |\n                                 (uint32(uint8(nonceBytes[i * 4 + 2])) << 16) |\n                                 (uint32(uint8(nonceBytes[i * 4 + 3])) << 24);\n        }\n\n        return state;\n    }\n\n    /**\n     * @dev ChaCha20 Quarter Round\n     */\n    function quarterRound(\n        uint32 a,\n        uint32 b,\n        uint32 c,\n        uint32 d\n    ) internal pure returns (uint32, uint32, uint32, uint32) {\n        a = a + b;\n        d = rotl32(d ^ a, 16);\n        \n        c = c + d;\n        b = rotl32(b ^ c, 12);\n        \n        a = a + b;\n        d = rotl32(d ^ a, 8);\n        \n        c = c + d;\n        b = rotl32(b ^ c, 7);\n        \n        return (a, b, c, d);\n    }\n\n    /**\n     * @dev 32-bit rotation\n     */\n    function rotl32(uint32 x, uint32 n) internal pure returns (uint32) {\n        return (x << n) | (x >> (32 - n));\n    }\n\n    /**\n     * @dev ChaCha20 block function\n     */\n    function chacha20Block(ChaChaState memory state) internal pure returns (bytes memory) {\n        uint32[16] memory working;\n        for (uint i = 0; i < 16; i++) {\n            working[i] = state.state[i];\n        }\n\n        // 10 double-rounds\n        for (uint i = 0; i < CHACHA20_ROUNDS; i += 2) {\n            // Column rounds\n            (working[0], working[4], working[8], working[12]) = \n                quarterRound(working[0], working[4], working[8], working[12]);\n            (working[1], working[5], working[9], working[13]) = \n                quarterRound(working[1], working[5], working[9], working[13]);\n            (working[2], working[6], working[10], working[14]) = \n                quarterRound(working[2], working[6], working[10], working[14]);\n            (working[3], working[7], working[11], working[15]) = \n                quarterRound(working[3], working[7], working[11], working[15]);\n\n            // Diagonal rounds\n            (working[0], working[5], working[10], working[15]) = \n                quarterRound(working[0], working[5], working[10], working[15]);\n            (working[1], working[6], working[11], working[12]) = \n                quarterRound(working[1], working[6], working[11], working[12]);\n            (working[2], working[7], working[8], working[13]) = \n                quarterRound(working[2], working[7], working[8], working[13]);\n            (working[3], working[4], working[9], working[14]) = \n                quarterRound(working[3], working[4], working[9], working[14]);\n        }\n\n        // Add working state to input state\n        bytes memory output = new bytes(64);\n        for (uint i = 0; i < 16; i++) {\n            uint32 word = working[i] + state.state[i];\n            for (uint j = 0; j < 4; j++) {\n                output[i * 4 + j] = bytes1(uint8(word >> (j * 8)));\n            }\n        }\n\n        return output;\n    }\n\n    /**\n     * @dev Poly1305 MAC implementation\n     */\n    function poly1305Mac(\n        bytes memory message,\n        bytes32 key\n    ) internal pure returns (bytes memory) {\n        Poly1305State memory state;\n        \n        // Initialize r and s from key\n        state.r = uint256(key) & 0x0ffffffc0ffffffc0ffffffc0fffffff;\n        state.s = 0;\n\n        // Process message blocks\n        uint256 blockSize = 16;\n        for (uint i = 0; i < message.length; i += blockSize) {\n            uint256 blockLen = message.length - i;\n            if (blockLen > blockSize) {\n                blockLen = blockSize;\n            }\n\n            uint256 n = 0;\n            for (uint j = 0; j < blockLen; j++) {\n                n |= uint256(uint8(message[i + j])) << (j * 8);\n            }\n\n            if (blockLen < blockSize) {\n                n |= uint256(1) << (blockLen * 8);\n            }\n\n            state.s = addmod(state.s, n, 1 << 130);\n            state.s = mulmod(state.s, state.r, 1 << 130);\n        }\n\n        // Convert final state to bytes\n        bytes memory mac = new bytes(16);\n        uint256 finalState = state.s;\n        for (uint i = 0; i < 16; i++) {\n            mac[i] = bytes1(uint8(finalState >> (i * 8)));\n        }\n        \n        return mac;\n    }\n\n    /**\n     * @dev Encrypt data using ChaCha20-Poly1305\n     */\n    function encrypt(\n        bytes memory plaintext,\n        bytes32 key,\n        bytes12 nonce\n    ) external pure returns (bytes memory ciphertext, bytes memory tag) {\n        // Generate keystream\n        ChaChaState memory state = initializeState(key, nonce, 0);\n        bytes memory keystream = chacha20Block(state);\n        \n        // Encrypt plaintext\n        ciphertext = new bytes(plaintext.length);\n        for (uint i = 0; i < plaintext.length; i++) {\n            ciphertext[i] = bytes1(uint8(plaintext[i]) ^ uint8(keystream[i % 64]));\n        }\n        \n        // Generate MAC\n        tag = poly1305Mac(ciphertext, key);\n        \n        return (ciphertext, tag);\n    }\n}",
  "sourcePath": "C:\\Users\\Bonsu\\Documents\\crosschainproject\\contracts\\blockchain\\ChaCha20Poly1305.sol",
  "compiler": {
    "name": "solc",
    "version": "0.8.17+commit.8df45f5f.Emscripten.clang"
  },
  "schemaVersion": "3.4.16",
  "updatedAt": "2025-01-29T15:20:38.509Z",
  "devdoc": {
    "details": "Implementation of ChaCha20-Poly1305 AEAD",
    "kind": "dev",
    "methods": {
      "encrypt(bytes,bytes32,bytes12)": {
        "details": "Encrypt data using ChaCha20-Poly1305"
      }
    },
    "title": "ChaCha20Poly1305",
    "version": 1
  },
  "userdoc": {
    "kind": "user",
    "methods": {},
    "version": 1
  }
}