{
  "contractName": "ClusterCommunication",
  "abi": [
    {
      "anonymous": false,
      "inputs": [
        {
          "indexed": true,
          "internalType": "bytes32",
          "name": "clusterId",
          "type": "bytes32"
        },
        {
          "indexed": false,
          "internalType": "address",
          "name": "leader",
          "type": "address"
        }
      ],
      "name": "ClusterFormed",
      "type": "event"
    },
    {
      "anonymous": false,
      "inputs": [
        {
          "indexed": true,
          "internalType": "bytes32",
          "name": "messageId",
          "type": "bytes32"
        },
        {
          "indexed": true,
          "internalType": "address",
          "name": "recipient",
          "type": "address"
        }
      ],
      "name": "MessageSent",
      "type": "event"
    },
    {
      "anonymous": false,
      "inputs": [
        {
          "indexed": true,
          "internalType": "address",
          "name": "node",
          "type": "address"
        },
        {
          "indexed": true,
          "internalType": "bytes32",
          "name": "clusterId",
          "type": "bytes32"
        }
      ],
      "name": "NodeAssigned",
      "type": "event"
    },
    {
      "anonymous": false,
      "inputs": [
        {
          "indexed": true,
          "internalType": "bytes32",
          "name": "role",
          "type": "bytes32"
        },
        {
          "indexed": true,
          "internalType": "bytes32",
          "name": "previousAdminRole",
          "type": "bytes32"
        },
        {
          "indexed": true,
          "internalType": "bytes32",
          "name": "newAdminRole",
          "type": "bytes32"
        }
      ],
      "name": "RoleAdminChanged",
      "type": "event"
    },
    {
      "anonymous": false,
      "inputs": [
        {
          "indexed": true,
          "internalType": "bytes32",
          "name": "role",
          "type": "bytes32"
        },
        {
          "indexed": true,
          "internalType": "address",
          "name": "account",
          "type": "address"
        },
        {
          "indexed": true,
          "internalType": "address",
          "name": "sender",
          "type": "address"
        }
      ],
      "name": "RoleGranted",
      "type": "event"
    },
    {
      "anonymous": false,
      "inputs": [
        {
          "indexed": true,
          "internalType": "bytes32",
          "name": "role",
          "type": "bytes32"
        },
        {
          "indexed": true,
          "internalType": "address",
          "name": "account",
          "type": "address"
        },
        {
          "indexed": true,
          "internalType": "address",
          "name": "sender",
          "type": "address"
        }
      ],
      "name": "RoleRevoked",
      "type": "event"
    },
    {
      "anonymous": false,
      "inputs": [
        {
          "indexed": true,
          "internalType": "bytes32",
          "name": "clusterId",
          "type": "bytes32"
        },
        {
          "indexed": false,
          "internalType": "bytes32",
          "name": "sessionKey",
          "type": "bytes32"
        }
      ],
      "name": "SessionKeyGenerated",
      "type": "event"
    },
    {
      "anonymous": false,
      "inputs": [
        {
          "indexed": true,
          "internalType": "bytes32",
          "name": "txId",
          "type": "bytes32"
        },
        {
          "indexed": false,
          "internalType": "bool",
          "name": "isValid",
          "type": "bool"
        }
      ],
      "name": "ValidationComplete",
      "type": "event"
    },
    {
      "anonymous": false,
      "inputs": [
        {
          "indexed": true,
          "internalType": "bytes32",
          "name": "txId",
          "type": "bytes32"
        },
        {
          "indexed": true,
          "internalType": "bytes32",
          "name": "clusterId",
          "type": "bytes32"
        }
      ],
      "name": "ValidationStarted",
      "type": "event"
    },
    {
      "anonymous": false,
      "inputs": [
        {
          "indexed": true,
          "internalType": "bytes32",
          "name": "txId",
          "type": "bytes32"
        },
        {
          "indexed": false,
          "internalType": "address",
          "name": "validator",
          "type": "address"
        },
        {
          "indexed": false,
          "internalType": "bool",
          "name": "result",
          "type": "bool"
        }
      ],
      "name": "ValidationSubmitted",
      "type": "event"
    },
    {
      "inputs": [],
      "name": "CLUSTER_ADMIN",
      "outputs": [
        {
          "internalType": "bytes32",
          "name": "",
          "type": "bytes32"
        }
      ],
      "stateMutability": "view",
      "type": "function"
    },
    {
      "inputs": [],
      "name": "DEFAULT_ADMIN_ROLE",
      "outputs": [
        {
          "internalType": "bytes32",
          "name": "",
          "type": "bytes32"
        }
      ],
      "stateMutability": "view",
      "type": "function"
    },
    {
      "inputs": [],
      "name": "MAX_CLUSTER_SIZE",
      "outputs": [
        {
          "internalType": "uint256",
          "name": "",
          "type": "uint256"
        }
      ],
      "stateMutability": "view",
      "type": "function"
    },
    {
      "inputs": [],
      "name": "MIN_CLUSTER_SIZE",
      "outputs": [
        {
          "internalType": "uint256",
          "name": "",
          "type": "uint256"
        }
      ],
      "stateMutability": "view",
      "type": "function"
    },
    {
      "inputs": [],
      "name": "VALIDATION_THRESHOLD",
      "outputs": [
        {
          "internalType": "uint256",
          "name": "",
          "type": "uint256"
        }
      ],
      "stateMutability": "view",
      "type": "function"
    },
    {
      "inputs": [
        {
          "internalType": "bytes32",
          "name": "",
          "type": "bytes32"
        },
        {
          "internalType": "address",
          "name": "",
          "type": "address"
        }
      ],
      "name": "clusterMembers",
      "outputs": [
        {
          "internalType": "bool",
          "name": "",
          "type": "bool"
        }
      ],
      "stateMutability": "view",
      "type": "function"
    },
    {
      "inputs": [
        {
          "internalType": "bytes32",
          "name": "",
          "type": "bytes32"
        }
      ],
      "name": "clusters",
      "outputs": [
        {
          "internalType": "bytes32",
          "name": "id",
          "type": "bytes32"
        },
        {
          "internalType": "address",
          "name": "leader",
          "type": "address"
        },
        {
          "internalType": "uint256",
          "name": "formationTime",
          "type": "uint256"
        },
        {
          "internalType": "uint256",
          "name": "nodeCount",
          "type": "uint256"
        },
        {
          "internalType": "uint256",
          "name": "processedTxCount",
          "type": "uint256"
        },
        {
          "internalType": "bytes32",
          "name": "sessionKey",
          "type": "bytes32"
        },
        {
          "internalType": "bool",
          "name": "isActive",
          "type": "bool"
        }
      ],
      "stateMutability": "view",
      "type": "function"
    },
    {
      "inputs": [
        {
          "internalType": "bytes32",
          "name": "txId",
          "type": "bytes32"
        },
        {
          "internalType": "uint256",
          "name": "txSize",
          "type": "uint256"
        },
        {
          "internalType": "enum NodeTypes.NodeRole[]",
          "name": "requiredRoles",
          "type": "uint8[]"
        }
      ],
      "name": "findOptimalRoute",
      "outputs": [
        {
          "internalType": "bytes32[]",
          "name": "",
          "type": "bytes32[]"
        }
      ],
      "stateMutability": "nonpayable",
      "type": "function"
    },
    {
      "inputs": [
        {
          "internalType": "bytes32",
          "name": "role",
          "type": "bytes32"
        }
      ],
      "name": "getRoleAdmin",
      "outputs": [
        {
          "internalType": "bytes32",
          "name": "",
          "type": "bytes32"
        }
      ],
      "stateMutability": "view",
      "type": "function"
    },
    {
      "inputs": [
        {
          "internalType": "bytes32",
          "name": "role",
          "type": "bytes32"
        },
        {
          "internalType": "address",
          "name": "account",
          "type": "address"
        }
      ],
      "name": "grantRole",
      "outputs": [],
      "stateMutability": "nonpayable",
      "type": "function"
    },
    {
      "inputs": [
        {
          "internalType": "bytes32",
          "name": "role",
          "type": "bytes32"
        },
        {
          "internalType": "address",
          "name": "account",
          "type": "address"
        }
      ],
      "name": "hasRole",
      "outputs": [
        {
          "internalType": "bool",
          "name": "",
          "type": "bool"
        }
      ],
      "stateMutability": "view",
      "type": "function"
    },
    {
      "inputs": [
        {
          "internalType": "bytes32",
          "name": "txId",
          "type": "bytes32"
        },
        {
          "internalType": "bytes",
          "name": "txData",
          "type": "bytes"
        }
      ],
      "name": "initiateValidation",
      "outputs": [],
      "stateMutability": "nonpayable",
      "type": "function"
    },
    {
      "inputs": [
        {
          "internalType": "bytes32",
          "name": "",
          "type": "bytes32"
        }
      ],
      "name": "messages",
      "outputs": [
        {
          "internalType": "bytes32",
          "name": "messageId",
          "type": "bytes32"
        },
        {
          "internalType": "bytes",
          "name": "encryptedContent",
          "type": "bytes"
        },
        {
          "internalType": "bytes",
          "name": "mac",
          "type": "bytes"
        },
        {
          "internalType": "address",
          "name": "sender",
          "type": "address"
        },
        {
          "internalType": "address",
          "name": "recipient",
          "type": "address"
        },
        {
          "internalType": "uint256",
          "name": "timestamp",
          "type": "uint256"
        }
      ],
      "stateMutability": "view",
      "type": "function"
    },
    {
      "inputs": [
        {
          "internalType": "address",
          "name": "",
          "type": "address"
        }
      ],
      "name": "nodes",
      "outputs": [
        {
          "internalType": "address",
          "name": "nodeAddress",
          "type": "address"
        },
        {
          "internalType": "enum NodeTypes.NodeRole",
          "name": "role",
          "type": "uint8"
        },
        {
          "internalType": "uint256",
          "name": "capacity",
          "type": "uint256"
        },
        {
          "internalType": "uint256",
          "name": "performance",
          "type": "uint256"
        },
        {
          "internalType": "bool",
          "name": "isActive",
          "type": "bool"
        },
        {
          "internalType": "bytes32",
          "name": "clusterId",
          "type": "bytes32"
        }
      ],
      "stateMutability": "view",
      "type": "function"
    },
    {
      "inputs": [
        {
          "internalType": "bytes32",
          "name": "role",
          "type": "bytes32"
        },
        {
          "internalType": "address",
          "name": "account",
          "type": "address"
        }
      ],
      "name": "renounceRole",
      "outputs": [],
      "stateMutability": "nonpayable",
      "type": "function"
    },
    {
      "inputs": [
        {
          "internalType": "bytes32",
          "name": "role",
          "type": "bytes32"
        },
        {
          "internalType": "address",
          "name": "account",
          "type": "address"
        }
      ],
      "name": "revokeRole",
      "outputs": [],
      "stateMutability": "nonpayable",
      "type": "function"
    },
    {
      "inputs": [
        {
          "internalType": "bytes32",
          "name": "",
          "type": "bytes32"
        }
      ],
      "name": "routes",
      "outputs": [
        {
          "internalType": "uint256",
          "name": "pathScore",
          "type": "uint256"
        },
        {
          "internalType": "bool",
          "name": "isOptimal",
          "type": "bool"
        }
      ],
      "stateMutability": "view",
      "type": "function"
    },
    {
      "inputs": [
        {
          "internalType": "bytes32",
          "name": "txId",
          "type": "bytes32"
        },
        {
          "internalType": "bool",
          "name": "isValid",
          "type": "bool"
        }
      ],
      "name": "submitValidation",
      "outputs": [],
      "stateMutability": "nonpayable",
      "type": "function"
    },
    {
      "inputs": [
        {
          "internalType": "bytes4",
          "name": "interfaceId",
          "type": "bytes4"
        }
      ],
      "name": "supportsInterface",
      "outputs": [
        {
          "internalType": "bool",
          "name": "",
          "type": "bool"
        }
      ],
      "stateMutability": "view",
      "type": "function"
    },
    {
      "inputs": [
        {
          "internalType": "bytes32",
          "name": "",
          "type": "bytes32"
        }
      ],
      "name": "validationProcesses",
      "outputs": [
        {
          "internalType": "bytes32",
          "name": "txId",
          "type": "bytes32"
        },
        {
          "internalType": "bytes32",
          "name": "clusterId",
          "type": "bytes32"
        },
        {
          "internalType": "uint256",
          "name": "validationsRequired",
          "type": "uint256"
        },
        {
          "internalType": "uint256",
          "name": "validationsReceived",
          "type": "uint256"
        },
        {
          "internalType": "uint256",
          "name": "validationsPositive",
          "type": "uint256"
        },
        {
          "internalType": "bool",
          "name": "isComplete",
          "type": "bool"
        }
      ],
      "stateMutability": "view",
      "type": "function"
    },
    {
      "inputs": [
        {
          "internalType": "bytes32",
          "name": "clusterId",
          "type": "bytes32"
        },
        {
          "internalType": "address",
          "name": "recipient",
          "type": "address"
        },
        {
          "internalType": "bytes",
          "name": "content",
          "type": "bytes"
        }
      ],
      "name": "sendClusterMessage",
      "outputs": [],
      "stateMutability": "nonpayable",
      "type": "function"
    }
  ],
  "bytecode": "0x60806040523480156200001157600080fd5b506200001f6000336200002a565b6001600555620000da565b6200003682826200003a565b5050565b6000828152602081815260408083206001600160a01b038516845290915290205460ff1662000036576000828152602081815260408083206001600160a01b03851684529091529020805460ff19166001179055620000963390565b6001600160a01b0316816001600160a01b0316837f2f8788117e7eff1d82e926ec794901d17c78024a50270940304540a733656f0d60405160405180910390a45050565b611fa780620000ea6000396000f3fe608060405234801561001057600080fd5b50600436106101375760003560e01c806337b89061116100b85780638ec1daee1161007c5780638ec1daee146103bc57806391d14854146103c45780639c5ca623146103d7578063a217fddf146103f7578063a5ac22bc146103ff578063d547741f1461047457600080fd5b806337b890611461032e5780634789015c146103415780634c7b87101461036f57806360523156146103825780637f747c541461039557600080fd5b806329399528116100ff57806329399528146102435780632bbd59ca1461024b5780632e41e2e8146102705780632f2ff15d1461030657806336568abe1461031b57600080fd5b806301ffc9a71461013c578063066e94811461016457806314552f26146101a6578063189a5a17146101bc578063248a9ca314610220575b600080fd5b61014f61014a366004611758565b610487565b60405190151581526020015b60405180910390f35b610191610172366004611782565b6004602052600090815260409020600181015460029091015460ff1682565b6040805192835290151560208301520161015b565b6101ae604681565b60405190815260200161015b565b61020e6101ca3660046117b7565b6001602081905260009182526040909120805491810154600282015460038301546004909301546001600160a01b0385169460ff600160a01b909104811694169086565b60405161015b9695949392919061180a565b6101ae61022e366004611782565b60009081526020819052604090206001015490565b6101ae600a81565b61025e610259366004611782565b6104be565b60405161015b9695949392919061189b565b6102c761027e366004611782565b6002602081905260009182526040909120805460018201549282015460038301546004840154600585015460069095015493956001600160a01b03169492939192909160ff1687565b604080519788526001600160a01b039096166020880152948601939093526060850191909152608084015260a0830152151560c082015260e00161015b565b6103196103143660046118ec565b610610565b005b6103196103293660046118ec565b61063a565b61031961033c3660046119cf565b6106bd565b61014f61034f3660046118ec565b600360209081526000928352604080842090915290825290205460ff1681565b61031961037d366004611a26565b6108a8565b610319610390366004611a5b565b610ad6565b6101ae7f494524d2d1f4acd3eed6a4679ede5f8aa5fa9493ca9319f21d8a90f197e849bc81565b6101ae600381565b61014f6103d23660046118ec565b610d91565b6103ea6103e5366004611ac6565b610dba565b60405161015b9190611b7f565b6101ae600081565b61044561040d366004611782565b600660205260009081526040902080546001820154600283015460038401546004850154600590950154939492939192909160ff1686565b6040805196875260208701959095529385019290925260608401526080830152151560a082015260c00161015b565b6103196104823660046118ec565b610e1f565b60006001600160e01b03198216637965db0b60e01b14806104b857506301ffc9a760e01b6001600160e01b03198316145b92915050565b600760205260009081526040902080546001820180549192916104e090611bc3565b80601f016020809104026020016040519081016040528092919081815260200182805461050c90611bc3565b80156105595780601f1061052e57610100808354040283529160200191610559565b820191906000526020600020905b81548152906001019060200180831161053c57829003601f168201915b50505050509080600201805461056e90611bc3565b80601f016020809104026020016040519081016040528092919081815260200182805461059a90611bc3565b80156105e75780601f106105bc576101008083540402835291602001916105e7565b820191906000526020600020905b8154815290600101906020018083116105ca57829003601f168201915b505050506003830154600484015460059094015492936001600160a01b03918216939116915086565b60008281526020819052604090206001015461062b81610e44565b6106358383610e51565b505050565b6001600160a01b03811633146106af5760405162461bcd60e51b815260206004820152602f60248201527f416363657373436f6e74726f6c3a2063616e206f6e6c792072656e6f756e636560448201526e103937b632b9903337b91039b2b63360891b60648201526084015b60405180910390fd5b6106b98282610ed5565b5050565b6106c5610f3a565b600083815260036020908152604080832033845290915290205460ff1661071f5760405162461bcd60e51b815260206004820152600e60248201526d2737ba1034b71031b63ab9ba32b960911b60448201526064016106a6565b6040805160208082018690526bffffffffffffffffffffffff1933606090811b82168486015286901b16605483015242606880840191909152835180840390910181526088830184528051908201206000878152600290925292812060050154849261078f91849160a801611bfd565b60408051601f198184030181528282528051602091820120908301520160408051601f1981840301815260c08301825285835260208381018681528484018390523360608601526001600160a01b038a1660808601524260a08601526000888152600790925292902083518155915190935060018201906108109082611c6d565b50604082015160028201906108259082611c6d565b5060608201516003820180546001600160a01b03199081166001600160a01b0393841617909155608084015160048401805490921690831617905560a0909201516005909101556040519086169084907f7b9d8fb801d8b8dfd8524633c9f2b8732cc5d5b98db2cebad68362d07be6413290600090a35050506106356001600555565b6108b0610f3a565b6000828152600660205260409020600581015460ff16156109095760405162461bcd60e51b815260206004820152601360248201527256616c69646174696f6e20636f6d706c65746560681b60448201526064016106a6565b33600090815260068201602052604090205460ff161561095f5760405162461bcd60e51b8152602060048201526011602482015270105b1c9958591e481d985b1a59185d1959607a1b60448201526064016106a6565b6001810154600090815260036020908152604080832033845290915290205460ff166109c25760405162461bcd60e51b81526020600482015260126024820152712737ba1031b63ab9ba32b91036b2b6b132b960711b60448201526064016106a6565b3360009081526006820160205260408120805460ff19166001179055600382018054916109ee83611d43565b91905055508115610a1157600481018054906000610a0b83611d43565b91905055505b60408051338152831515602082015284917f7fa8b9eab985b7a737fe8267cd6f77b362ae6c8a9b93c1196cb45869d95de00c910160405180910390a28060020154816003015410610acb5760006046826003015483600401546064610a769190611d5c565b610a809190611d73565b60058401805460ff19166001179055604051911115808252915084907fa668712c0b8f59efdf687dfbc672df6d8a1ab624717f5dfd9a794099f3ad48849060200160405180910390a2505b506106b96001600555565b610ade610f3a565b60008281526006602052604090206005015460ff1615610b345760405162461bcd60e51b8152602060048201526011602482015270105b1c9958591e481d985b1a59185d1959607a1b60448201526064016106a6565b6040805160038082526080820190925260009160208201606080368337019050509050600081600081518110610b6c57610b6c611d95565b60200260200101906002811115610b8557610b856117d2565b90816002811115610b9857610b986117d2565b81525050600181600181518110610bb157610bb1611d95565b60200260200101906002811115610bca57610bca6117d2565b90816002811115610bdd57610bdd6117d2565b81525050600281600281518110610bf657610bf6611d95565b60200260200101906002811115610c0f57610c0f6117d2565b90816002811115610c2257610c226117d2565b9052508151604051639c5ca62360e01b81526000913091639c5ca62391610c50918891908790600401611dab565b6000604051808303816000875af1158015610c6f573d6000803e3d6000fd5b505050506040513d6000823e601f3d908101601f19168201604052610c979190810190611e07565b90506000815111610ce15760405162461bcd60e51b8152602060048201526014602482015273139bc81d985b1a59081c9bdd5d1948199bdd5b9960621b60448201526064016106a6565b6000848152600660205260408120858155825190918391610d0457610d04611d95565b60200260200101518160010181905550610d3782600081518110610d2a57610d2a611d95565b6020026020010151610f93565b600282015581518290600090610d4f57610d4f611d95565b6020026020010151857f6a9b29eadfefca54b5659f637b613d396224569d6f801425810df6cf4800818360405160405180910390a35050506106b96001600555565b6000918252602082815260408084206001600160a01b0393909316845291905290205460ff1690565b6000838152600460205260408120606091610dd58585610fc7565b9050600080610de48388611244565b81519193509150610dfb90859060208501906116f8565b506001848101919091556002909301805460ff191690931790925550949350505050565b600082815260208190526040902060010154610e3a81610e44565b6106358383610ed5565b610e4e8133611382565b50565b610e5b8282610d91565b6106b9576000828152602081815260408083206001600160a01b03851684529091529020805460ff19166001179055610e913390565b6001600160a01b0316816001600160a01b0316837f2f8788117e7eff1d82e926ec794901d17c78024a50270940304540a733656f0d60405160405180910390a45050565b610edf8282610d91565b156106b9576000828152602081815260408083206001600160a01b0385168085529252808320805460ff1916905551339285917ff6391f5c32d9c69d2a47ea670b442974b53935d1edc7fd64eb21e047a839171b9190a45050565b600260055403610f8c5760405162461bcd60e51b815260206004820152601f60248201527f5265656e7472616e637947756172643a207265656e7472616e742063616c6c0060448201526064016106a6565b6002600555565b6000818152600260208190526040822060038082015491929091610fb691611d5c565b610fc09190611d73565b9392505050565b60408051600a80825261016082019092526060916000918291602082016101408036833701905050905060005b600a81101561119e57600081815260026020526040812054829103611019575061119e565b6000818152600260205260409020600681015460ff1661103a57505061118c565b600160005b885181101561114557600080611054866113db565b905060005b815181101561111f5760006001600084848151811061107a5761107a611d95565b60200260200101516001600160a01b03166001600160a01b0316815260200190815260200160002090508c85815181106110b6576110b6611d95565b602002602001015160028111156110cf576110cf6117d2565b8154600160a01b900460ff1660028111156110ec576110ec6117d2565b1480156110fd5750600381015460ff165b1561110c57600193505061111f565b508061111781611d43565b915050611059565b508161113057600093505050611145565b5050808061113d90611d43565b91505061103f565b50808015611157575088826003015410155b15611188578285878151811061116f5761116f611d95565b60209081029190910101528561118481611d43565b9650505b5050505b8061119681611d43565b915050610ff4565b5060008267ffffffffffffffff8111156111ba576111ba611918565b6040519080825280602002602001820160405280156111e3578160200160208202803683370190505b50905060005b8381101561123a5782818151811061120357611203611d95565b602002602001015182828151811061121d5761121d611d95565b60209081029190910101528061123281611d43565b9150506111e9565b5095945050505050565b606060008351600003611269575050604080516000808252602082019092529061137b565b604080516001808252818301909252600091602080830190803683370190505090506000805b8651811015611374576000600260008984815181106112b0576112b0611d95565b60200260200101518152602001908152602001600020905060006064602883600301546112dd9190611d5c565b6112e79190611d73565b905060006064603c84600401546112fe9190611d5c565b6113089190611d73565b905060006113168284611e98565b90508581111561135d578095508a858151811061133557611335611d95565b60200260200101518760008151811061135057611350611d95565b6020026020010181815250505b50505050808061136c90611d43565b91505061128f565b5090925090505b9250929050565b61138c8282610d91565b6106b9576113998161154a565b6113a483602061155c565b6040516020016113b5929190611eab565b60408051601f198184030181529082905262461bcd60e51b82526106a691600401611f20565b60408051600a80825261016082019092526060916000918291602082016101408036833701905050905060005b6001600160a01b0381811610156114985760008581526003602090815260408083206001600160a01b038516845290915290205460ff1615611486578082848151811061145757611457611d95565b6001600160a01b03909216602092830291909101909101528261147981611d43565b935050600a831015611498575b611491816001611f33565b9050611408565b5060008267ffffffffffffffff8111156114b4576114b4611918565b6040519080825280602002602001820160405280156114dd578160200160208202803683370190505b50905060005b83811015611541578281815181106114fd576114fd611d95565b602002602001015182828151811061151757611517611d95565b6001600160a01b03909216602092830291909101909101528061153981611d43565b9150506114e3565b50949350505050565b60606104b86001600160a01b03831660145b6060600061156b836002611d5c565b611576906002611e98565b67ffffffffffffffff81111561158e5761158e611918565b6040519080825280601f01601f1916602001820160405280156115b8576020820181803683370190505b509050600360fc1b816000815181106115d3576115d3611d95565b60200101906001600160f81b031916908160001a905350600f60fb1b8160018151811061160257611602611d95565b60200101906001600160f81b031916908160001a9053506000611626846002611d5c565b611631906001611e98565b90505b60018111156116a9576f181899199a1a9b1b9c1cb0b131b232b360811b85600f166010811061166557611665611d95565b1a60f81b82828151811061167b5761167b611d95565b60200101906001600160f81b031916908160001a90535060049490941c936116a281611f5a565b9050611634565b508315610fc05760405162461bcd60e51b815260206004820181905260248201527f537472696e67733a20686578206c656e67746820696e73756666696369656e7460448201526064016106a6565b828054828255906000526020600020908101928215611733579160200282015b82811115611733578251825591602001919060010190611718565b5061173f929150611743565b5090565b5b8082111561173f5760008155600101611744565b60006020828403121561176a57600080fd5b81356001600160e01b031981168114610fc057600080fd5b60006020828403121561179457600080fd5b5035919050565b80356001600160a01b03811681146117b257600080fd5b919050565b6000602082840312156117c957600080fd5b610fc08261179b565b634e487b7160e01b600052602160045260246000fd5b6003811061180657634e487b7160e01b600052602160045260246000fd5b9052565b6001600160a01b038716815260c0810161182760208301886117e8565b60408201959095526060810193909352901515608083015260a09091015292915050565b60005b8381101561186657818101518382015260200161184e565b50506000910152565b6000815180845261188781602086016020860161184b565b601f01601f19169290920160200192915050565b86815260c0602082015260006118b460c083018861186f565b82810360408401526118c6818861186f565b6001600160a01b0396871660608501529490951660808301525060a00152949350505050565b600080604083850312156118ff57600080fd5b8235915061190f6020840161179b565b90509250929050565b634e487b7160e01b600052604160045260246000fd5b604051601f8201601f1916810167ffffffffffffffff8111828210171561195757611957611918565b604052919050565b600082601f83011261197057600080fd5b813567ffffffffffffffff81111561198a5761198a611918565b61199d601f8201601f191660200161192e565b8181528460208386010111156119b257600080fd5b816020850160208301376000918101602001919091529392505050565b6000806000606084860312156119e457600080fd5b833592506119f46020850161179b565b9150604084013567ffffffffffffffff811115611a1057600080fd5b611a1c8682870161195f565b9150509250925092565b60008060408385031215611a3957600080fd5b8235915060208301358015158114611a5057600080fd5b809150509250929050565b60008060408385031215611a6e57600080fd5b82359150602083013567ffffffffffffffff811115611a8c57600080fd5b611a988582860161195f565b9150509250929050565b600067ffffffffffffffff821115611abc57611abc611918565b5060051b60200190565b600080600060608486031215611adb57600080fd5b833592506020808501359250604085013567ffffffffffffffff811115611b0157600080fd5b8501601f81018713611b1257600080fd5b8035611b25611b2082611aa2565b61192e565b81815260059190911b82018301908381019089831115611b4457600080fd5b928401925b82841015611b7057833560038110611b615760008081fd5b82529284019290840190611b49565b80955050505050509250925092565b6020808252825182820181905260009190848201906040850190845b81811015611bb757835183529284019291840191600101611b9b565b50909695505050505050565b600181811c90821680611bd757607f821691505b602082108103611bf757634e487b7160e01b600052602260045260246000fd5b50919050565b60008351611c0f81846020880161184b565b9190910191825250602001919050565b601f82111561063557600081815260208120601f850160051c81016020861015611c465750805b601f850160051c820191505b81811015611c6557828155600101611c52565b505050505050565b815167ffffffffffffffff811115611c8757611c87611918565b611c9b81611c958454611bc3565b84611c1f565b602080601f831160018114611cd05760008415611cb85750858301515b600019600386901b1c1916600185901b178555611c65565b600085815260208120601f198616915b82811015611cff57888601518255948401946001909101908401611ce0565b5085821015611d1d5787850151600019600388901b60f8161c191681555b5050505050600190811b01905550565b634e487b7160e01b600052601160045260246000fd5b600060018201611d5557611d55611d2d565b5060010190565b80820281158282048414176104b8576104b8611d2d565b600082611d9057634e487b7160e01b600052601260045260246000fd5b500490565b634e487b7160e01b600052603260045260246000fd5b6000606082018583526020858185015260606040850152818551808452608086019150828701935060005b81811015611df957611de98386516117e8565b9383019391830191600101611dd6565b509098975050505050505050565b60006020808385031215611e1a57600080fd5b825167ffffffffffffffff811115611e3157600080fd5b8301601f81018513611e4257600080fd5b8051611e50611b2082611aa2565b81815260059190911b82018301908381019087831115611e6f57600080fd5b928401925b82841015611e8d57835182529284019290840190611e74565b979650505050505050565b808201808211156104b8576104b8611d2d565b7f416363657373436f6e74726f6c3a206163636f756e7420000000000000000000815260008351611ee381601785016020880161184b565b7001034b99036b4b9b9b4b733903937b6329607d1b6017918401918201528351611f1481602884016020880161184b565b01602801949350505050565b602081526000610fc0602083018461186f565b6001600160a01b03818116838216019080821115611f5357611f53611d2d565b5092915050565b600081611f6957611f69611d2d565b50600019019056fea2646970667358221220806618002afc9766c6a2d47cac16cbd6f4f6f3e37c855f042dab4f6772d72b6a64736f6c63430008110033",
  "immutableReferences": {},
  "source": "// SPDX-License-Identifier: MIT\npragma solidity ^0.8.0;\n\nimport \"@openzeppelin/contracts/security/ReentrancyGuard.sol\";\nimport \"@openzeppelin/contracts/access/AccessControl.sol\";\n\n// NodeTypes library remains unchanged\nlibrary NodeTypes {\n    enum NodeRole {\n        DESIGNATOR,\n        VALIDATOR,\n        EXECUTOR\n    }\n\n    struct Node {\n        address nodeAddress;\n        NodeRole role;\n        uint256 capacity;\n        uint256 performance;\n        bool isActive;\n        bytes32 clusterId;\n    }\n\n    struct Cluster {\n        bytes32 id;\n        address leader;\n        uint256 formationTime;\n        uint256 nodeCount;\n        uint256 processedTxCount;\n        bytes32 sessionKey;\n        bool isActive;\n    }\n}\n\ncontract ClusterManager is AccessControl {\n    using NodeTypes for NodeTypes.Node;\n    using NodeTypes for NodeTypes.Cluster;\n\n    bytes32 public constant CLUSTER_ADMIN = keccak256(\"CLUSTER_ADMIN\");\n    \n    mapping(address => NodeTypes.Node) public nodes;\n    mapping(bytes32 => NodeTypes.Cluster) public clusters;\n    mapping(bytes32 => mapping(address => bool)) public clusterMembers;\n    \n    uint256 public constant MIN_CLUSTER_SIZE = 3;\n    uint256 public constant MAX_CLUSTER_SIZE = 10;\n    uint256 public constant VALIDATION_THRESHOLD = 70;\n    \n    event ClusterFormed(bytes32 indexed clusterId, address leader);\n    event NodeAssigned(address indexed node, bytes32 indexed clusterId);\n    event SessionKeyGenerated(bytes32 indexed clusterId, bytes32 sessionKey);\n    \n    constructor() {\n        _setupRole(DEFAULT_ADMIN_ROLE, msg.sender);\n    }\n    \n    function generateSessionKey(\n        bytes32 clusterId\n    ) internal returns (bytes32) {\n        NodeTypes.Cluster storage cluster = clusters[clusterId];\n        require(cluster.isActive, \"Cluster not active\");\n        \n        bytes32 randomValue = keccak256(abi.encodePacked(\n            block.timestamp,\n            block.number,\n            blockhash(block.number - 1), // Use blockhash as a source of randomness\n            clusterId,\n            msg.sender\n        ));\n        \n        cluster.sessionKey = randomValue;\n        emit SessionKeyGenerated(clusterId, randomValue);\n        \n        return randomValue;\n    } // Added closing brace here\n}\n\ncontract BeeRoutingAlgorithm is ClusterManager {\n    struct Route {\n        bytes32[] clusterPath;\n        uint256 pathScore;\n        bool isOptimal;\n    }\n    \n    mapping(bytes32 => Route) public routes;\n    \n    // Routing parameters\n    uint256 private constant CAPACITY_WEIGHT = 40;\n    uint256 private constant PERFORMANCE_WEIGHT = 60;\n    uint256 private constant SCORE_THRESHOLD = 75;\n    \n    function findOptimalRoute(\n        bytes32 txId,\n        uint256 txSize,\n        NodeTypes.NodeRole[] memory requiredRoles\n    ) public returns (bytes32[] memory) {\n        Route storage route = routes[txId];\n        \n        bytes32[] memory eligibleClusters = findEligibleClusters(\n            txSize,\n            requiredRoles\n        );\n        \n        (bytes32[] memory optimalPath, uint256 pathScore) = calculateOptimalPath(\n            eligibleClusters,\n            txSize\n        );\n        \n        route.clusterPath = optimalPath;\n        route.pathScore = pathScore;\n        route.isOptimal = true;\n        \n        return optimalPath;\n    }\n    \n   function findEligibleClusters(\n    uint256 txSize,\n    NodeTypes.NodeRole[] memory requiredRoles\n) internal view returns (bytes32[] memory) {\n    uint256 clusterCount = 0;\n    bytes32[] memory tempClusters = new bytes32[](10); // Temporary fixed size array\n    \n    // Iterate through clusters using a counter approach\n    for (uint256 i = 0; i < 10; i++) { // Assuming max 10 clusters, adjust as needed\n        bytes32 clusterId = bytes32(i); // Convert index to bytes32\n        \n        if (clusters[clusterId].id == 0) break; // Stop if cluster doesn't exist\n        \n        NodeTypes.Cluster storage cluster = clusters[clusterId];\n        if (!cluster.isActive) continue;\n        \n        // Check if cluster has required roles\n        bool hasAllRoles = true;\n        for (uint j = 0; j < requiredRoles.length; j++) {\n            bool roleFound = false;\n            \n            // Iterate through possible node addresses \n            // (you'll need to track these separately)\n            address[] memory clusterNodeAddresses = getClusterNodeAddresses(clusterId);\n            \n            for (uint k = 0; k < clusterNodeAddresses.length; k++) {\n                NodeTypes.Node storage node = nodes[clusterNodeAddresses[k]];\n                if (node.role == requiredRoles[j] && node.isActive) {\n                    roleFound = true;\n                    break;\n                }\n            }\n            \n            if (!roleFound) {\n                hasAllRoles = false;\n                break;\n            }\n        }\n        \n        // Check capacity\n        if (hasAllRoles && cluster.nodeCount >= txSize) {\n            tempClusters[clusterCount] = clusterId;\n            clusterCount++;\n        }\n    }\n    \n    // Create correctly sized array\n    bytes32[] memory eligibleClusters = new bytes32[](clusterCount);\n    for (uint256 k = 0; k < clusterCount; k++) {\n        eligibleClusters[k] = tempClusters[k];\n    }\n    \n    return eligibleClusters;\n}\n\n// Helper function to get node addresses for a cluster\nfunction getClusterNodeAddresses(bytes32 clusterId) internal view returns (address[] memory) {\n    uint256 nodeCount = 0;\n    address[] memory tempAddresses = new address[](10); // Assuming max 10 nodes per cluster\n    \n    for (address nodeAddr = address(0); nodeAddr < address(type(uint160).max); nodeAddr = address(uint160(nodeAddr) + 1)) {\n        if (clusterMembers[clusterId][nodeAddr]) {\n            tempAddresses[nodeCount] = nodeAddr;\n            nodeCount++;\n            \n            if (nodeCount >= 10) break; // Prevent potential infinite loop\n        }\n    }\n    \n    // Create correctly sized array\n    address[] memory clusterNodeAddresses = new address[](nodeCount);\n    for (uint256 i = 0; i < nodeCount; i++) {\n        clusterNodeAddresses[i] = tempAddresses[i];\n    }\n    \n    return clusterNodeAddresses;\n}\n    \nfunction calculateOptimalPath(\n    bytes32[] memory eligibleClusters,\n    uint256 /* txSize */\n) internal view returns (bytes32[] memory, uint256) {\n    if (eligibleClusters.length == 0) {\n        return (new bytes32[](0), 0);\n    }\n    \n    bytes32[] memory optimalPath = new bytes32[](1);\n    uint256 highestScore = 0;\n    \n    for (uint256 i = 0; i < eligibleClusters.length; i++) {\n        NodeTypes.Cluster storage cluster = clusters[eligibleClusters[i]];\n        \n        // Calculate weighted score based on node count and processed transactions\n        uint256 nodeCountScore = (cluster.nodeCount * CAPACITY_WEIGHT) / 100;\n        uint256 performanceScore = (cluster.processedTxCount * PERFORMANCE_WEIGHT) / 100;\n        uint256 totalScore = nodeCountScore + performanceScore;\n        \n        if (totalScore > highestScore) {\n            highestScore = totalScore;\n            optimalPath[0] = eligibleClusters[i];\n        }\n    }\n    \n    return (optimalPath, highestScore);\n}\n}\n/**\n * @title PasschainValidator\n * @dev Manages PoA validation process for transactions\n */\ncontract PasschainValidator is BeeRoutingAlgorithm, ReentrancyGuard {\n    struct ValidationProcess {\n        bytes32 txId;\n        bytes32 clusterId;\n        uint256 validationsRequired;\n        uint256 validationsReceived;\n        uint256 validationsPositive;\n        bool isComplete;\n        mapping(address => bool) hasValidated;\n    }\n    \n    mapping(bytes32 => ValidationProcess) public validationProcesses;\n    \n    event ValidationStarted(bytes32 indexed txId, bytes32 indexed clusterId);\n    event ValidationSubmitted(bytes32 indexed txId, address validator, bool result);\n    event ValidationComplete(bytes32 indexed txId, bool isValid);\n    \n    function initiateValidation(\n        bytes32 txId,\n        bytes memory txData\n    ) external nonReentrant {\n        require(!validationProcesses[txId].isComplete, \"Already validated\");\n        \n        // Find optimal cluster route\n        NodeTypes.NodeRole[] memory roles = new NodeTypes.NodeRole[](3);\n        roles[0] = NodeTypes.NodeRole.DESIGNATOR;\n        roles[1] = NodeTypes.NodeRole.VALIDATOR;\n        roles[2] = NodeTypes.NodeRole.EXECUTOR;\n        \n        bytes32[] memory routePath = this.findOptimalRoute(\n            txId,\n            txData.length,\n            roles\n        );\n        require(routePath.length > 0, \"No valid route found\");\n        \n        // Setup validation process\n        ValidationProcess storage process = validationProcesses[txId];\n        process.txId = txId;\n        process.clusterId = routePath[0];\n        process.validationsRequired = calculateRequiredValidations(routePath[0]);\n        \n        emit ValidationStarted(txId, routePath[0]);\n    }\n    \n    function submitValidation(\n        bytes32 txId,\n        bool isValid\n    ) external nonReentrant {\n        ValidationProcess storage process = validationProcesses[txId];\n        require(!process.isComplete, \"Validation complete\");\n        require(!process.hasValidated[msg.sender], \"Already validated\");\n        require(\n            clusterMembers[process.clusterId][msg.sender],\n            \"Not cluster member\"\n        );\n        \n        process.hasValidated[msg.sender] = true;\n        process.validationsReceived++;\n        if (isValid) {\n            process.validationsPositive++;\n        }\n        \n        emit ValidationSubmitted(txId, msg.sender, isValid);\n        \n        // Check if validation is complete\n        if (process.validationsReceived >= process.validationsRequired) {\n            bool validationResult = (\n                process.validationsPositive * 100 / process.validationsReceived\n            ) >= VALIDATION_THRESHOLD;\n            \n            process.isComplete = true;\n            emit ValidationComplete(txId, validationResult);\n        }\n    }\n    \n    function calculateRequiredValidations(\n        bytes32 clusterId\n    ) internal view returns (uint256) {\n        NodeTypes.Cluster storage cluster = clusters[clusterId];\n        return (cluster.nodeCount * 2) / 3; // Require 2/3 majority\n    }\n}\n\n/**\n * @title ClusterCommunication\n * @dev Handles secure communication within and between clusters\n */\ncontract ClusterCommunication is PasschainValidator {\n    struct SecureMessage {\n        bytes32 messageId;\n        bytes encryptedContent;\n        bytes mac;\n        address sender;\n        address recipient;\n        uint256 timestamp;\n    }\n    \n    mapping(bytes32 => SecureMessage) public messages;\n    \n    event MessageSent(bytes32 indexed messageId, address indexed recipient);\n    \n    function sendClusterMessage(\n        bytes32 clusterId,\n        address recipient,\n        bytes memory content\n    ) external nonReentrant {\n        require(\n            clusterMembers[clusterId][msg.sender],\n            \"Not in cluster\"\n        );\n        \n        bytes32 messageId = keccak256(abi.encodePacked(\n            clusterId,\n            msg.sender,\n            recipient,\n            block.timestamp\n        ));\n        \n        // AES-GCM encryption would be implemented here\n        bytes memory encrypted = content; // Placeholder\n        \n        // HMAC generation\n        bytes memory mac = abi.encodePacked(\n            keccak256(abi.encodePacked(content, clusters[clusterId].sessionKey))\n        );\n        \n        messages[messageId] = SecureMessage({\n            messageId: messageId,\n            encryptedContent: encrypted,\n            mac: mac,\n            sender: msg.sender,\n            recipient: recipient,\n            timestamp: block.timestamp\n        });\n        \n        emit MessageSent(messageId, recipient);\n    }\n}",
  "sourcePath": "C:\\Users\\Bonsu\\Documents\\crosschainproject\\contracts\\passchain\\ClusterManager.sol",
  "compiler": {
    "name": "solc",
    "version": "0.8.17+commit.8df45f5f.Emscripten.clang"
  },
  "schemaVersion": "3.4.16",
  "updatedAt": "2025-02-07T14:38:19.820Z",
  "devdoc": {
    "details": "Handles secure communication within and between clusters",
    "kind": "dev",
    "methods": {
      "getRoleAdmin(bytes32)": {
        "details": "Returns the admin role that controls `role`. See {grantRole} and {revokeRole}. To change a role's admin, use {_setRoleAdmin}."
      },
      "grantRole(bytes32,address)": {
        "details": "Grants `role` to `account`. If `account` had not been already granted `role`, emits a {RoleGranted} event. Requirements: - the caller must have ``role``'s admin role. May emit a {RoleGranted} event."
      },
      "hasRole(bytes32,address)": {
        "details": "Returns `true` if `account` has been granted `role`."
      },
      "renounceRole(bytes32,address)": {
        "details": "Revokes `role` from the calling account. Roles are often managed via {grantRole} and {revokeRole}: this function's purpose is to provide a mechanism for accounts to lose their privileges if they are compromised (such as when a trusted device is misplaced). If the calling account had been revoked `role`, emits a {RoleRevoked} event. Requirements: - the caller must be `account`. May emit a {RoleRevoked} event."
      },
      "revokeRole(bytes32,address)": {
        "details": "Revokes `role` from `account`. If `account` had been granted `role`, emits a {RoleRevoked} event. Requirements: - the caller must have ``role``'s admin role. May emit a {RoleRevoked} event."
      },
      "supportsInterface(bytes4)": {
        "details": "See {IERC165-supportsInterface}."
      }
    },
    "title": "ClusterCommunication",
    "version": 1
  },
  "userdoc": {
    "kind": "user",
    "methods": {},
    "version": 1
  }
}