{
  "contractName": "ConfidenceScoreCalculator",
  "abi": [
    {
      "inputs": [],
      "stateMutability": "nonpayable",
      "type": "constructor"
    },
    {
      "anonymous": false,
      "inputs": [
        {
          "indexed": true,
          "internalType": "address",
          "name": "sender",
          "type": "address"
        },
        {
          "indexed": false,
          "internalType": "uint256",
          "name": "score",
          "type": "uint256"
        }
      ],
      "name": "ConfidenceScoreCalculated",
      "type": "event"
    },
    {
      "anonymous": false,
      "inputs": [
        {
          "indexed": true,
          "internalType": "address",
          "name": "sender",
          "type": "address"
        },
        {
          "indexed": false,
          "internalType": "uint256",
          "name": "successfulTx",
          "type": "uint256"
        },
        {
          "indexed": false,
          "internalType": "uint256",
          "name": "totalTx",
          "type": "uint256"
        }
      ],
      "name": "ReputationUpdated",
      "type": "event"
    },
    {
      "anonymous": false,
      "inputs": [
        {
          "indexed": true,
          "internalType": "bytes32",
          "name": "role",
          "type": "bytes32"
        },
        {
          "indexed": true,
          "internalType": "bytes32",
          "name": "previousAdminRole",
          "type": "bytes32"
        },
        {
          "indexed": true,
          "internalType": "bytes32",
          "name": "newAdminRole",
          "type": "bytes32"
        }
      ],
      "name": "RoleAdminChanged",
      "type": "event"
    },
    {
      "anonymous": false,
      "inputs": [
        {
          "indexed": true,
          "internalType": "bytes32",
          "name": "role",
          "type": "bytes32"
        },
        {
          "indexed": true,
          "internalType": "address",
          "name": "account",
          "type": "address"
        },
        {
          "indexed": true,
          "internalType": "address",
          "name": "sender",
          "type": "address"
        }
      ],
      "name": "RoleGranted",
      "type": "event"
    },
    {
      "anonymous": false,
      "inputs": [
        {
          "indexed": true,
          "internalType": "bytes32",
          "name": "role",
          "type": "bytes32"
        },
        {
          "indexed": true,
          "internalType": "address",
          "name": "account",
          "type": "address"
        },
        {
          "indexed": true,
          "internalType": "address",
          "name": "sender",
          "type": "address"
        }
      ],
      "name": "RoleRevoked",
      "type": "event"
    },
    {
      "inputs": [],
      "name": "DEFAULT_ADMIN_ROLE",
      "outputs": [
        {
          "internalType": "bytes32",
          "name": "",
          "type": "bytes32"
        }
      ],
      "stateMutability": "view",
      "type": "function",
      "constant": true
    },
    {
      "inputs": [],
      "name": "HIGH_CONFIDENCE_THRESHOLD",
      "outputs": [
        {
          "internalType": "uint256",
          "name": "",
          "type": "uint256"
        }
      ],
      "stateMutability": "view",
      "type": "function",
      "constant": true
    },
    {
      "inputs": [],
      "name": "LOW_CONFIDENCE_THRESHOLD",
      "outputs": [
        {
          "internalType": "uint256",
          "name": "",
          "type": "uint256"
        }
      ],
      "stateMutability": "view",
      "type": "function",
      "constant": true
    },
    {
      "inputs": [],
      "name": "NETWORK_STATE_WEIGHT",
      "outputs": [
        {
          "internalType": "uint256",
          "name": "",
          "type": "uint256"
        }
      ],
      "stateMutability": "view",
      "type": "function",
      "constant": true
    },
    {
      "inputs": [],
      "name": "SENDER_REPUTATION_WEIGHT",
      "outputs": [
        {
          "internalType": "uint256",
          "name": "",
          "type": "uint256"
        }
      ],
      "stateMutability": "view",
      "type": "function",
      "constant": true
    },
    {
      "inputs": [],
      "name": "TRANSACTION_PATTERN_WEIGHT",
      "outputs": [
        {
          "internalType": "uint256",
          "name": "",
          "type": "uint256"
        }
      ],
      "stateMutability": "view",
      "type": "function",
      "constant": true
    },
    {
      "inputs": [],
      "name": "ZK_VERIFICATION_WEIGHT",
      "outputs": [
        {
          "internalType": "uint256",
          "name": "",
          "type": "uint256"
        }
      ],
      "stateMutability": "view",
      "type": "function",
      "constant": true
    },
    {
      "inputs": [
        {
          "internalType": "bytes32",
          "name": "role",
          "type": "bytes32"
        }
      ],
      "name": "getRoleAdmin",
      "outputs": [
        {
          "internalType": "bytes32",
          "name": "",
          "type": "bytes32"
        }
      ],
      "stateMutability": "view",
      "type": "function",
      "constant": true
    },
    {
      "inputs": [
        {
          "internalType": "bytes32",
          "name": "role",
          "type": "bytes32"
        },
        {
          "internalType": "address",
          "name": "account",
          "type": "address"
        }
      ],
      "name": "grantRole",
      "outputs": [],
      "stateMutability": "nonpayable",
      "type": "function"
    },
    {
      "inputs": [
        {
          "internalType": "bytes32",
          "name": "role",
          "type": "bytes32"
        },
        {
          "internalType": "address",
          "name": "account",
          "type": "address"
        }
      ],
      "name": "hasRole",
      "outputs": [
        {
          "internalType": "bool",
          "name": "",
          "type": "bool"
        }
      ],
      "stateMutability": "view",
      "type": "function",
      "constant": true
    },
    {
      "inputs": [
        {
          "internalType": "bytes32",
          "name": "role",
          "type": "bytes32"
        },
        {
          "internalType": "address",
          "name": "account",
          "type": "address"
        }
      ],
      "name": "renounceRole",
      "outputs": [],
      "stateMutability": "nonpayable",
      "type": "function"
    },
    {
      "inputs": [
        {
          "internalType": "bytes32",
          "name": "role",
          "type": "bytes32"
        },
        {
          "internalType": "address",
          "name": "account",
          "type": "address"
        }
      ],
      "name": "revokeRole",
      "outputs": [],
      "stateMutability": "nonpayable",
      "type": "function"
    },
    {
      "inputs": [
        {
          "internalType": "address",
          "name": "",
          "type": "address"
        }
      ],
      "name": "scoreComponents",
      "outputs": [
        {
          "internalType": "uint256",
          "name": "senderReputation",
          "type": "uint256"
        },
        {
          "internalType": "uint256",
          "name": "transactionPattern",
          "type": "uint256"
        },
        {
          "internalType": "uint256",
          "name": "zkVerification",
          "type": "uint256"
        },
        {
          "internalType": "uint256",
          "name": "networkState",
          "type": "uint256"
        }
      ],
      "stateMutability": "view",
      "type": "function",
      "constant": true
    },
    {
      "inputs": [
        {
          "internalType": "bytes4",
          "name": "interfaceId",
          "type": "bytes4"
        }
      ],
      "name": "supportsInterface",
      "outputs": [
        {
          "internalType": "bool",
          "name": "",
          "type": "bool"
        }
      ],
      "stateMutability": "view",
      "type": "function",
      "constant": true
    },
    {
      "inputs": [
        {
          "internalType": "address",
          "name": "sender",
          "type": "address"
        },
        {
          "internalType": "uint256",
          "name": "txFrequency",
          "type": "uint256"
        },
        {
          "internalType": "bool",
          "name": "zkProofValid",
          "type": "bool"
        },
        {
          "internalType": "uint256",
          "name": "networkLoad",
          "type": "uint256"
        }
      ],
      "name": "calculateConfidenceScore",
      "outputs": [
        {
          "internalType": "uint256",
          "name": "",
          "type": "uint256"
        }
      ],
      "stateMutability": "view",
      "type": "function",
      "constant": true
    },
    {
      "inputs": [
        {
          "internalType": "uint256",
          "name": "frequency",
          "type": "uint256"
        }
      ],
      "name": "updateTransactionFrequency",
      "outputs": [],
      "stateMutability": "nonpayable",
      "type": "function"
    }
  ],
  "bytecode": "0x608060405234801561001057600080fd5b5061001c600033610021565b6100cd565b61002b828261002f565b5050565b6000828152602081815260408083206001600160a01b038516845290915290205460ff1661002b576000828152602081815260408083206001600160a01b03851684529091529020805460ff191660011790556100893390565b6001600160a01b0316816001600160a01b0316837f2f8788117e7eff1d82e926ec794901d17c78024a50270940304540a733656f0d60405160405180910390a45050565b611091806100dc6000396000f3fe608060405234801561001057600080fd5b50600436106101005760003560e01c80636e71cfa511610097578063a217fddf11610066578063a217fddf14610227578063bc8258b21461022f578063d547741f14610238578063e665ad721461024b57600080fd5b80636e71cfa51461019757806374231348146101ee5780638c19f4321461020157806391d148541461021457600080fd5b806336568abe116100d357806336568abe1461017c5780633acd86671461018f578063554a84b61461018f5780635e5fa0851461012d57600080fd5b806301ffc9a714610105578063225af5331461012d578063248a9ca3146101445780632f2ff15d14610167575b600080fd5b610118610113366004610db1565b610254565b60405190151581526020015b60405180910390f35b61013661012c81565b604051908152602001610124565b610136610152366004610ddb565b60009081526020819052604090206001015490565b61017a610175366004610e10565b61028b565b005b61017a61018a366004610e10565b6102b5565b61013660c881565b6101ce6101a5366004610e3c565b600260208190526000918252604090912080546001820154928201546003909201549092919084565b604080519485526020850193909352918301526060820152608001610124565b61017a6101fc366004610ddb565b610338565b61013661020f366004610e57565b610408565b610118610222366004610e10565b6104f4565b610136600081565b61013661032081565b61017a610246366004610e10565b61051d565b6101366101f481565b60006001600160e01b03198216637965db0b60e01b148061028557506301ffc9a760e01b6001600160e01b03198316145b92915050565b6000828152602081905260409020600101546102a681610542565b6102b0838361054f565b505050565b6001600160a01b038116331461032a5760405162461bcd60e51b815260206004820152602f60248201527f416363657373436f6e74726f6c3a2063616e206f6e6c792072656e6f756e636560448201526e103937b632b9903337b91039b2b63360891b60648201526084015b60405180910390fd5b61033482826105d3565b5050565b33600090815260016020526040902080546064116103f25760005b815461036190600190610eb8565b8110156103bf5781610374826001610ecb565b8154811061038457610384610ede565b90600052602060002001548282815481106103a1576103a1610ede565b600091825260209091200155806103b781610ef4565b915050610353565b508054829082906103d290600190610eb8565b815481106103e2576103e2610ede565b6000918252602090912001555050565b8054600181018255600091825260209091200155565b60006001600160a01b0385166104595760405162461bcd60e51b8152602060048201526016602482015275496e76616c69642073656e646572206164647265737360501b6044820152606401610321565b600061046486610638565b90506000610471866106fb565b9050600061047f868861079b565b9050600061048c86610874565b90506103e861049c60c883610f0d565b6104a861012c85610f0d565b6104b360c887610f0d565b6104bf61012c89610f0d565b6104c99190610ecb565b6104d39190610ecb565b6104dd9190610ecb565b6104e79190610f3a565b9998505050505050505050565b6000918252602082815260408084206001600160a01b0393909316845291905290205460ff1690565b60008281526020819052604090206001015461053881610542565b6102b083836105d3565b61054c813361092f565b50565b61055982826104f4565b610334576000828152602081815260408083206001600160a01b03851684529091529020805460ff1916600117905561058f3390565b6001600160a01b0316816001600160a01b0316837f2f8788117e7eff1d82e926ec794901d17c78024a50270940304540a733656f0d60405160405180910390a45050565b6105dd82826104f4565b15610334576000828152602081815260408083206001600160a01b0385168085529252808320805460ff1916905551339285917ff6391f5c32d9c69d2a47ea670b442974b53935d1edc7fd64eb21e047a839171b9190a45050565b6001600160a01b0381166000908152600360205260408120600181015482036106645750600092915050565b60008160010154670de0b6b3a764000083600001546106839190610f0d565b61068d9190610f3a565b905060006106a382670853a0d2313c0000610988565b905060006106ce6106c967016345785d8a0000866002015461098890919063ffffffff16565b6109ae565b905060006106e48267058d15e176280000610988565b90506106f08382610a35565b979650505050505050565b600080610706610a41565b90506000610712610ac4565b90508060000361072d5750670de0b6b3a76400009392505050565b6000828511610745576107408584610eb8565b61074f565b61074f8386610eb8565b9050600061075d8280610988565b9050600061076c846002610f0d565b9050600061077a8284610f3a565b90506000610787826109ae565b90506104e7670b1a2bc2ec50000082610988565b6000826107aa57506000610285565b6000600a83116107c35750670de0b6b3a764000061081a565b60006107d0600a85610eb8565b905060006107e667016345785d8a000083610988565b90506107f181610bb7565b61080390670de0b6b3a7640000610ecb565b61081590670de0b6b3a7640000610f3a565b925050505b6000610836670b1a2bc2ec500000670de0b6b3a7640000610988565b9050600061085e83610858670b1a2bc2ec500000670de0b6b3a7640000610eb8565b90610988565b905061086a8282610a35565b9695505050505050565b6000670de0b6b3a7640000821061088d57506000919050565b60006108a183670de0b6b3a7640000610eb8565b905060006709b6e64a8ec6000084116108cb576108c6846709b6e64a8ec60000610eb8565b6108dd565b6108dd6709b6e64a8ec6000085610eb8565b905060006108f266b1a2bc2ec5000083610988565b905060006108ff82610bb7565b61091190670de0b6b3a7640000610ecb565b61092390670de0b6b3a7640000610f3a565b905061086a8482610988565b61093982826104f4565b6103345761094681610c03565b610951836020610c15565b604051602001610962929190610f72565b60408051601f198184030181529082905262461bcd60e51b825261032191600401610fe7565b6000670de0b6b3a764000061099d8385610f0d565b6109a79190610f3a565b9392505050565b6000670de0b6b3a76400008060015b60058111610a2c57806109d08387610988565b6109da9190610f3a565b91506109e760028261101a565b600103610a0d578183116109fc576000610a06565b610a068284610eb8565b9250610a1a565b610a178383610a35565b92505b80610a2481610ef4565b9150506109bd565b50909392505050565b60006109a78284610ecb565b33600090815260016020526040812080548203610a6057600091505090565b6000805b8254811015610ab057610a9c838281548110610a8257610a82610ede565b906000526020600020015483610a3590919063ffffffff16565b915080610aa881610ef4565b915050610a64565b508154610abd9082610f3a565b9250505090565b33600090815260016020526040812080548203610ae357600091505090565b6000610aed610a41565b90506000805b8354811015610ba257600083858381548110610b1157610b11610ede565b906000526020600020015411610b4e57848281548110610b3357610b33610ede565b906000526020600020015484610b499190610eb8565b610b76565b83858381548110610b6157610b61610ede565b9060005260206000200154610b769190610eb8565b9050610b8c610b858280610988565b8490610a35565b9250508080610b9a90610ef4565b915050610af3565b508254610baf9082610f3a565b935050505090565b6000670de0b6b3a76400008060015b60058111610a2c5780610bd98387610988565b610be39190610f3a565b9150610bef8383610a35565b925080610bfb81610ef4565b915050610bc6565b60606102856001600160a01b03831660145b60606000610c24836002610f0d565b610c2f906002610ecb565b67ffffffffffffffff811115610c4757610c4761102e565b6040519080825280601f01601f191660200182016040528015610c71576020820181803683370190505b509050600360fc1b81600081518110610c8c57610c8c610ede565b60200101906001600160f81b031916908160001a905350600f60fb1b81600181518110610cbb57610cbb610ede565b60200101906001600160f81b031916908160001a9053506000610cdf846002610f0d565b610cea906001610ecb565b90505b6001811115610d62576f181899199a1a9b1b9c1cb0b131b232b360811b85600f1660108110610d1e57610d1e610ede565b1a60f81b828281518110610d3457610d34610ede565b60200101906001600160f81b031916908160001a90535060049490941c93610d5b81611044565b9050610ced565b5083156109a75760405162461bcd60e51b815260206004820181905260248201527f537472696e67733a20686578206c656e67746820696e73756666696369656e746044820152606401610321565b600060208284031215610dc357600080fd5b81356001600160e01b0319811681146109a757600080fd5b600060208284031215610ded57600080fd5b5035919050565b80356001600160a01b0381168114610e0b57600080fd5b919050565b60008060408385031215610e2357600080fd5b82359150610e3360208401610df4565b90509250929050565b600060208284031215610e4e57600080fd5b6109a782610df4565b60008060008060808587031215610e6d57600080fd5b610e7685610df4565b93506020850135925060408501358015158114610e9257600080fd5b9396929550929360600135925050565b634e487b7160e01b600052601160045260246000fd5b8181038181111561028557610285610ea2565b8082018082111561028557610285610ea2565b634e487b7160e01b600052603260045260246000fd5b600060018201610f0657610f06610ea2565b5060010190565b808202811582820484141761028557610285610ea2565b634e487b7160e01b600052601260045260246000fd5b600082610f4957610f49610f24565b500490565b60005b83811015610f69578181015183820152602001610f51565b50506000910152565b7f416363657373436f6e74726f6c3a206163636f756e7420000000000000000000815260008351610faa816017850160208801610f4e565b7001034b99036b4b9b9b4b733903937b6329607d1b6017918401918201528351610fdb816028840160208801610f4e565b01602801949350505050565b6020815260008251806020840152611006816040850160208701610f4e565b601f01601f19169190910160400192915050565b60008261102957611029610f24565b500690565b634e487b7160e01b600052604160045260246000fd5b60008161105357611053610ea2565b50600019019056fea26469706673582212206bebaaa0f4254b1df5b5d8035fea73de50653e082f3c67f863a2042b0cebb57164736f6c63430008110033",
  "immutableReferences": {},
  "source": "// SPDX-License-Identifier: MIT\npragma solidity ^0.8.0;\n\nimport \"@openzeppelin/contracts/security/ReentrancyGuard.sol\";\nimport \"@openzeppelin/contracts/security/Pausable.sol\";\nimport \"@openzeppelin/contracts/access/AccessControl.sol\";\nimport \"../../library/FixedPointMath.sol\";\nimport \"../../library/TransactionTypes.sol\";\n\n/**\n * @title PacechainChannel\n * @dev Manages transmission channels between blockchains\n */\ncontract PacechainChannel is ReentrancyGuard, Pausable, AccessControl {\n    using TransactionTypes for TransactionTypes.Channel;\n    using FixedPointMath for uint256;\n    \n    bytes32 public constant CHANNEL_OPERATOR = keccak256(\"CHANNEL_OPERATOR\");\n    \n    mapping(bytes32 => TransactionTypes.Channel) public channels;\n    mapping(bytes32 => TransactionTypes.SpeculativeTx) public speculativeTxs;\n    mapping(bytes32 => TransactionTypes.ConfirmableTx) public confirmableTxs;\n    \n    event ChannelCreated(bytes32 indexed channelId, address sourceBridge, address targetBridge);\n    event SpeculativeTxCreated(bytes32 indexed txId, address sender, uint256 anticipatedTime);\n    event ConfirmableTxCreated(bytes32 indexed txId, bytes32 speculativeTxId);\n    \n    constructor() {\n        _setupRole(DEFAULT_ADMIN_ROLE, msg.sender);\n    }\n    \n    function createChannel(\n        address sourceBridge,\n        address targetBridge,\n        uint256 confidenceThreshold\n    ) external onlyRole(CHANNEL_OPERATOR) returns (bytes32) {\n        require(sourceBridge != address(0), \"Invalid source bridge\");\n        require(targetBridge != address(0), \"Invalid target bridge\");\n        require(confidenceThreshold > 0, \"Invalid threshold\");\n\n        bytes32 channelId = keccak256(abi.encodePacked(\n            sourceBridge,\n            targetBridge,\n            block.timestamp\n        ));\n        \n        channels[channelId] = TransactionTypes.Channel({\n            id: channelId,\n            sourceBridge: sourceBridge,\n            targetBridge: targetBridge,\n            creationTime: block.timestamp,\n            isActive: true,\n            confidenceThreshold: confidenceThreshold\n        });\n        \n        emit ChannelCreated(channelId, sourceBridge, targetBridge);\n        return channelId;\n    }\n}\n\n/**\n * @title SpeculativeTransactionHandler\n * @dev Handles creation and management of speculative transactions\n */\ncontract SpeculativeTransactionHandler is ReentrancyGuard, AccessControl {\n    using TransactionTypes for TransactionTypes.SpeculativeTx;\n    \n    struct RBFParams {\n        uint256 beta;\n        uint256 epsilon;\n        bytes interpolationData;\n    }\n    \n    mapping(bytes32 => RBFParams) public rbfParams;\n    \n    event SpeculativeCalculationComplete(bytes32 indexed txId, uint256 beta, uint256 epsilon);\n    \n    struct RBFPoint {\n        uint256 x;\n        uint256 y;\n        uint256 lambda;\n    }\n\n    struct RBFCalculation {\n        uint256 beta;\n        uint256 epsilon;\n        uint256 pointCount;\n        mapping(uint256 => RBFPoint) points;\n    }\n\n    mapping(bytes32 => RBFCalculation) private rbfCalculations;\n\n    uint256 private constant PRECISION = 1e18;\n\n    function calculateRBFInterpolation(\n        bytes32 txId,\n        bytes memory data,\n        uint256 beta\n    ) external nonReentrant returns (bytes memory) {\n        (RBFPoint[] memory inputPoints) = abi.decode(data, (RBFPoint[]));\n        require(inputPoints.length > 0, \"No input points provided\");\n\n        RBFCalculation storage calc = rbfCalculations[txId];\n        calc.beta = beta;\n        calc.pointCount = inputPoints.length;\n\n        uint256[] memory virtualPoints = new uint256[](inputPoints.length);\n        \n        for (uint256 i = 0; i < inputPoints.length; i++) {\n            uint256 sum = 0;\n            \n            for (uint256 j = 0; j < inputPoints.length; j++) {\n                uint256 distance = calculateSquaredDistance(\n                    inputPoints[i].x,\n                    inputPoints[i].y,\n                    inputPoints[j].x,\n                    inputPoints[j].y\n                );\n                \n                uint256 phi = calculateGaussianRBF(distance, beta);\n                sum = addFixedPoint(sum, multiplyFixedPoint(inputPoints[j].lambda, phi));\n            }\n            \n            virtualPoints[i] = sum;\n            calc.points[i] = RBFPoint({\n                x: inputPoints[i].x,\n                y: inputPoints[i].y,\n                lambda: sum\n            });\n        }\n\n        require(monitorConvergence(txId, virtualPoints), \"RBF interpolation did not converge\");\n\n        return abi.encode(virtualPoints);\n    }\n\n    function calculateSquaredDistance(\n        uint256 x1,\n        uint256 y1,\n        uint256 x2,\n        uint256 y2\n    ) internal pure returns (uint256) {\n        uint256 dx = x1 > x2 ? x1 - x2 : x2 - x1;\n        uint256 dy = y1 > y2 ? y1 - y2 : y2 - y1;\n        \n        return addFixedPoint(\n            multiplyFixedPoint(dx, dx),\n            multiplyFixedPoint(dy, dy)\n        );\n    }\n\n    function calculateGaussianRBF(\n        uint256 distance,\n        uint256 beta\n    ) internal pure returns (uint256) {\n        uint256 exponent = multiplyFixedPoint(beta, distance);\n        return exponentialDecay(exponent);\n    }\n\n    function exponentialDecay(uint256 x) internal pure returns (uint256) {\n        uint256 result = PRECISION;\n        uint256 term = PRECISION;\n        \n        for (uint256 i = 1; i <= 5; i++) {\n            term = multiplyFixedPoint(term, x) / i;\n            if (i % 2 == 1) {\n                result = result > term ? result - term : 0;\n            } else {\n                result = addFixedPoint(result, term);\n            }\n        }\n        \n        return result;\n    }\n\n    function monitorConvergence(\n        bytes32 txId,\n        uint256[] memory virtualPoints\n    ) internal view returns (bool) {\n        RBFCalculation storage calc = rbfCalculations[txId];\n        \n        for (uint256 i = 0; i < virtualPoints.length; i++) {\n            uint256 difference = virtualPoints[i] > calc.points[i].lambda ?\n                virtualPoints[i] - calc.points[i].lambda :\n                calc.points[i].lambda - virtualPoints[i];\n                \n            if (difference > calc.epsilon) {\n                return false;\n            }\n        }\n        \n        return true;\n    }\n\n    function multiplyFixedPoint(uint256 a, uint256 b) internal pure returns (uint256) {\n        return (a * b) / PRECISION;\n    }\n\n    function addFixedPoint(uint256 a, uint256 b) internal pure returns (uint256) {\n        return a + b;\n    }\n}\n/**\n * @title ConfidenceScoreCalculator\n * @dev Calculates and manages confidence scores for transactions\n */\n\ncontract ConfidenceScoreCalculator is AccessControl {\n    using FixedPointMath for uint256;\n\n    mapping(address => uint256[]) private transactionFrequencies;\n    mapping(address => ScoreComponents) public scoreComponents;\n    mapping(address => ReputationData) private reputationStore;\n\n    uint256 private constant MAX_FREQUENCY_SAMPLES = 100;\n    uint256 private constant PRECISION = 1e18;\n    \n    uint256 private constant OPTIMAL_LOAD = 700 * 1e15;\n    uint256 private constant LOAD_SENSITIVITY = 50 * 1e15;\n    uint256 private constant DELTA = 800 * 1e15;\n    uint256 private constant K = 100 * 1e15;\n    uint256 private constant TAU = 10;\n    uint256 private constant ALPHA = 600 * 1e15;\n    uint256 private constant BETA = 400 * 1e15;\n    uint256 private constant LAMBDA = 100 * 1e15;\n    uint256 private constant GAMMA = 800 * 1e15;\n\n    uint256 public constant HIGH_CONFIDENCE_THRESHOLD = 800;\n    uint256 public constant LOW_CONFIDENCE_THRESHOLD = 500;\n    \n    uint256 public constant SENDER_REPUTATION_WEIGHT = 300;\n    uint256 public constant TRANSACTION_PATTERN_WEIGHT = 200;\n    uint256 public constant ZK_VERIFICATION_WEIGHT = 300;\n    uint256 public constant NETWORK_STATE_WEIGHT = 200;\n\n    struct ScoreComponents {\n        uint256 senderReputation;\n        uint256 transactionPattern;\n        uint256 zkVerification;\n        uint256 networkState;\n    }\n\n    struct ReputationData {\n        uint256 successfulTx;\n        uint256 totalTx;\n        uint256 failedAttempts;\n    }\n\n    event ConfidenceScoreCalculated(address indexed sender, uint256 score);\n    event ReputationUpdated(address indexed sender, uint256 successfulTx, uint256 totalTx);\n\n    constructor() {\n        _setupRole(DEFAULT_ADMIN_ROLE, msg.sender);\n    }\n\n    function calculateConfidenceScore(\n        address sender,\n        uint256 txFrequency,\n        bool zkProofValid,\n        uint256 networkLoad\n    ) external view returns (uint256) {\n        require(sender != address(0), \"Invalid sender address\");\n        \n        uint256 senderScore = calculateSenderReputation(sender);\n        uint256 patternScore = calculateTransactionPattern(txFrequency);\n        uint256 zkScore = calculateZKScore(zkProofValid, txFrequency);\n        uint256 networkScore = calculateNetworkScore(networkLoad);\n        \n        return (senderScore * SENDER_REPUTATION_WEIGHT +\n                patternScore * TRANSACTION_PATTERN_WEIGHT +\n                zkScore * ZK_VERIFICATION_WEIGHT +\n                networkScore * NETWORK_STATE_WEIGHT) / 1000;\n    }\n\n    function calculateSenderReputation(address sender) internal view returns (uint256) {\n        ReputationData storage repData = reputationStore[sender];\n        \n        if (repData.totalTx == 0) return 0;\n\n        uint256 successRatio = (repData.successfulTx * PRECISION) / repData.totalTx;\n        uint256 weightedSuccess = successRatio.multiplyFixedPoint(ALPHA);\n        \n        uint256 failurePenalty = FixedPointMath.exponentialDecay(\n            uint256(repData.failedAttempts).multiplyFixedPoint(LAMBDA)\n        );\n        uint256 weightedFailure = failurePenalty.multiplyFixedPoint(BETA);\n        \n        return weightedSuccess.addFixedPoint(weightedFailure);\n    }\n\n    function calculateTransactionPattern(uint256 frequency) internal view returns (uint256) {\n        uint256 meanFreq = getMeanFrequency();\n        uint256 variance = getVariance();\n        \n        if (variance == 0) return PRECISION;\n        \n        uint256 diff = frequency > meanFreq ? \n            frequency - meanFreq : \n            meanFreq - frequency;\n        uint256 diffSquared = diff.multiplyFixedPoint(diff);\n        \n        uint256 denominator = 2 * variance;\n        uint256 exponent = diffSquared / denominator;\n        uint256 expValue = FixedPointMath.exponentialDecay(exponent);\n        \n        return GAMMA.multiplyFixedPoint(expValue);\n    }\n\n    function calculateZKScore(\n        bool proofValid,\n        uint256 verificationTime\n    ) internal pure returns (uint256) {\n        if (!proofValid) return 0;\n        \n        uint256 timeScore;\n        if (verificationTime <= TAU) {\n            timeScore = PRECISION;\n        } else {\n            uint256 timeDiff = verificationTime - TAU;\n            uint256 exponent = K.multiplyFixedPoint(timeDiff);\n            timeScore = PRECISION / (PRECISION + FixedPointMath.exponentialGrowth(exponent));\n        }\n        \n        uint256 proofScore = DELTA.multiplyFixedPoint(PRECISION);\n        uint256 timeWeightedScore = (PRECISION - DELTA).multiplyFixedPoint(timeScore);\n        \n        return proofScore.addFixedPoint(timeWeightedScore);\n    }\n\n    function calculateNetworkScore(uint256 networkLoad) internal pure returns (uint256) {\n        if (networkLoad >= PRECISION) return 0;\n        \n        uint256 resourceRatio = PRECISION - networkLoad;\n        uint256 loadDiff = networkLoad > OPTIMAL_LOAD ? \n            networkLoad - OPTIMAL_LOAD : \n            OPTIMAL_LOAD - networkLoad;\n            \n        uint256 exponent = LOAD_SENSITIVITY.multiplyFixedPoint(loadDiff);\n        uint256 loadFactor = PRECISION / (PRECISION + FixedPointMath.exponentialGrowth(exponent));\n        \n        return resourceRatio.multiplyFixedPoint(loadFactor);\n    }\n\n    function getMeanFrequency() internal view returns (uint256) {\n        uint256[] storage frequencies = transactionFrequencies[msg.sender];\n        if (frequencies.length == 0) return 0;\n        \n        uint256 sum = 0;\n        for (uint256 i = 0; i < frequencies.length; i++) {\n            sum = sum.addFixedPoint(frequencies[i]);\n        }\n        return sum / frequencies.length;\n    }\n    \n    function getVariance() internal view returns (uint256) {\n        uint256[] storage frequencies = transactionFrequencies[msg.sender];\n        if (frequencies.length == 0) return 0;\n        \n        uint256 mean = getMeanFrequency();\n        uint256 sumSquaredDiff = 0;\n        \n        for (uint256 i = 0; i < frequencies.length; i++) {\n            uint256 diff = frequencies[i] > mean ? \n                frequencies[i] - mean : \n                mean - frequencies[i];\n            sumSquaredDiff = sumSquaredDiff.addFixedPoint(diff.multiplyFixedPoint(diff));\n        }\n        \n        return sumSquaredDiff / frequencies.length;\n    }\n\n    function updateTransactionFrequency(uint256 frequency) external {\n        uint256[] storage frequencies = transactionFrequencies[msg.sender];\n        \n        if (frequencies.length >= MAX_FREQUENCY_SAMPLES) {\n            // Remove oldest frequency\n            for (uint256 i = 0; i < frequencies.length - 1; i++) {\n                frequencies[i] = frequencies[i + 1];\n            }\n            frequencies[frequencies.length - 1] = frequency;\n        } else {\n            frequencies.push(frequency);\n        }\n    }\n}\n\ncontract AssetTransferProcessor is ReentrancyGuard, AccessControl {\n    struct AssetTransfer {\n        bytes32 txId;\n        address asset;\n        uint256 amount;\n        uint256 lockTime;\n        bytes32 hashLock;\n        bool isCompleted;\n    }\n    \n    mapping(bytes32 => AssetTransfer) public assetTransfers;\n    \n    event AssetLocked(bytes32 indexed txId, address asset, uint256 amount);\n    event AssetReleased(bytes32 indexed txId, address asset, uint256 amount);\n    \n    function initiateAssetTransfer(\n        bytes32 txId,\n        address asset,\n        uint256 amount,\n        bytes32 hashLock\n    ) external nonReentrant {\n        assetTransfers[txId] = AssetTransfer({\n            txId: txId,\n            asset: asset,\n            amount: amount,\n            lockTime: block.timestamp + 1 hours,\n            hashLock: hashLock,\n            isCompleted: false\n        });\n        \n        emit AssetLocked(txId, asset, amount);\n    }\n}",
  "sourcePath": "C:\\Users\\Bonsu\\Documents\\crosschainproject\\contracts\\passchain\\PacechainChannel.sol",
  "compiler": {
    "name": "solc",
    "version": "0.8.17+commit.8df45f5f.Emscripten.clang"
  },
  "schemaVersion": "3.4.16",
  "updatedAt": "2025-02-07T14:38:22.488Z",
  "networkType": "ethereum",
  "devdoc": {
    "details": "Calculates and manages confidence scores for transactions",
    "kind": "dev",
    "methods": {
      "getRoleAdmin(bytes32)": {
        "details": "Returns the admin role that controls `role`. See {grantRole} and {revokeRole}. To change a role's admin, use {_setRoleAdmin}."
      },
      "grantRole(bytes32,address)": {
        "details": "Grants `role` to `account`. If `account` had not been already granted `role`, emits a {RoleGranted} event. Requirements: - the caller must have ``role``'s admin role. May emit a {RoleGranted} event."
      },
      "hasRole(bytes32,address)": {
        "details": "Returns `true` if `account` has been granted `role`."
      },
      "renounceRole(bytes32,address)": {
        "details": "Revokes `role` from the calling account. Roles are often managed via {grantRole} and {revokeRole}: this function's purpose is to provide a mechanism for accounts to lose their privileges if they are compromised (such as when a trusted device is misplaced). If the calling account had been revoked `role`, emits a {RoleRevoked} event. Requirements: - the caller must be `account`. May emit a {RoleRevoked} event."
      },
      "revokeRole(bytes32,address)": {
        "details": "Revokes `role` from `account`. If `account` had been granted `role`, emits a {RoleRevoked} event. Requirements: - the caller must have ``role``'s admin role. May emit a {RoleRevoked} event."
      },
      "supportsInterface(bytes4)": {
        "details": "See {IERC165-supportsInterface}."
      }
    },
    "title": "ConfidenceScoreCalculator",
    "version": 1
  },
  "userdoc": {
    "kind": "user",
    "methods": {},
    "version": 1
  }
}