{
  "contractName": "FixedPointMath",
  "abi": [
    {
      "inputs": [],
      "name": "E",
      "outputs": [
        {
          "internalType": "uint256",
          "name": "",
          "type": "uint256"
        }
      ],
      "stateMutability": "view",
      "type": "function"
    },
    {
      "inputs": [],
      "name": "PRECISION",
      "outputs": [
        {
          "internalType": "uint256",
          "name": "",
          "type": "uint256"
        }
      ],
      "stateMutability": "view",
      "type": "function"
    }
  ],
  "bytecode": "0x60a6610038600b82828239805160001a607314602b57634e487b7160e01b600052600060045260246000fd5b30600052607381538281f3fe7300000000000000000000000000000000000000003014608060405260043610603d5760003560e01c806392bbf6e8146042578063aaf5eb68146062575b600080fd5b60506725b946ebc0b3617381565b60405190815260200160405180910390f35b6050670de0b6b3a76400008156fea26469706673582212200c4cc9c509437f7c2ef1cdf5869b30b54cf22fbbd72ec3c9eeb8ceeee40d787664736f6c63430008110033",
  "immutableReferences": {},
  "source": "// SPDX-License-Identifier: MIT\n pragma solidity ^0.8.0;\n/**\n * @title FixedPointMath\n * @dev Library for fixed-point arithmetic operations\n */\n\nlibrary FixedPointMath {\n    uint256 public constant PRECISION = 1e18;\n    uint256 public constant E = 2718281828459045235; // e * 1e18\n\n    function multiplyFixedPoint(uint256 a, uint256 b) internal pure returns (uint256) {\n        return (a * b) / PRECISION;\n    }\n\n    function addFixedPoint(uint256 a, uint256 b) internal pure returns (uint256) {\n        return a + b;\n    }\n\n    function exponentialDecay(uint256 x) internal pure returns (uint256) {\n        // Taylor series approximation of e^(-x)\n        // e^(-x) ≈ 1 - x + x²/2! - x³/3! + x⁴/4! - x⁵/5!\n        uint256 result = PRECISION; // 1\n        uint256 term = PRECISION;   // First term\n        \n        for (uint256 i = 1; i <= 5; i++) {\n            term = multiplyFixedPoint(term, x) / i;\n            if (i % 2 == 1) {\n                result = result > term ? result - term : 0;\n            } else {\n                result = addFixedPoint(result, term);\n            }\n        }\n        \n        return result;\n    }\n   function exponentialGrowth(uint256 x) internal pure returns (uint256) {\n        // Taylor series approximation of e^x\n        uint256 result = PRECISION;\n        uint256 term = PRECISION;\n        \n        for (uint256 i = 1; i <= 5; i++) {\n            term = multiplyFixedPoint(term, x) / i;\n            result = addFixedPoint(result, term);\n        }\n        \n        return result;\n    }\n}",
  "sourcePath": "C:\\Users\\Bonsu\\Documents\\CROSS CHAIN UNIVERSAL COMPOSABILITY\\EXPERIMENTS\\crosschain-passchain\\library\\FixedPointMath.sol",
  "compiler": {
    "name": "solc",
    "version": "0.8.17+commit.8df45f5f.Emscripten.clang"
  },
  "schemaVersion": "3.4.16",
  "updatedAt": "2025-01-15T15:00:41.228Z",
  "devdoc": {
    "details": "Library for fixed-point arithmetic operations",
    "kind": "dev",
    "methods": {},
    "title": "FixedPointMath",
    "version": 1
  },
  "userdoc": {
    "kind": "user",
    "methods": {},
    "version": 1
  }
}