{
  "contractName": "MetadataParser",
  "abi": [
    {
      "inputs": [],
      "stateMutability": "nonpayable",
      "type": "constructor"
    },
    {
      "anonymous": false,
      "inputs": [
        {
          "indexed": true,
          "internalType": "bytes32",
          "name": "transactionId",
          "type": "bytes32"
        },
        {
          "indexed": false,
          "internalType": "bool",
          "name": "isSpeculative",
          "type": "bool"
        }
      ],
      "name": "MetadataParsed",
      "type": "event"
    },
    {
      "anonymous": false,
      "inputs": [
        {
          "indexed": true,
          "internalType": "bytes32",
          "name": "originalProtocol",
          "type": "bytes32"
        },
        {
          "indexed": true,
          "internalType": "bytes32",
          "name": "convertedProtocol",
          "type": "bytes32"
        }
      ],
      "name": "ProtocolConverted",
      "type": "event"
    },
    {
      "anonymous": false,
      "inputs": [
        {
          "indexed": true,
          "internalType": "bytes32",
          "name": "transactionId",
          "type": "bytes32"
        },
        {
          "indexed": false,
          "internalType": "enum MetadataParser.TransactionStatus",
          "name": "status",
          "type": "uint8"
        }
      ],
      "name": "TransactionStatusUpdated",
      "type": "event"
    },
    {
      "inputs": [],
      "name": "encryptionHandler",
      "outputs": [
        {
          "internalType": "contract ChaCha20Poly1305",
          "name": "",
          "type": "address"
        }
      ],
      "stateMutability": "view",
      "type": "function"
    },
    {
      "inputs": [
        {
          "internalType": "bytes32",
          "name": "",
          "type": "bytes32"
        }
      ],
      "name": "irNodes",
      "outputs": [
        {
          "internalType": "bytes32",
          "name": "nodeType",
          "type": "bytes32"
        },
        {
          "internalType": "bytes",
          "name": "value",
          "type": "bytes"
        }
      ],
      "stateMutability": "view",
      "type": "function"
    },
    {
      "inputs": [
        {
          "internalType": "bytes32",
          "name": "",
          "type": "bytes32"
        }
      ],
      "name": "parsedTransactions",
      "outputs": [
        {
          "internalType": "bytes32",
          "name": "transactionId",
          "type": "bytes32"
        },
        {
          "internalType": "address",
          "name": "sender",
          "type": "address"
        },
        {
          "internalType": "address",
          "name": "recipient",
          "type": "address"
        },
        {
          "internalType": "uint256",
          "name": "timestamp",
          "type": "uint256"
        },
        {
          "internalType": "bytes32",
          "name": "sourceProtocol",
          "type": "bytes32"
        },
        {
          "internalType": "bytes32",
          "name": "targetProtocol",
          "type": "bytes32"
        },
        {
          "internalType": "bytes",
          "name": "encryptedPayload",
          "type": "bytes"
        },
        {
          "internalType": "bytes",
          "name": "authTag",
          "type": "bytes"
        },
        {
          "internalType": "bool",
          "name": "isSpeculative",
          "type": "bool"
        },
        {
          "internalType": "enum MetadataParser.TransactionStatus",
          "name": "status",
          "type": "uint8"
        }
      ],
      "stateMutability": "view",
      "type": "function"
    },
    {
      "inputs": [
        {
          "internalType": "bytes32",
          "name": "",
          "type": "bytes32"
        }
      ],
      "name": "protocolInstructions",
      "outputs": [
        {
          "internalType": "bytes32",
          "name": "originalProtocol",
          "type": "bytes32"
        },
        {
          "internalType": "bytes32",
          "name": "convertedProtocol",
          "type": "bytes32"
        }
      ],
      "stateMutability": "view",
      "type": "function"
    },
    {
      "inputs": [
        {
          "internalType": "address",
          "name": "_recipient",
          "type": "address"
        },
        {
          "internalType": "bytes32",
          "name": "_sourceProtocol",
          "type": "bytes32"
        },
        {
          "internalType": "bytes32",
          "name": "_targetProtocol",
          "type": "bytes32"
        },
        {
          "internalType": "bytes",
          "name": "_payload",
          "type": "bytes"
        },
        {
          "internalType": "bool",
          "name": "_isSpeculative",
          "type": "bool"
        }
      ],
      "name": "prepareTransactionMetadata",
      "outputs": [
        {
          "internalType": "bytes32",
          "name": "",
          "type": "bytes32"
        }
      ],
      "stateMutability": "nonpayable",
      "type": "function"
    },
    {
      "inputs": [
        {
          "internalType": "bytes32",
          "name": "_nodeId",
          "type": "bytes32"
        },
        {
          "internalType": "bytes32",
          "name": "_nodeType",
          "type": "bytes32"
        },
        {
          "internalType": "bytes",
          "name": "_value",
          "type": "bytes"
        }
      ],
      "name": "parseToIRNode",
      "outputs": [
        {
          "internalType": "bytes32",
          "name": "",
          "type": "bytes32"
        }
      ],
      "stateMutability": "nonpayable",
      "type": "function"
    },
    {
      "inputs": [
        {
          "internalType": "bytes32",
          "name": "_nodeId",
          "type": "bytes32"
        },
        {
          "internalType": "bytes32",
          "name": "_key",
          "type": "bytes32"
        },
        {
          "internalType": "bytes32",
          "name": "_value",
          "type": "bytes32"
        }
      ],
      "name": "addKeyValueToNode",
      "outputs": [],
      "stateMutability": "nonpayable",
      "type": "function"
    },
    {
      "inputs": [
        {
          "internalType": "bytes32",
          "name": "_originalProtocol",
          "type": "bytes32"
        },
        {
          "internalType": "bytes32",
          "name": "_targetProtocol",
          "type": "bytes32"
        },
        {
          "internalType": "bytes32[]",
          "name": "_opcodes",
          "type": "bytes32[]"
        },
        {
          "internalType": "bytes32[]",
          "name": "_convertedOpcodes",
          "type": "bytes32[]"
        }
      ],
      "name": "convertProtocolInstructions",
      "outputs": [],
      "stateMutability": "nonpayable",
      "type": "function"
    },
    {
      "inputs": [
        {
          "internalType": "bytes32",
          "name": "_transactionId",
          "type": "bytes32"
        },
        {
          "internalType": "enum MetadataParser.TransactionStatus",
          "name": "_status",
          "type": "uint8"
        }
      ],
      "name": "updateTransactionStatus",
      "outputs": [],
      "stateMutability": "nonpayable",
      "type": "function"
    },
    {
      "inputs": [
        {
          "internalType": "bytes",
          "name": "_payload",
          "type": "bytes"
        },
        {
          "internalType": "bytes32",
          "name": "_key",
          "type": "bytes32"
        },
        {
          "internalType": "bytes12",
          "name": "_nonce",
          "type": "bytes12"
        }
      ],
      "name": "encryptPayload",
      "outputs": [
        {
          "internalType": "bytes",
          "name": "encryptedPayload",
          "type": "bytes"
        },
        {
          "internalType": "bytes",
          "name": "authTag",
          "type": "bytes"
        }
      ],
      "stateMutability": "view",
      "type": "function"
    }
  ],
  "bytecode": "0x60a060405234801561001057600080fd5b50600160005560405161002290610050565b604051809103906000f08015801561003e573d6000803e3d6000fd5b506001600160a01b031660805261005d565b610c078061120683390190565b60805161118761007f6000396000818161011f015261074401526111876000f3fe608060405234801561001057600080fd5b506004361061009e5760003560e01c806375e630031161006657806375e63003146101865780637e63f29e146101a75780638f21b431146101d0578063924b75a4146101e3578063d94c2aed1461020457600080fd5b8063103e3629146100a357806315ba99b9146100e4578063241faa9a146101055780635fe57ac01461011a578063752dd7d614610159575b600080fd5b6100ca6100b136600461097b565b6002602052600090815260409020805460019091015482565b604080519283526020830191909152015b60405180910390f35b6100f76100f23660046109dd565b610217565b6040519081526020016100db565b610118610113366004610aaf565b6103f9565b005b6101417f000000000000000000000000000000000000000000000000000000000000000081565b6040516001600160a01b0390911681526020016100db565b610118610167366004610b32565b6000928352600360208181526040808620948652939091019052912055565b61019961019436600461097b565b6104fb565b6040516100db929190610bae565b6101ba6101b536600461097b565b6105a0565b6040516100db9a99989796959493929190610c07565b6100f76101de366004610c8c565b610714565b6101f66101f1366004610cdf565b61073f565b6040516100db929190610d4b565b610118610212366004610d79565b6107e6565b60006102216108b7565b600061022b610910565b60408051624b455960e81b602080830191909152602380830185905283518084039091018152604383018452805190820120644e4f4e434560d81b60638401526068808401869052845180850390910181526088909301909352815191012091925060009182919060a01b915091506000600160008581526020019081526020016000209050838160000181905550338160010160006101000a8154816001600160a01b0302191690836001600160a01b031602179055508a8160020160006101000a8154816001600160a01b0302191690836001600160a01b03160217905550428160030181905550898160040181905550888160050181905550858160080160006101000a81548160ff02191690831515021790555060008160080160016101000a81548160ff0219169083600381111561036a5761036a610bcf565b021790555060008061037e8a8a878761073f565b9092509050600683016103918382610e4c565b50600783016103a08282610e4c565b50857f90dcf39cdb73bf1f33205d7a345409be4e2503e21df5dcc2e0835ff690091e42896040516103d5911515815260200190565b60405180910390a250939450505050506103ef6001600055565b9695505050505050565b8281146104455760405162461bcd60e51b8152602060048201526015602482015274082e4e4c2f240d8cadccee8d040dad2e6dac2e8c6d605b1b60448201526064015b60405180910390fd5b600086815260026020526040812087815560018101879055905b848110156104c45783838281811061047957610479610f0c565b9050602002013582600201600088888581811061049857610498610f0c565b9050602002013581526020019081526020016000208190555080806104bc90610f22565b91505061045f565b50604051869088907f3785136c97f95352c5835e6c0a78bb71b2e81f92c7297ff5dc00fb682ff8751d90600090a350505050505050565b6003602052600090815260409020805460018201805491929161051d90610dc3565b80601f016020809104026020016040519081016040528092919081815260200182805461054990610dc3565b80156105965780601f1061056b57610100808354040283529160200191610596565b820191906000526020600020905b81548152906001019060200180831161057957829003601f168201915b5050505050905082565b600160208190526000918252604090912080549181015460028201546003830154600484015460058501546006860180546001600160a01b039687169796909516959394929391926105f190610dc3565b80601f016020809104026020016040519081016040528092919081815260200182805461061d90610dc3565b801561066a5780601f1061063f5761010080835404028352916020019161066a565b820191906000526020600020905b81548152906001019060200180831161064d57829003601f168201915b50505050509080600701805461067f90610dc3565b80601f01602080910402602001604051908101604052809291908181526020018280546106ab90610dc3565b80156106f85780601f106106cd576101008083540402835291602001916106f8565b820191906000526020600020905b8154815290600101906020018083116106db57829003601f168201915b5050506008909301549192505060ff808216916101009004168a565b600084815260036020526040812084815560018101610734848683610f49565b509495945050505050565b6060807f00000000000000000000000000000000000000000000000000000000000000006001600160a01b031663aa4e0747878787876040518563ffffffff1660e01b8152600401610794949392919061100a565b600060405180830381865afa1580156107b1573d6000803e3d6000fd5b505050506040513d6000823e601f3d908101601f191682016040526107d991908101906110d9565b9150915094509492505050565b600082815260016020819052604090912001546001600160a01b03166108465760405162461bcd60e51b8152602060048201526015602482015274151c985b9cd858dd1a5bdb881b9bdd08199bdd5b99605a1b604482015260640161043c565b6000828152600160205260409020600801805482919061ff00191661010083600381111561087657610876610bcf565b0217905550817f173ab1457fc3724e88edbcecbc7bf4bca405ec2c1e8e29b06238e3c183ed4e96826040516108ab919061113d565b60405180910390a25050565b6002600054036109095760405162461bcd60e51b815260206004820152601f60248201527f5265656e7472616e637947756172643a207265656e7472616e742063616c6c00604482015260640161043c565b6002600055565b6000610920600480546001019055565b423361092b60045490565b6040516020016109609392919092835260609190911b6bffffffffffffffffffffffff19166020830152603482015260540190565b60405160208183030381529060405280519060200120905090565b60006020828403121561098d57600080fd5b5035919050565b60008083601f8401126109a657600080fd5b50813567ffffffffffffffff8111156109be57600080fd5b6020830191508360208285010111156109d657600080fd5b9250929050565b60008060008060008060a087890312156109f657600080fd5b86356001600160a01b0381168114610a0d57600080fd5b95506020870135945060408701359350606087013567ffffffffffffffff811115610a3757600080fd5b610a4389828a01610994565b90945092505060808701358015158114610a5c57600080fd5b809150509295509295509295565b60008083601f840112610a7c57600080fd5b50813567ffffffffffffffff811115610a9457600080fd5b6020830191508360208260051b85010111156109d657600080fd5b60008060008060008060808789031215610ac857600080fd5b8635955060208701359450604087013567ffffffffffffffff80821115610aee57600080fd5b610afa8a838b01610a6a565b90965094506060890135915080821115610b1357600080fd5b50610b2089828a01610a6a565b979a9699509497509295939492505050565b600080600060608486031215610b4757600080fd5b505081359360208301359350604090920135919050565b60005b83811015610b79578181015183820152602001610b61565b50506000910152565b60008151808452610b9a816020860160208601610b5e565b601f01601f19169290920160200192915050565b828152604060208201526000610bc76040830184610b82565b949350505050565b634e487b7160e01b600052602160045260246000fd5b60048110610c0357634e487b7160e01b600052602160045260246000fd5b9052565b8a81526001600160a01b038a8116602083015289166040820152606081018890526080810187905260a0810186905261014060c08201819052600090610c4f83820188610b82565b905082810360e0840152610c638187610b82565b915050831515610100830152610c7d610120830184610be5565b9b9a5050505050505050505050565b60008060008060608587031215610ca257600080fd5b8435935060208501359250604085013567ffffffffffffffff811115610cc757600080fd5b610cd387828801610994565b95989497509550505050565b60008060008060608587031215610cf557600080fd5b843567ffffffffffffffff811115610d0c57600080fd5b610d1887828801610994565b9095509350506020850135915060408501356001600160a01b031981168114610d4057600080fd5b939692955090935050565b604081526000610d5e6040830185610b82565b8281036020840152610d708185610b82565b95945050505050565b60008060408385031215610d8c57600080fd5b82359150602083013560048110610da257600080fd5b809150509250929050565b634e487b7160e01b600052604160045260246000fd5b600181811c90821680610dd757607f821691505b602082108103610df757634e487b7160e01b600052602260045260246000fd5b50919050565b601f821115610e4757600081815260208120601f850160051c81016020861015610e245750805b601f850160051c820191505b81811015610e4357828155600101610e30565b5050505b505050565b815167ffffffffffffffff811115610e6657610e66610dad565b610e7a81610e748454610dc3565b84610dfd565b602080601f831160018114610eaf5760008415610e975750858301515b600019600386901b1c1916600185901b178555610e43565b600085815260208120601f198616915b82811015610ede57888601518255948401946001909101908401610ebf565b5085821015610efc5787850151600019600388901b60f8161c191681555b5050505050600190811b01905550565b634e487b7160e01b600052603260045260246000fd5b600060018201610f4257634e487b7160e01b600052601160045260246000fd5b5060010190565b67ffffffffffffffff831115610f6157610f61610dad565b610f7583610f6f8354610dc3565b83610dfd565b6000601f841160018114610fa95760008515610f915750838201355b600019600387901b1c1916600186901b178355611003565b600083815260209020601f19861690835b82811015610fda5786850135825560209485019460019092019101610fba565b5086821015610ff75760001960f88860031b161c19848701351681555b505060018560011b0183555b5050505050565b606081528360608201528385608083013760006080858301015260006080601f19601f87011683010190508360208301526bffffffffffffffffffffffff60a01b8316604083015295945050505050565b600082601f83011261106c57600080fd5b815167ffffffffffffffff8082111561108757611087610dad565b604051601f8301601f19908116603f011681019082821181831017156110af576110af610dad565b816040528381528660208588010111156110c857600080fd5b6103ef846020830160208901610b5e565b600080604083850312156110ec57600080fd5b825167ffffffffffffffff8082111561110457600080fd5b6111108683870161105b565b9350602085015191508082111561112657600080fd5b506111338582860161105b565b9150509250929050565b6020810161114b8284610be5565b9291505056fea2646970667358221220fdb18da3c45bdcd32e568ecc3067dfb75ad0e25761be4ae05677b95f8aaa7ca264736f6c63430008110033608060405234801561001057600080fd5b50610be7806100206000396000f3fe608060405234801561001057600080fd5b506004361061002b5760003560e01c8063aa4e074714610030575b600080fd5b61004361003e36600461098d565b61005a565b604051610051929190610a9e565b60405180910390f35b606080600061006b8585600061016d565b9050600061007882610363565b9050865167ffffffffffffffff8111156100945761009461095a565b6040519080825280601f01601f1916602001820160405280156100be576020820181803683370190505b50935060005b875181101561015657816100d9604083610acc565b815181106100e9576100e9610aee565b602001015160f81c60f81b60f81c88828151811061010957610109610aee565b602001015160f81c60f81b60f81c1860f81b85828151811061012d5761012d610aee565b60200101906001600160f81b031916908160001a9053508061014e81610b1a565b9150506100c4565b5061016184876106dc565b92505050935093915050565b610175610923565b61017d610923565b8051636170786590528051633320646e60209091015280516379622d326040909101528051636b20657460609091015260005b6008811015610208576101c4816020610b33565b82519087901c906101d6836004610b4a565b601081106101e6576101e6610aee565b63ffffffff90921660209290920201528061020081610b1a565b9150506101b0565b50805163ffffffff841661018090910152604080516001600160a01b0319861660208201528151600c818303018152602c90910190915260005b600381101561035857601882610259836004610b33565b610264906003610b4a565b8151811061027457610274610aee565b016020015160f81c901b60108361028c846004610b33565b610297906002610b4a565b815181106102a7576102a7610aee565b016020015160f81c901b6008846102bf856004610b33565b6102ca906001610b4a565b815181106102da576102da610aee565b016020015160f81c901b846102f0856004610b33565b8151811061030057610300610aee565b602001015160f81c60f81b60f81c60ff16171717836000015182600d6103269190610b4a565b6010811061033657610336610aee565b63ffffffff90921660209290920201528061035081610b1a565b915050610242565b509095945050505050565b606061036d61093b565b60005b60108110156103c5578351816010811061038c5761038c610aee565b60200201518282601081106103a3576103a3610aee565b63ffffffff9092166020929092020152806103bd81610b1a565b915050610370565b5060005b60148110156105e257815160808301516103f591908460085b602002015185600c5b6020020151610871565b63ffffffff9081166101808701529081166101008601529081166080850152168252602082015160a083015161043791908460095b602002015185600d6103eb565b63ffffffff9081166101a087015290811661012086015290811660a0850152166020830152604082015160c083015161047c919084600a5b602002015185600e6103eb565b63ffffffff9081166101c087015290811661014086015290811660c0850152166040830152606082015160e08301516104c1919084600b5b602002015185600f6103eb565b63ffffffff9081166101e087015290811661016086015290811660e0850152166060830152815160a08301516104fa919084600a6104b4565b63ffffffff9081166101e087015290811661014086015290811660a0850152168252602082015160c0830151610533919084600b6103e2565b63ffffffff90811661018087015290811661016086015290811660c0850152166020830152604082015160e083015161056f919084600861042a565b63ffffffff9081166101a087015290811661010086015290811660e0850152166040830152606082015160808301516105ab919084600961046f565b63ffffffff9081166101c087015290811661012086015290811660808501521660608301526105db600282610b4a565b90506103c9565b506040805181815260608101825260009160208201818036833701905050905060005b60108110156106d4578451600090826010811061062457610624610aee565b602002015184836010811061063b5761063b610aee565b602002015161064a9190610b5d565b905060005b60048110156106bf57610663816008610b33565b63ffffffff8316901c60f81b848261067c866004610b33565b6106869190610b4a565b8151811061069657610696610aee565b60200101906001600160f81b031916908160001a905350806106b781610b1a565b91505061064f565b505080806106cc90610b1a565b915050610605565b509392505050565b60606106fb604051806040016040528060008152602001600081525090565b6f0ffffffc0ffffffc0ffffffc0fffffff831681526000602082018190526010905b85518110156107e45760008187516107359190610b81565b9050828111156107425750815b6000805b8281101561079557610759816008610b33565b896107648387610b4a565b8151811061077457610774610aee565b016020015160f81c901b91909117908061078d81610b1a565b915050610746565b50838210156107af576107a9826008610b33565b6001901b175b600160821b81866020015108602086018190528551600160821b91096020860152506107dd90508282610b4a565b905061071d565b50604080516010808252818301909252600091602082018180368337505050602084015190915060005b601081101561086357610822816008610b33565b82901c60f81b83828151811061083a5761083a610aee565b60200101906001600160f81b031916908160001a9053508061085b81610b1a565b91505061080e565b509093505050505b92915050565b60008080806108808789610b5d565b975061088f88861860106108ee565b945061089b8587610b5d565b95506108aa868818600c6108ee565b96506108b68789610b5d565b97506108c588861860086108ee565b94506108d18587610b5d565b95506108e086881860076108ee565b979895965093949350505050565b60006108fb826020610b94565b63ffffffff168363ffffffff16901c8263ffffffff168463ffffffff16901b17905092915050565b604051806020016040528061093661093b565b905290565b6040518061020001604052806010906020820280368337509192915050565b634e487b7160e01b600052604160045260246000fd5b80356001600160a01b03198116811461098857600080fd5b919050565b6000806000606084860312156109a257600080fd5b833567ffffffffffffffff808211156109ba57600080fd5b818601915086601f8301126109ce57600080fd5b8135818111156109e0576109e061095a565b604051601f8201601f19908116603f01168101908382118183101715610a0857610a0861095a565b81604052828152896020848701011115610a2157600080fd5b82602086016020830137600060208483010152809750505050505060208401359150610a4f60408501610970565b90509250925092565b6000815180845260005b81811015610a7e57602081850181015186830182015201610a62565b506000602082860101526020601f19601f83011685010191505092915050565b604081526000610ab16040830185610a58565b8281036020840152610ac38185610a58565b95945050505050565b600082610ae957634e487b7160e01b600052601260045260246000fd5b500690565b634e487b7160e01b600052603260045260246000fd5b634e487b7160e01b600052601160045260246000fd5b600060018201610b2c57610b2c610b04565b5060010190565b808202811582820484141761086b5761086b610b04565b8082018082111561086b5761086b610b04565b63ffffffff818116838216019080821115610b7a57610b7a610b04565b5092915050565b8181038181111561086b5761086b610b04565b63ffffffff828116828216039080821115610b7a57610b7a610b0456fea26469706673582212207f5eb0e0192a4d1194524a8da0211974cb8d72f3d0ecfe817185c981b63c82db64736f6c63430008110033",
  "immutableReferences": {
    "5142": [
      {
        "length": 32,
        "start": 287
      },
      {
        "length": 32,
        "start": 1860
      }
    ]
  },
  "source": "// SPDX-License-Identifier: MIT\npragma solidity ^0.8.0;\n\nimport \"@openzeppelin/contracts/security/ReentrancyGuard.sol\";\nimport \"@openzeppelin/contracts/utils/Counters.sol\";\nimport \"../blockchain/ChaCha20Poly1305.sol\";\n\n/**\n * @title MetadataParser\n * @dev Enhanced version with actual encryption and detailed protocol conversion\n */\ncontract MetadataParser is ReentrancyGuard {\n    using Counters for Counters.Counter;\n    \n    ChaCha20Poly1305 public immutable encryptionHandler;\n    \n    struct ProtocolInstruction {\n        bytes32 originalProtocol;\n        bytes32 convertedProtocol;\n        mapping(bytes32 => bytes32) opcodeMapping;\n    }\n\n    struct ParsedMetadata {\n        bytes32 transactionId;\n        address sender;\n        address recipient;\n        uint256 timestamp;\n        bytes32 sourceProtocol;\n        bytes32 targetProtocol;\n        bytes encryptedPayload;\n        bytes authTag;\n        bool isSpeculative;\n        TransactionStatus status;\n    }\n\n    struct IRNode {\n        bytes32 nodeType;\n        bytes value;\n        bytes32[] childrenIds;\n        mapping(bytes32 => bytes32) keyValuePairs;\n    }\n\n    enum TransactionStatus {\n        Pending,\n        Speculative,\n        Confirmed,\n        Failed\n    }\n\n    mapping(bytes32 => ParsedMetadata) public parsedTransactions;\n    mapping(bytes32 => ProtocolInstruction) public protocolInstructions;\n    mapping(bytes32 => IRNode) public irNodes;\n    Counters.Counter private _transactionIdCounter;\n\n    event MetadataParsed(bytes32 indexed transactionId, bool isSpeculative);\n    event ProtocolConverted(bytes32 indexed originalProtocol, bytes32 indexed convertedProtocol);\n    event TransactionStatusUpdated(bytes32 indexed transactionId, TransactionStatus status);\n\n    constructor() {\n        encryptionHandler = new ChaCha20Poly1305();\n    }\n\n    function generateEncryptionParams(\n        bytes32 transactionId\n    ) internal pure returns (bytes32 key, bytes12 nonce) {\n        key = keccak256(abi.encodePacked(\"KEY\", transactionId));\n        nonce = bytes12(uint96(uint256(keccak256(abi.encodePacked(\"NONCE\", transactionId)))));\n        return (key, nonce);\n    }\n\n    function prepareTransactionMetadata(\n        address _recipient,\n        bytes32 _sourceProtocol,\n        bytes32 _targetProtocol,\n        bytes calldata _payload,\n        bool _isSpeculative\n    ) external nonReentrant returns (bytes32) {\n        bytes32 transactionId = generateTransactionId();\n        (bytes32 key, bytes12 nonce) = generateEncryptionParams(transactionId);\n        \n        ParsedMetadata storage metadata = parsedTransactions[transactionId];\n        metadata.transactionId = transactionId;\n        metadata.sender = msg.sender;\n        metadata.recipient = _recipient;\n        metadata.timestamp = block.timestamp;\n        metadata.sourceProtocol = _sourceProtocol;\n        metadata.targetProtocol = _targetProtocol;\n        metadata.isSpeculative = _isSpeculative;\n        metadata.status = TransactionStatus.Pending;\n\n        (bytes memory encryptedPayload, bytes memory authTag) = encryptPayload(_payload, key, nonce);\n        metadata.encryptedPayload = encryptedPayload;\n        metadata.authTag = authTag;\n\n        emit MetadataParsed(transactionId, _isSpeculative);\n        return transactionId;\n    }\n\n    function parseToIRNode(\n        bytes32 _nodeId,\n        bytes32 _nodeType,\n        bytes calldata _value\n    ) external returns (bytes32) {\n        IRNode storage node = irNodes[_nodeId];\n        node.nodeType = _nodeType;\n        node.value = _value;\n        return _nodeId;\n    }\n\n    function addKeyValueToNode(\n        bytes32 _nodeId,\n        bytes32 _key,\n        bytes32 _value\n    ) external {\n        IRNode storage node = irNodes[_nodeId];\n        node.keyValuePairs[_key] = _value;\n    }\n\n    function convertProtocolInstructions(\n        bytes32 _originalProtocol,\n        bytes32 _targetProtocol,\n        bytes32[] calldata _opcodes,\n        bytes32[] calldata _convertedOpcodes\n    ) external {\n        require(_opcodes.length == _convertedOpcodes.length, \"Array length mismatch\");\n        \n        ProtocolInstruction storage instruction = protocolInstructions[_originalProtocol];\n        instruction.originalProtocol = _originalProtocol;\n        instruction.convertedProtocol = _targetProtocol;\n\n        for (uint i = 0; i < _opcodes.length; i++) {\n            instruction.opcodeMapping[_opcodes[i]] = _convertedOpcodes[i];\n        }\n\n        emit ProtocolConverted(_originalProtocol, _targetProtocol);\n    }\n\n    function updateTransactionStatus(\n        bytes32 _transactionId,\n        TransactionStatus _status\n    ) external {\n        require(parsedTransactions[_transactionId].sender != address(0), \"Transaction not found\");\n        parsedTransactions[_transactionId].status = _status;\n        emit TransactionStatusUpdated(_transactionId, _status);\n    }\n\n    function generateTransactionId() private returns (bytes32) {\n        _transactionIdCounter.increment();\n        return keccak256(abi.encodePacked(block.timestamp, msg.sender, _transactionIdCounter.current()));\n    }\n\n    function encryptPayload(\n        bytes calldata _payload,\n        bytes32 _key,\n        bytes12 _nonce\n    ) public view returns (bytes memory encryptedPayload, bytes memory authTag) {\n        return encryptionHandler.encrypt(_payload, _key, _nonce);\n    }\n}",
  "sourcePath": "C:\\Users\\Bonsu\\Documents\\crosschainproject\\contracts\\passchain\\MetadataParser.sol",
  "compiler": {
    "name": "solc",
    "version": "0.8.17+commit.8df45f5f.Emscripten.clang"
  },
  "schemaVersion": "3.4.16",
  "updatedAt": "2025-01-29T15:56:11.012Z",
  "devdoc": {
    "details": "Enhanced version with actual encryption and detailed protocol conversion",
    "kind": "dev",
    "methods": {},
    "title": "MetadataParser",
    "version": 1
  },
  "userdoc": {
    "kind": "user",
    "methods": {},
    "version": 1
  }
}