{
  "contractName": "PasschainValidator",
  "abi": [
    {
      "anonymous": false,
      "inputs": [
        {
          "indexed": true,
          "internalType": "bytes32",
          "name": "clusterId",
          "type": "bytes32"
        },
        {
          "indexed": false,
          "internalType": "address",
          "name": "leader",
          "type": "address"
        }
      ],
      "name": "ClusterFormed",
      "type": "event"
    },
    {
      "anonymous": false,
      "inputs": [
        {
          "indexed": true,
          "internalType": "address",
          "name": "node",
          "type": "address"
        },
        {
          "indexed": true,
          "internalType": "bytes32",
          "name": "clusterId",
          "type": "bytes32"
        }
      ],
      "name": "NodeAssigned",
      "type": "event"
    },
    {
      "anonymous": false,
      "inputs": [
        {
          "indexed": true,
          "internalType": "bytes32",
          "name": "role",
          "type": "bytes32"
        },
        {
          "indexed": true,
          "internalType": "bytes32",
          "name": "previousAdminRole",
          "type": "bytes32"
        },
        {
          "indexed": true,
          "internalType": "bytes32",
          "name": "newAdminRole",
          "type": "bytes32"
        }
      ],
      "name": "RoleAdminChanged",
      "type": "event"
    },
    {
      "anonymous": false,
      "inputs": [
        {
          "indexed": true,
          "internalType": "bytes32",
          "name": "role",
          "type": "bytes32"
        },
        {
          "indexed": true,
          "internalType": "address",
          "name": "account",
          "type": "address"
        },
        {
          "indexed": true,
          "internalType": "address",
          "name": "sender",
          "type": "address"
        }
      ],
      "name": "RoleGranted",
      "type": "event"
    },
    {
      "anonymous": false,
      "inputs": [
        {
          "indexed": true,
          "internalType": "bytes32",
          "name": "role",
          "type": "bytes32"
        },
        {
          "indexed": true,
          "internalType": "address",
          "name": "account",
          "type": "address"
        },
        {
          "indexed": true,
          "internalType": "address",
          "name": "sender",
          "type": "address"
        }
      ],
      "name": "RoleRevoked",
      "type": "event"
    },
    {
      "anonymous": false,
      "inputs": [
        {
          "indexed": true,
          "internalType": "bytes32",
          "name": "clusterId",
          "type": "bytes32"
        },
        {
          "indexed": false,
          "internalType": "bytes32",
          "name": "sessionKey",
          "type": "bytes32"
        }
      ],
      "name": "SessionKeyGenerated",
      "type": "event"
    },
    {
      "anonymous": false,
      "inputs": [
        {
          "indexed": true,
          "internalType": "bytes32",
          "name": "txId",
          "type": "bytes32"
        },
        {
          "indexed": false,
          "internalType": "bool",
          "name": "isValid",
          "type": "bool"
        }
      ],
      "name": "ValidationComplete",
      "type": "event"
    },
    {
      "anonymous": false,
      "inputs": [
        {
          "indexed": true,
          "internalType": "bytes32",
          "name": "txId",
          "type": "bytes32"
        },
        {
          "indexed": true,
          "internalType": "bytes32",
          "name": "clusterId",
          "type": "bytes32"
        }
      ],
      "name": "ValidationStarted",
      "type": "event"
    },
    {
      "anonymous": false,
      "inputs": [
        {
          "indexed": true,
          "internalType": "bytes32",
          "name": "txId",
          "type": "bytes32"
        },
        {
          "indexed": false,
          "internalType": "address",
          "name": "validator",
          "type": "address"
        },
        {
          "indexed": false,
          "internalType": "bool",
          "name": "result",
          "type": "bool"
        }
      ],
      "name": "ValidationSubmitted",
      "type": "event"
    },
    {
      "inputs": [],
      "name": "CLUSTER_ADMIN",
      "outputs": [
        {
          "internalType": "bytes32",
          "name": "",
          "type": "bytes32"
        }
      ],
      "stateMutability": "view",
      "type": "function"
    },
    {
      "inputs": [],
      "name": "DEFAULT_ADMIN_ROLE",
      "outputs": [
        {
          "internalType": "bytes32",
          "name": "",
          "type": "bytes32"
        }
      ],
      "stateMutability": "view",
      "type": "function"
    },
    {
      "inputs": [],
      "name": "MAX_CLUSTER_SIZE",
      "outputs": [
        {
          "internalType": "uint256",
          "name": "",
          "type": "uint256"
        }
      ],
      "stateMutability": "view",
      "type": "function"
    },
    {
      "inputs": [],
      "name": "MIN_CLUSTER_SIZE",
      "outputs": [
        {
          "internalType": "uint256",
          "name": "",
          "type": "uint256"
        }
      ],
      "stateMutability": "view",
      "type": "function"
    },
    {
      "inputs": [],
      "name": "VALIDATION_THRESHOLD",
      "outputs": [
        {
          "internalType": "uint256",
          "name": "",
          "type": "uint256"
        }
      ],
      "stateMutability": "view",
      "type": "function"
    },
    {
      "inputs": [
        {
          "internalType": "bytes32",
          "name": "",
          "type": "bytes32"
        },
        {
          "internalType": "address",
          "name": "",
          "type": "address"
        }
      ],
      "name": "clusterMembers",
      "outputs": [
        {
          "internalType": "bool",
          "name": "",
          "type": "bool"
        }
      ],
      "stateMutability": "view",
      "type": "function"
    },
    {
      "inputs": [
        {
          "internalType": "bytes32",
          "name": "",
          "type": "bytes32"
        }
      ],
      "name": "clusters",
      "outputs": [
        {
          "internalType": "bytes32",
          "name": "id",
          "type": "bytes32"
        },
        {
          "internalType": "address",
          "name": "leader",
          "type": "address"
        },
        {
          "internalType": "uint256",
          "name": "formationTime",
          "type": "uint256"
        },
        {
          "internalType": "uint256",
          "name": "nodeCount",
          "type": "uint256"
        },
        {
          "internalType": "uint256",
          "name": "processedTxCount",
          "type": "uint256"
        },
        {
          "internalType": "bytes32",
          "name": "sessionKey",
          "type": "bytes32"
        },
        {
          "internalType": "bool",
          "name": "isActive",
          "type": "bool"
        }
      ],
      "stateMutability": "view",
      "type": "function"
    },
    {
      "inputs": [
        {
          "internalType": "bytes32",
          "name": "txId",
          "type": "bytes32"
        },
        {
          "internalType": "uint256",
          "name": "txSize",
          "type": "uint256"
        },
        {
          "internalType": "enum NodeTypes.NodeRole[]",
          "name": "requiredRoles",
          "type": "uint8[]"
        }
      ],
      "name": "findOptimalRoute",
      "outputs": [
        {
          "internalType": "bytes32[]",
          "name": "",
          "type": "bytes32[]"
        }
      ],
      "stateMutability": "nonpayable",
      "type": "function"
    },
    {
      "inputs": [
        {
          "internalType": "bytes32",
          "name": "role",
          "type": "bytes32"
        }
      ],
      "name": "getRoleAdmin",
      "outputs": [
        {
          "internalType": "bytes32",
          "name": "",
          "type": "bytes32"
        }
      ],
      "stateMutability": "view",
      "type": "function"
    },
    {
      "inputs": [
        {
          "internalType": "bytes32",
          "name": "role",
          "type": "bytes32"
        },
        {
          "internalType": "address",
          "name": "account",
          "type": "address"
        }
      ],
      "name": "grantRole",
      "outputs": [],
      "stateMutability": "nonpayable",
      "type": "function"
    },
    {
      "inputs": [
        {
          "internalType": "bytes32",
          "name": "role",
          "type": "bytes32"
        },
        {
          "internalType": "address",
          "name": "account",
          "type": "address"
        }
      ],
      "name": "hasRole",
      "outputs": [
        {
          "internalType": "bool",
          "name": "",
          "type": "bool"
        }
      ],
      "stateMutability": "view",
      "type": "function"
    },
    {
      "inputs": [
        {
          "internalType": "address",
          "name": "",
          "type": "address"
        }
      ],
      "name": "nodes",
      "outputs": [
        {
          "internalType": "address",
          "name": "nodeAddress",
          "type": "address"
        },
        {
          "internalType": "enum NodeTypes.NodeRole",
          "name": "role",
          "type": "uint8"
        },
        {
          "internalType": "uint256",
          "name": "capacity",
          "type": "uint256"
        },
        {
          "internalType": "uint256",
          "name": "performance",
          "type": "uint256"
        },
        {
          "internalType": "bool",
          "name": "isActive",
          "type": "bool"
        },
        {
          "internalType": "bytes32",
          "name": "clusterId",
          "type": "bytes32"
        }
      ],
      "stateMutability": "view",
      "type": "function"
    },
    {
      "inputs": [
        {
          "internalType": "bytes32",
          "name": "role",
          "type": "bytes32"
        },
        {
          "internalType": "address",
          "name": "account",
          "type": "address"
        }
      ],
      "name": "renounceRole",
      "outputs": [],
      "stateMutability": "nonpayable",
      "type": "function"
    },
    {
      "inputs": [
        {
          "internalType": "bytes32",
          "name": "role",
          "type": "bytes32"
        },
        {
          "internalType": "address",
          "name": "account",
          "type": "address"
        }
      ],
      "name": "revokeRole",
      "outputs": [],
      "stateMutability": "nonpayable",
      "type": "function"
    },
    {
      "inputs": [
        {
          "internalType": "bytes32",
          "name": "",
          "type": "bytes32"
        }
      ],
      "name": "routes",
      "outputs": [
        {
          "internalType": "uint256",
          "name": "pathScore",
          "type": "uint256"
        },
        {
          "internalType": "bool",
          "name": "isOptimal",
          "type": "bool"
        }
      ],
      "stateMutability": "view",
      "type": "function"
    },
    {
      "inputs": [
        {
          "internalType": "bytes4",
          "name": "interfaceId",
          "type": "bytes4"
        }
      ],
      "name": "supportsInterface",
      "outputs": [
        {
          "internalType": "bool",
          "name": "",
          "type": "bool"
        }
      ],
      "stateMutability": "view",
      "type": "function"
    },
    {
      "inputs": [
        {
          "internalType": "bytes32",
          "name": "",
          "type": "bytes32"
        }
      ],
      "name": "validationProcesses",
      "outputs": [
        {
          "internalType": "bytes32",
          "name": "txId",
          "type": "bytes32"
        },
        {
          "internalType": "bytes32",
          "name": "clusterId",
          "type": "bytes32"
        },
        {
          "internalType": "uint256",
          "name": "validationsRequired",
          "type": "uint256"
        },
        {
          "internalType": "uint256",
          "name": "validationsReceived",
          "type": "uint256"
        },
        {
          "internalType": "uint256",
          "name": "validationsPositive",
          "type": "uint256"
        },
        {
          "internalType": "bool",
          "name": "isComplete",
          "type": "bool"
        }
      ],
      "stateMutability": "view",
      "type": "function"
    },
    {
      "inputs": [
        {
          "internalType": "bytes32",
          "name": "txId",
          "type": "bytes32"
        },
        {
          "internalType": "bytes",
          "name": "txData",
          "type": "bytes"
        }
      ],
      "name": "initiateValidation",
      "outputs": [],
      "stateMutability": "nonpayable",
      "type": "function"
    },
    {
      "inputs": [
        {
          "internalType": "bytes32",
          "name": "txId",
          "type": "bytes32"
        },
        {
          "internalType": "bool",
          "name": "isValid",
          "type": "bool"
        }
      ],
      "name": "submitValidation",
      "outputs": [],
      "stateMutability": "nonpayable",
      "type": "function"
    }
  ],
  "bytecode": "0x608060405234801561001057600080fd5b5061001c600033610026565b60016005556100d2565b6100308282610034565b5050565b6000828152602081815260408083206001600160a01b038516845290915290205460ff16610030576000828152602081815260408083206001600160a01b03851684529091529020805460ff1916600117905561008e3390565b6001600160a01b0316816001600160a01b0316837f2f8788117e7eff1d82e926ec794901d17c78024a50270940304540a733656f0d60405160405180910390a45050565b6119e680620000e26000396000f3fe608060405234801561001057600080fd5b50600436106101215760003560e01c80634789015c116100ad57806391d148541161007157806391d14854146103765780639c5ca62314610389578063a217fddf146103a9578063a5ac22bc146103b1578063d547741f1461042657600080fd5b80634789015c146102f35780634c7b87101461032157806360523156146103345780637f747c54146103475780638ec1daee1461036e57600080fd5b8063248a9ca3116100f4578063248a9ca31461020a578063293995281461022d5780632e41e2e8146102355780632f2ff15d146102cb57806336568abe146102e057600080fd5b806301ffc9a714610126578063066e94811461014e57806314552f2614610190578063189a5a17146101a6575b600080fd5b6101396101343660046113cd565b610439565b60405190151581526020015b60405180910390f35b61017b61015c3660046113f7565b6004602052600090815260409020600181015460029091015460ff1682565b60408051928352901515602083015201610145565b610198604681565b604051908152602001610145565b6101f86101b436600461142c565b6001602081905260009182526040909120805491810154600282015460038301546004909301546001600160a01b0385169460ff600160a01b909104811694169086565b6040516101459695949392919061147f565b6101986102183660046113f7565b60009081526020819052604090206001015490565b610198600a81565b61028c6102433660046113f7565b6002602081905260009182526040909120805460018201549282015460038301546004840154600585015460069095015493956001600160a01b03169492939192909160ff1687565b604080519788526001600160a01b039096166020880152948601939093526060850191909152608084015260a0830152151560c082015260e001610145565b6102de6102d93660046114c0565b610470565b005b6102de6102ee3660046114c0565b61049a565b6101396103013660046114c0565b600360209081526000928352604080842090915290825290205460ff1681565b6102de61032f3660046114ec565b61051d565b6102de610342366004611568565b61074b565b6101987f494524d2d1f4acd3eed6a4679ede5f8aa5fa9493ca9319f21d8a90f197e849bc81565b610198600381565b6101396103843660046114c0565b610a06565b61039c61039736600461162b565b610a2f565b60405161014591906116e4565b610198600081565b6103f76103bf3660046113f7565b600660205260009081526040902080546001820154600283015460038401546004850154600590950154939492939192909160ff1686565b6040805196875260208701959095529385019290925260608401526080830152151560a082015260c001610145565b6102de6104343660046114c0565b610a94565b60006001600160e01b03198216637965db0b60e01b148061046a57506301ffc9a760e01b6001600160e01b03198316145b92915050565b60008281526020819052604090206001015461048b81610ab9565b6104958383610ac6565b505050565b6001600160a01b038116331461050f5760405162461bcd60e51b815260206004820152602f60248201527f416363657373436f6e74726f6c3a2063616e206f6e6c792072656e6f756e636560448201526e103937b632b9903337b91039b2b63360891b60648201526084015b60405180910390fd5b6105198282610b4a565b5050565b610525610baf565b6000828152600660205260409020600581015460ff161561057e5760405162461bcd60e51b815260206004820152601360248201527256616c69646174696f6e20636f6d706c65746560681b6044820152606401610506565b33600090815260068201602052604090205460ff16156105d45760405162461bcd60e51b8152602060048201526011602482015270105b1c9958591e481d985b1a59185d1959607a1b6044820152606401610506565b6001810154600090815260036020908152604080832033845290915290205460ff166106375760405162461bcd60e51b81526020600482015260126024820152712737ba1031b63ab9ba32b91036b2b6b132b960711b6044820152606401610506565b3360009081526006820160205260408120805460ff19166001179055600382018054916106638361173e565b91905055508115610686576004810180549060006106808361173e565b91905055505b60408051338152831515602082015284917f7fa8b9eab985b7a737fe8267cd6f77b362ae6c8a9b93c1196cb45869d95de00c910160405180910390a2806002015481600301541061074057600060468260030154836004015460646106eb9190611757565b6106f5919061176e565b60058401805460ff19166001179055604051911115808252915084907fa668712c0b8f59efdf687dfbc672df6d8a1ab624717f5dfd9a794099f3ad48849060200160405180910390a2505b506105196001600555565b610753610baf565b60008281526006602052604090206005015460ff16156107a95760405162461bcd60e51b8152602060048201526011602482015270105b1c9958591e481d985b1a59185d1959607a1b6044820152606401610506565b60408051600380825260808201909252600091602082016060803683370190505090506000816000815181106107e1576107e1611790565b602002602001019060028111156107fa576107fa611447565b9081600281111561080d5761080d611447565b8152505060018160018151811061082657610826611790565b6020026020010190600281111561083f5761083f611447565b9081600281111561085257610852611447565b8152505060028160028151811061086b5761086b611790565b6020026020010190600281111561088457610884611447565b9081600281111561089757610897611447565b9052508151604051639c5ca62360e01b81526000913091639c5ca623916108c59188919087906004016117a6565b6000604051808303816000875af11580156108e4573d6000803e3d6000fd5b505050506040513d6000823e601f3d908101601f1916820160405261090c9190810190611802565b905060008151116109565760405162461bcd60e51b8152602060048201526014602482015273139bc81d985b1a59081c9bdd5d1948199bdd5b9960621b6044820152606401610506565b600084815260066020526040812085815582519091839161097957610979611790565b602002602001015181600101819055506109ac8260008151811061099f5761099f611790565b6020026020010151610c08565b6002820155815182906000906109c4576109c4611790565b6020026020010151857f6a9b29eadfefca54b5659f637b613d396224569d6f801425810df6cf4800818360405160405180910390a35050506105196001600555565b6000918252602082815260408084206001600160a01b0393909316845291905290205460ff1690565b6000838152600460205260408120606091610a4a8585610c3c565b9050600080610a598388610eb9565b81519193509150610a70908590602085019061136d565b506001848101919091556002909301805460ff191690931790925550949350505050565b600082815260208190526040902060010154610aaf81610ab9565b6104958383610b4a565b610ac38133610ff7565b50565b610ad08282610a06565b610519576000828152602081815260408083206001600160a01b03851684529091529020805460ff19166001179055610b063390565b6001600160a01b0316816001600160a01b0316837f2f8788117e7eff1d82e926ec794901d17c78024a50270940304540a733656f0d60405160405180910390a45050565b610b548282610a06565b15610519576000828152602081815260408083206001600160a01b0385168085529252808320805460ff1916905551339285917ff6391f5c32d9c69d2a47ea670b442974b53935d1edc7fd64eb21e047a839171b9190a45050565b600260055403610c015760405162461bcd60e51b815260206004820152601f60248201527f5265656e7472616e637947756172643a207265656e7472616e742063616c6c006044820152606401610506565b6002600555565b6000818152600260208190526040822060038082015491929091610c2b91611757565b610c35919061176e565b9392505050565b60408051600a80825261016082019092526060916000918291602082016101408036833701905050905060005b600a811015610e1357600081815260026020526040812054829103610c8e5750610e13565b6000818152600260205260409020600681015460ff16610caf575050610e01565b600160005b8851811015610dba57600080610cc986611050565b905060005b8151811015610d9457600060016000848481518110610cef57610cef611790565b60200260200101516001600160a01b03166001600160a01b0316815260200190815260200160002090508c8581518110610d2b57610d2b611790565b60200260200101516002811115610d4457610d44611447565b8154600160a01b900460ff166002811115610d6157610d61611447565b148015610d725750600381015460ff165b15610d81576001935050610d94565b5080610d8c8161173e565b915050610cce565b5081610da557600093505050610dba565b50508080610db29061173e565b915050610cb4565b50808015610dcc575088826003015410155b15610dfd5782858781518110610de457610de4611790565b602090810291909101015285610df98161173e565b9650505b5050505b80610e0b8161173e565b915050610c69565b5060008267ffffffffffffffff811115610e2f57610e2f611521565b604051908082528060200260200182016040528015610e58578160200160208202803683370190505b50905060005b83811015610eaf57828181518110610e7857610e78611790565b6020026020010151828281518110610e9257610e92611790565b602090810291909101015280610ea78161173e565b915050610e5e565b5095945050505050565b606060008351600003610ede5750506040805160008082526020820190925290610ff0565b604080516001808252818301909252600091602080830190803683370190505090506000805b8651811015610fe957600060026000898481518110610f2557610f25611790565b6020026020010151815260200190815260200160002090506000606460288360030154610f529190611757565b610f5c919061176e565b905060006064603c8460040154610f739190611757565b610f7d919061176e565b90506000610f8b8284611893565b905085811115610fd2578095508a8581518110610faa57610faa611790565b602002602001015187600081518110610fc557610fc5611790565b6020026020010181815250505b505050508080610fe19061173e565b915050610f04565b5090925090505b9250929050565b6110018282610a06565b6105195761100e816111bf565b6110198360206111d1565b60405160200161102a9291906118ca565b60408051601f198184030181529082905262461bcd60e51b82526105069160040161193f565b60408051600a80825261016082019092526060916000918291602082016101408036833701905050905060005b6001600160a01b03818116101561110d5760008581526003602090815260408083206001600160a01b038516845290915290205460ff16156110fb57808284815181106110cc576110cc611790565b6001600160a01b0390921660209283029190910190910152826110ee8161173e565b935050600a83101561110d575b611106816001611972565b905061107d565b5060008267ffffffffffffffff81111561112957611129611521565b604051908082528060200260200182016040528015611152578160200160208202803683370190505b50905060005b838110156111b65782818151811061117257611172611790565b602002602001015182828151811061118c5761118c611790565b6001600160a01b0390921660209283029190910190910152806111ae8161173e565b915050611158565b50949350505050565b606061046a6001600160a01b03831660145b606060006111e0836002611757565b6111eb906002611893565b67ffffffffffffffff81111561120357611203611521565b6040519080825280601f01601f19166020018201604052801561122d576020820181803683370190505b509050600360fc1b8160008151811061124857611248611790565b60200101906001600160f81b031916908160001a905350600f60fb1b8160018151811061127757611277611790565b60200101906001600160f81b031916908160001a905350600061129b846002611757565b6112a6906001611893565b90505b600181111561131e576f181899199a1a9b1b9c1cb0b131b232b360811b85600f16601081106112da576112da611790565b1a60f81b8282815181106112f0576112f0611790565b60200101906001600160f81b031916908160001a90535060049490941c9361131781611999565b90506112a9565b508315610c355760405162461bcd60e51b815260206004820181905260248201527f537472696e67733a20686578206c656e67746820696e73756666696369656e746044820152606401610506565b8280548282559060005260206000209081019282156113a8579160200282015b828111156113a857825182559160200191906001019061138d565b506113b49291506113b8565b5090565b5b808211156113b457600081556001016113b9565b6000602082840312156113df57600080fd5b81356001600160e01b031981168114610c3557600080fd5b60006020828403121561140957600080fd5b5035919050565b80356001600160a01b038116811461142757600080fd5b919050565b60006020828403121561143e57600080fd5b610c3582611410565b634e487b7160e01b600052602160045260246000fd5b6003811061147b57634e487b7160e01b600052602160045260246000fd5b9052565b6001600160a01b038716815260c0810161149c602083018861145d565b60408201959095526060810193909352901515608083015260a09091015292915050565b600080604083850312156114d357600080fd5b823591506114e360208401611410565b90509250929050565b600080604083850312156114ff57600080fd5b823591506020830135801515811461151657600080fd5b809150509250929050565b634e487b7160e01b600052604160045260246000fd5b604051601f8201601f1916810167ffffffffffffffff8111828210171561156057611560611521565b604052919050565b6000806040838503121561157b57600080fd5b8235915060208084013567ffffffffffffffff8082111561159b57600080fd5b818601915086601f8301126115af57600080fd5b8135818111156115c1576115c1611521565b6115d3601f8201601f19168501611537565b915080825287848285010111156115e957600080fd5b80848401858401376000848284010152508093505050509250929050565b600067ffffffffffffffff82111561162157611621611521565b5060051b60200190565b60008060006060848603121561164057600080fd5b833592506020808501359250604085013567ffffffffffffffff81111561166657600080fd5b8501601f8101871361167757600080fd5b803561168a61168582611607565b611537565b81815260059190911b820183019083810190898311156116a957600080fd5b928401925b828410156116d5578335600381106116c65760008081fd5b825292840192908401906116ae565b80955050505050509250925092565b6020808252825182820181905260009190848201906040850190845b8181101561171c57835183529284019291840191600101611700565b50909695505050505050565b634e487b7160e01b600052601160045260246000fd5b60006001820161175057611750611728565b5060010190565b808202811582820484141761046a5761046a611728565b60008261178b57634e487b7160e01b600052601260045260246000fd5b500490565b634e487b7160e01b600052603260045260246000fd5b6000606082018583526020858185015260606040850152818551808452608086019150828701935060005b818110156117f4576117e483865161145d565b93830193918301916001016117d1565b509098975050505050505050565b6000602080838503121561181557600080fd5b825167ffffffffffffffff81111561182c57600080fd5b8301601f8101851361183d57600080fd5b805161184b61168582611607565b81815260059190911b8201830190838101908783111561186a57600080fd5b928401925b828410156118885783518252928401929084019061186f565b979650505050505050565b8082018082111561046a5761046a611728565b60005b838110156118c15781810151838201526020016118a9565b50506000910152565b7f416363657373436f6e74726f6c3a206163636f756e74200000000000000000008152600083516119028160178501602088016118a6565b7001034b99036b4b9b9b4b733903937b6329607d1b60179184019182015283516119338160288401602088016118a6565b01602801949350505050565b602081526000825180602084015261195e8160408501602087016118a6565b601f01601f19169190910160400192915050565b6001600160a01b0381811683821601908082111561199257611992611728565b5092915050565b6000816119a8576119a8611728565b50600019019056fea2646970667358221220dbc1fc7c2c47797edff3114cde22842f4dd40dbe74f970e5671ed68b7fdb165664736f6c63430008110033",
  "immutableReferences": {},
  "source": "// SPDX-License-Identifier: MIT\npragma solidity ^0.8.0;\n\nimport \"@openzeppelin/contracts/security/ReentrancyGuard.sol\";\nimport \"@openzeppelin/contracts/access/AccessControl.sol\";\n\n// NodeTypes library remains unchanged\nlibrary NodeTypes {\n    enum NodeRole {\n        DESIGNATOR,\n        VALIDATOR,\n        EXECUTOR\n    }\n\n    struct Node {\n        address nodeAddress;\n        NodeRole role;\n        uint256 capacity;\n        uint256 performance;\n        bool isActive;\n        bytes32 clusterId;\n    }\n\n    struct Cluster {\n        bytes32 id;\n        address leader;\n        uint256 formationTime;\n        uint256 nodeCount;\n        uint256 processedTxCount;\n        bytes32 sessionKey;\n        bool isActive;\n    }\n}\n\ncontract ClusterManager is AccessControl {\n    using NodeTypes for NodeTypes.Node;\n    using NodeTypes for NodeTypes.Cluster;\n\n    bytes32 public constant CLUSTER_ADMIN = keccak256(\"CLUSTER_ADMIN\");\n    \n    mapping(address => NodeTypes.Node) public nodes;\n    mapping(bytes32 => NodeTypes.Cluster) public clusters;\n    mapping(bytes32 => mapping(address => bool)) public clusterMembers;\n    \n    uint256 public constant MIN_CLUSTER_SIZE = 3;\n    uint256 public constant MAX_CLUSTER_SIZE = 10;\n    uint256 public constant VALIDATION_THRESHOLD = 70;\n    \n    event ClusterFormed(bytes32 indexed clusterId, address leader);\n    event NodeAssigned(address indexed node, bytes32 indexed clusterId);\n    event SessionKeyGenerated(bytes32 indexed clusterId, bytes32 sessionKey);\n    \n    constructor() {\n        _setupRole(DEFAULT_ADMIN_ROLE, msg.sender);\n    }\n    \n    function generateSessionKey(\n        bytes32 clusterId\n    ) internal returns (bytes32) {\n        NodeTypes.Cluster storage cluster = clusters[clusterId];\n        require(cluster.isActive, \"Cluster not active\");\n        \n        bytes32 randomValue = keccak256(abi.encodePacked(\n            block.timestamp,\n            block.number,\n            blockhash(block.number - 1), // Use blockhash as a source of randomness\n            clusterId,\n            msg.sender\n        ));\n        \n        cluster.sessionKey = randomValue;\n        emit SessionKeyGenerated(clusterId, randomValue);\n        \n        return randomValue;\n    } // Added closing brace here\n}\n\ncontract BeeRoutingAlgorithm is ClusterManager {\n    struct Route {\n        bytes32[] clusterPath;\n        uint256 pathScore;\n        bool isOptimal;\n    }\n    \n    mapping(bytes32 => Route) public routes;\n    \n    // Routing parameters\n    uint256 private constant CAPACITY_WEIGHT = 40;\n    uint256 private constant PERFORMANCE_WEIGHT = 60;\n    uint256 private constant SCORE_THRESHOLD = 75;\n    \n    function findOptimalRoute(\n        bytes32 txId,\n        uint256 txSize,\n        NodeTypes.NodeRole[] memory requiredRoles\n    ) public returns (bytes32[] memory) {\n        Route storage route = routes[txId];\n        \n        bytes32[] memory eligibleClusters = findEligibleClusters(\n            txSize,\n            requiredRoles\n        );\n        \n        (bytes32[] memory optimalPath, uint256 pathScore) = calculateOptimalPath(\n            eligibleClusters,\n            txSize\n        );\n        \n        route.clusterPath = optimalPath;\n        route.pathScore = pathScore;\n        route.isOptimal = true;\n        \n        return optimalPath;\n    }\n    \n   function findEligibleClusters(\n    uint256 txSize,\n    NodeTypes.NodeRole[] memory requiredRoles\n) internal view returns (bytes32[] memory) {\n    uint256 clusterCount = 0;\n    bytes32[] memory tempClusters = new bytes32[](10); // Temporary fixed size array\n    \n    // Iterate through clusters using a counter approach\n    for (uint256 i = 0; i < 10; i++) { // Assuming max 10 clusters, adjust as needed\n        bytes32 clusterId = bytes32(i); // Convert index to bytes32\n        \n        if (clusters[clusterId].id == 0) break; // Stop if cluster doesn't exist\n        \n        NodeTypes.Cluster storage cluster = clusters[clusterId];\n        if (!cluster.isActive) continue;\n        \n        // Check if cluster has required roles\n        bool hasAllRoles = true;\n        for (uint j = 0; j < requiredRoles.length; j++) {\n            bool roleFound = false;\n            \n            // Iterate through possible node addresses \n            // (you'll need to track these separately)\n            address[] memory clusterNodeAddresses = getClusterNodeAddresses(clusterId);\n            \n            for (uint k = 0; k < clusterNodeAddresses.length; k++) {\n                NodeTypes.Node storage node = nodes[clusterNodeAddresses[k]];\n                if (node.role == requiredRoles[j] && node.isActive) {\n                    roleFound = true;\n                    break;\n                }\n            }\n            \n            if (!roleFound) {\n                hasAllRoles = false;\n                break;\n            }\n        }\n        \n        // Check capacity\n        if (hasAllRoles && cluster.nodeCount >= txSize) {\n            tempClusters[clusterCount] = clusterId;\n            clusterCount++;\n        }\n    }\n    \n    // Create correctly sized array\n    bytes32[] memory eligibleClusters = new bytes32[](clusterCount);\n    for (uint256 k = 0; k < clusterCount; k++) {\n        eligibleClusters[k] = tempClusters[k];\n    }\n    \n    return eligibleClusters;\n}\n\n// Helper function to get node addresses for a cluster\nfunction getClusterNodeAddresses(bytes32 clusterId) internal view returns (address[] memory) {\n    uint256 nodeCount = 0;\n    address[] memory tempAddresses = new address[](10); // Assuming max 10 nodes per cluster\n    \n    for (address nodeAddr = address(0); nodeAddr < address(type(uint160).max); nodeAddr = address(uint160(nodeAddr) + 1)) {\n        if (clusterMembers[clusterId][nodeAddr]) {\n            tempAddresses[nodeCount] = nodeAddr;\n            nodeCount++;\n            \n            if (nodeCount >= 10) break; // Prevent potential infinite loop\n        }\n    }\n    \n    // Create correctly sized array\n    address[] memory clusterNodeAddresses = new address[](nodeCount);\n    for (uint256 i = 0; i < nodeCount; i++) {\n        clusterNodeAddresses[i] = tempAddresses[i];\n    }\n    \n    return clusterNodeAddresses;\n}\n    \nfunction calculateOptimalPath(\n    bytes32[] memory eligibleClusters,\n    uint256 /* txSize */\n) internal view returns (bytes32[] memory, uint256) {\n    if (eligibleClusters.length == 0) {\n        return (new bytes32[](0), 0);\n    }\n    \n    bytes32[] memory optimalPath = new bytes32[](1);\n    uint256 highestScore = 0;\n    \n    for (uint256 i = 0; i < eligibleClusters.length; i++) {\n        NodeTypes.Cluster storage cluster = clusters[eligibleClusters[i]];\n        \n        // Calculate weighted score based on node count and processed transactions\n        uint256 nodeCountScore = (cluster.nodeCount * CAPACITY_WEIGHT) / 100;\n        uint256 performanceScore = (cluster.processedTxCount * PERFORMANCE_WEIGHT) / 100;\n        uint256 totalScore = nodeCountScore + performanceScore;\n        \n        if (totalScore > highestScore) {\n            highestScore = totalScore;\n            optimalPath[0] = eligibleClusters[i];\n        }\n    }\n    \n    return (optimalPath, highestScore);\n}\n}\n/**\n * @title PasschainValidator\n * @dev Manages PoA validation process for transactions\n */\ncontract PasschainValidator is BeeRoutingAlgorithm, ReentrancyGuard {\n    struct ValidationProcess {\n        bytes32 txId;\n        bytes32 clusterId;\n        uint256 validationsRequired;\n        uint256 validationsReceived;\n        uint256 validationsPositive;\n        bool isComplete;\n        mapping(address => bool) hasValidated;\n    }\n    \n    mapping(bytes32 => ValidationProcess) public validationProcesses;\n    \n    event ValidationStarted(bytes32 indexed txId, bytes32 indexed clusterId);\n    event ValidationSubmitted(bytes32 indexed txId, address validator, bool result);\n    event ValidationComplete(bytes32 indexed txId, bool isValid);\n    \n    function initiateValidation(\n        bytes32 txId,\n        bytes memory txData\n    ) external nonReentrant {\n        require(!validationProcesses[txId].isComplete, \"Already validated\");\n        \n        // Find optimal cluster route\n        NodeTypes.NodeRole[] memory roles = new NodeTypes.NodeRole[](3);\n        roles[0] = NodeTypes.NodeRole.DESIGNATOR;\n        roles[1] = NodeTypes.NodeRole.VALIDATOR;\n        roles[2] = NodeTypes.NodeRole.EXECUTOR;\n        \n        bytes32[] memory routePath = this.findOptimalRoute(\n            txId,\n            txData.length,\n            roles\n        );\n        require(routePath.length > 0, \"No valid route found\");\n        \n        // Setup validation process\n        ValidationProcess storage process = validationProcesses[txId];\n        process.txId = txId;\n        process.clusterId = routePath[0];\n        process.validationsRequired = calculateRequiredValidations(routePath[0]);\n        \n        emit ValidationStarted(txId, routePath[0]);\n    }\n    \n    function submitValidation(\n        bytes32 txId,\n        bool isValid\n    ) external nonReentrant {\n        ValidationProcess storage process = validationProcesses[txId];\n        require(!process.isComplete, \"Validation complete\");\n        require(!process.hasValidated[msg.sender], \"Already validated\");\n        require(\n            clusterMembers[process.clusterId][msg.sender],\n            \"Not cluster member\"\n        );\n        \n        process.hasValidated[msg.sender] = true;\n        process.validationsReceived++;\n        if (isValid) {\n            process.validationsPositive++;\n        }\n        \n        emit ValidationSubmitted(txId, msg.sender, isValid);\n        \n        // Check if validation is complete\n        if (process.validationsReceived >= process.validationsRequired) {\n            bool validationResult = (\n                process.validationsPositive * 100 / process.validationsReceived\n            ) >= VALIDATION_THRESHOLD;\n            \n            process.isComplete = true;\n            emit ValidationComplete(txId, validationResult);\n        }\n    }\n    \n    function calculateRequiredValidations(\n        bytes32 clusterId\n    ) internal view returns (uint256) {\n        NodeTypes.Cluster storage cluster = clusters[clusterId];\n        return (cluster.nodeCount * 2) / 3; // Require 2/3 majority\n    }\n}\n\n/**\n * @title ClusterCommunication\n * @dev Handles secure communication within and between clusters\n */\ncontract ClusterCommunication is PasschainValidator {\n    struct SecureMessage {\n        bytes32 messageId;\n        bytes encryptedContent;\n        bytes mac;\n        address sender;\n        address recipient;\n        uint256 timestamp;\n    }\n    \n    mapping(bytes32 => SecureMessage) public messages;\n    \n    event MessageSent(bytes32 indexed messageId, address indexed recipient);\n    \n    function sendClusterMessage(\n        bytes32 clusterId,\n        address recipient,\n        bytes memory content\n    ) external nonReentrant {\n        require(\n            clusterMembers[clusterId][msg.sender],\n            \"Not in cluster\"\n        );\n        \n        bytes32 messageId = keccak256(abi.encodePacked(\n            clusterId,\n            msg.sender,\n            recipient,\n            block.timestamp\n        ));\n        \n        // AES-GCM encryption would be implemented here\n        bytes memory encrypted = content; // Placeholder\n        \n        // HMAC generation\n        bytes memory mac = abi.encodePacked(\n            keccak256(abi.encodePacked(content, clusters[clusterId].sessionKey))\n        );\n        \n        messages[messageId] = SecureMessage({\n            messageId: messageId,\n            encryptedContent: encrypted,\n            mac: mac,\n            sender: msg.sender,\n            recipient: recipient,\n            timestamp: block.timestamp\n        });\n        \n        emit MessageSent(messageId, recipient);\n    }\n}",
  "sourcePath": "C:\\Users\\Bonsu\\Documents\\crosschainproject\\contracts\\passchain\\ClusterManager.sol",
  "compiler": {
    "name": "solc",
    "version": "0.8.17+commit.8df45f5f.Emscripten.clang"
  },
  "schemaVersion": "3.4.16",
  "updatedAt": "2025-02-07T14:38:19.837Z",
  "devdoc": {
    "details": "Manages PoA validation process for transactions",
    "kind": "dev",
    "methods": {
      "getRoleAdmin(bytes32)": {
        "details": "Returns the admin role that controls `role`. See {grantRole} and {revokeRole}. To change a role's admin, use {_setRoleAdmin}."
      },
      "grantRole(bytes32,address)": {
        "details": "Grants `role` to `account`. If `account` had not been already granted `role`, emits a {RoleGranted} event. Requirements: - the caller must have ``role``'s admin role. May emit a {RoleGranted} event."
      },
      "hasRole(bytes32,address)": {
        "details": "Returns `true` if `account` has been granted `role`."
      },
      "renounceRole(bytes32,address)": {
        "details": "Revokes `role` from the calling account. Roles are often managed via {grantRole} and {revokeRole}: this function's purpose is to provide a mechanism for accounts to lose their privileges if they are compromised (such as when a trusted device is misplaced). If the calling account had been revoked `role`, emits a {RoleRevoked} event. Requirements: - the caller must be `account`. May emit a {RoleRevoked} event."
      },
      "revokeRole(bytes32,address)": {
        "details": "Revokes `role` from `account`. If `account` had been granted `role`, emits a {RoleRevoked} event. Requirements: - the caller must have ``role``'s admin role. May emit a {RoleRevoked} event."
      },
      "supportsInterface(bytes4)": {
        "details": "See {IERC165-supportsInterface}."
      }
    },
    "title": "PasschainValidator",
    "version": 1
  },
  "userdoc": {
    "kind": "user",
    "methods": {},
    "version": 1
  }
}