{
  "contractName": "ProofOfStakeValidator",
  "abi": [
    {
      "inputs": [],
      "stateMutability": "nonpayable",
      "type": "constructor"
    },
    {
      "anonymous": false,
      "inputs": [
        {
          "indexed": true,
          "internalType": "bytes32",
          "name": "role",
          "type": "bytes32"
        },
        {
          "indexed": true,
          "internalType": "bytes32",
          "name": "previousAdminRole",
          "type": "bytes32"
        },
        {
          "indexed": true,
          "internalType": "bytes32",
          "name": "newAdminRole",
          "type": "bytes32"
        }
      ],
      "name": "RoleAdminChanged",
      "type": "event"
    },
    {
      "anonymous": false,
      "inputs": [
        {
          "indexed": true,
          "internalType": "bytes32",
          "name": "role",
          "type": "bytes32"
        },
        {
          "indexed": true,
          "internalType": "address",
          "name": "account",
          "type": "address"
        },
        {
          "indexed": true,
          "internalType": "address",
          "name": "sender",
          "type": "address"
        }
      ],
      "name": "RoleGranted",
      "type": "event"
    },
    {
      "anonymous": false,
      "inputs": [
        {
          "indexed": true,
          "internalType": "bytes32",
          "name": "role",
          "type": "bytes32"
        },
        {
          "indexed": true,
          "internalType": "address",
          "name": "account",
          "type": "address"
        },
        {
          "indexed": true,
          "internalType": "address",
          "name": "sender",
          "type": "address"
        }
      ],
      "name": "RoleRevoked",
      "type": "event"
    },
    {
      "anonymous": false,
      "inputs": [
        {
          "indexed": true,
          "internalType": "bytes32",
          "name": "txId",
          "type": "bytes32"
        },
        {
          "indexed": false,
          "internalType": "bool",
          "name": "isValid",
          "type": "bool"
        }
      ],
      "name": "ValidationComplete",
      "type": "event"
    },
    {
      "anonymous": false,
      "inputs": [
        {
          "indexed": true,
          "internalType": "bytes32",
          "name": "txId",
          "type": "bytes32"
        },
        {
          "indexed": false,
          "internalType": "address",
          "name": "validator",
          "type": "address"
        },
        {
          "indexed": false,
          "internalType": "uint256",
          "name": "stake",
          "type": "uint256"
        }
      ],
      "name": "ValidationSubmitted",
      "type": "event"
    },
    {
      "inputs": [],
      "name": "DEFAULT_ADMIN_ROLE",
      "outputs": [
        {
          "internalType": "bytes32",
          "name": "",
          "type": "bytes32"
        }
      ],
      "stateMutability": "view",
      "type": "function"
    },
    {
      "inputs": [],
      "name": "MIN_STAKE",
      "outputs": [
        {
          "internalType": "uint256",
          "name": "",
          "type": "uint256"
        }
      ],
      "stateMutability": "view",
      "type": "function"
    },
    {
      "inputs": [],
      "name": "VALIDATION_THRESHOLD",
      "outputs": [
        {
          "internalType": "uint256",
          "name": "",
          "type": "uint256"
        }
      ],
      "stateMutability": "view",
      "type": "function"
    },
    {
      "inputs": [],
      "name": "VALIDATOR_ROLE",
      "outputs": [
        {
          "internalType": "bytes32",
          "name": "",
          "type": "bytes32"
        }
      ],
      "stateMutability": "view",
      "type": "function"
    },
    {
      "inputs": [
        {
          "internalType": "bytes32",
          "name": "role",
          "type": "bytes32"
        }
      ],
      "name": "getRoleAdmin",
      "outputs": [
        {
          "internalType": "bytes32",
          "name": "",
          "type": "bytes32"
        }
      ],
      "stateMutability": "view",
      "type": "function"
    },
    {
      "inputs": [
        {
          "internalType": "bytes32",
          "name": "role",
          "type": "bytes32"
        },
        {
          "internalType": "address",
          "name": "account",
          "type": "address"
        }
      ],
      "name": "grantRole",
      "outputs": [],
      "stateMutability": "nonpayable",
      "type": "function"
    },
    {
      "inputs": [
        {
          "internalType": "bytes32",
          "name": "role",
          "type": "bytes32"
        },
        {
          "internalType": "address",
          "name": "account",
          "type": "address"
        }
      ],
      "name": "hasRole",
      "outputs": [
        {
          "internalType": "bool",
          "name": "",
          "type": "bool"
        }
      ],
      "stateMutability": "view",
      "type": "function"
    },
    {
      "inputs": [
        {
          "internalType": "bytes32",
          "name": "role",
          "type": "bytes32"
        },
        {
          "internalType": "address",
          "name": "account",
          "type": "address"
        }
      ],
      "name": "renounceRole",
      "outputs": [],
      "stateMutability": "nonpayable",
      "type": "function"
    },
    {
      "inputs": [
        {
          "internalType": "bytes32",
          "name": "role",
          "type": "bytes32"
        },
        {
          "internalType": "address",
          "name": "account",
          "type": "address"
        }
      ],
      "name": "revokeRole",
      "outputs": [],
      "stateMutability": "nonpayable",
      "type": "function"
    },
    {
      "inputs": [
        {
          "internalType": "bytes4",
          "name": "interfaceId",
          "type": "bytes4"
        }
      ],
      "name": "supportsInterface",
      "outputs": [
        {
          "internalType": "bool",
          "name": "",
          "type": "bool"
        }
      ],
      "stateMutability": "view",
      "type": "function"
    },
    {
      "inputs": [
        {
          "internalType": "bytes32",
          "name": "",
          "type": "bytes32"
        }
      ],
      "name": "validationStates",
      "outputs": [
        {
          "internalType": "uint256",
          "name": "totalStake",
          "type": "uint256"
        },
        {
          "internalType": "uint256",
          "name": "approvalStake",
          "type": "uint256"
        },
        {
          "internalType": "uint256",
          "name": "startTime",
          "type": "uint256"
        },
        {
          "internalType": "bool",
          "name": "isComplete",
          "type": "bool"
        }
      ],
      "stateMutability": "view",
      "type": "function"
    },
    {
      "inputs": [
        {
          "internalType": "address",
          "name": "",
          "type": "address"
        }
      ],
      "name": "validatorStakes",
      "outputs": [
        {
          "internalType": "uint256",
          "name": "",
          "type": "uint256"
        }
      ],
      "stateMutability": "view",
      "type": "function"
    },
    {
      "inputs": [
        {
          "internalType": "bytes32",
          "name": "txId",
          "type": "bytes32"
        },
        {
          "internalType": "bool",
          "name": "approval",
          "type": "bool"
        }
      ],
      "name": "submitValidation",
      "outputs": [],
      "stateMutability": "nonpayable",
      "type": "function"
    }
  ],
  "bytecode": "0x608060405234801561001057600080fd5b5061001c600033610021565b6100cd565b61002b828261002f565b5050565b6000828152602081815260408083206001600160a01b038516845290915290205460ff1661002b576000828152602081815260408083206001600160a01b03851684529091529020805460ff191660011790556100893390565b6001600160a01b0316816001600160a01b0316837f2f8788117e7eff1d82e926ec794901d17c78024a50270940304540a733656f0d60405160405180910390a45050565b610b30806100dc6000396000f3fe608060405234801561001057600080fd5b50600436106100cf5760003560e01c80634c7b87101161008c578063aa73557811610066578063aa735578146101e6578063c49baebe14610206578063cb1c2b5c1461022d578063d547741f1461023d57600080fd5b80634c7b8710146101b857806391d14854146101cb578063a217fddf146101de57600080fd5b806301ffc9a7146100d457806314552f26146100fc5780631a16b4de14610112578063248a9ca31461016d5780632f2ff15d1461019057806336568abe146101a5575b600080fd5b6100e76100e23660046108ae565b610250565b60405190151581526020015b60405180910390f35b610104604681565b6040519081526020016100f3565b61014b6101203660046108d8565b6001602081905260009182526040909120805491810154600282015460039092015490919060ff1684565b60408051948552602085019390935291830152151560608201526080016100f3565b61010461017b3660046108d8565b60009081526020819052604090206001015490565b6101a361019e36600461090d565b610287565b005b6101a36101b336600461090d565b6102b1565b6101a36101c6366004610939565b610334565b6100e76101d936600461090d565b61055c565b610104600081565b6101046101f436600461096e565b60026020526000908152604090205481565b6101047f21702c8af46127c7fa207f89d0b0a8441bb32959a0ac7df790e9ab1a25c9892681565b610104683635c9adc5dea0000081565b6101a361024b36600461090d565b610585565b60006001600160e01b03198216637965db0b60e01b148061028157506301ffc9a760e01b6001600160e01b03198316145b92915050565b6000828152602081905260409020600101546102a2816105aa565b6102ac83836105b7565b505050565b6001600160a01b03811633146103265760405162461bcd60e51b815260206004820152602f60248201527f416363657373436f6e74726f6c3a2063616e206f6e6c792072656e6f756e636560448201526e103937b632b9903337b91039b2b63360891b60648201526084015b60405180910390fd5b610330828261063b565b5050565b61035e7f21702c8af46127c7fa207f89d0b0a8441bb32959a0ac7df790e9ab1a25c989263361055c565b61039c5760405162461bcd60e51b815260206004820152600f60248201526e2737ba1030903b30b634b230ba37b960891b604482015260640161031d565b6000828152600160205260409020600381015460ff16156103f55760405162461bcd60e51b815260206004820152601360248201527256616c69646174696f6e20636f6d706c65746560681b604482015260640161031d565b33600090815260026020526040902054683635c9adc5dea000008110156104535760405162461bcd60e51b8152602060048201526012602482015271496e73756666696369656e74207374616b6560701b604482015260640161031d565b8215610473578082600101600082825461046d919061099f565b90915550505b80826000016000828254610487919061099f565b90915550503360008181526004840160209081526040918290208490558151928352820183905285917f65586f927709161fa53840018659ef9717fe9682f2a187c28291a97e9654edd0910160405180910390a28154156105565781546001830154600091906104f89060646109b2565b61050291906109c9565b9050604681106105545760038301805460ff1916600190811790915560405190815285907fa668712c0b8f59efdf687dfbc672df6d8a1ab624717f5dfd9a794099f3ad48849060200160405180910390a25b505b50505050565b6000918252602082815260408084206001600160a01b0393909316845291905290205460ff1690565b6000828152602081905260409020600101546105a0816105aa565b6102ac838361063b565b6105b481336106a0565b50565b6105c1828261055c565b610330576000828152602081815260408083206001600160a01b03851684529091529020805460ff191660011790556105f73390565b6001600160a01b0316816001600160a01b0316837f2f8788117e7eff1d82e926ec794901d17c78024a50270940304540a733656f0d60405160405180910390a45050565b610645828261055c565b15610330576000828152602081815260408083206001600160a01b0385168085529252808320805460ff1916905551339285917ff6391f5c32d9c69d2a47ea670b442974b53935d1edc7fd64eb21e047a839171b9190a45050565b6106aa828261055c565b610330576106b7816106f9565b6106c283602061070b565b6040516020016106d3929190610a0f565b60408051601f198184030181529082905262461bcd60e51b825261031d91600401610a84565b60606102816001600160a01b03831660145b6060600061071a8360026109b2565b61072590600261099f565b67ffffffffffffffff81111561073d5761073d610ab7565b6040519080825280601f01601f191660200182016040528015610767576020820181803683370190505b509050600360fc1b8160008151811061078257610782610acd565b60200101906001600160f81b031916908160001a905350600f60fb1b816001815181106107b1576107b1610acd565b60200101906001600160f81b031916908160001a90535060006107d58460026109b2565b6107e090600161099f565b90505b6001811115610858576f181899199a1a9b1b9c1cb0b131b232b360811b85600f166010811061081457610814610acd565b1a60f81b82828151811061082a5761082a610acd565b60200101906001600160f81b031916908160001a90535060049490941c9361085181610ae3565b90506107e3565b5083156108a75760405162461bcd60e51b815260206004820181905260248201527f537472696e67733a20686578206c656e67746820696e73756666696369656e74604482015260640161031d565b9392505050565b6000602082840312156108c057600080fd5b81356001600160e01b0319811681146108a757600080fd5b6000602082840312156108ea57600080fd5b5035919050565b80356001600160a01b038116811461090857600080fd5b919050565b6000806040838503121561092057600080fd5b82359150610930602084016108f1565b90509250929050565b6000806040838503121561094c57600080fd5b823591506020830135801515811461096357600080fd5b809150509250929050565b60006020828403121561098057600080fd5b6108a7826108f1565b634e487b7160e01b600052601160045260246000fd5b8082018082111561028157610281610989565b808202811582820484141761028157610281610989565b6000826109e657634e487b7160e01b600052601260045260246000fd5b500490565b60005b83811015610a065781810151838201526020016109ee565b50506000910152565b7f416363657373436f6e74726f6c3a206163636f756e7420000000000000000000815260008351610a478160178501602088016109eb565b7001034b99036b4b9b9b4b733903937b6329607d1b6017918401918201528351610a788160288401602088016109eb565b01602801949350505050565b6020815260008251806020840152610aa38160408501602087016109eb565b601f01601f19169190910160400192915050565b634e487b7160e01b600052604160045260246000fd5b634e487b7160e01b600052603260045260246000fd5b600081610af257610af2610989565b50600019019056fea26469706673582212207773c82fa56479d249c67e1b1deacaf0cd285e83e0f8cf2c10d61ddef94b8e4964736f6c63430008110033",
  "immutableReferences": {},
  "source": "// SPDX-License-Identifier: MIT\npragma solidity ^0.8.0;\n\nimport \"@openzeppelin/contracts/security/ReentrancyGuard.sol\";\nimport \"@openzeppelin/contracts/access/AccessControl.sol\";\n\n/**\n * @title MerkleTreeLib\n * @dev Library for Merkle tree operations\n */\nlibrary MerkleTreeLib {\n    struct MerkleTree {\n        bytes32 root;\n        mapping(bytes32 => bool) verified;\n    }\n\n    function verifyProof(\n        bytes32 root,\n        bytes32 leaf,\n        bytes32[] memory proof\n    ) internal pure returns (bool) {\n        bytes32 computedHash = leaf;\n        \n        for (uint256 i = 0; i < proof.length; i++) {\n            computedHash = hashPair(computedHash, proof[i]);\n        }\n        \n        return computedHash == root;\n    }\n    \n    function hashPair(bytes32 a, bytes32 b) internal pure returns (bytes32) {\n        return keccak256(abi.encodePacked(a, b));\n    }\n}\n\n/**\n * @title RelayTypes\n * @dev Core data structures for relay chain operations\n */\nlibrary RelayTypes {\n    struct Transaction {\n        bytes32 id;\n        address sourceBridge;\n        address targetBridge;\n        bytes32 originalTxHash;\n        bytes metadata;\n        bytes32 merkleRoot;\n        uint256 timestamp;\n        bool isValidated;\n        bool isStateUpdated;\n        bool isRelayed;\n    }\n\n    struct StateUpdate {\n        bytes32 txId;\n        bytes32 merkleRoot;\n        bytes32[] affectedChains;\n        mapping(bytes32 => bool) notificationStatus;\n        uint256 updateTime;\n        bool isComplete;\n    }\n\n    struct ValidationState {\n        uint256 totalStake;\n        uint256 approvalStake;\n        uint256 startTime;\n        bool isComplete;\n        mapping(address => uint256) validatorStakes;\n    }\n}\n\n/**\n * @title ProofOfStakeValidator\n * @dev Manages PoS validation for relay chain\n */\ncontract ProofOfStakeValidator is AccessControl {\n    using RelayTypes for RelayTypes.Transaction;\n    using RelayTypes for RelayTypes.ValidationState;\n    using MerkleTreeLib for MerkleTreeLib.MerkleTree;\n\n    bytes32 public constant VALIDATOR_ROLE = keccak256(\"VALIDATOR_ROLE\");\n    \n    mapping(bytes32 => RelayTypes.ValidationState) public validationStates;\n    mapping(address => uint256) public validatorStakes;\n    \n    uint256 public constant MIN_STAKE = 1000 ether;\n    uint256 public constant VALIDATION_THRESHOLD = 70; // 70% stake approval needed\n    \n    event ValidationSubmitted(bytes32 indexed txId, address validator, uint256 stake);\n    event ValidationComplete(bytes32 indexed txId, bool isValid);\n    \n    constructor() {\n        _setupRole(DEFAULT_ADMIN_ROLE, msg.sender);\n    }\n    \n    function submitValidation(\n        bytes32 txId,\n        bool approval\n    ) external {\n        require(hasRole(VALIDATOR_ROLE, msg.sender), \"Not a validator\");\n        \n        RelayTypes.ValidationState storage validationState = validationStates[txId];\n        require(!validationState.isComplete, \"Validation complete\");\n        \n        uint256 stake = validatorStakes[msg.sender];\n        require(stake >= MIN_STAKE, \"Insufficient stake\");\n        \n        if (approval) {\n            validationState.approvalStake += stake;\n        }\n        validationState.totalStake += stake;\n        validationState.validatorStakes[msg.sender] = stake;\n        \n        emit ValidationSubmitted(txId, msg.sender, stake);\n        \n        // Check if validation threshold is met\n        if (validationState.totalStake > 0) {\n            uint256 approvalPercentage = (validationState.approvalStake * 100) / \n                                        validationState.totalStake;\n            \n            if (approvalPercentage >= VALIDATION_THRESHOLD) {\n                validationState.isComplete = true;\n                emit ValidationComplete(txId, true);\n            }\n        }\n    }\n}\n\n/**\n * @title StateManager\n * @dev Handles state updates and Merkle tree management\n */\ncontract StateManager is ProofOfStakeValidator {\n    using MerkleTreeLib for MerkleTreeLib.MerkleTree;\n    \n    mapping(bytes32 => RelayTypes.StateUpdate) public stateUpdates;\n    mapping(bytes32 => bytes32) public chainStates;\n    \n    event StateUpdateInitiated(bytes32 indexed txId, bytes32 merkleRoot);\n    event ChainNotified(bytes32 indexed chainId, bytes32 indexed txId);\n    event StateUpdateComplete(bytes32 indexed txId);\n    \n    function updateState(\n        bytes32 txId,\n        bytes32[] memory affectedChains,\n        bytes memory txData\n    ) external onlyRole(DEFAULT_ADMIN_ROLE) {\n        RelayTypes.StateUpdate storage update = stateUpdates[txId];\n        require(!update.isComplete, \"State update complete\");\n        \n        bytes32 merkleRoot = createMerkleRoot(txData);\n        update.merkleRoot = merkleRoot;\n        update.affectedChains = affectedChains;\n        update.updateTime = block.timestamp;\n        \n        emit StateUpdateInitiated(txId, merkleRoot);\n        \n        for (uint256 i = 0; i < affectedChains.length; i++) {\n            notifyChain(affectedChains[i], txId, merkleRoot);\n        }\n    }\n    \n    function notifyChain(\n        bytes32 chainId,\n        bytes32 txId,\n        bytes32 merkleRoot\n    ) internal {\n        chainStates[chainId] = merkleRoot;\n        RelayTypes.StateUpdate storage update = stateUpdates[txId];\n        update.notificationStatus[chainId] = true;\n        \n        emit ChainNotified(chainId, txId);\n    }\n    \n    function createMerkleRoot(\n        bytes memory data\n    ) internal pure returns (bytes32) {\n        return keccak256(data);\n    }\n}\n\n/**\n * @title TransactionRelay\n * @dev Manages final transaction relay to receiving blockchain\n */\ncontract TransactionRelay is StateManager, ReentrancyGuard {\n    struct RelayedTransaction {\n        bytes32 txId;\n        bytes originalMetadata;\n        bytes enrichedData;\n        uint256 relayTime;\n        bool isComplete;\n    }\n    \n    mapping(bytes32 => RelayedTransaction) public relayedTransactions;\n    \n    event TransactionRelayed(\n        bytes32 indexed txId,\n        address indexed targetBridge,\n        bytes32 merkleRoot\n    );\n    \n    function relayTransaction(\n        bytes32 txId,\n        address targetBridge,\n        bytes memory originalMetadata,\n        bytes memory enrichedData\n    ) external nonReentrant onlyRole(DEFAULT_ADMIN_ROLE) {\n        require(\n            validationStates[txId].isComplete,\n            \"Validation incomplete\"\n        );\n        require(\n            stateUpdates[txId].isComplete,\n            \"State update incomplete\"\n        );\n        \n        RelayedTransaction storage relayedTx = relayedTransactions[txId];\n        require(!relayedTx.isComplete, \"Already relayed\");\n        \n        relayedTx.txId = txId;\n        relayedTx.originalMetadata = originalMetadata;\n        relayedTx.enrichedData = enrichedData;\n        relayedTx.relayTime = block.timestamp;\n        relayedTx.isComplete = true;\n        \n        emit TransactionRelayed(\n            txId,\n            targetBridge,\n            stateUpdates[txId].merkleRoot\n        );\n    }\n}\n\n/**\n * @title ReceivingBlockchainInterface\n * @dev Interface for receiving blockchain to process relayed transactions\n */\ncontract ReceivingBlockchainInterface is ReentrancyGuard {\n    struct ReceivedTransaction {\n        bytes32 txId;\n        bytes32 merkleRoot;\n        bytes metadata;\n        bytes enrichedData;\n        uint256 receiveTime;\n        bool isProcessed;\n    }\n    \n    mapping(bytes32 => ReceivedTransaction) public receivedTransactions;\n    \n    event TransactionReceived(bytes32 indexed txId, bytes32 merkleRoot);\n    event TransactionProcessed(bytes32 indexed txId);\n    \n    function receiveTransaction(\n        bytes32 txId,\n        bytes32 merkleRoot,\n        bytes memory metadata,\n        bytes memory enrichedData\n    ) external nonReentrant {\n        ReceivedTransaction storage receivedTx = receivedTransactions[txId];\n        require(!receivedTx.isProcessed, \"Already processed\");\n        \n        receivedTx.txId = txId;\n        receivedTx.merkleRoot = merkleRoot;\n        receivedTx.metadata = metadata;\n        receivedTx.enrichedData = enrichedData;\n        receivedTx.receiveTime = block.timestamp;\n        \n        emit TransactionReceived(txId, merkleRoot);\n        \n        processTransaction(txId);\n    }\n    \n    function processTransaction(bytes32 txId) internal {\n        ReceivedTransaction storage receivedTx = receivedTransactions[txId];\n        receivedTx.isProcessed = true;\n        \n        emit TransactionProcessed(txId);\n    }\n}",
  "sourcePath": "C:\\Users\\Bonsu\\Documents\\crosschainproject\\contracts\\relay\\RelayChain.sol",
  "compiler": {
    "name": "solc",
    "version": "0.8.17+commit.8df45f5f.Emscripten.clang"
  },
  "schemaVersion": "3.4.16",
  "updatedAt": "2025-01-29T15:20:38.601Z",
  "devdoc": {
    "details": "Manages PoS validation for relay chain",
    "kind": "dev",
    "methods": {
      "getRoleAdmin(bytes32)": {
        "details": "Returns the admin role that controls `role`. See {grantRole} and {revokeRole}. To change a role's admin, use {_setRoleAdmin}."
      },
      "grantRole(bytes32,address)": {
        "details": "Grants `role` to `account`. If `account` had not been already granted `role`, emits a {RoleGranted} event. Requirements: - the caller must have ``role``'s admin role. May emit a {RoleGranted} event."
      },
      "hasRole(bytes32,address)": {
        "details": "Returns `true` if `account` has been granted `role`."
      },
      "renounceRole(bytes32,address)": {
        "details": "Revokes `role` from the calling account. Roles are often managed via {grantRole} and {revokeRole}: this function's purpose is to provide a mechanism for accounts to lose their privileges if they are compromised (such as when a trusted device is misplaced). If the calling account had been revoked `role`, emits a {RoleRevoked} event. Requirements: - the caller must be `account`. May emit a {RoleRevoked} event."
      },
      "revokeRole(bytes32,address)": {
        "details": "Revokes `role` from `account`. If `account` had been granted `role`, emits a {RoleRevoked} event. Requirements: - the caller must have ``role``'s admin role. May emit a {RoleRevoked} event."
      },
      "supportsInterface(bytes4)": {
        "details": "See {IERC165-supportsInterface}."
      }
    },
    "title": "ProofOfStakeValidator",
    "version": 1
  },
  "userdoc": {
    "kind": "user",
    "methods": {},
    "version": 1
  }
}