{
  "contractName": "ReceivingBlockchainInterface",
  "abi": [
    {
      "anonymous": false,
      "inputs": [
        {
          "indexed": true,
          "internalType": "bytes32",
          "name": "txId",
          "type": "bytes32"
        }
      ],
      "name": "TransactionProcessed",
      "type": "event"
    },
    {
      "anonymous": false,
      "inputs": [
        {
          "indexed": true,
          "internalType": "bytes32",
          "name": "txId",
          "type": "bytes32"
        },
        {
          "indexed": false,
          "internalType": "bytes32",
          "name": "merkleRoot",
          "type": "bytes32"
        }
      ],
      "name": "TransactionReceived",
      "type": "event"
    },
    {
      "inputs": [
        {
          "internalType": "bytes32",
          "name": "",
          "type": "bytes32"
        }
      ],
      "name": "receivedTransactions",
      "outputs": [
        {
          "internalType": "bytes32",
          "name": "txId",
          "type": "bytes32"
        },
        {
          "internalType": "bytes32",
          "name": "merkleRoot",
          "type": "bytes32"
        },
        {
          "internalType": "bytes",
          "name": "metadata",
          "type": "bytes"
        },
        {
          "internalType": "bytes",
          "name": "enrichedData",
          "type": "bytes"
        },
        {
          "internalType": "uint256",
          "name": "receiveTime",
          "type": "uint256"
        },
        {
          "internalType": "bool",
          "name": "isProcessed",
          "type": "bool"
        }
      ],
      "stateMutability": "view",
      "type": "function"
    },
    {
      "inputs": [
        {
          "internalType": "bytes32",
          "name": "txId",
          "type": "bytes32"
        },
        {
          "internalType": "bytes32",
          "name": "merkleRoot",
          "type": "bytes32"
        },
        {
          "internalType": "bytes",
          "name": "metadata",
          "type": "bytes"
        },
        {
          "internalType": "bytes",
          "name": "enrichedData",
          "type": "bytes"
        }
      ],
      "name": "receiveTransaction",
      "outputs": [],
      "stateMutability": "nonpayable",
      "type": "function"
    }
  ],
  "bytecode": "0x608060405234801561001057600080fd5b506001600055610694806100256000396000f3fe608060405234801561001057600080fd5b50600436106100365760003560e01c8063707f9c9a1461003b578063902a0d0914610069575b600080fd5b61004e610049366004610350565b61007e565b604051610060969594939291906103af565b60405180910390f35b61007c61007736600461049e565b6101c8565b005b60016020819052600091825260409091208054918101546002820180549192916100a790610515565b80601f01602080910402602001604051908101604052809291908181526020018280546100d390610515565b80156101205780601f106100f557610100808354040283529160200191610120565b820191906000526020600020905b81548152906001019060200180831161010357829003601f168201915b50505050509080600301805461013590610515565b80601f016020809104026020016040519081016040528092919081815260200182805461016190610515565b80156101ae5780601f10610183576101008083540402835291602001916101ae565b820191906000526020600020905b81548152906001019060200180831161019157829003601f168201915b50505050600483015460059093015491929160ff16905086565b6101d06102a9565b6000848152600160205260409020600581015460ff161561022c5760405162461bcd60e51b8152602060048201526011602482015270105b1c9958591e481c1c9bd8d95cdcd959607a1b60448201526064015b60405180910390fd5b8481556001810184905560028101610244848261059e565b5060038101610253838261059e565b5042600482015560405184815285907f7f61d80d1e475f0772f5d3825fbc5d7c9f2f1671492e852a6358928442b295b69060200160405180910390a261029885610302565b506102a36001600055565b50505050565b6002600054036102fb5760405162461bcd60e51b815260206004820152601f60248201527f5265656e7472616e637947756172643a207265656e7472616e742063616c6c006044820152606401610223565b6002600055565b600081815260016020819052604080832060058101805460ff191690931790925551909183917f28d52a93845b083fefee66bd925a69c3fe8e212f1399e8436ff1bc48bd3334219190a25050565b60006020828403121561036257600080fd5b5035919050565b6000815180845260005b8181101561038f57602081850181015186830182015201610373565b506000602082860101526020601f19601f83011685010191505092915050565b86815285602082015260c0604082015260006103ce60c0830187610369565b82810360608401526103e08187610369565b6080840195909552505090151560a090910152949350505050565b634e487b7160e01b600052604160045260246000fd5b600082601f83011261042257600080fd5b813567ffffffffffffffff8082111561043d5761043d6103fb565b604051601f8301601f19908116603f01168101908282118183101715610465576104656103fb565b8160405283815286602085880101111561047e57600080fd5b836020870160208301376000602085830101528094505050505092915050565b600080600080608085870312156104b457600080fd5b8435935060208501359250604085013567ffffffffffffffff808211156104da57600080fd5b6104e688838901610411565b935060608701359150808211156104fc57600080fd5b5061050987828801610411565b91505092959194509250565b600181811c9082168061052957607f821691505b60208210810361054957634e487b7160e01b600052602260045260246000fd5b50919050565b601f82111561059957600081815260208120601f850160051c810160208610156105765750805b601f850160051c820191505b8181101561059557828155600101610582565b5050505b505050565b815167ffffffffffffffff8111156105b8576105b86103fb565b6105cc816105c68454610515565b8461054f565b602080601f83116001811461060157600084156105e95750858301515b600019600386901b1c1916600185901b178555610595565b600085815260208120601f198616915b8281101561063057888601518255948401946001909101908401610611565b508582101561064e5787850151600019600388901b60f8161c191681555b5050505050600190811b0190555056fea2646970667358221220b3e9c85ef28d1b6f7f957659b50300507d6eedbd3b7d6d797ebb26aac7dd7a2e64736f6c63430008110033",
  "immutableReferences": {},
  "source": "// SPDX-License-Identifier: MIT\npragma solidity ^0.8.0;\n\nimport \"@openzeppelin/contracts/security/ReentrancyGuard.sol\";\nimport \"@openzeppelin/contracts/access/AccessControl.sol\";\n\n/**\n * @title MerkleTreeLib\n * @dev Library for Merkle tree operations\n */\nlibrary MerkleTreeLib {\n    struct MerkleTree {\n        bytes32 root;\n        mapping(bytes32 => bool) verified;\n    }\n\n    function verifyProof(\n        bytes32 root,\n        bytes32 leaf,\n        bytes32[] memory proof\n    ) internal pure returns (bool) {\n        bytes32 computedHash = leaf;\n        \n        for (uint256 i = 0; i < proof.length; i++) {\n            computedHash = hashPair(computedHash, proof[i]);\n        }\n        \n        return computedHash == root;\n    }\n    \n    function hashPair(bytes32 a, bytes32 b) internal pure returns (bytes32) {\n        return keccak256(abi.encodePacked(a, b));\n    }\n}\n\n/**\n * @title RelayTypes\n * @dev Core data structures for relay chain operations\n */\nlibrary RelayTypes {\n    struct Transaction {\n        bytes32 id;\n        address sourceBridge;\n        address targetBridge;\n        bytes32 originalTxHash;\n        bytes metadata;\n        bytes32 merkleRoot;\n        uint256 timestamp;\n        bool isValidated;\n        bool isStateUpdated;\n        bool isRelayed;\n    }\n\n    struct StateUpdate {\n        bytes32 txId;\n        bytes32 merkleRoot;\n        bytes32[] affectedChains;\n        mapping(bytes32 => bool) notificationStatus;\n        uint256 updateTime;\n        bool isComplete;\n    }\n\n    struct ValidationState {\n        uint256 totalStake;\n        uint256 approvalStake;\n        uint256 startTime;\n        bool isComplete;\n        mapping(address => uint256) validatorStakes;\n    }\n}\n\n/**\n * @title ProofOfStakeValidator\n * @dev Manages PoS validation for relay chain\n */\ncontract ProofOfStakeValidator is AccessControl {\n    using RelayTypes for RelayTypes.Transaction;\n    using RelayTypes for RelayTypes.ValidationState;\n    using MerkleTreeLib for MerkleTreeLib.MerkleTree;\n\n    bytes32 public constant VALIDATOR_ROLE = keccak256(\"VALIDATOR_ROLE\");\n    \n    mapping(bytes32 => RelayTypes.ValidationState) public validationStates;\n    mapping(address => uint256) public validatorStakes;\n    \n    uint256 public constant MIN_STAKE = 1000 ether;\n    uint256 public constant VALIDATION_THRESHOLD = 70; // 70% stake approval needed\n    \n    event ValidationSubmitted(bytes32 indexed txId, address validator, uint256 stake);\n    event ValidationComplete(bytes32 indexed txId, bool isValid);\n    \n    constructor() {\n        _setupRole(DEFAULT_ADMIN_ROLE, msg.sender);\n    }\n    \n    function submitValidation(\n        bytes32 txId,\n        bool approval\n    ) external {\n        require(hasRole(VALIDATOR_ROLE, msg.sender), \"Not a validator\");\n        \n        RelayTypes.ValidationState storage validationState = validationStates[txId];\n        require(!validationState.isComplete, \"Validation complete\");\n        \n        uint256 stake = validatorStakes[msg.sender];\n        require(stake >= MIN_STAKE, \"Insufficient stake\");\n        \n        if (approval) {\n            validationState.approvalStake += stake;\n        }\n        validationState.totalStake += stake;\n        validationState.validatorStakes[msg.sender] = stake;\n        \n        emit ValidationSubmitted(txId, msg.sender, stake);\n        \n        // Check if validation threshold is met\n        if (validationState.totalStake > 0) {\n            uint256 approvalPercentage = (validationState.approvalStake * 100) / \n                                        validationState.totalStake;\n            \n            if (approvalPercentage >= VALIDATION_THRESHOLD) {\n                validationState.isComplete = true;\n                emit ValidationComplete(txId, true);\n            }\n        }\n    }\n}\n\n/**\n * @title StateManager\n * @dev Handles state updates and Merkle tree management\n */\ncontract StateManager is ProofOfStakeValidator {\n    using MerkleTreeLib for MerkleTreeLib.MerkleTree;\n    \n    mapping(bytes32 => RelayTypes.StateUpdate) public stateUpdates;\n    mapping(bytes32 => bytes32) public chainStates;\n    \n    event StateUpdateInitiated(bytes32 indexed txId, bytes32 merkleRoot);\n    event ChainNotified(bytes32 indexed chainId, bytes32 indexed txId);\n    event StateUpdateComplete(bytes32 indexed txId);\n    \n    function updateState(\n        bytes32 txId,\n        bytes32[] memory affectedChains,\n        bytes memory txData\n    ) external onlyRole(DEFAULT_ADMIN_ROLE) {\n        RelayTypes.StateUpdate storage update = stateUpdates[txId];\n        require(!update.isComplete, \"State update complete\");\n        \n        bytes32 merkleRoot = createMerkleRoot(txData);\n        update.merkleRoot = merkleRoot;\n        update.affectedChains = affectedChains;\n        update.updateTime = block.timestamp;\n        \n        emit StateUpdateInitiated(txId, merkleRoot);\n        \n        for (uint256 i = 0; i < affectedChains.length; i++) {\n            notifyChain(affectedChains[i], txId, merkleRoot);\n        }\n    }\n    \n    function notifyChain(\n        bytes32 chainId,\n        bytes32 txId,\n        bytes32 merkleRoot\n    ) internal {\n        chainStates[chainId] = merkleRoot;\n        RelayTypes.StateUpdate storage update = stateUpdates[txId];\n        update.notificationStatus[chainId] = true;\n        \n        emit ChainNotified(chainId, txId);\n    }\n    \n    function createMerkleRoot(\n        bytes memory data\n    ) internal pure returns (bytes32) {\n        return keccak256(data);\n    }\n}\n\n/**\n * @title TransactionRelay\n * @dev Manages final transaction relay to receiving blockchain\n */\ncontract TransactionRelay is StateManager, ReentrancyGuard {\n    struct RelayedTransaction {\n        bytes32 txId;\n        bytes originalMetadata;\n        bytes enrichedData;\n        uint256 relayTime;\n        bool isComplete;\n    }\n    \n    mapping(bytes32 => RelayedTransaction) public relayedTransactions;\n    \n    event TransactionRelayed(\n        bytes32 indexed txId,\n        address indexed targetBridge,\n        bytes32 merkleRoot\n    );\n    \n    function relayTransaction(\n        bytes32 txId,\n        address targetBridge,\n        bytes memory originalMetadata,\n        bytes memory enrichedData\n    ) external nonReentrant onlyRole(DEFAULT_ADMIN_ROLE) {\n        require(\n            validationStates[txId].isComplete,\n            \"Validation incomplete\"\n        );\n        require(\n            stateUpdates[txId].isComplete,\n            \"State update incomplete\"\n        );\n        \n        RelayedTransaction storage relayedTx = relayedTransactions[txId];\n        require(!relayedTx.isComplete, \"Already relayed\");\n        \n        relayedTx.txId = txId;\n        relayedTx.originalMetadata = originalMetadata;\n        relayedTx.enrichedData = enrichedData;\n        relayedTx.relayTime = block.timestamp;\n        relayedTx.isComplete = true;\n        \n        emit TransactionRelayed(\n            txId,\n            targetBridge,\n            stateUpdates[txId].merkleRoot\n        );\n    }\n}\n\n/**\n * @title ReceivingBlockchainInterface\n * @dev Interface for receiving blockchain to process relayed transactions\n */\ncontract ReceivingBlockchainInterface is ReentrancyGuard {\n    struct ReceivedTransaction {\n        bytes32 txId;\n        bytes32 merkleRoot;\n        bytes metadata;\n        bytes enrichedData;\n        uint256 receiveTime;\n        bool isProcessed;\n    }\n    \n    mapping(bytes32 => ReceivedTransaction) public receivedTransactions;\n    \n    event TransactionReceived(bytes32 indexed txId, bytes32 merkleRoot);\n    event TransactionProcessed(bytes32 indexed txId);\n    \n    function receiveTransaction(\n        bytes32 txId,\n        bytes32 merkleRoot,\n        bytes memory metadata,\n        bytes memory enrichedData\n    ) external nonReentrant {\n        ReceivedTransaction storage receivedTx = receivedTransactions[txId];\n        require(!receivedTx.isProcessed, \"Already processed\");\n        \n        receivedTx.txId = txId;\n        receivedTx.merkleRoot = merkleRoot;\n        receivedTx.metadata = metadata;\n        receivedTx.enrichedData = enrichedData;\n        receivedTx.receiveTime = block.timestamp;\n        \n        emit TransactionReceived(txId, merkleRoot);\n        \n        processTransaction(txId);\n    }\n    \n    function processTransaction(bytes32 txId) internal {\n        ReceivedTransaction storage receivedTx = receivedTransactions[txId];\n        receivedTx.isProcessed = true;\n        \n        emit TransactionProcessed(txId);\n    }\n}",
  "sourcePath": "C:\\Users\\Bonsu\\Documents\\crosschainproject\\contracts\\relay\\RelayChain.sol",
  "compiler": {
    "name": "solc",
    "version": "0.8.17+commit.8df45f5f.Emscripten.clang"
  },
  "schemaVersion": "3.4.16",
  "updatedAt": "2025-01-22T20:38:12.193Z",
  "devdoc": {
    "details": "Interface for receiving blockchain to process relayed transactions",
    "kind": "dev",
    "methods": {},
    "title": "ReceivingBlockchainInterface",
    "version": 1
  },
  "userdoc": {
    "kind": "user",
    "methods": {},
    "version": 1
  }
}