{
  "contractName": "RequestManager",
  "abi": [
    {
      "inputs": [
        {
          "internalType": "address",
          "name": "_analytics",
          "type": "address"
        }
      ],
      "stateMutability": "nonpayable",
      "type": "constructor"
    },
    {
      "inputs": [],
      "name": "submitRequest",
      "outputs": [
        {
          "internalType": "uint256",
          "name": "",
          "type": "uint256"
        }
      ],
      "stateMutability": "payable",
      "type": "function",
      "payable": true
    }
  ],
  "bytecode": "0x60a060405234801561001057600080fd5b5060405161024f38038061024f83398101604081905261002f916100f5565b6001600160a01b03811661008a5760405162461bcd60e51b815260206004820181905260248201527f416e616c797469637320616464726573732063616e6e6f74206265207a65726f60448201526064015b60405180910390fd5b6000816001600160a01b03163b116100e45760405162461bcd60e51b815260206004820152601c60248201527f416e616c7974696373206d757374206265206120636f6e7472616374000000006044820152606401610081565b6001600160a01b0316608052610125565b60006020828403121561010757600080fd5b81516001600160a01b038116811461011e57600080fd5b9392505050565b60805161011061013f6000396000603d01526101106000f3fe608060405260043610601c5760003560e01c8063599606c1146021575b600080fd5b60276039565b60405190815260200160405180910390f35b60007f00000000000000000000000000000000000000000000000000000000000000006001600160a01b031663599606c1346040518263ffffffff1660e01b815260040160206040518083038185885af1158015609a573d6000803e3d6000fd5b50505050506040513d601f19601f8201168201806040525081019060bd919060c2565b905090565b60006020828403121560d357600080fd5b505191905056fea26469706673582212200c1a1afc8eb29df9f0f02be6ee8380ed02c2571a5f2e0dd9ab0297ede436f58e64736f6c63430008110033",
  "immutableReferences": {
    "2715": [
      {
        "length": 32,
        "start": 61
      }
    ]
  },
  "source": "// SPDX-License-Identifier: MIT\npragma solidity ^0.8.0;\n\ninterface IUncertaintyAnalytics {\n    function submitRequest() external payable returns (uint256);\n}\n\ncontract RequestManager {\n    IUncertaintyAnalytics private immutable analytics;\n    \n    constructor(address _analytics) {\n        require(_analytics != address(0), \"Analytics address cannot be zero\");\n        require(_analytics.code.length > 0, \"Analytics must be a contract\");\n\n        // Initialize the contract\n        \n        analytics = IUncertaintyAnalytics(_analytics);\n    }\n    \n    function submitRequest() external payable returns (uint256) {\n        return analytics.submitRequest{value: msg.value}();\n    }\n}",
  "sourcePath": "C:\\Users\\Bonsu\\Documents\\crosschainproject\\contracts\\RequestManager.sol",
  "compiler": {
    "name": "solc",
    "version": "0.8.17+commit.8df45f5f.Emscripten.clang"
  },
  "schemaVersion": "3.4.16",
  "updatedAt": "2025-02-07T14:38:24.455Z",
  "networkType": "ethereum",
  "devdoc": {
    "kind": "dev",
    "methods": {},
    "version": 1
  },
  "userdoc": {
    "kind": "user",
    "methods": {},
    "version": 1
  }
}