{
  "contractName": "ResponseManager",
  "abi": [
    {
      "inputs": [
        {
          "internalType": "address",
          "name": "_analytics",
          "type": "address"
        }
      ],
      "stateMutability": "nonpayable",
      "type": "constructor"
    },
    {
      "inputs": [
        {
          "internalType": "uint256",
          "name": "_requestId",
          "type": "uint256"
        }
      ],
      "name": "submitResponse",
      "outputs": [],
      "stateMutability": "nonpayable",
      "type": "function"
    }
  ],
  "bytecode": "0x60a060405234801561001057600080fd5b5060405161024638038061024683398101604081905261002f916100f5565b6001600160a01b03811661008a5760405162461bcd60e51b815260206004820181905260248201527f416e616c797469637320616464726573732063616e6e6f74206265207a65726f60448201526064015b60405180910390fd5b6000816001600160a01b03163b116100e45760405162461bcd60e51b815260206004820152601c60248201527f416e616c7974696373206d757374206265206120636f6e7472616374000000006044820152606401610081565b6001600160a01b0316608052610125565b60006020828403121561010757600080fd5b81516001600160a01b038116811461011e57600080fd5b9392505050565b60805161010761013f6000396000605401526101076000f3fe6080604052348015600f57600080fd5b506004361060285760003560e01c8063bada5cd914602d575b600080fd5b603c603836600460b9565b603e565b005b60405163bada5cd960e01b8152600481018290527f00000000000000000000000000000000000000000000000000000000000000006001600160a01b03169063bada5cd990602401600060405180830381600087803b158015609f57600080fd5b505af115801560b2573d6000803e3d6000fd5b5050505050565b60006020828403121560ca57600080fd5b503591905056fea2646970667358221220cd90b112150a2ed3dde234cd3121c9a317c06e6793e4d0673847648f9372279864736f6c63430008110033",
  "immutableReferences": {
    "2771": [
      {
        "length": 32,
        "start": 84
      }
    ]
  },
  "source": "// SPDX-License-Identifier: MIT\npragma solidity ^0.8.0;\n\ninterface IUncertaintyAnalytics {\n    function submitResponse(uint256 _requestId) external;\n}\n\ncontract ResponseManager {\n    IUncertaintyAnalytics private immutable analytics;\n    \n    constructor(address _analytics) {\n        require(_analytics != address(0), \"Analytics address cannot be zero\");\n        require(_analytics.code.length > 0, \"Analytics must be a contract\");\n        analytics = IUncertaintyAnalytics(_analytics);\n    }\n    \n    function submitResponse(uint256 _requestId) external {\n        analytics.submitResponse(_requestId);\n    }\n}",
  "sourcePath": "C:\\Users\\Bonsu\\Documents\\crosschainproject\\contracts\\ResponseManager.sol",
  "compiler": {
    "name": "solc",
    "version": "0.8.17+commit.8df45f5f.Emscripten.clang"
  },
  "schemaVersion": "3.4.16",
  "updatedAt": "2025-02-07T14:38:24.191Z",
  "networkType": "ethereum",
  "devdoc": {
    "kind": "dev",
    "methods": {},
    "version": 1
  },
  "userdoc": {
    "kind": "user",
    "methods": {},
    "version": 1
  }
}