{
  "contractName": "RewardCalculator",
  "abi": [
    {
      "inputs": [],
      "name": "W1_VALIDATION",
      "outputs": [
        {
          "internalType": "uint256",
          "name": "",
          "type": "uint256"
        }
      ],
      "stateMutability": "view",
      "type": "function"
    },
    {
      "inputs": [],
      "name": "W2_EXECUTION",
      "outputs": [
        {
          "internalType": "uint256",
          "name": "",
          "type": "uint256"
        }
      ],
      "stateMutability": "view",
      "type": "function"
    },
    {
      "inputs": [
        {
          "internalType": "bytes32",
          "name": "",
          "type": "bytes32"
        }
      ],
      "name": "auxiliaryRewards",
      "outputs": [
        {
          "internalType": "uint256",
          "name": "componentReward",
          "type": "uint256"
        },
        {
          "internalType": "uint256",
          "name": "criticalityFactor",
          "type": "uint256"
        },
        {
          "internalType": "uint256",
          "name": "totalReward",
          "type": "uint256"
        },
        {
          "internalType": "bool",
          "name": "isPaid",
          "type": "bool"
        }
      ],
      "stateMutability": "view",
      "type": "function"
    },
    {
      "inputs": [
        {
          "internalType": "bytes32",
          "name": "",
          "type": "bytes32"
        }
      ],
      "name": "channelRewards",
      "outputs": [
        {
          "internalType": "uint256",
          "name": "baseReward",
          "type": "uint256"
        },
        {
          "internalType": "uint256",
          "name": "performanceMultiplier",
          "type": "uint256"
        },
        {
          "internalType": "uint256",
          "name": "totalReward",
          "type": "uint256"
        },
        {
          "internalType": "bool",
          "name": "isPaid",
          "type": "bool"
        }
      ],
      "stateMutability": "view",
      "type": "function"
    },
    {
      "inputs": [
        {
          "internalType": "address",
          "name": "",
          "type": "address"
        }
      ],
      "name": "nodeRewards",
      "outputs": [
        {
          "internalType": "uint256",
          "name": "validationReward",
          "type": "uint256"
        },
        {
          "internalType": "uint256",
          "name": "executionReward",
          "type": "uint256"
        },
        {
          "internalType": "uint256",
          "name": "totalReward",
          "type": "uint256"
        },
        {
          "internalType": "bool",
          "name": "isPaid",
          "type": "bool"
        }
      ],
      "stateMutability": "view",
      "type": "function"
    },
    {
      "inputs": [
        {
          "internalType": "address",
          "name": "node",
          "type": "address"
        },
        {
          "internalType": "uint256",
          "name": "validationScore",
          "type": "uint256"
        },
        {
          "internalType": "uint256",
          "name": "executionScore",
          "type": "uint256"
        }
      ],
      "name": "calculateNodeReward",
      "outputs": [
        {
          "internalType": "uint256",
          "name": "",
          "type": "uint256"
        }
      ],
      "stateMutability": "nonpayable",
      "type": "function"
    },
    {
      "inputs": [
        {
          "internalType": "bytes32",
          "name": "channelId",
          "type": "bytes32"
        },
        {
          "internalType": "uint256[]",
          "name": "weights",
          "type": "uint256[]"
        },
        {
          "internalType": "uint256[]",
          "name": "scalingFactors",
          "type": "uint256[]"
        },
        {
          "internalType": "uint256[]",
          "name": "performances",
          "type": "uint256[]"
        }
      ],
      "name": "calculateChannelReward",
      "outputs": [
        {
          "internalType": "uint256",
          "name": "",
          "type": "uint256"
        }
      ],
      "stateMutability": "nonpayable",
      "type": "function"
    },
    {
      "inputs": [
        {
          "internalType": "uint256",
          "name": "baseConstant",
          "type": "uint256"
        },
        {
          "internalType": "uint256[]",
          "name": "performanceFactors",
          "type": "uint256[]"
        },
        {
          "internalType": "uint256",
          "name": "contributionScore",
          "type": "uint256"
        }
      ],
      "name": "calculateNodesReward",
      "outputs": [
        {
          "internalType": "uint256",
          "name": "",
          "type": "uint256"
        }
      ],
      "stateMutability": "pure",
      "type": "function"
    },
    {
      "inputs": [
        {
          "internalType": "bytes32",
          "name": "componentId",
          "type": "bytes32"
        },
        {
          "internalType": "uint256[]",
          "name": "weights",
          "type": "uint256[]"
        },
        {
          "internalType": "uint256[]",
          "name": "criticalityFactors",
          "type": "uint256[]"
        },
        {
          "internalType": "uint256[]",
          "name": "performances",
          "type": "uint256[]"
        }
      ],
      "name": "calculateAuxiliaryReward",
      "outputs": [
        {
          "internalType": "uint256",
          "name": "",
          "type": "uint256"
        }
      ],
      "stateMutability": "nonpayable",
      "type": "function"
    }
  ],
  "bytecode": "0x608060405234801561001057600080fd5b5061090a806100206000396000f3fe608060405234801561001057600080fd5b50600436106100935760003560e01c80639604d604116100665780639604d6041461013e5780639b1ff02414610147578063b732e74314610150578063ba7fe61414610189578063c746029b1461019c57600080fd5b80630cca02fb146100985780633fe3a488146100be578063770ce3d8146100d157806386d521931461012b575b600080fd5b6100ab6100a63660046106de565b6101d6565b6040519081526020015b60405180910390f35b6100ab6100cc366004610770565b61032b565b6101096100df3660046107dc565b60006020819052908152604090208054600182015460028301546003909301549192909160ff1684565b60408051948552602085019390935291830152151560608201526080016100b5565b6100ab6101393660046107f7565b610388565b6100ab61019081565b6100ab61025881565b61010961015e36600461082a565b6001602081905260009182526040909120805491810154600282015460039092015490919060ff1684565b6100ab6101973660046106de565b61041f565b6101096101aa36600461082a565b600260208190526000918252604090912080546001820154928201546003909201549092919060ff1684565b6000825184511480156101ea575081518451145b6102345760405162461bcd60e51b8152602060048201526016602482015275082e4e4c2f240d8cadccee8d0e640dad2e6dac2e8c6d60531b60448201526064015b60405180910390fd5b6000805b85518110156102b657600061029461028288848151811061025b5761025b610843565b602002602001015188858151811061027557610275610843565b6020026020010151610535565b86848151811061027557610275610843565b90506102a0838261055d565b92505080806102ae9061086f565b915050610238565b5060405180608001604052808281526020016102d186610569565b8152602080820184905260006040928301819052988952600280825298829020835181559083015160018201559082015197810197909755606001516003909601805460ff19169615159690961790955550929392505050565b6000670de0b6b3a7640000815b845181101561036b576103578286838151811061027557610275610843565b9150806103638161086f565b915050610338565b5061037f6103798683610535565b84610535565b95945050505050565b60008061039784610258610535565b905060006103a784610190610535565b905060006103b5838361055d565b6040805160808101825294855260208086019485528582018381526000606088018181526001600160a01b039c909c168152918290529190209451855592516001850155915160028401555094516003909101805460ff1916911515919091179055509192915050565b600082518451148015610433575081518451145b6104785760405162461bcd60e51b8152602060048201526016602482015275082e4e4c2f240d8cadccee8d0e640dad2e6dac2e8c6d60531b604482015260640161022b565b6000805b85518110156104c157600061049f61028288848151811061025b5761025b610843565b90506104ab838261055d565b92505080806104b99061086f565b91505061047c565b5060405180608001604052808281526020016104dc856105c2565b81526020808201849052600060409283018190529889526001808252988290208351815590830151988101989098558101516002880155606001516003909601805460ff19169615159690961790955550929392505050565b6000670de0b6b3a764000061054a8385610888565b610554919061089f565b90505b92915050565b600061055482846108c1565b6000815160000361057c57506000919050565b670de0b6b3a764000060005b83518110156105bb576105a78285838151811061027557610275610843565b9150806105b38161086f565b915050610588565b5092915050565b600081516000036105d557506000919050565b6000805b835181101561061957610605828583815181106105f8576105f8610843565b602002602001015161055d565b9150806106118161086f565b9150506105d9565b508251610626908261089f565b9392505050565b634e487b7160e01b600052604160045260246000fd5b600082601f83011261065457600080fd5b8135602067ffffffffffffffff808311156106715761067161062d565b8260051b604051601f19603f830116810181811084821117156106965761069661062d565b6040529384528581018301938381019250878511156106b457600080fd5b83870191505b848210156106d3578135835291830191908301906106ba565b979650505050505050565b600080600080608085870312156106f457600080fd5b84359350602085013567ffffffffffffffff8082111561071357600080fd5b61071f88838901610643565b9450604087013591508082111561073557600080fd5b61074188838901610643565b9350606087013591508082111561075757600080fd5b5061076487828801610643565b91505092959194509250565b60008060006060848603121561078557600080fd5b83359250602084013567ffffffffffffffff8111156107a357600080fd5b6107af86828701610643565b925050604084013590509250925092565b80356001600160a01b03811681146107d757600080fd5b919050565b6000602082840312156107ee57600080fd5b610554826107c0565b60008060006060848603121561080c57600080fd5b610815846107c0565b95602085013595506040909401359392505050565b60006020828403121561083c57600080fd5b5035919050565b634e487b7160e01b600052603260045260246000fd5b634e487b7160e01b600052601160045260246000fd5b60006001820161088157610881610859565b5060010190565b808202811582820484141761055757610557610859565b6000826108bc57634e487b7160e01b600052601260045260246000fd5b500490565b808201808211156105575761055761085956fea264697066735822122033e1f206f2acd3904f9fdfd1b3f9eb300c36ab21510b65d4c88692e286bb08a364736f6c63430008110033",
  "immutableReferences": {},
  "source": "// SPDX-License-Identifier: MIT\npragma solidity ^0.8.0;\n\nimport \"@openzeppelin/contracts/security/ReentrancyGuard.sol\";\nimport \"@openzeppelin/contracts/access/AccessControl.sol\";\nimport \"@openzeppelin/contracts/token/ERC20/IERC20.sol\";\n\n/**\n * @title IRewardCalculator\n * @dev Interface for reward calculation functions\n */\ninterface IRewardCalculator {\n    function calculateNodeReward(address node, uint256 validationScore, uint256 executionScore) external returns (uint256);\n    function calculateChannelReward(bytes32 channelId, uint256[] memory weights, uint256[] memory scalingFactors, uint256[] memory performances) external returns (uint256);\n    function calculateNodesReward(uint256 baseConstant, uint256[] memory performanceFactors, uint256 contributionScore) external view returns (uint256);\n    function calculateAuxiliaryReward(bytes32 componentId, uint256[] memory weights, uint256[] memory criticalityFactors, uint256[] memory performances) external returns (uint256);\n}\n\n/**\n * @title RewardBase\n * @dev Base contract with common reward functionality\n */\ncontract RewardBase {\n    // Precision for fixed-point arithmetic\n    uint256 internal constant PRECISION = 1e18;\n    \n    // Weight constants\n    uint256 public constant W1_VALIDATION = 600; // 0.6 * PRECISION\n    uint256 public constant W2_EXECUTION = 400;  // 0.4 * PRECISION\n\n    function multiplyFixedPoint(uint256 a, uint256 b) internal pure returns (uint256) {\n        return (a * b) / PRECISION;\n    }\n    \n    function addFixedPoint(uint256 a, uint256 b) internal pure returns (uint256) {\n        return a + b;\n    }\n}\n\n/**\n * @title RewardCalculator\n * @dev Handles reward calculations for different components\n */\ncontract RewardCalculator is RewardBase, IRewardCalculator {\n    struct NodeReward {\n        uint256 validationReward;\n        uint256 executionReward;\n        uint256 totalReward;\n        bool isPaid;\n    }\n    \n    struct ChannelReward {\n        uint256 baseReward;\n        uint256 performanceMultiplier;\n        uint256 totalReward;\n        bool isPaid;\n    }\n    \n    struct AuxiliaryReward {\n        uint256 componentReward;\n        uint256 criticalityFactor;\n        uint256 totalReward;\n        bool isPaid;\n    }\n    \n    // Reward mappings\n    mapping(address => NodeReward) public nodeRewards;\n    mapping(bytes32 => ChannelReward) public channelRewards;\n    mapping(bytes32 => AuxiliaryReward) public auxiliaryRewards;\n    \n    /**\n     * @dev Calculates individual node reward\n     * Di = w1 * Validation + w2 * Execution\n     */\n    function calculateNodeReward(\n        address node,\n        uint256 validationScore,\n        uint256 executionScore\n    ) external override returns (uint256) {\n        uint256 validationComponent = multiplyFixedPoint(validationScore, W1_VALIDATION);\n        uint256 executionComponent = multiplyFixedPoint(executionScore, W2_EXECUTION);\n        \n        uint256 totalReward = addFixedPoint(validationComponent, executionComponent);\n        \n        nodeRewards[node] = NodeReward({\n            validationReward: validationComponent,\n            executionReward: executionComponent,\n            totalReward: totalReward,\n            isPaid: false\n        });\n        \n        return totalReward;\n    }\n\n    function calculatePerformanceMultiplier(\n        uint256[] memory performances\n    ) internal pure returns (uint256) {\n        if (performances.length == 0) return 0;\n        \n        uint256 sum = 0;\n        for (uint256 i = 0; i < performances.length; i++) {\n            sum = addFixedPoint(sum, performances[i]);\n        }\n        return sum / performances.length;\n    }\n    \n    function calculateCriticalityFactor(\n        uint256[] memory factors\n    ) internal pure returns (uint256) {\n        if (factors.length == 0) return 0;\n        \n        uint256 product = PRECISION;\n        for (uint256 i = 0; i < factors.length; i++) {\n            product = multiplyFixedPoint(product, factors[i]);\n        }\n        return product;\n    }\n\n    function calculateChannelReward(\n        bytes32 channelId,\n        uint256[] memory weights,\n        uint256[] memory scalingFactors,\n        uint256[] memory performances\n    ) external override returns (uint256) {\n        require(\n            weights.length == scalingFactors.length &&\n            weights.length == performances.length,\n            \"Array lengths mismatch\"\n        );\n        \n        uint256 totalReward = 0;\n        \n        for (uint256 i = 0; i < weights.length; i++) {\n            uint256 componentReward = multiplyFixedPoint(\n                multiplyFixedPoint(weights[i], scalingFactors[i]),\n                performances[i]\n            );\n            totalReward = addFixedPoint(totalReward, componentReward);\n        }\n        \n        channelRewards[channelId] = ChannelReward({\n            baseReward: totalReward,\n            performanceMultiplier: calculatePerformanceMultiplier(performances),\n            totalReward: totalReward,\n            isPaid: false\n        });\n        \n        return totalReward;\n    }\n\n    function calculateNodesReward(\n        uint256 baseConstant,\n        uint256[] memory performanceFactors,\n        uint256 contributionScore\n    ) external pure override returns (uint256) {\n        uint256 performance = PRECISION;\n        \n        for (uint256 i = 0; i < performanceFactors.length; i++) {\n            performance = multiplyFixedPoint(performance, performanceFactors[i]);\n        }\n        \n        return multiplyFixedPoint(\n            multiplyFixedPoint(baseConstant, performance),\n            contributionScore\n        );\n    }\n\n    function calculateAuxiliaryReward(\n        bytes32 componentId,\n        uint256[] memory weights,\n        uint256[] memory criticalityFactors,\n        uint256[] memory performances\n    ) external override returns (uint256) {\n        require(\n            weights.length == criticalityFactors.length &&\n            weights.length == performances.length,\n            \"Array lengths mismatch\"\n        );\n        \n        uint256 totalReward = 0;\n        \n        for (uint256 i = 0; i < weights.length; i++) {\n            uint256 componentReward = multiplyFixedPoint(\n                multiplyFixedPoint(weights[i], criticalityFactors[i]),\n                performances[i]\n            );\n            totalReward = addFixedPoint(totalReward, componentReward);\n        }\n        \n        auxiliaryRewards[componentId] = AuxiliaryReward({\n            componentReward: totalReward,\n            criticalityFactor: calculateCriticalityFactor(criticalityFactors),\n            totalReward: totalReward,\n            isPaid: false\n        });\n        \n        return totalReward;\n    }\n}\n\n/**\n * @title RewardDistributor\n * @dev Manages the distribution of rewards across different components\n */\ncontract RewardDistributor is RewardCalculator, ReentrancyGuard, AccessControl {\n    IERC20 public rewardToken;\n    \n    struct DistributionState {\n        uint256 channelShare;\n        uint256 nodeShare;\n        uint256 auxiliaryShare;\n        uint256 totalDistributed;\n        bool isComplete;\n    }\n    \n    mapping(bytes32 => DistributionState) public distributions;\n    \n    event RewardDistributed(\n        bytes32 indexed distributionId,\n        address recipient,\n        uint256 amount\n    );\n    \n    constructor(address _rewardToken) {\n        rewardToken = IERC20(_rewardToken);\n        _setupRole(DEFAULT_ADMIN_ROLE, msg.sender);\n    }\n    \n    function distributeRewards(\n        bytes32 distributionId,\n        address[] memory recipients,\n        uint256[] memory amounts\n    ) external nonReentrant onlyRole(DEFAULT_ADMIN_ROLE) {\n        require(\n            recipients.length == amounts.length,\n            \"Recipients and amounts length mismatch\"\n        );\n        \n        DistributionState storage distribution = distributions[distributionId];\n        require(!distribution.isComplete, \"Distribution already complete\");\n        \n        uint256 totalAmount = 0;\n        for (uint256 i = 0; i < amounts.length; i++) {\n            totalAmount = addFixedPoint(totalAmount, amounts[i]);\n        }\n        \n        require(\n            rewardToken.balanceOf(address(this)) >= totalAmount,\n            \"Insufficient rewards\"\n        );\n        \n        for (uint256 i = 0; i < recipients.length; i++) {\n            require(\n                rewardToken.transfer(recipients[i], amounts[i]),\n                \"Transfer failed\"\n            );\n            emit RewardDistributed(distributionId, recipients[i], amounts[i]);\n        }\n        \n        distribution.totalDistributed = totalAmount;\n        distribution.isComplete = true;\n    }\n}",
  "sourcePath": "C:\\Users\\Bonsu\\Documents\\crosschainproject\\contracts\\passchain\\RewardCalculator.sol",
  "compiler": {
    "name": "solc",
    "version": "0.8.17+commit.8df45f5f.Emscripten.clang"
  },
  "schemaVersion": "3.4.16",
  "updatedAt": "2025-01-29T15:56:11.052Z",
  "devdoc": {
    "details": "Handles reward calculations for different components",
    "kind": "dev",
    "methods": {
      "calculateNodeReward(address,uint256,uint256)": {
        "details": "Calculates individual node reward Di = w1 * Validation + w2 * Execution"
      }
    },
    "title": "RewardCalculator",
    "version": 1
  },
  "userdoc": {
    "kind": "user",
    "methods": {},
    "version": 1
  }
}