{
  "contractName": "RewardDistributor",
  "abi": [
    {
      "inputs": [
        {
          "internalType": "address",
          "name": "_rewardToken",
          "type": "address"
        }
      ],
      "stateMutability": "nonpayable",
      "type": "constructor"
    },
    {
      "anonymous": false,
      "inputs": [
        {
          "indexed": true,
          "internalType": "bytes32",
          "name": "distributionId",
          "type": "bytes32"
        },
        {
          "indexed": false,
          "internalType": "address",
          "name": "recipient",
          "type": "address"
        },
        {
          "indexed": false,
          "internalType": "uint256",
          "name": "amount",
          "type": "uint256"
        }
      ],
      "name": "RewardDistributed",
      "type": "event"
    },
    {
      "anonymous": false,
      "inputs": [
        {
          "indexed": true,
          "internalType": "bytes32",
          "name": "role",
          "type": "bytes32"
        },
        {
          "indexed": true,
          "internalType": "bytes32",
          "name": "previousAdminRole",
          "type": "bytes32"
        },
        {
          "indexed": true,
          "internalType": "bytes32",
          "name": "newAdminRole",
          "type": "bytes32"
        }
      ],
      "name": "RoleAdminChanged",
      "type": "event"
    },
    {
      "anonymous": false,
      "inputs": [
        {
          "indexed": true,
          "internalType": "bytes32",
          "name": "role",
          "type": "bytes32"
        },
        {
          "indexed": true,
          "internalType": "address",
          "name": "account",
          "type": "address"
        },
        {
          "indexed": true,
          "internalType": "address",
          "name": "sender",
          "type": "address"
        }
      ],
      "name": "RoleGranted",
      "type": "event"
    },
    {
      "anonymous": false,
      "inputs": [
        {
          "indexed": true,
          "internalType": "bytes32",
          "name": "role",
          "type": "bytes32"
        },
        {
          "indexed": true,
          "internalType": "address",
          "name": "account",
          "type": "address"
        },
        {
          "indexed": true,
          "internalType": "address",
          "name": "sender",
          "type": "address"
        }
      ],
      "name": "RoleRevoked",
      "type": "event"
    },
    {
      "inputs": [],
      "name": "DEFAULT_ADMIN_ROLE",
      "outputs": [
        {
          "internalType": "bytes32",
          "name": "",
          "type": "bytes32"
        }
      ],
      "stateMutability": "view",
      "type": "function",
      "constant": true
    },
    {
      "inputs": [],
      "name": "W1_VALIDATION",
      "outputs": [
        {
          "internalType": "uint256",
          "name": "",
          "type": "uint256"
        }
      ],
      "stateMutability": "view",
      "type": "function",
      "constant": true
    },
    {
      "inputs": [],
      "name": "W2_EXECUTION",
      "outputs": [
        {
          "internalType": "uint256",
          "name": "",
          "type": "uint256"
        }
      ],
      "stateMutability": "view",
      "type": "function",
      "constant": true
    },
    {
      "inputs": [
        {
          "internalType": "bytes32",
          "name": "",
          "type": "bytes32"
        }
      ],
      "name": "auxiliaryRewards",
      "outputs": [
        {
          "internalType": "uint256",
          "name": "componentReward",
          "type": "uint256"
        },
        {
          "internalType": "uint256",
          "name": "criticalityFactor",
          "type": "uint256"
        },
        {
          "internalType": "uint256",
          "name": "totalReward",
          "type": "uint256"
        },
        {
          "internalType": "bool",
          "name": "isPaid",
          "type": "bool"
        }
      ],
      "stateMutability": "view",
      "type": "function",
      "constant": true
    },
    {
      "inputs": [
        {
          "internalType": "bytes32",
          "name": "componentId",
          "type": "bytes32"
        },
        {
          "internalType": "uint256[]",
          "name": "weights",
          "type": "uint256[]"
        },
        {
          "internalType": "uint256[]",
          "name": "criticalityFactors",
          "type": "uint256[]"
        },
        {
          "internalType": "uint256[]",
          "name": "performances",
          "type": "uint256[]"
        }
      ],
      "name": "calculateAuxiliaryReward",
      "outputs": [
        {
          "internalType": "uint256",
          "name": "",
          "type": "uint256"
        }
      ],
      "stateMutability": "nonpayable",
      "type": "function"
    },
    {
      "inputs": [
        {
          "internalType": "bytes32",
          "name": "channelId",
          "type": "bytes32"
        },
        {
          "internalType": "uint256[]",
          "name": "weights",
          "type": "uint256[]"
        },
        {
          "internalType": "uint256[]",
          "name": "scalingFactors",
          "type": "uint256[]"
        },
        {
          "internalType": "uint256[]",
          "name": "performances",
          "type": "uint256[]"
        }
      ],
      "name": "calculateChannelReward",
      "outputs": [
        {
          "internalType": "uint256",
          "name": "",
          "type": "uint256"
        }
      ],
      "stateMutability": "nonpayable",
      "type": "function"
    },
    {
      "inputs": [
        {
          "internalType": "address",
          "name": "node",
          "type": "address"
        },
        {
          "internalType": "uint256",
          "name": "validationScore",
          "type": "uint256"
        },
        {
          "internalType": "uint256",
          "name": "executionScore",
          "type": "uint256"
        }
      ],
      "name": "calculateNodeReward",
      "outputs": [
        {
          "internalType": "uint256",
          "name": "",
          "type": "uint256"
        }
      ],
      "stateMutability": "nonpayable",
      "type": "function"
    },
    {
      "inputs": [
        {
          "internalType": "uint256",
          "name": "baseConstant",
          "type": "uint256"
        },
        {
          "internalType": "uint256[]",
          "name": "performanceFactors",
          "type": "uint256[]"
        },
        {
          "internalType": "uint256",
          "name": "contributionScore",
          "type": "uint256"
        }
      ],
      "name": "calculateNodesReward",
      "outputs": [
        {
          "internalType": "uint256",
          "name": "",
          "type": "uint256"
        }
      ],
      "stateMutability": "pure",
      "type": "function",
      "constant": true
    },
    {
      "inputs": [
        {
          "internalType": "bytes32",
          "name": "",
          "type": "bytes32"
        }
      ],
      "name": "channelRewards",
      "outputs": [
        {
          "internalType": "uint256",
          "name": "baseReward",
          "type": "uint256"
        },
        {
          "internalType": "uint256",
          "name": "performanceMultiplier",
          "type": "uint256"
        },
        {
          "internalType": "uint256",
          "name": "totalReward",
          "type": "uint256"
        },
        {
          "internalType": "bool",
          "name": "isPaid",
          "type": "bool"
        }
      ],
      "stateMutability": "view",
      "type": "function",
      "constant": true
    },
    {
      "inputs": [
        {
          "internalType": "bytes32",
          "name": "",
          "type": "bytes32"
        }
      ],
      "name": "distributions",
      "outputs": [
        {
          "internalType": "uint256",
          "name": "channelShare",
          "type": "uint256"
        },
        {
          "internalType": "uint256",
          "name": "nodeShare",
          "type": "uint256"
        },
        {
          "internalType": "uint256",
          "name": "auxiliaryShare",
          "type": "uint256"
        },
        {
          "internalType": "uint256",
          "name": "totalDistributed",
          "type": "uint256"
        },
        {
          "internalType": "bool",
          "name": "isComplete",
          "type": "bool"
        }
      ],
      "stateMutability": "view",
      "type": "function",
      "constant": true
    },
    {
      "inputs": [
        {
          "internalType": "bytes32",
          "name": "role",
          "type": "bytes32"
        }
      ],
      "name": "getRoleAdmin",
      "outputs": [
        {
          "internalType": "bytes32",
          "name": "",
          "type": "bytes32"
        }
      ],
      "stateMutability": "view",
      "type": "function",
      "constant": true
    },
    {
      "inputs": [
        {
          "internalType": "bytes32",
          "name": "role",
          "type": "bytes32"
        },
        {
          "internalType": "address",
          "name": "account",
          "type": "address"
        }
      ],
      "name": "grantRole",
      "outputs": [],
      "stateMutability": "nonpayable",
      "type": "function"
    },
    {
      "inputs": [
        {
          "internalType": "bytes32",
          "name": "role",
          "type": "bytes32"
        },
        {
          "internalType": "address",
          "name": "account",
          "type": "address"
        }
      ],
      "name": "hasRole",
      "outputs": [
        {
          "internalType": "bool",
          "name": "",
          "type": "bool"
        }
      ],
      "stateMutability": "view",
      "type": "function",
      "constant": true
    },
    {
      "inputs": [
        {
          "internalType": "address",
          "name": "",
          "type": "address"
        }
      ],
      "name": "nodeRewards",
      "outputs": [
        {
          "internalType": "uint256",
          "name": "validationReward",
          "type": "uint256"
        },
        {
          "internalType": "uint256",
          "name": "executionReward",
          "type": "uint256"
        },
        {
          "internalType": "uint256",
          "name": "totalReward",
          "type": "uint256"
        },
        {
          "internalType": "bool",
          "name": "isPaid",
          "type": "bool"
        }
      ],
      "stateMutability": "view",
      "type": "function",
      "constant": true
    },
    {
      "inputs": [
        {
          "internalType": "bytes32",
          "name": "role",
          "type": "bytes32"
        },
        {
          "internalType": "address",
          "name": "account",
          "type": "address"
        }
      ],
      "name": "renounceRole",
      "outputs": [],
      "stateMutability": "nonpayable",
      "type": "function"
    },
    {
      "inputs": [
        {
          "internalType": "bytes32",
          "name": "role",
          "type": "bytes32"
        },
        {
          "internalType": "address",
          "name": "account",
          "type": "address"
        }
      ],
      "name": "revokeRole",
      "outputs": [],
      "stateMutability": "nonpayable",
      "type": "function"
    },
    {
      "inputs": [],
      "name": "rewardToken",
      "outputs": [
        {
          "internalType": "contract IERC20",
          "name": "",
          "type": "address"
        }
      ],
      "stateMutability": "view",
      "type": "function",
      "constant": true
    },
    {
      "inputs": [
        {
          "internalType": "bytes4",
          "name": "interfaceId",
          "type": "bytes4"
        }
      ],
      "name": "supportsInterface",
      "outputs": [
        {
          "internalType": "bool",
          "name": "",
          "type": "bool"
        }
      ],
      "stateMutability": "view",
      "type": "function",
      "constant": true
    },
    {
      "inputs": [
        {
          "internalType": "bytes32",
          "name": "distributionId",
          "type": "bytes32"
        },
        {
          "internalType": "address[]",
          "name": "recipients",
          "type": "address[]"
        },
        {
          "internalType": "uint256[]",
          "name": "amounts",
          "type": "uint256[]"
        }
      ],
      "name": "distributeRewards",
      "outputs": [],
      "stateMutability": "nonpayable",
      "type": "function"
    }
  ],
  "bytecode": "0x60806040523480156200001157600080fd5b50604051620016973803806200169783398101604081905262000034916200011c565b6001600355600580546001600160a01b0319166001600160a01b0383161790556200006160003362000068565b506200014e565b62000074828262000078565b5050565b60008281526004602090815260408083206001600160a01b038516845290915290205460ff16620000745760008281526004602090815260408083206001600160a01b03851684529091529020805460ff19166001179055620000d83390565b6001600160a01b0316816001600160a01b0316837f2f8788117e7eff1d82e926ec794901d17c78024a50270940304540a733656f0d60405160405180910390a45050565b6000602082840312156200012f57600080fd5b81516001600160a01b03811681146200014757600080fd5b9392505050565b611539806200015e6000396000f3fe608060405234801561001057600080fd5b50600436106101215760003560e01c80639604d604116100ad578063c22c9b4a11610071578063c22c9b4a146102b3578063c746029b146102c6578063d547741f14610300578063dd0e621514610313578063f7c618c11461037d57600080fd5b80639604d6041461024d5780639b1ff02414610256578063a217fddf1461025f578063b732e74314610267578063ba7fe614146102a057600080fd5b806336568abe116100f457806336568abe146101a75780633fe3a488146101ba578063770ce3d8146101cd57806386d521931461022757806391d148541461023a57600080fd5b806301ffc9a7146101265780630cca02fb1461014e578063248a9ca31461016f5780632f2ff15d14610192575b600080fd5b610139610134366004610ff8565b6103a8565b60405190151581526020015b60405180910390f35b61016161015c3660046110f8565b6103df565b604051908152602001610145565b61016161017d36600461118a565b60009081526004602052604090206001015490565b6101a56101a03660046111bf565b610534565b005b6101a56101b53660046111bf565b61055e565b6101616101c83660046111eb565b6105dc565b6102056101db36600461123b565b60006020819052908152604090208054600182015460028301546003909301549192909160ff1684565b6040805194855260208501939093529183015215156060820152608001610145565b610161610235366004611256565b610639565b6101396102483660046111bf565b6106d0565b61016161019081565b61016161025881565b610161600081565b61020561027536600461118a565b6001602081905260009182526040909120805491810154600282015460039092015490919060ff1684565b6101616102ae3660046110f8565b6106fb565b6101a56102c1366004611289565b610811565b6102056102d436600461118a565b600260208190526000918252604090912080546001820154928201546003909201549092919060ff1684565b6101a561030e3660046111bf565b610b97565b61035361032136600461118a565b600660205260009081526040902080546001820154600283015460038401546004909401549293919290919060ff1685565b6040805195865260208601949094529284019190915260608301521515608082015260a001610145565b600554610390906001600160a01b031681565b6040516001600160a01b039091168152602001610145565b60006001600160e01b03198216637965db0b60e01b14806103d957506301ffc9a760e01b6001600160e01b03198316145b92915050565b6000825184511480156103f3575081518451145b61043d5760405162461bcd60e51b8152602060048201526016602482015275082e4e4c2f240d8cadccee8d0e640dad2e6dac2e8c6d60531b60448201526064015b60405180910390fd5b6000805b85518110156104bf57600061049d61048b88848151811061046457610464611354565b602002602001015188858151811061047e5761047e611354565b6020026020010151610bbc565b86848151811061047e5761047e611354565b90506104a98382610be2565b92505080806104b790611380565b915050610441565b5060405180608001604052808281526020016104da86610bee565b8152602080820184905260006040928301819052988952600280825298829020835181559083015160018201559082015197810197909755606001516003909601805460ff19169615159690961790955550929392505050565b60008281526004602052604090206001015461054f81610c47565b6105598383610c54565b505050565b6001600160a01b03811633146105ce5760405162461bcd60e51b815260206004820152602f60248201527f416363657373436f6e74726f6c3a2063616e206f6e6c792072656e6f756e636560448201526e103937b632b9903337b91039b2b63360891b6064820152608401610434565b6105d88282610cda565b5050565b6000670de0b6b3a7640000815b845181101561061c576106088286838151811061047e5761047e611354565b91508061061481611380565b9150506105e9565b5061063061062a8683610bbc565b84610bbc565b95945050505050565b60008061064884610258610bbc565b9050600061065884610190610bbc565b905060006106668383610be2565b6040805160808101825294855260208086019485528582018381526000606088018181526001600160a01b039c909c168152918290529190209451855592516001850155915160028401555094516003909101805460ff1916911515919091179055509192915050565b60009182526004602090815260408084206001600160a01b0393909316845291905290205460ff1690565b60008251845114801561070f575081518451145b6107545760405162461bcd60e51b8152602060048201526016602482015275082e4e4c2f240d8cadccee8d0e640dad2e6dac2e8c6d60531b6044820152606401610434565b6000805b855181101561079d57600061077b61048b88848151811061046457610464611354565b90506107878382610be2565b925050808061079590611380565b915050610758565b5060405180608001604052808281526020016107b885610d41565b81526020808201849052600060409283018190529889526001808252988290208351815590830151988101989098558101516002880155606001516003909601805460ff19169615159690961790955550929392505050565b610819610d98565b600061082481610c47565b81518351146108845760405162461bcd60e51b815260206004820152602660248201527f526563697069656e747320616e6420616d6f756e7473206c656e677468206d696044820152650e6dac2e8c6d60d31b6064820152608401610434565b6000848152600660205260409020600481015460ff16156108e75760405162461bcd60e51b815260206004820152601d60248201527f446973747269627574696f6e20616c726561647920636f6d706c6574650000006044820152606401610434565b6000805b845181101561092b576109178286838151811061090a5761090a611354565b6020026020010151610be2565b91508061092381611380565b9150506108eb565b506005546040516370a0823160e01b815230600482015282916001600160a01b0316906370a0823190602401602060405180830381865afa158015610974573d6000803e3d6000fd5b505050506040513d601f19601f820116820180604052508101906109989190611399565b10156109dd5760405162461bcd60e51b8152602060048201526014602482015273496e73756666696369656e74207265776172647360601b6044820152606401610434565b60005b8551811015610b785760055486516001600160a01b039091169063a9059cbb90889084908110610a1257610a12611354565b6020026020010151878481518110610a2c57610a2c611354565b60200260200101516040518363ffffffff1660e01b8152600401610a659291906001600160a01b03929092168252602082015260400190565b6020604051808303816000875af1158015610a84573d6000803e3d6000fd5b505050506040513d601f19601f82011682018060405250810190610aa891906113b2565b610ae65760405162461bcd60e51b815260206004820152600f60248201526e151c985b9cd9995c8819985a5b1959608a1b6044820152606401610434565b867f8fa6abe1348f6561b9a60363efc5793e820b343dce49d00e37d01644d9268a77878381518110610b1a57610b1a611354565b6020026020010151878481518110610b3457610b34611354565b6020026020010151604051610b5e9291906001600160a01b03929092168252602082015260400190565b60405180910390a280610b7081611380565b9150506109e0565b506003820155600401805460ff19166001179055506105596001600355565b600082815260046020526040902060010154610bb281610c47565b6105598383610cda565b6000670de0b6b3a7640000610bd183856113d4565b610bdb91906113eb565b9392505050565b6000610bdb828461140d565b60008151600003610c0157506000919050565b670de0b6b3a764000060005b8351811015610c4057610c2c8285838151811061047e5761047e611354565b915080610c3881611380565b915050610c0d565b5092915050565b610c518133610df1565b50565b610c5e82826106d0565b6105d85760008281526004602090815260408083206001600160a01b03851684529091529020805460ff19166001179055610c963390565b6001600160a01b0316816001600160a01b0316837f2f8788117e7eff1d82e926ec794901d17c78024a50270940304540a733656f0d60405160405180910390a45050565b610ce482826106d0565b156105d85760008281526004602090815260408083206001600160a01b0385168085529252808320805460ff1916905551339285917ff6391f5c32d9c69d2a47ea670b442974b53935d1edc7fd64eb21e047a839171b9190a45050565b60008151600003610d5457506000919050565b6000805b8351811015610d8b57610d778285838151811061090a5761090a611354565b915080610d8381611380565b915050610d58565b508251610bdb90826113eb565b600260035403610dea5760405162461bcd60e51b815260206004820152601f60248201527f5265656e7472616e637947756172643a207265656e7472616e742063616c6c006044820152606401610434565b6002600355565b610dfb82826106d0565b6105d857610e0881610e4a565b610e13836020610e5c565b604051602001610e24929190611444565b60408051601f198184030181529082905262461bcd60e51b8252610434916004016114b9565b60606103d96001600160a01b03831660145b60606000610e6b8360026113d4565b610e7690600261140d565b67ffffffffffffffff811115610e8e57610e8e611022565b6040519080825280601f01601f191660200182016040528015610eb8576020820181803683370190505b509050600360fc1b81600081518110610ed357610ed3611354565b60200101906001600160f81b031916908160001a905350600f60fb1b81600181518110610f0257610f02611354565b60200101906001600160f81b031916908160001a9053506000610f268460026113d4565b610f3190600161140d565b90505b6001811115610fa9576f181899199a1a9b1b9c1cb0b131b232b360811b85600f1660108110610f6557610f65611354565b1a60f81b828281518110610f7b57610f7b611354565b60200101906001600160f81b031916908160001a90535060049490941c93610fa2816114ec565b9050610f34565b508315610bdb5760405162461bcd60e51b815260206004820181905260248201527f537472696e67733a20686578206c656e67746820696e73756666696369656e746044820152606401610434565b60006020828403121561100a57600080fd5b81356001600160e01b031981168114610bdb57600080fd5b634e487b7160e01b600052604160045260246000fd5b604051601f8201601f1916810167ffffffffffffffff8111828210171561106157611061611022565b604052919050565b600067ffffffffffffffff82111561108357611083611022565b5060051b60200190565b600082601f83011261109e57600080fd5b813560206110b36110ae83611069565b611038565b82815260059290921b840181019181810190868411156110d257600080fd5b8286015b848110156110ed57803583529183019183016110d6565b509695505050505050565b6000806000806080858703121561110e57600080fd5b84359350602085013567ffffffffffffffff8082111561112d57600080fd5b6111398883890161108d565b9450604087013591508082111561114f57600080fd5b61115b8883890161108d565b9350606087013591508082111561117157600080fd5b5061117e8782880161108d565b91505092959194509250565b60006020828403121561119c57600080fd5b5035919050565b80356001600160a01b03811681146111ba57600080fd5b919050565b600080604083850312156111d257600080fd5b823591506111e2602084016111a3565b90509250929050565b60008060006060848603121561120057600080fd5b83359250602084013567ffffffffffffffff81111561121e57600080fd5b61122a8682870161108d565b925050604084013590509250925092565b60006020828403121561124d57600080fd5b610bdb826111a3565b60008060006060848603121561126b57600080fd5b611274846111a3565b95602085013595506040909401359392505050565b60008060006060848603121561129e57600080fd5b8335925060208085013567ffffffffffffffff808211156112be57600080fd5b818701915087601f8301126112d257600080fd5b81356112e06110ae82611069565b81815260059190911b8301840190848101908a8311156112ff57600080fd5b938501935b8285101561132457611315856111a3565b82529385019390850190611304565b96505050604087013592508083111561133c57600080fd5b505061134a8682870161108d565b9150509250925092565b634e487b7160e01b600052603260045260246000fd5b634e487b7160e01b600052601160045260246000fd5b6000600182016113925761139261136a565b5060010190565b6000602082840312156113ab57600080fd5b5051919050565b6000602082840312156113c457600080fd5b81518015158114610bdb57600080fd5b80820281158282048414176103d9576103d961136a565b60008261140857634e487b7160e01b600052601260045260246000fd5b500490565b808201808211156103d9576103d961136a565b60005b8381101561143b578181015183820152602001611423565b50506000910152565b7f416363657373436f6e74726f6c3a206163636f756e742000000000000000000081526000835161147c816017850160208801611420565b7001034b99036b4b9b9b4b733903937b6329607d1b60179184019182015283516114ad816028840160208801611420565b01602801949350505050565b60208152600082518060208401526114d8816040850160208701611420565b601f01601f19169190910160400192915050565b6000816114fb576114fb61136a565b50600019019056fea264697066735822122079e1151885a06ad576ab4154e2223c74ba0e5688752296cb7b3bb78930d2807464736f6c63430008110033",
  "immutableReferences": {},
  "source": "// SPDX-License-Identifier: MIT\npragma solidity ^0.8.0;\n\nimport \"@openzeppelin/contracts/security/ReentrancyGuard.sol\";\nimport \"@openzeppelin/contracts/access/AccessControl.sol\";\nimport \"@openzeppelin/contracts/token/ERC20/IERC20.sol\";\n\n/**\n * @title IRewardCalculator\n * @dev Interface for reward calculation functions\n */\ninterface IRewardCalculator {\n    function calculateNodeReward(address node, uint256 validationScore, uint256 executionScore) external returns (uint256);\n    function calculateChannelReward(bytes32 channelId, uint256[] memory weights, uint256[] memory scalingFactors, uint256[] memory performances) external returns (uint256);\n    function calculateNodesReward(uint256 baseConstant, uint256[] memory performanceFactors, uint256 contributionScore) external view returns (uint256);\n    function calculateAuxiliaryReward(bytes32 componentId, uint256[] memory weights, uint256[] memory criticalityFactors, uint256[] memory performances) external returns (uint256);\n}\n\n/**\n * @title RewardBase\n * @dev Base contract with common reward functionality\n */\ncontract RewardBase {\n    // Precision for fixed-point arithmetic\n    uint256 internal constant PRECISION = 1e18;\n    \n    // Weight constants\n    uint256 public constant W1_VALIDATION = 600; // 0.6 * PRECISION\n    uint256 public constant W2_EXECUTION = 400;  // 0.4 * PRECISION\n\n    function multiplyFixedPoint(uint256 a, uint256 b) internal pure returns (uint256) {\n        return (a * b) / PRECISION;\n    }\n    \n    function addFixedPoint(uint256 a, uint256 b) internal pure returns (uint256) {\n        return a + b;\n    }\n}\n\n/**\n * @title RewardCalculator\n * @dev Handles reward calculations for different components\n */\ncontract RewardCalculator is RewardBase, IRewardCalculator {\n    struct NodeReward {\n        uint256 validationReward;\n        uint256 executionReward;\n        uint256 totalReward;\n        bool isPaid;\n    }\n    \n    struct ChannelReward {\n        uint256 baseReward;\n        uint256 performanceMultiplier;\n        uint256 totalReward;\n        bool isPaid;\n    }\n    \n    struct AuxiliaryReward {\n        uint256 componentReward;\n        uint256 criticalityFactor;\n        uint256 totalReward;\n        bool isPaid;\n    }\n    \n    // Reward mappings\n    mapping(address => NodeReward) public nodeRewards;\n    mapping(bytes32 => ChannelReward) public channelRewards;\n    mapping(bytes32 => AuxiliaryReward) public auxiliaryRewards;\n    \n    /**\n     * @dev Calculates individual node reward\n     * Di = w1 * Validation + w2 * Execution\n     */\n    function calculateNodeReward(\n        address node,\n        uint256 validationScore,\n        uint256 executionScore\n    ) external override returns (uint256) {\n        uint256 validationComponent = multiplyFixedPoint(validationScore, W1_VALIDATION);\n        uint256 executionComponent = multiplyFixedPoint(executionScore, W2_EXECUTION);\n        \n        uint256 totalReward = addFixedPoint(validationComponent, executionComponent);\n        \n        nodeRewards[node] = NodeReward({\n            validationReward: validationComponent,\n            executionReward: executionComponent,\n            totalReward: totalReward,\n            isPaid: false\n        });\n        \n        return totalReward;\n    }\n\n    function calculatePerformanceMultiplier(\n        uint256[] memory performances\n    ) internal pure returns (uint256) {\n        if (performances.length == 0) return 0;\n        \n        uint256 sum = 0;\n        for (uint256 i = 0; i < performances.length; i++) {\n            sum = addFixedPoint(sum, performances[i]);\n        }\n        return sum / performances.length;\n    }\n    \n    function calculateCriticalityFactor(\n        uint256[] memory factors\n    ) internal pure returns (uint256) {\n        if (factors.length == 0) return 0;\n        \n        uint256 product = PRECISION;\n        for (uint256 i = 0; i < factors.length; i++) {\n            product = multiplyFixedPoint(product, factors[i]);\n        }\n        return product;\n    }\n\n    function calculateChannelReward(\n        bytes32 channelId,\n        uint256[] memory weights,\n        uint256[] memory scalingFactors,\n        uint256[] memory performances\n    ) external override returns (uint256) {\n        require(\n            weights.length == scalingFactors.length &&\n            weights.length == performances.length,\n            \"Array lengths mismatch\"\n        );\n        \n        uint256 totalReward = 0;\n        \n        for (uint256 i = 0; i < weights.length; i++) {\n            uint256 componentReward = multiplyFixedPoint(\n                multiplyFixedPoint(weights[i], scalingFactors[i]),\n                performances[i]\n            );\n            totalReward = addFixedPoint(totalReward, componentReward);\n        }\n        \n        channelRewards[channelId] = ChannelReward({\n            baseReward: totalReward,\n            performanceMultiplier: calculatePerformanceMultiplier(performances),\n            totalReward: totalReward,\n            isPaid: false\n        });\n        \n        return totalReward;\n    }\n\n    function calculateNodesReward(\n        uint256 baseConstant,\n        uint256[] memory performanceFactors,\n        uint256 contributionScore\n    ) external pure override returns (uint256) {\n        uint256 performance = PRECISION;\n        \n        for (uint256 i = 0; i < performanceFactors.length; i++) {\n            performance = multiplyFixedPoint(performance, performanceFactors[i]);\n        }\n        \n        return multiplyFixedPoint(\n            multiplyFixedPoint(baseConstant, performance),\n            contributionScore\n        );\n    }\n\n    function calculateAuxiliaryReward(\n        bytes32 componentId,\n        uint256[] memory weights,\n        uint256[] memory criticalityFactors,\n        uint256[] memory performances\n    ) external override returns (uint256) {\n        require(\n            weights.length == criticalityFactors.length &&\n            weights.length == performances.length,\n            \"Array lengths mismatch\"\n        );\n        \n        uint256 totalReward = 0;\n        \n        for (uint256 i = 0; i < weights.length; i++) {\n            uint256 componentReward = multiplyFixedPoint(\n                multiplyFixedPoint(weights[i], criticalityFactors[i]),\n                performances[i]\n            );\n            totalReward = addFixedPoint(totalReward, componentReward);\n        }\n        \n        auxiliaryRewards[componentId] = AuxiliaryReward({\n            componentReward: totalReward,\n            criticalityFactor: calculateCriticalityFactor(criticalityFactors),\n            totalReward: totalReward,\n            isPaid: false\n        });\n        \n        return totalReward;\n    }\n}\n\n/**\n * @title RewardDistributor\n * @dev Manages the distribution of rewards across different components\n */\ncontract RewardDistributor is RewardCalculator, ReentrancyGuard, AccessControl {\n    IERC20 public rewardToken;\n    \n    struct DistributionState {\n        uint256 channelShare;\n        uint256 nodeShare;\n        uint256 auxiliaryShare;\n        uint256 totalDistributed;\n        bool isComplete;\n    }\n    \n    mapping(bytes32 => DistributionState) public distributions;\n    \n    event RewardDistributed(\n        bytes32 indexed distributionId,\n        address recipient,\n        uint256 amount\n    );\n    \n    constructor(address _rewardToken) {\n        rewardToken = IERC20(_rewardToken);\n        _setupRole(DEFAULT_ADMIN_ROLE, msg.sender);\n    }\n    \n    function distributeRewards(\n        bytes32 distributionId,\n        address[] memory recipients,\n        uint256[] memory amounts\n    ) external nonReentrant onlyRole(DEFAULT_ADMIN_ROLE) {\n        require(\n            recipients.length == amounts.length,\n            \"Recipients and amounts length mismatch\"\n        );\n        \n        DistributionState storage distribution = distributions[distributionId];\n        require(!distribution.isComplete, \"Distribution already complete\");\n        \n        uint256 totalAmount = 0;\n        for (uint256 i = 0; i < amounts.length; i++) {\n            totalAmount = addFixedPoint(totalAmount, amounts[i]);\n        }\n        \n        require(\n            rewardToken.balanceOf(address(this)) >= totalAmount,\n            \"Insufficient rewards\"\n        );\n        \n        for (uint256 i = 0; i < recipients.length; i++) {\n            require(\n                rewardToken.transfer(recipients[i], amounts[i]),\n                \"Transfer failed\"\n            );\n            emit RewardDistributed(distributionId, recipients[i], amounts[i]);\n        }\n        \n        distribution.totalDistributed = totalAmount;\n        distribution.isComplete = true;\n    }\n}",
  "sourcePath": "C:\\Users\\Bonsu\\Documents\\crosschainproject\\contracts\\passchain\\RewardCalculator.sol",
  "compiler": {
    "name": "solc",
    "version": "0.8.17+commit.8df45f5f.Emscripten.clang"
  },
  "schemaVersion": "3.4.16",
  "updatedAt": "2025-02-07T14:38:23.060Z",
  "networkType": "ethereum",
  "devdoc": {
    "details": "Manages the distribution of rewards across different components",
    "kind": "dev",
    "methods": {
      "calculateNodeReward(address,uint256,uint256)": {
        "details": "Calculates individual node reward Di = w1 * Validation + w2 * Execution"
      },
      "getRoleAdmin(bytes32)": {
        "details": "Returns the admin role that controls `role`. See {grantRole} and {revokeRole}. To change a role's admin, use {_setRoleAdmin}."
      },
      "grantRole(bytes32,address)": {
        "details": "Grants `role` to `account`. If `account` had not been already granted `role`, emits a {RoleGranted} event. Requirements: - the caller must have ``role``'s admin role. May emit a {RoleGranted} event."
      },
      "hasRole(bytes32,address)": {
        "details": "Returns `true` if `account` has been granted `role`."
      },
      "renounceRole(bytes32,address)": {
        "details": "Revokes `role` from the calling account. Roles are often managed via {grantRole} and {revokeRole}: this function's purpose is to provide a mechanism for accounts to lose their privileges if they are compromised (such as when a trusted device is misplaced). If the calling account had been revoked `role`, emits a {RoleRevoked} event. Requirements: - the caller must be `account`. May emit a {RoleRevoked} event."
      },
      "revokeRole(bytes32,address)": {
        "details": "Revokes `role` from `account`. If `account` had been granted `role`, emits a {RoleRevoked} event. Requirements: - the caller must have ``role``'s admin role. May emit a {RoleRevoked} event."
      },
      "supportsInterface(bytes4)": {
        "details": "See {IERC165-supportsInterface}."
      }
    },
    "title": "RewardDistributor",
    "version": 1
  },
  "userdoc": {
    "kind": "user",
    "methods": {},
    "version": 1
  }
}