{
  "contractName": "SpeculativeTransactionHandler",
  "abi": [
    {
      "anonymous": false,
      "inputs": [
        {
          "indexed": true,
          "internalType": "bytes32",
          "name": "role",
          "type": "bytes32"
        },
        {
          "indexed": true,
          "internalType": "bytes32",
          "name": "previousAdminRole",
          "type": "bytes32"
        },
        {
          "indexed": true,
          "internalType": "bytes32",
          "name": "newAdminRole",
          "type": "bytes32"
        }
      ],
      "name": "RoleAdminChanged",
      "type": "event"
    },
    {
      "anonymous": false,
      "inputs": [
        {
          "indexed": true,
          "internalType": "bytes32",
          "name": "role",
          "type": "bytes32"
        },
        {
          "indexed": true,
          "internalType": "address",
          "name": "account",
          "type": "address"
        },
        {
          "indexed": true,
          "internalType": "address",
          "name": "sender",
          "type": "address"
        }
      ],
      "name": "RoleGranted",
      "type": "event"
    },
    {
      "anonymous": false,
      "inputs": [
        {
          "indexed": true,
          "internalType": "bytes32",
          "name": "role",
          "type": "bytes32"
        },
        {
          "indexed": true,
          "internalType": "address",
          "name": "account",
          "type": "address"
        },
        {
          "indexed": true,
          "internalType": "address",
          "name": "sender",
          "type": "address"
        }
      ],
      "name": "RoleRevoked",
      "type": "event"
    },
    {
      "anonymous": false,
      "inputs": [
        {
          "indexed": true,
          "internalType": "bytes32",
          "name": "txId",
          "type": "bytes32"
        },
        {
          "indexed": false,
          "internalType": "uint256",
          "name": "beta",
          "type": "uint256"
        },
        {
          "indexed": false,
          "internalType": "uint256",
          "name": "epsilon",
          "type": "uint256"
        }
      ],
      "name": "SpeculativeCalculationComplete",
      "type": "event"
    },
    {
      "inputs": [],
      "name": "DEFAULT_ADMIN_ROLE",
      "outputs": [
        {
          "internalType": "bytes32",
          "name": "",
          "type": "bytes32"
        }
      ],
      "stateMutability": "view",
      "type": "function",
      "constant": true
    },
    {
      "inputs": [
        {
          "internalType": "bytes32",
          "name": "role",
          "type": "bytes32"
        }
      ],
      "name": "getRoleAdmin",
      "outputs": [
        {
          "internalType": "bytes32",
          "name": "",
          "type": "bytes32"
        }
      ],
      "stateMutability": "view",
      "type": "function",
      "constant": true
    },
    {
      "inputs": [
        {
          "internalType": "bytes32",
          "name": "role",
          "type": "bytes32"
        },
        {
          "internalType": "address",
          "name": "account",
          "type": "address"
        }
      ],
      "name": "grantRole",
      "outputs": [],
      "stateMutability": "nonpayable",
      "type": "function"
    },
    {
      "inputs": [
        {
          "internalType": "bytes32",
          "name": "role",
          "type": "bytes32"
        },
        {
          "internalType": "address",
          "name": "account",
          "type": "address"
        }
      ],
      "name": "hasRole",
      "outputs": [
        {
          "internalType": "bool",
          "name": "",
          "type": "bool"
        }
      ],
      "stateMutability": "view",
      "type": "function",
      "constant": true
    },
    {
      "inputs": [
        {
          "internalType": "bytes32",
          "name": "",
          "type": "bytes32"
        }
      ],
      "name": "rbfParams",
      "outputs": [
        {
          "internalType": "uint256",
          "name": "beta",
          "type": "uint256"
        },
        {
          "internalType": "uint256",
          "name": "epsilon",
          "type": "uint256"
        },
        {
          "internalType": "bytes",
          "name": "interpolationData",
          "type": "bytes"
        }
      ],
      "stateMutability": "view",
      "type": "function",
      "constant": true
    },
    {
      "inputs": [
        {
          "internalType": "bytes32",
          "name": "role",
          "type": "bytes32"
        },
        {
          "internalType": "address",
          "name": "account",
          "type": "address"
        }
      ],
      "name": "renounceRole",
      "outputs": [],
      "stateMutability": "nonpayable",
      "type": "function"
    },
    {
      "inputs": [
        {
          "internalType": "bytes32",
          "name": "role",
          "type": "bytes32"
        },
        {
          "internalType": "address",
          "name": "account",
          "type": "address"
        }
      ],
      "name": "revokeRole",
      "outputs": [],
      "stateMutability": "nonpayable",
      "type": "function"
    },
    {
      "inputs": [
        {
          "internalType": "bytes4",
          "name": "interfaceId",
          "type": "bytes4"
        }
      ],
      "name": "supportsInterface",
      "outputs": [
        {
          "internalType": "bool",
          "name": "",
          "type": "bool"
        }
      ],
      "stateMutability": "view",
      "type": "function",
      "constant": true
    },
    {
      "inputs": [
        {
          "internalType": "bytes32",
          "name": "txId",
          "type": "bytes32"
        },
        {
          "internalType": "bytes",
          "name": "data",
          "type": "bytes"
        },
        {
          "internalType": "uint256",
          "name": "beta",
          "type": "uint256"
        }
      ],
      "name": "calculateRBFInterpolation",
      "outputs": [
        {
          "internalType": "bytes",
          "name": "",
          "type": "bytes"
        }
      ],
      "stateMutability": "nonpayable",
      "type": "function"
    }
  ],
  "bytecode": "0x608060405234801561001057600080fd5b5060016000556110ef806100256000396000f3fe608060405234801561001057600080fd5b50600436106100935760003560e01c80633ba8d66b116100665780633ba8d66b1461011a57806391d148541461013c578063a217fddf1461014f578063bbc68a5114610157578063d547741f1461017757600080fd5b806301ffc9a714610098578063248a9ca3146100c05780632f2ff15d146100f257806336568abe14610107575b600080fd5b6100ab6100a6366004610bf9565b61018a565b60405190151581526020015b60405180910390f35b6100e46100ce366004610c23565b6000908152600160208190526040909120015490565b6040519081526020016100b7565b610105610100366004610c3c565b6101c1565b005b610105610115366004610c3c565b6101ec565b61012d610128366004610c23565b61026f565b6040516100b793929190610cc8565b6100ab61014a366004610c3c565b61031c565b6100e4600081565b61016a610165366004610d60565b610347565b6040516100b79190610e08565b610105610185366004610c3c565b610655565b60006001600160e01b03198216637965db0b60e01b14806101bb57506301ffc9a760e01b6001600160e01b03198316145b92915050565b600082815260016020819052604090912001546101dd8161067b565b6101e78383610688565b505050565b6001600160a01b03811633146102615760405162461bcd60e51b815260206004820152602f60248201527f416363657373436f6e74726f6c3a2063616e206f6e6c792072656e6f756e636560448201526e103937b632b9903337b91039b2b63360891b60648201526084015b60405180910390fd5b61026b82826106f3565b5050565b60026020819052600091825260409091208054600182015492820180549193929161029990610e1b565b80601f01602080910402602001604051908101604052809291908181526020018280546102c590610e1b565b80156103125780601f106102e757610100808354040283529160200191610312565b820191906000526020600020905b8154815290600101906020018083116102f557829003601f168201915b5050505050905083565b60009182526001602090815260408084206001600160a01b0393909316845291905290205460ff1690565b606061035161075a565b6000838060200190518101906103679190610e55565b905060008151116103ba5760405162461bcd60e51b815260206004820152601860248201527f4e6f20696e70757420706f696e74732070726f766964656400000000000000006044820152606401610258565b600085815260036020526040812084815582516002820181905590919067ffffffffffffffff8111156103ef576103ef610cf0565b604051908082528060200260200182016040528015610418578160200160208202803683370190505b50905060005b83518110156105bd576000805b855181101561050d5760006104b687858151811061044b5761044b610f29565b60200260200101516000015188868151811061046957610469610f29565b60200260200101516020015189858151811061048757610487610f29565b6020026020010151600001518a86815181106104a5576104a5610f29565b6020026020010151602001516107b3565b905060006104c4828b61081e565b90506104f6846104f18a86815181106104df576104df610f29565b6020026020010151604001518461083e565b61085d565b93505050808061050590610f55565b91505061042b565b508083838151811061052157610521610f29565b602002602001018181525050604051806060016040528086848151811061054a5761054a610f29565b602002602001015160000151815260200186848151811061056d5761056d610f29565b6020908102919091018101518101518252908101929092526000838152600386018352604090819020825181559282015160018401550151600290910155806105b581610f55565b91505061041e565b506105c88782610869565b61061f5760405162461bcd60e51b815260206004820152602260248201527f52424620696e746572706f6c6174696f6e20646964206e6f7420636f6e766572604482015261676560f01b6064820152608401610258565b806040516020016106309190610f6e565b604051602081830303815290604052935050505061064e6001600055565b9392505050565b600082815260016020819052604090912001546106718161067b565b6101e783836106f3565b610685813361096b565b50565b610692828261031c565b61026b5760008281526001602081815260408084206001600160a01b0386168086529252808420805460ff19169093179092559051339285917f2f8788117e7eff1d82e926ec794901d17c78024a50270940304540a733656f0d9190a45050565b6106fd828261031c565b1561026b5760008281526001602090815260408083206001600160a01b0385168085529252808320805460ff1916905551339285917ff6391f5c32d9c69d2a47ea670b442974b53935d1edc7fd64eb21e047a839171b9190a45050565b6002600054036107ac5760405162461bcd60e51b815260206004820152601f60248201527f5265656e7472616e637947756172643a207265656e7472616e742063616c6c006044820152606401610258565b6002600055565b6000808386116107cc576107c78685610fb2565b6107d6565b6107d68487610fb2565b905060008386116107f0576107eb8685610fb2565b6107fa565b6107fa8487610fb2565b9050610813610809838461083e565b6104f1838461083e565b979650505050505050565b60008061082b838561083e565b9050610836816109c4565b949350505050565b6000670de0b6b3a76400006108538385610fc5565b61064e9190610ff2565b600061064e8284611006565b6000828152600360205260408120815b835181101561096057600081815260038301602052604081206002015485518690849081106108aa576108aa610f29565b6020026020010151116108f9578482815181106108c9576108c9610f29565b6020026020010151836003016000848152602001908152602001600020600201546108f49190610fb2565b610933565b6000828152600384016020526040902060020154855186908490811061092157610921610f29565b60200260200101516109339190610fb2565b9050826001015481111561094d57600093505050506101bb565b508061095881610f55565b915050610879565b506001949350505050565b610975828261031c565b61026b5761098281610a4b565b61098d836020610a5d565b60405160200161099e929190611019565b60408051601f198184030181529082905262461bcd60e51b825261025891600401610e08565b6000670de0b6b3a76400008060015b60058111610a4257806109e6838761083e565b6109f09190610ff2565b91506109fd60028261108e565b600103610a2357818311610a12576000610a1c565b610a1c8284610fb2565b9250610a30565b610a2d838361085d565b92505b80610a3a81610f55565b9150506109d3565b50909392505050565b60606101bb6001600160a01b03831660145b60606000610a6c836002610fc5565b610a77906002611006565b67ffffffffffffffff811115610a8f57610a8f610cf0565b6040519080825280601f01601f191660200182016040528015610ab9576020820181803683370190505b509050600360fc1b81600081518110610ad457610ad4610f29565b60200101906001600160f81b031916908160001a905350600f60fb1b81600181518110610b0357610b03610f29565b60200101906001600160f81b031916908160001a9053506000610b27846002610fc5565b610b32906001611006565b90505b6001811115610baa576f181899199a1a9b1b9c1cb0b131b232b360811b85600f1660108110610b6657610b66610f29565b1a60f81b828281518110610b7c57610b7c610f29565b60200101906001600160f81b031916908160001a90535060049490941c93610ba3816110a2565b9050610b35565b50831561064e5760405162461bcd60e51b815260206004820181905260248201527f537472696e67733a20686578206c656e67746820696e73756666696369656e746044820152606401610258565b600060208284031215610c0b57600080fd5b81356001600160e01b03198116811461064e57600080fd5b600060208284031215610c3557600080fd5b5035919050565b60008060408385031215610c4f57600080fd5b8235915060208301356001600160a01b0381168114610c6d57600080fd5b809150509250929050565b60005b83811015610c93578181015183820152602001610c7b565b50506000910152565b60008151808452610cb4816020860160208601610c78565b601f01601f19169290920160200192915050565b838152826020820152606060408201526000610ce76060830184610c9c565b95945050505050565b634e487b7160e01b600052604160045260246000fd5b6040516060810167ffffffffffffffff81118282101715610d2957610d29610cf0565b60405290565b604051601f8201601f1916810167ffffffffffffffff81118282101715610d5857610d58610cf0565b604052919050565b600080600060608486031215610d7557600080fd5b8335925060208085013567ffffffffffffffff80821115610d9557600080fd5b818701915087601f830112610da957600080fd5b813581811115610dbb57610dbb610cf0565b610dcd601f8201601f19168501610d2f565b91508082528884828501011115610de357600080fd5b8084840185840137600084828401015250809450505050604084013590509250925092565b60208152600061064e6020830184610c9c565b600181811c90821680610e2f57607f821691505b602082108103610e4f57634e487b7160e01b600052602260045260246000fd5b50919050565b60006020808385031215610e6857600080fd5b825167ffffffffffffffff80821115610e8057600080fd5b818501915085601f830112610e9457600080fd5b815181811115610ea657610ea6610cf0565b610eb4848260051b01610d2f565b81815284810192506060918202840185019188831115610ed357600080fd5b938501935b82851015610f1d5780858a031215610ef05760008081fd5b610ef8610d06565b8551815286860151878201526040808701519082015284529384019392850192610ed8565b50979650505050505050565b634e487b7160e01b600052603260045260246000fd5b634e487b7160e01b600052601160045260246000fd5b600060018201610f6757610f67610f3f565b5060010190565b6020808252825182820181905260009190848201906040850190845b81811015610fa657835183529284019291840191600101610f8a565b50909695505050505050565b818103818111156101bb576101bb610f3f565b80820281158282048414176101bb576101bb610f3f565b634e487b7160e01b600052601260045260246000fd5b60008261100157611001610fdc565b500490565b808201808211156101bb576101bb610f3f565b7f416363657373436f6e74726f6c3a206163636f756e7420000000000000000000815260008351611051816017850160208801610c78565b7001034b99036b4b9b9b4b733903937b6329607d1b6017918401918201528351611082816028840160208801610c78565b01602801949350505050565b60008261109d5761109d610fdc565b500690565b6000816110b1576110b1610f3f565b50600019019056fea2646970667358221220f31843029050047303016417c5e501b4f676de3e517b2ac3cd4cb8b14d78996064736f6c63430008110033",
  "immutableReferences": {},
  "source": "// SPDX-License-Identifier: MIT\npragma solidity ^0.8.0;\n\nimport \"@openzeppelin/contracts/security/ReentrancyGuard.sol\";\nimport \"@openzeppelin/contracts/security/Pausable.sol\";\nimport \"@openzeppelin/contracts/access/AccessControl.sol\";\nimport \"../../library/FixedPointMath.sol\";\nimport \"../../library/TransactionTypes.sol\";\n\n/**\n * @title PacechainChannel\n * @dev Manages transmission channels between blockchains\n */\ncontract PacechainChannel is ReentrancyGuard, Pausable, AccessControl {\n    using TransactionTypes for TransactionTypes.Channel;\n    using FixedPointMath for uint256;\n    \n    bytes32 public constant CHANNEL_OPERATOR = keccak256(\"CHANNEL_OPERATOR\");\n    \n    mapping(bytes32 => TransactionTypes.Channel) public channels;\n    mapping(bytes32 => TransactionTypes.SpeculativeTx) public speculativeTxs;\n    mapping(bytes32 => TransactionTypes.ConfirmableTx) public confirmableTxs;\n    \n    event ChannelCreated(bytes32 indexed channelId, address sourceBridge, address targetBridge);\n    event SpeculativeTxCreated(bytes32 indexed txId, address sender, uint256 anticipatedTime);\n    event ConfirmableTxCreated(bytes32 indexed txId, bytes32 speculativeTxId);\n    \n    constructor() {\n        _setupRole(DEFAULT_ADMIN_ROLE, msg.sender);\n    }\n    \n    function createChannel(\n        address sourceBridge,\n        address targetBridge,\n        uint256 confidenceThreshold\n    ) external onlyRole(CHANNEL_OPERATOR) returns (bytes32) {\n        require(sourceBridge != address(0), \"Invalid source bridge\");\n        require(targetBridge != address(0), \"Invalid target bridge\");\n        require(confidenceThreshold > 0, \"Invalid threshold\");\n\n        bytes32 channelId = keccak256(abi.encodePacked(\n            sourceBridge,\n            targetBridge,\n            block.timestamp\n        ));\n        \n        channels[channelId] = TransactionTypes.Channel({\n            id: channelId,\n            sourceBridge: sourceBridge,\n            targetBridge: targetBridge,\n            creationTime: block.timestamp,\n            isActive: true,\n            confidenceThreshold: confidenceThreshold\n        });\n        \n        emit ChannelCreated(channelId, sourceBridge, targetBridge);\n        return channelId;\n    }\n}\n\n/**\n * @title SpeculativeTransactionHandler\n * @dev Handles creation and management of speculative transactions\n */\ncontract SpeculativeTransactionHandler is ReentrancyGuard, AccessControl {\n    using TransactionTypes for TransactionTypes.SpeculativeTx;\n    \n    struct RBFParams {\n        uint256 beta;\n        uint256 epsilon;\n        bytes interpolationData;\n    }\n    \n    mapping(bytes32 => RBFParams) public rbfParams;\n    \n    event SpeculativeCalculationComplete(bytes32 indexed txId, uint256 beta, uint256 epsilon);\n    \n    struct RBFPoint {\n        uint256 x;\n        uint256 y;\n        uint256 lambda;\n    }\n\n    struct RBFCalculation {\n        uint256 beta;\n        uint256 epsilon;\n        uint256 pointCount;\n        mapping(uint256 => RBFPoint) points;\n    }\n\n    mapping(bytes32 => RBFCalculation) private rbfCalculations;\n\n    uint256 private constant PRECISION = 1e18;\n\n    function calculateRBFInterpolation(\n        bytes32 txId,\n        bytes memory data,\n        uint256 beta\n    ) external nonReentrant returns (bytes memory) {\n        (RBFPoint[] memory inputPoints) = abi.decode(data, (RBFPoint[]));\n        require(inputPoints.length > 0, \"No input points provided\");\n\n        RBFCalculation storage calc = rbfCalculations[txId];\n        calc.beta = beta;\n        calc.pointCount = inputPoints.length;\n\n        uint256[] memory virtualPoints = new uint256[](inputPoints.length);\n        \n        for (uint256 i = 0; i < inputPoints.length; i++) {\n            uint256 sum = 0;\n            \n            for (uint256 j = 0; j < inputPoints.length; j++) {\n                uint256 distance = calculateSquaredDistance(\n                    inputPoints[i].x,\n                    inputPoints[i].y,\n                    inputPoints[j].x,\n                    inputPoints[j].y\n                );\n                \n                uint256 phi = calculateGaussianRBF(distance, beta);\n                sum = addFixedPoint(sum, multiplyFixedPoint(inputPoints[j].lambda, phi));\n            }\n            \n            virtualPoints[i] = sum;\n            calc.points[i] = RBFPoint({\n                x: inputPoints[i].x,\n                y: inputPoints[i].y,\n                lambda: sum\n            });\n        }\n\n        require(monitorConvergence(txId, virtualPoints), \"RBF interpolation did not converge\");\n\n        return abi.encode(virtualPoints);\n    }\n\n    function calculateSquaredDistance(\n        uint256 x1,\n        uint256 y1,\n        uint256 x2,\n        uint256 y2\n    ) internal pure returns (uint256) {\n        uint256 dx = x1 > x2 ? x1 - x2 : x2 - x1;\n        uint256 dy = y1 > y2 ? y1 - y2 : y2 - y1;\n        \n        return addFixedPoint(\n            multiplyFixedPoint(dx, dx),\n            multiplyFixedPoint(dy, dy)\n        );\n    }\n\n    function calculateGaussianRBF(\n        uint256 distance,\n        uint256 beta\n    ) internal pure returns (uint256) {\n        uint256 exponent = multiplyFixedPoint(beta, distance);\n        return exponentialDecay(exponent);\n    }\n\n    function exponentialDecay(uint256 x) internal pure returns (uint256) {\n        uint256 result = PRECISION;\n        uint256 term = PRECISION;\n        \n        for (uint256 i = 1; i <= 5; i++) {\n            term = multiplyFixedPoint(term, x) / i;\n            if (i % 2 == 1) {\n                result = result > term ? result - term : 0;\n            } else {\n                result = addFixedPoint(result, term);\n            }\n        }\n        \n        return result;\n    }\n\n    function monitorConvergence(\n        bytes32 txId,\n        uint256[] memory virtualPoints\n    ) internal view returns (bool) {\n        RBFCalculation storage calc = rbfCalculations[txId];\n        \n        for (uint256 i = 0; i < virtualPoints.length; i++) {\n            uint256 difference = virtualPoints[i] > calc.points[i].lambda ?\n                virtualPoints[i] - calc.points[i].lambda :\n                calc.points[i].lambda - virtualPoints[i];\n                \n            if (difference > calc.epsilon) {\n                return false;\n            }\n        }\n        \n        return true;\n    }\n\n    function multiplyFixedPoint(uint256 a, uint256 b) internal pure returns (uint256) {\n        return (a * b) / PRECISION;\n    }\n\n    function addFixedPoint(uint256 a, uint256 b) internal pure returns (uint256) {\n        return a + b;\n    }\n}\n/**\n * @title ConfidenceScoreCalculator\n * @dev Calculates and manages confidence scores for transactions\n */\n\ncontract ConfidenceScoreCalculator is AccessControl {\n    using FixedPointMath for uint256;\n\n    mapping(address => uint256[]) private transactionFrequencies;\n    mapping(address => ScoreComponents) public scoreComponents;\n    mapping(address => ReputationData) private reputationStore;\n\n    uint256 private constant MAX_FREQUENCY_SAMPLES = 100;\n    uint256 private constant PRECISION = 1e18;\n    \n    uint256 private constant OPTIMAL_LOAD = 700 * 1e15;\n    uint256 private constant LOAD_SENSITIVITY = 50 * 1e15;\n    uint256 private constant DELTA = 800 * 1e15;\n    uint256 private constant K = 100 * 1e15;\n    uint256 private constant TAU = 10;\n    uint256 private constant ALPHA = 600 * 1e15;\n    uint256 private constant BETA = 400 * 1e15;\n    uint256 private constant LAMBDA = 100 * 1e15;\n    uint256 private constant GAMMA = 800 * 1e15;\n\n    uint256 public constant HIGH_CONFIDENCE_THRESHOLD = 800;\n    uint256 public constant LOW_CONFIDENCE_THRESHOLD = 500;\n    \n    uint256 public constant SENDER_REPUTATION_WEIGHT = 300;\n    uint256 public constant TRANSACTION_PATTERN_WEIGHT = 200;\n    uint256 public constant ZK_VERIFICATION_WEIGHT = 300;\n    uint256 public constant NETWORK_STATE_WEIGHT = 200;\n\n    struct ScoreComponents {\n        uint256 senderReputation;\n        uint256 transactionPattern;\n        uint256 zkVerification;\n        uint256 networkState;\n    }\n\n    struct ReputationData {\n        uint256 successfulTx;\n        uint256 totalTx;\n        uint256 failedAttempts;\n    }\n\n    event ConfidenceScoreCalculated(address indexed sender, uint256 score);\n    event ReputationUpdated(address indexed sender, uint256 successfulTx, uint256 totalTx);\n\n    constructor() {\n        _setupRole(DEFAULT_ADMIN_ROLE, msg.sender);\n    }\n\n    function calculateConfidenceScore(\n        address sender,\n        uint256 txFrequency,\n        bool zkProofValid,\n        uint256 networkLoad\n    ) external view returns (uint256) {\n        require(sender != address(0), \"Invalid sender address\");\n        \n        uint256 senderScore = calculateSenderReputation(sender);\n        uint256 patternScore = calculateTransactionPattern(txFrequency);\n        uint256 zkScore = calculateZKScore(zkProofValid, txFrequency);\n        uint256 networkScore = calculateNetworkScore(networkLoad);\n        \n        return (senderScore * SENDER_REPUTATION_WEIGHT +\n                patternScore * TRANSACTION_PATTERN_WEIGHT +\n                zkScore * ZK_VERIFICATION_WEIGHT +\n                networkScore * NETWORK_STATE_WEIGHT) / 1000;\n    }\n\n    function calculateSenderReputation(address sender) internal view returns (uint256) {\n        ReputationData storage repData = reputationStore[sender];\n        \n        if (repData.totalTx == 0) return 0;\n\n        uint256 successRatio = (repData.successfulTx * PRECISION) / repData.totalTx;\n        uint256 weightedSuccess = successRatio.multiplyFixedPoint(ALPHA);\n        \n        uint256 failurePenalty = FixedPointMath.exponentialDecay(\n            uint256(repData.failedAttempts).multiplyFixedPoint(LAMBDA)\n        );\n        uint256 weightedFailure = failurePenalty.multiplyFixedPoint(BETA);\n        \n        return weightedSuccess.addFixedPoint(weightedFailure);\n    }\n\n    function calculateTransactionPattern(uint256 frequency) internal view returns (uint256) {\n        uint256 meanFreq = getMeanFrequency();\n        uint256 variance = getVariance();\n        \n        if (variance == 0) return PRECISION;\n        \n        uint256 diff = frequency > meanFreq ? \n            frequency - meanFreq : \n            meanFreq - frequency;\n        uint256 diffSquared = diff.multiplyFixedPoint(diff);\n        \n        uint256 denominator = 2 * variance;\n        uint256 exponent = diffSquared / denominator;\n        uint256 expValue = FixedPointMath.exponentialDecay(exponent);\n        \n        return GAMMA.multiplyFixedPoint(expValue);\n    }\n\n    function calculateZKScore(\n        bool proofValid,\n        uint256 verificationTime\n    ) internal pure returns (uint256) {\n        if (!proofValid) return 0;\n        \n        uint256 timeScore;\n        if (verificationTime <= TAU) {\n            timeScore = PRECISION;\n        } else {\n            uint256 timeDiff = verificationTime - TAU;\n            uint256 exponent = K.multiplyFixedPoint(timeDiff);\n            timeScore = PRECISION / (PRECISION + FixedPointMath.exponentialGrowth(exponent));\n        }\n        \n        uint256 proofScore = DELTA.multiplyFixedPoint(PRECISION);\n        uint256 timeWeightedScore = (PRECISION - DELTA).multiplyFixedPoint(timeScore);\n        \n        return proofScore.addFixedPoint(timeWeightedScore);\n    }\n\n    function calculateNetworkScore(uint256 networkLoad) internal pure returns (uint256) {\n        if (networkLoad >= PRECISION) return 0;\n        \n        uint256 resourceRatio = PRECISION - networkLoad;\n        uint256 loadDiff = networkLoad > OPTIMAL_LOAD ? \n            networkLoad - OPTIMAL_LOAD : \n            OPTIMAL_LOAD - networkLoad;\n            \n        uint256 exponent = LOAD_SENSITIVITY.multiplyFixedPoint(loadDiff);\n        uint256 loadFactor = PRECISION / (PRECISION + FixedPointMath.exponentialGrowth(exponent));\n        \n        return resourceRatio.multiplyFixedPoint(loadFactor);\n    }\n\n    function getMeanFrequency() internal view returns (uint256) {\n        uint256[] storage frequencies = transactionFrequencies[msg.sender];\n        if (frequencies.length == 0) return 0;\n        \n        uint256 sum = 0;\n        for (uint256 i = 0; i < frequencies.length; i++) {\n            sum = sum.addFixedPoint(frequencies[i]);\n        }\n        return sum / frequencies.length;\n    }\n    \n    function getVariance() internal view returns (uint256) {\n        uint256[] storage frequencies = transactionFrequencies[msg.sender];\n        if (frequencies.length == 0) return 0;\n        \n        uint256 mean = getMeanFrequency();\n        uint256 sumSquaredDiff = 0;\n        \n        for (uint256 i = 0; i < frequencies.length; i++) {\n            uint256 diff = frequencies[i] > mean ? \n                frequencies[i] - mean : \n                mean - frequencies[i];\n            sumSquaredDiff = sumSquaredDiff.addFixedPoint(diff.multiplyFixedPoint(diff));\n        }\n        \n        return sumSquaredDiff / frequencies.length;\n    }\n\n    function updateTransactionFrequency(uint256 frequency) external {\n        uint256[] storage frequencies = transactionFrequencies[msg.sender];\n        \n        if (frequencies.length >= MAX_FREQUENCY_SAMPLES) {\n            // Remove oldest frequency\n            for (uint256 i = 0; i < frequencies.length - 1; i++) {\n                frequencies[i] = frequencies[i + 1];\n            }\n            frequencies[frequencies.length - 1] = frequency;\n        } else {\n            frequencies.push(frequency);\n        }\n    }\n}\n\ncontract AssetTransferProcessor is ReentrancyGuard, AccessControl {\n    struct AssetTransfer {\n        bytes32 txId;\n        address asset;\n        uint256 amount;\n        uint256 lockTime;\n        bytes32 hashLock;\n        bool isCompleted;\n    }\n    \n    mapping(bytes32 => AssetTransfer) public assetTransfers;\n    \n    event AssetLocked(bytes32 indexed txId, address asset, uint256 amount);\n    event AssetReleased(bytes32 indexed txId, address asset, uint256 amount);\n    \n    function initiateAssetTransfer(\n        bytes32 txId,\n        address asset,\n        uint256 amount,\n        bytes32 hashLock\n    ) external nonReentrant {\n        assetTransfers[txId] = AssetTransfer({\n            txId: txId,\n            asset: asset,\n            amount: amount,\n            lockTime: block.timestamp + 1 hours,\n            hashLock: hashLock,\n            isCompleted: false\n        });\n        \n        emit AssetLocked(txId, asset, amount);\n    }\n}",
  "sourcePath": "C:\\Users\\Bonsu\\Documents\\crosschainproject\\contracts\\passchain\\PacechainChannel.sol",
  "compiler": {
    "name": "solc",
    "version": "0.8.17+commit.8df45f5f.Emscripten.clang"
  },
  "schemaVersion": "3.4.16",
  "updatedAt": "2025-02-07T14:38:22.481Z",
  "networkType": "ethereum",
  "devdoc": {
    "details": "Handles creation and management of speculative transactions",
    "kind": "dev",
    "methods": {
      "getRoleAdmin(bytes32)": {
        "details": "Returns the admin role that controls `role`. See {grantRole} and {revokeRole}. To change a role's admin, use {_setRoleAdmin}."
      },
      "grantRole(bytes32,address)": {
        "details": "Grants `role` to `account`. If `account` had not been already granted `role`, emits a {RoleGranted} event. Requirements: - the caller must have ``role``'s admin role. May emit a {RoleGranted} event."
      },
      "hasRole(bytes32,address)": {
        "details": "Returns `true` if `account` has been granted `role`."
      },
      "renounceRole(bytes32,address)": {
        "details": "Revokes `role` from the calling account. Roles are often managed via {grantRole} and {revokeRole}: this function's purpose is to provide a mechanism for accounts to lose their privileges if they are compromised (such as when a trusted device is misplaced). If the calling account had been revoked `role`, emits a {RoleRevoked} event. Requirements: - the caller must be `account`. May emit a {RoleRevoked} event."
      },
      "revokeRole(bytes32,address)": {
        "details": "Revokes `role` from `account`. If `account` had been granted `role`, emits a {RoleRevoked} event. Requirements: - the caller must have ``role``'s admin role. May emit a {RoleRevoked} event."
      },
      "supportsInterface(bytes4)": {
        "details": "See {IERC165-supportsInterface}."
      }
    },
    "title": "SpeculativeTransactionHandler",
    "version": 1
  },
  "userdoc": {
    "kind": "user",
    "methods": {},
    "version": 1
  }
}