{
  "contractName": "StateManager",
  "abi": [
    {
      "anonymous": false,
      "inputs": [
        {
          "indexed": true,
          "internalType": "bytes32",
          "name": "chainId",
          "type": "bytes32"
        },
        {
          "indexed": true,
          "internalType": "bytes32",
          "name": "txId",
          "type": "bytes32"
        }
      ],
      "name": "ChainNotified",
      "type": "event"
    },
    {
      "anonymous": false,
      "inputs": [
        {
          "indexed": true,
          "internalType": "bytes32",
          "name": "role",
          "type": "bytes32"
        },
        {
          "indexed": true,
          "internalType": "bytes32",
          "name": "previousAdminRole",
          "type": "bytes32"
        },
        {
          "indexed": true,
          "internalType": "bytes32",
          "name": "newAdminRole",
          "type": "bytes32"
        }
      ],
      "name": "RoleAdminChanged",
      "type": "event"
    },
    {
      "anonymous": false,
      "inputs": [
        {
          "indexed": true,
          "internalType": "bytes32",
          "name": "role",
          "type": "bytes32"
        },
        {
          "indexed": true,
          "internalType": "address",
          "name": "account",
          "type": "address"
        },
        {
          "indexed": true,
          "internalType": "address",
          "name": "sender",
          "type": "address"
        }
      ],
      "name": "RoleGranted",
      "type": "event"
    },
    {
      "anonymous": false,
      "inputs": [
        {
          "indexed": true,
          "internalType": "bytes32",
          "name": "role",
          "type": "bytes32"
        },
        {
          "indexed": true,
          "internalType": "address",
          "name": "account",
          "type": "address"
        },
        {
          "indexed": true,
          "internalType": "address",
          "name": "sender",
          "type": "address"
        }
      ],
      "name": "RoleRevoked",
      "type": "event"
    },
    {
      "anonymous": false,
      "inputs": [
        {
          "indexed": true,
          "internalType": "bytes32",
          "name": "txId",
          "type": "bytes32"
        }
      ],
      "name": "StateUpdateComplete",
      "type": "event"
    },
    {
      "anonymous": false,
      "inputs": [
        {
          "indexed": true,
          "internalType": "bytes32",
          "name": "txId",
          "type": "bytes32"
        },
        {
          "indexed": false,
          "internalType": "bytes32",
          "name": "merkleRoot",
          "type": "bytes32"
        }
      ],
      "name": "StateUpdateInitiated",
      "type": "event"
    },
    {
      "anonymous": false,
      "inputs": [
        {
          "indexed": true,
          "internalType": "bytes32",
          "name": "txId",
          "type": "bytes32"
        },
        {
          "indexed": false,
          "internalType": "bool",
          "name": "isValid",
          "type": "bool"
        }
      ],
      "name": "ValidationComplete",
      "type": "event"
    },
    {
      "anonymous": false,
      "inputs": [
        {
          "indexed": true,
          "internalType": "bytes32",
          "name": "txId",
          "type": "bytes32"
        },
        {
          "indexed": false,
          "internalType": "address",
          "name": "validator",
          "type": "address"
        },
        {
          "indexed": false,
          "internalType": "uint256",
          "name": "stake",
          "type": "uint256"
        }
      ],
      "name": "ValidationSubmitted",
      "type": "event"
    },
    {
      "inputs": [],
      "name": "DEFAULT_ADMIN_ROLE",
      "outputs": [
        {
          "internalType": "bytes32",
          "name": "",
          "type": "bytes32"
        }
      ],
      "stateMutability": "view",
      "type": "function",
      "constant": true
    },
    {
      "inputs": [],
      "name": "MIN_STAKE",
      "outputs": [
        {
          "internalType": "uint256",
          "name": "",
          "type": "uint256"
        }
      ],
      "stateMutability": "view",
      "type": "function",
      "constant": true
    },
    {
      "inputs": [],
      "name": "VALIDATION_THRESHOLD",
      "outputs": [
        {
          "internalType": "uint256",
          "name": "",
          "type": "uint256"
        }
      ],
      "stateMutability": "view",
      "type": "function",
      "constant": true
    },
    {
      "inputs": [],
      "name": "VALIDATOR_ROLE",
      "outputs": [
        {
          "internalType": "bytes32",
          "name": "",
          "type": "bytes32"
        }
      ],
      "stateMutability": "view",
      "type": "function",
      "constant": true
    },
    {
      "inputs": [
        {
          "internalType": "bytes32",
          "name": "",
          "type": "bytes32"
        }
      ],
      "name": "chainStates",
      "outputs": [
        {
          "internalType": "bytes32",
          "name": "",
          "type": "bytes32"
        }
      ],
      "stateMutability": "view",
      "type": "function",
      "constant": true
    },
    {
      "inputs": [
        {
          "internalType": "bytes32",
          "name": "role",
          "type": "bytes32"
        }
      ],
      "name": "getRoleAdmin",
      "outputs": [
        {
          "internalType": "bytes32",
          "name": "",
          "type": "bytes32"
        }
      ],
      "stateMutability": "view",
      "type": "function",
      "constant": true
    },
    {
      "inputs": [
        {
          "internalType": "bytes32",
          "name": "role",
          "type": "bytes32"
        },
        {
          "internalType": "address",
          "name": "account",
          "type": "address"
        }
      ],
      "name": "grantRole",
      "outputs": [],
      "stateMutability": "nonpayable",
      "type": "function"
    },
    {
      "inputs": [
        {
          "internalType": "bytes32",
          "name": "role",
          "type": "bytes32"
        },
        {
          "internalType": "address",
          "name": "account",
          "type": "address"
        }
      ],
      "name": "hasRole",
      "outputs": [
        {
          "internalType": "bool",
          "name": "",
          "type": "bool"
        }
      ],
      "stateMutability": "view",
      "type": "function",
      "constant": true
    },
    {
      "inputs": [
        {
          "internalType": "bytes32",
          "name": "role",
          "type": "bytes32"
        },
        {
          "internalType": "address",
          "name": "account",
          "type": "address"
        }
      ],
      "name": "renounceRole",
      "outputs": [],
      "stateMutability": "nonpayable",
      "type": "function"
    },
    {
      "inputs": [
        {
          "internalType": "bytes32",
          "name": "role",
          "type": "bytes32"
        },
        {
          "internalType": "address",
          "name": "account",
          "type": "address"
        }
      ],
      "name": "revokeRole",
      "outputs": [],
      "stateMutability": "nonpayable",
      "type": "function"
    },
    {
      "inputs": [
        {
          "internalType": "bytes32",
          "name": "",
          "type": "bytes32"
        }
      ],
      "name": "stateUpdates",
      "outputs": [
        {
          "internalType": "bytes32",
          "name": "txId",
          "type": "bytes32"
        },
        {
          "internalType": "bytes32",
          "name": "merkleRoot",
          "type": "bytes32"
        },
        {
          "internalType": "uint256",
          "name": "updateTime",
          "type": "uint256"
        },
        {
          "internalType": "bool",
          "name": "isComplete",
          "type": "bool"
        }
      ],
      "stateMutability": "view",
      "type": "function",
      "constant": true
    },
    {
      "inputs": [
        {
          "internalType": "bytes32",
          "name": "txId",
          "type": "bytes32"
        },
        {
          "internalType": "bool",
          "name": "approval",
          "type": "bool"
        }
      ],
      "name": "submitValidation",
      "outputs": [],
      "stateMutability": "nonpayable",
      "type": "function"
    },
    {
      "inputs": [
        {
          "internalType": "bytes4",
          "name": "interfaceId",
          "type": "bytes4"
        }
      ],
      "name": "supportsInterface",
      "outputs": [
        {
          "internalType": "bool",
          "name": "",
          "type": "bool"
        }
      ],
      "stateMutability": "view",
      "type": "function",
      "constant": true
    },
    {
      "inputs": [
        {
          "internalType": "bytes32",
          "name": "",
          "type": "bytes32"
        }
      ],
      "name": "validationStates",
      "outputs": [
        {
          "internalType": "uint256",
          "name": "totalStake",
          "type": "uint256"
        },
        {
          "internalType": "uint256",
          "name": "approvalStake",
          "type": "uint256"
        },
        {
          "internalType": "uint256",
          "name": "startTime",
          "type": "uint256"
        },
        {
          "internalType": "bool",
          "name": "isComplete",
          "type": "bool"
        }
      ],
      "stateMutability": "view",
      "type": "function",
      "constant": true
    },
    {
      "inputs": [
        {
          "internalType": "address",
          "name": "",
          "type": "address"
        }
      ],
      "name": "validatorStakes",
      "outputs": [
        {
          "internalType": "uint256",
          "name": "",
          "type": "uint256"
        }
      ],
      "stateMutability": "view",
      "type": "function",
      "constant": true
    },
    {
      "inputs": [
        {
          "internalType": "bytes32",
          "name": "txId",
          "type": "bytes32"
        },
        {
          "internalType": "bytes32[]",
          "name": "affectedChains",
          "type": "bytes32[]"
        },
        {
          "internalType": "bytes",
          "name": "txData",
          "type": "bytes"
        }
      ],
      "name": "updateState",
      "outputs": [],
      "stateMutability": "nonpayable",
      "type": "function"
    }
  ],
  "bytecode": "0x608060405234801561001057600080fd5b5061001c600033610021565b6100cd565b61002b828261002f565b5050565b6000828152602081815260408083206001600160a01b038516845290915290205460ff1661002b576000828152602081815260408083206001600160a01b03851684529091529020805460ff191660011790556100893390565b6001600160a01b0316816001600160a01b0316837f2f8788117e7eff1d82e926ec794901d17c78024a50270940304540a733656f0d60405160405180910390a45050565b610f35806100dc6000396000f3fe608060405234801561001057600080fd5b50600436106101005760003560e01c806391d1485411610097578063c49baebe11610066578063c49baebe14610282578063c84fdb34146102a9578063cb1c2b5c146102c9578063d547741f146102d957600080fd5b806391d1485414610234578063a217fddf14610247578063aa7355781461024f578063abfc56921461026f57600080fd5b80632e73288e116100d35780632e73288e146101c15780632f2ff15d146101f957806336568abe1461020e5780634c7b87101461022157600080fd5b806301ffc9a71461010557806314552f261461012d5780631a16b4de14610143578063248a9ca31461019e575b600080fd5b610118610113366004610b26565b6102ec565b60405190151581526020015b60405180910390f35b610135604681565b604051908152602001610124565b61017c610151366004610b50565b6001602081905260009182526040909120805491810154600282015460039092015490919060ff1684565b6040805194855260208501939093529183015215156060820152608001610124565b6101356101ac366004610b50565b60009081526020819052604090206001015490565b61017c6101cf366004610b50565b60036020526000908152604090208054600182015460048301546005909301549192909160ff1684565b61020c610207366004610b85565b610323565b005b61020c61021c366004610b85565b61034d565b61020c61022f366004610bb1565b6103d0565b610118610242366004610b85565b6105f8565b610135600081565b61013561025d366004610be6565b60026020526000908152604090205481565b61020c61027d366004610cb8565b610621565b6101357f21702c8af46127c7fa207f89d0b0a8441bb32959a0ac7df790e9ab1a25c9892681565b6101356102b7366004610b50565b60046020526000908152604090205481565b610135683635c9adc5dea0000081565b61020c6102e7366004610b85565b610737565b60006001600160e01b03198216637965db0b60e01b148061031d57506301ffc9a760e01b6001600160e01b03198316145b92915050565b60008281526020819052604090206001015461033e8161075c565b6103488383610769565b505050565b6001600160a01b03811633146103c25760405162461bcd60e51b815260206004820152602f60248201527f416363657373436f6e74726f6c3a2063616e206f6e6c792072656e6f756e636560448201526e103937b632b9903337b91039b2b63360891b60648201526084015b60405180910390fd5b6103cc82826107ed565b5050565b6103fa7f21702c8af46127c7fa207f89d0b0a8441bb32959a0ac7df790e9ab1a25c98926336105f8565b6104385760405162461bcd60e51b815260206004820152600f60248201526e2737ba1030903b30b634b230ba37b960891b60448201526064016103b9565b6000828152600160205260409020600381015460ff16156104915760405162461bcd60e51b815260206004820152601360248201527256616c69646174696f6e20636f6d706c65746560681b60448201526064016103b9565b33600090815260026020526040902054683635c9adc5dea000008110156104ef5760405162461bcd60e51b8152602060048201526012602482015271496e73756666696369656e74207374616b6560701b60448201526064016103b9565b821561050f57808260010160008282546105099190610da1565b90915550505b808260000160008282546105239190610da1565b90915550503360008181526004840160209081526040918290208490558151928352820183905285917f65586f927709161fa53840018659ef9717fe9682f2a187c28291a97e9654edd0910160405180910390a28154156105f2578154600183015460009190610594906064610db4565b61059e9190610dcb565b9050604681106105f05760038301805460ff1916600190811790915560405190815285907fa668712c0b8f59efdf687dfbc672df6d8a1ab624717f5dfd9a794099f3ad48849060200160405180910390a25b505b50505050565b6000918252602082815260408084206001600160a01b0393909316845291905290205460ff1690565b600061062c8161075c565b6000848152600360205260409020600581015460ff16156106875760405162461bcd60e51b815260206004820152601560248201527453746174652075706461746520636f6d706c65746560581b60448201526064016103b9565b825160208401206000906001830181905585519091506106b09060028401906020880190610ac6565b5042600483015560405181815286907ff903ab9b67310e1eee6c0feb17a6774bdd3728e4511de359c0f5321a497f56189060200160405180910390a260005b855181101561072e5761071c86828151811061070d5761070d610ded565b60200260200101518884610852565b8061072681610e03565b9150506106ef565b50505050505050565b6000828152602081905260409020600101546107528161075c565b61034883836107ed565b61076681336108b8565b50565b61077382826105f8565b6103cc576000828152602081815260408083206001600160a01b03851684529091529020805460ff191660011790556107a93390565b6001600160a01b0316816001600160a01b0316837f2f8788117e7eff1d82e926ec794901d17c78024a50270940304540a733656f0d60405160405180910390a45050565b6107f782826105f8565b156103cc576000828152602081815260408083206001600160a01b0385168085529252808320805460ff1916905551339285917ff6391f5c32d9c69d2a47ea670b442974b53935d1edc7fd64eb21e047a839171b9190a45050565b60008381526004602090815260408083208490558483526003808352818420878552908101909252808320805460ff19166001179055519091849186917fe2a2dfa98e1694b1f68d6a2d6c8a2527485ba4557afa6af2a6d79cc0d565480091a350505050565b6108c282826105f8565b6103cc576108cf81610911565b6108da836020610923565b6040516020016108eb929190610e40565b60408051601f198184030181529082905262461bcd60e51b82526103b991600401610eb5565b606061031d6001600160a01b03831660145b60606000610932836002610db4565b61093d906002610da1565b67ffffffffffffffff81111561095557610955610c01565b6040519080825280601f01601f19166020018201604052801561097f576020820181803683370190505b509050600360fc1b8160008151811061099a5761099a610ded565b60200101906001600160f81b031916908160001a905350600f60fb1b816001815181106109c9576109c9610ded565b60200101906001600160f81b031916908160001a90535060006109ed846002610db4565b6109f8906001610da1565b90505b6001811115610a70576f181899199a1a9b1b9c1cb0b131b232b360811b85600f1660108110610a2c57610a2c610ded565b1a60f81b828281518110610a4257610a42610ded565b60200101906001600160f81b031916908160001a90535060049490941c93610a6981610ee8565b90506109fb565b508315610abf5760405162461bcd60e51b815260206004820181905260248201527f537472696e67733a20686578206c656e67746820696e73756666696369656e7460448201526064016103b9565b9392505050565b828054828255906000526020600020908101928215610b01579160200282015b82811115610b01578251825591602001919060010190610ae6565b50610b0d929150610b11565b5090565b5b80821115610b0d5760008155600101610b12565b600060208284031215610b3857600080fd5b81356001600160e01b031981168114610abf57600080fd5b600060208284031215610b6257600080fd5b5035919050565b80356001600160a01b0381168114610b8057600080fd5b919050565b60008060408385031215610b9857600080fd5b82359150610ba860208401610b69565b90509250929050565b60008060408385031215610bc457600080fd5b8235915060208301358015158114610bdb57600080fd5b809150509250929050565b600060208284031215610bf857600080fd5b610abf82610b69565b634e487b7160e01b600052604160045260246000fd5b604051601f8201601f1916810167ffffffffffffffff81118282101715610c4057610c40610c01565b604052919050565b600082601f830112610c5957600080fd5b813567ffffffffffffffff811115610c7357610c73610c01565b610c86601f8201601f1916602001610c17565b818152846020838601011115610c9b57600080fd5b816020850160208301376000918101602001919091529392505050565b600080600060608486031215610ccd57600080fd5b8335925060208085013567ffffffffffffffff80821115610ced57600080fd5b818701915087601f830112610d0157600080fd5b813581811115610d1357610d13610c01565b8060051b610d22858201610c17565b918252838101850191858101908b841115610d3c57600080fd5b948601945b83861015610d5a57853582529486019490860190610d41565b97505050506040870135925080831115610d7357600080fd5b5050610d8186828701610c48565b9150509250925092565b634e487b7160e01b600052601160045260246000fd5b8082018082111561031d5761031d610d8b565b808202811582820484141761031d5761031d610d8b565b600082610de857634e487b7160e01b600052601260045260246000fd5b500490565b634e487b7160e01b600052603260045260246000fd5b600060018201610e1557610e15610d8b565b5060010190565b60005b83811015610e37578181015183820152602001610e1f565b50506000910152565b7f416363657373436f6e74726f6c3a206163636f756e7420000000000000000000815260008351610e78816017850160208801610e1c565b7001034b99036b4b9b9b4b733903937b6329607d1b6017918401918201528351610ea9816028840160208801610e1c565b01602801949350505050565b6020815260008251806020840152610ed4816040850160208701610e1c565b601f01601f19169190910160400192915050565b600081610ef757610ef7610d8b565b50600019019056fea26469706673582212208d1bcfb0a39b3ec5910f2824ae0ad1dec6848567708d51abe01bff881329c32964736f6c63430008110033",
  "immutableReferences": {},
  "source": "// SPDX-License-Identifier: MIT\npragma solidity ^0.8.0;\n\nimport \"@openzeppelin/contracts/security/ReentrancyGuard.sol\";\nimport \"@openzeppelin/contracts/access/AccessControl.sol\";\n\n/**\n * @title MerkleTreeLib\n * @dev Library for Merkle tree operations\n */\nlibrary MerkleTreeLib {\n    struct MerkleTree {\n        bytes32 root;\n        mapping(bytes32 => bool) verified;\n    }\n\n    function verifyProof(\n        bytes32 root,\n        bytes32 leaf,\n        bytes32[] memory proof\n    ) internal pure returns (bool) {\n        bytes32 computedHash = leaf;\n        \n        for (uint256 i = 0; i < proof.length; i++) {\n            computedHash = hashPair(computedHash, proof[i]);\n        }\n        \n        return computedHash == root;\n    }\n    \n    function hashPair(bytes32 a, bytes32 b) internal pure returns (bytes32) {\n        return keccak256(abi.encodePacked(a, b));\n    }\n}\n\n/**\n * @title RelayTypes\n * @dev Core data structures for relay chain operations\n */\nlibrary RelayTypes {\n    struct Transaction {\n        bytes32 id;\n        address sourceBridge;\n        address targetBridge;\n        bytes32 originalTxHash;\n        bytes metadata;\n        bytes32 merkleRoot;\n        uint256 timestamp;\n        bool isValidated;\n        bool isStateUpdated;\n        bool isRelayed;\n    }\n\n    struct StateUpdate {\n        bytes32 txId;\n        bytes32 merkleRoot;\n        bytes32[] affectedChains;\n        mapping(bytes32 => bool) notificationStatus;\n        uint256 updateTime;\n        bool isComplete;\n    }\n\n    struct ValidationState {\n        uint256 totalStake;\n        uint256 approvalStake;\n        uint256 startTime;\n        bool isComplete;\n        mapping(address => uint256) validatorStakes;\n    }\n}\n\n/**\n * @title ProofOfStakeValidator\n * @dev Manages PoS validation for relay chain\n */\ncontract ProofOfStakeValidator is AccessControl {\n    using RelayTypes for RelayTypes.Transaction;\n    using RelayTypes for RelayTypes.ValidationState;\n    using MerkleTreeLib for MerkleTreeLib.MerkleTree;\n\n    bytes32 public constant VALIDATOR_ROLE = keccak256(\"VALIDATOR_ROLE\");\n    \n    mapping(bytes32 => RelayTypes.ValidationState) public validationStates;\n    mapping(address => uint256) public validatorStakes;\n    \n    uint256 public constant MIN_STAKE = 1000 ether;\n    uint256 public constant VALIDATION_THRESHOLD = 70; // 70% stake approval needed\n    \n    event ValidationSubmitted(bytes32 indexed txId, address validator, uint256 stake);\n    event ValidationComplete(bytes32 indexed txId, bool isValid);\n    \n    constructor() {\n        _setupRole(DEFAULT_ADMIN_ROLE, msg.sender);\n    }\n    \n    function submitValidation(\n        bytes32 txId,\n        bool approval\n    ) external {\n        require(hasRole(VALIDATOR_ROLE, msg.sender), \"Not a validator\");\n        \n        RelayTypes.ValidationState storage validationState = validationStates[txId];\n        require(!validationState.isComplete, \"Validation complete\");\n        \n        uint256 stake = validatorStakes[msg.sender];\n        require(stake >= MIN_STAKE, \"Insufficient stake\");\n        \n        if (approval) {\n            validationState.approvalStake += stake;\n        }\n        validationState.totalStake += stake;\n        validationState.validatorStakes[msg.sender] = stake;\n        \n        emit ValidationSubmitted(txId, msg.sender, stake);\n        \n        // Check if validation threshold is met\n        if (validationState.totalStake > 0) {\n            uint256 approvalPercentage = (validationState.approvalStake * 100) / \n                                        validationState.totalStake;\n            \n            if (approvalPercentage >= VALIDATION_THRESHOLD) {\n                validationState.isComplete = true;\n                emit ValidationComplete(txId, true);\n            }\n        }\n    }\n}\n\n/**\n * @title StateManager\n * @dev Handles state updates and Merkle tree management\n */\ncontract StateManager is ProofOfStakeValidator {\n    using MerkleTreeLib for MerkleTreeLib.MerkleTree;\n    \n    mapping(bytes32 => RelayTypes.StateUpdate) public stateUpdates;\n    mapping(bytes32 => bytes32) public chainStates;\n    \n    event StateUpdateInitiated(bytes32 indexed txId, bytes32 merkleRoot);\n    event ChainNotified(bytes32 indexed chainId, bytes32 indexed txId);\n    event StateUpdateComplete(bytes32 indexed txId);\n    \n    function updateState(\n        bytes32 txId,\n        bytes32[] memory affectedChains,\n        bytes memory txData\n    ) external onlyRole(DEFAULT_ADMIN_ROLE) {\n        RelayTypes.StateUpdate storage update = stateUpdates[txId];\n        require(!update.isComplete, \"State update complete\");\n        \n        bytes32 merkleRoot = createMerkleRoot(txData);\n        update.merkleRoot = merkleRoot;\n        update.affectedChains = affectedChains;\n        update.updateTime = block.timestamp;\n        \n        emit StateUpdateInitiated(txId, merkleRoot);\n        \n        for (uint256 i = 0; i < affectedChains.length; i++) {\n            notifyChain(affectedChains[i], txId, merkleRoot);\n        }\n    }\n    \n    function notifyChain(\n        bytes32 chainId,\n        bytes32 txId,\n        bytes32 merkleRoot\n    ) internal {\n        chainStates[chainId] = merkleRoot;\n        RelayTypes.StateUpdate storage update = stateUpdates[txId];\n        update.notificationStatus[chainId] = true;\n        \n        emit ChainNotified(chainId, txId);\n    }\n    \n    function createMerkleRoot(\n        bytes memory data\n    ) internal pure returns (bytes32) {\n        return keccak256(data);\n    }\n}\n\n/**\n * @title TransactionRelay\n * @dev Manages final transaction relay to receiving blockchain\n */\ncontract TransactionRelay is StateManager, ReentrancyGuard {\n    struct RelayedTransaction {\n        bytes32 txId;\n        bytes originalMetadata;\n        bytes enrichedData;\n        uint256 relayTime;\n        bool isComplete;\n    }\n    \n    mapping(bytes32 => RelayedTransaction) public relayedTransactions;\n    \n    event TransactionRelayed(\n        bytes32 indexed txId,\n        address indexed targetBridge,\n        bytes32 merkleRoot\n    );\n    \n    function relayTransaction(\n        bytes32 txId,\n        address targetBridge,\n        bytes memory originalMetadata,\n        bytes memory enrichedData\n    ) external nonReentrant onlyRole(DEFAULT_ADMIN_ROLE) {\n        require(\n            validationStates[txId].isComplete,\n            \"Validation incomplete\"\n        );\n        require(\n            stateUpdates[txId].isComplete,\n            \"State update incomplete\"\n        );\n        \n        RelayedTransaction storage relayedTx = relayedTransactions[txId];\n        require(!relayedTx.isComplete, \"Already relayed\");\n        \n        relayedTx.txId = txId;\n        relayedTx.originalMetadata = originalMetadata;\n        relayedTx.enrichedData = enrichedData;\n        relayedTx.relayTime = block.timestamp;\n        relayedTx.isComplete = true;\n        \n        emit TransactionRelayed(\n            txId,\n            targetBridge,\n            stateUpdates[txId].merkleRoot\n        );\n    }\n}\n\n/**\n * @title ReceivingBlockchainInterface\n * @dev Interface for receiving blockchain to process relayed transactions\n */\ncontract ReceivingBlockchainInterface is ReentrancyGuard {\n    struct ReceivedTransaction {\n        bytes32 txId;\n        bytes32 merkleRoot;\n        bytes metadata;\n        bytes enrichedData;\n        uint256 receiveTime;\n        bool isProcessed;\n    }\n    \n    mapping(bytes32 => ReceivedTransaction) public receivedTransactions;\n    \n    event TransactionReceived(bytes32 indexed txId, bytes32 merkleRoot);\n    event TransactionProcessed(bytes32 indexed txId);\n    \n    function receiveTransaction(\n        bytes32 txId,\n        bytes32 merkleRoot,\n        bytes memory metadata,\n        bytes memory enrichedData\n    ) external nonReentrant {\n        ReceivedTransaction storage receivedTx = receivedTransactions[txId];\n        require(!receivedTx.isProcessed, \"Already processed\");\n        \n        receivedTx.txId = txId;\n        receivedTx.merkleRoot = merkleRoot;\n        receivedTx.metadata = metadata;\n        receivedTx.enrichedData = enrichedData;\n        receivedTx.receiveTime = block.timestamp;\n        \n        emit TransactionReceived(txId, merkleRoot);\n        \n        processTransaction(txId);\n    }\n    \n    function processTransaction(bytes32 txId) internal {\n        ReceivedTransaction storage receivedTx = receivedTransactions[txId];\n        receivedTx.isProcessed = true;\n        \n        emit TransactionProcessed(txId);\n    }\n}",
  "sourcePath": "C:\\Users\\Bonsu\\Documents\\crosschainproject\\contracts\\relay\\RelayChain.sol",
  "compiler": {
    "name": "solc",
    "version": "0.8.17+commit.8df45f5f.Emscripten.clang"
  },
  "schemaVersion": "3.4.16",
  "updatedAt": "2025-02-07T14:38:23.706Z",
  "networkType": "ethereum",
  "devdoc": {
    "details": "Handles state updates and Merkle tree management",
    "kind": "dev",
    "methods": {
      "getRoleAdmin(bytes32)": {
        "details": "Returns the admin role that controls `role`. See {grantRole} and {revokeRole}. To change a role's admin, use {_setRoleAdmin}."
      },
      "grantRole(bytes32,address)": {
        "details": "Grants `role` to `account`. If `account` had not been already granted `role`, emits a {RoleGranted} event. Requirements: - the caller must have ``role``'s admin role. May emit a {RoleGranted} event."
      },
      "hasRole(bytes32,address)": {
        "details": "Returns `true` if `account` has been granted `role`."
      },
      "renounceRole(bytes32,address)": {
        "details": "Revokes `role` from the calling account. Roles are often managed via {grantRole} and {revokeRole}: this function's purpose is to provide a mechanism for accounts to lose their privileges if they are compromised (such as when a trusted device is misplaced). If the calling account had been revoked `role`, emits a {RoleRevoked} event. Requirements: - the caller must be `account`. May emit a {RoleRevoked} event."
      },
      "revokeRole(bytes32,address)": {
        "details": "Revokes `role` from `account`. If `account` had been granted `role`, emits a {RoleRevoked} event. Requirements: - the caller must have ``role``'s admin role. May emit a {RoleRevoked} event."
      },
      "supportsInterface(bytes4)": {
        "details": "See {IERC165-supportsInterface}."
      }
    },
    "title": "StateManager",
    "version": 1
  },
  "userdoc": {
    "kind": "user",
    "methods": {},
    "version": 1
  }
}