{
  "contractName": "TransactionValidator",
  "abi": [
    {
      "anonymous": false,
      "inputs": [
        {
          "indexed": true,
          "internalType": "bytes32",
          "name": "txId",
          "type": "bytes32"
        }
      ],
      "name": "ProofMismatch",
      "type": "event"
    },
    {
      "anonymous": false,
      "inputs": [
        {
          "indexed": true,
          "internalType": "bytes32",
          "name": "txId",
          "type": "bytes32"
        },
        {
          "indexed": false,
          "internalType": "bool",
          "name": "isVirtual",
          "type": "bool"
        },
        {
          "indexed": false,
          "internalType": "bool",
          "name": "isValid",
          "type": "bool"
        }
      ],
      "name": "ProofVerified",
      "type": "event"
    },
    {
      "anonymous": false,
      "inputs": [
        {
          "indexed": true,
          "internalType": "bytes32",
          "name": "txId",
          "type": "bytes32"
        }
      ],
      "name": "ValidationTimeout",
      "type": "event"
    },
    {
      "inputs": [],
      "name": "MIN_CONFIDENCE_SCORE",
      "outputs": [
        {
          "internalType": "uint256",
          "name": "",
          "type": "uint256"
        }
      ],
      "stateMutability": "view",
      "type": "function"
    },
    {
      "inputs": [],
      "name": "VERIFICATION_TIMEOUT",
      "outputs": [
        {
          "internalType": "uint256",
          "name": "",
          "type": "uint256"
        }
      ],
      "stateMutability": "view",
      "type": "function"
    },
    {
      "inputs": [
        {
          "internalType": "bytes32",
          "name": "",
          "type": "bytes32"
        }
      ],
      "name": "confirmableTxProofs",
      "outputs": [
        {
          "internalType": "bytes32",
          "name": "a",
          "type": "bytes32"
        },
        {
          "internalType": "bytes32",
          "name": "b",
          "type": "bytes32"
        },
        {
          "internalType": "bytes32",
          "name": "c",
          "type": "bytes32"
        },
        {
          "internalType": "uint256",
          "name": "timestamp",
          "type": "uint256"
        },
        {
          "internalType": "bool",
          "name": "isVerified",
          "type": "bool"
        }
      ],
      "stateMutability": "view",
      "type": "function"
    },
    {
      "inputs": [
        {
          "internalType": "bytes32",
          "name": "",
          "type": "bytes32"
        },
        {
          "internalType": "uint256",
          "name": "",
          "type": "uint256"
        }
      ],
      "name": "constraints",
      "outputs": [
        {
          "internalType": "bytes32",
          "name": "left",
          "type": "bytes32"
        },
        {
          "internalType": "bytes32",
          "name": "right",
          "type": "bytes32"
        },
        {
          "internalType": "bytes32",
          "name": "output",
          "type": "bytes32"
        }
      ],
      "stateMutability": "view",
      "type": "function"
    },
    {
      "inputs": [
        {
          "internalType": "bytes32",
          "name": "",
          "type": "bytes32"
        }
      ],
      "name": "validationStates",
      "outputs": [
        {
          "internalType": "bool",
          "name": "isValidated",
          "type": "bool"
        },
        {
          "internalType": "uint256",
          "name": "confidenceScore",
          "type": "uint256"
        },
        {
          "internalType": "uint256",
          "name": "validationTimestamp",
          "type": "uint256"
        },
        {
          "internalType": "bool",
          "name": "hasTimeoutOccurred",
          "type": "bool"
        }
      ],
      "stateMutability": "view",
      "type": "function"
    },
    {
      "inputs": [
        {
          "internalType": "bytes32",
          "name": "",
          "type": "bytes32"
        }
      ],
      "name": "verificationKeys",
      "outputs": [
        {
          "internalType": "bytes32",
          "name": "alpha",
          "type": "bytes32"
        },
        {
          "internalType": "bytes32",
          "name": "beta",
          "type": "bytes32"
        },
        {
          "internalType": "bytes32",
          "name": "gamma",
          "type": "bytes32"
        },
        {
          "internalType": "bytes32",
          "name": "delta",
          "type": "bytes32"
        }
      ],
      "stateMutability": "view",
      "type": "function"
    },
    {
      "inputs": [
        {
          "internalType": "bytes32",
          "name": "",
          "type": "bytes32"
        }
      ],
      "name": "virtualTxProofs",
      "outputs": [
        {
          "internalType": "bytes32",
          "name": "a",
          "type": "bytes32"
        },
        {
          "internalType": "bytes32",
          "name": "b",
          "type": "bytes32"
        },
        {
          "internalType": "bytes32",
          "name": "c",
          "type": "bytes32"
        },
        {
          "internalType": "uint256",
          "name": "timestamp",
          "type": "uint256"
        },
        {
          "internalType": "bool",
          "name": "isVerified",
          "type": "bool"
        }
      ],
      "stateMutability": "view",
      "type": "function"
    },
    {
      "inputs": [
        {
          "internalType": "bytes32",
          "name": "txId",
          "type": "bytes32"
        },
        {
          "internalType": "bytes",
          "name": "input",
          "type": "bytes"
        },
        {
          "internalType": "bytes",
          "name": "witness",
          "type": "bytes"
        },
        {
          "internalType": "bool",
          "name": "isVirtual",
          "type": "bool"
        }
      ],
      "name": "generateProof",
      "outputs": [
        {
          "internalType": "bytes32",
          "name": "",
          "type": "bytes32"
        }
      ],
      "stateMutability": "nonpayable",
      "type": "function"
    },
    {
      "inputs": [
        {
          "internalType": "bytes32",
          "name": "txId",
          "type": "bytes32"
        },
        {
          "internalType": "bytes",
          "name": "metadata",
          "type": "bytes"
        }
      ],
      "name": "validateTransaction",
      "outputs": [
        {
          "internalType": "bool",
          "name": "",
          "type": "bool"
        }
      ],
      "stateMutability": "nonpayable",
      "type": "function"
    }
  ],
  "bytecode": "0x608060405234801561001057600080fd5b506001600355610caf806100256000396000f3fe608060405234801561001057600080fd5b50600436106100935760003560e01c80633ee34901116100665780633ee349011461017257806355c6de27146101a05780638a87ba01146101b3578063efd788931461021d578063f29ae1f31461025c57600080fd5b806308a5f0c31461009857806308adb80b146100b45780631a16b4de1461010b5780631e1d6e1d14610169575b600080fd5b6100a16102bc81565b6040519081526020015b60405180910390f35b6100eb6100c23660046109d9565b600260208190526000918252604090912080546001820154928201546003909201549092919084565b6040805194855260208501939093529183015260608201526080016100ab565b6101456101193660046109d9565b600560205260009081526040902080546001820154600283015460039093015460ff9283169391921684565b604080519415158552602085019390935291830152151560608201526080016100ab565b6100a1610e1081565b6101856101803660046109f2565b61027f565b604080519384526020840192909252908201526060016100ab565b6100a16101ae366004610ab7565b6102c1565b6101f36101c13660046109d9565b600060208190529081526040902080546001820154600283015460038401546004909401549293919290919060ff1685565b6040805195865260208601949094529284019190915260608301521515608082015260a0016100ab565b6101f361022b3660046109d9565b6001602081905260009182526040909120805491810154600282015460038301546004909301549192909160ff1685565b61026f61026a366004610b3c565b6103de565b60405190151581526020016100ab565b6004602052816000526040600020818154811061029b57600080fd5b600091825260209091206003909102018054600182015460029092015490935090915083565b60006102cb610659565b60006102d785856106b2565b9050821561032d5760008681526020818152604091829020835181559083015160018201559082015160028201556060820151600382015560808201516004909101805460ff191691151591909117905561037b565b6000868152600160208181526040928390208451815590840151918101919091559082015160028201556060820151600382015560808201516004909101805460ff19169115159190911790555b6000610387878361078f565b604080518615158152821515602082015291925088917fc337db54790e59283230acf5053afaa6e3e8ad290f68e80a0e6df2fe362d18e2910160405180910390a2505190506103d66001600355565b949350505050565b60006103e8610659565b6000838152600560205260409020805460ff161561044d5760405162461bcd60e51b815260206004820152601d60248201527f5472616e73616374696f6e20616c72656164792076616c69646174656400000060448201526064015b60405180910390fd5b600084815260208181526040808320600190925290912060038201541580159061047b575060008160030154115b6104b85760405162461bcd60e51b815260206004820152600e60248201526d4d697373696e672070726f6f667360901b6044820152606401610444565b610e1081600301546104ca9190610b99565b4211156105175760038301805460ff1916600117905560405186907f731ecaaf3e99aec332ea6de74d57f89e4747a914345d3204abc9c9eee425fc3990600090a260009350505050610649565b60006105bf836040518060a0016040529081600082015481526020016001820154815260200160028201548152602001600382015481526020016004820160009054906101000a900460ff161515151581525050836040518060a0016040529081600082015481526020016001820154815260200160028201548152602001600382015481526020016004820160009054906101000a900460ff16151515158152505061080f565b9050806105fe5760405187907f155e602eef1ea7593c4c1bdf91b5a020fc61179a9d4e2773199a71a0e73d2bf390600090a26000945050505050610649565b600061060a888861088f565b90506102bc81101561062457600095505050505050610649565b845460ff19166001908117865585810191909155426002909501949094555091925050505b6106536001600355565b92915050565b6002600354036106ab5760405162461bcd60e51b815260206004820152601f60248201527f5265656e7472616e637947756172643a207265656e7472616e742063616c6c006044820152606401610444565b6002600355565b6040805160a081018252600080825260208201819052918101829052606081018290526080810191909152600083836040516020016106f2929190610bdc565b6040516020818303038152906040528051906020012090506000848460405160200161071f929190610bfb565b6040516020818303038152906040528051906020012090506000858560405160200161074c929190610c14565b60408051808303601f19018152828252805160209182012060a0840183529583528201939093529182019290925242606082015260006080820152949350505050565b6000828152600260208181526040808420805460018201549482015460038301548851898701518a8701518751808a0196909652858801999099526060850193909352608084019190915260a083015260c082015260e08082019590955282518082039095018552610100019091528251929091019190912015156103d6565b8051602080830151604080850151815193840194909452820152606081019190915260009060800160408051601f1981840301815282825280516020918201208651878301518885015193860191909152928401929092526060830152906080016040516020818303038152906040528051906020012014905092915050565b6000828152602081815260408083206001808452828520835160a080820186528454825283850154828801526002808601548388015260038087015460608086019190915260048089015460ff90811615156080808901919091528b519687018c5288548752988801549b86019b909b52928601549884019890985284015496820196909652948201549095161515918401919091526101909361012c9384939291879161093d919061080f565b61094857600061094a565b855b90506000836003015483600301546109629190610c2d565b90506000610e10821115610977576000610998565b610e106109848382610c2d565b61098e9089610c40565b6109989190610c57565b8a5160208c01209091506000906109b05760006109b2565b865b9050806109bf8386610b99565b6109c99190610b99565b9c9b505050505050505050505050565b6000602082840312156109eb57600080fd5b5035919050565b60008060408385031215610a0557600080fd5b50508035926020909101359150565b634e487b7160e01b600052604160045260246000fd5b600082601f830112610a3b57600080fd5b813567ffffffffffffffff80821115610a5657610a56610a14565b604051601f8301601f19908116603f01168101908282118183101715610a7e57610a7e610a14565b81604052838152866020858801011115610a9757600080fd5b836020870160208301376000602085830101528094505050505092915050565b60008060008060808587031215610acd57600080fd5b84359350602085013567ffffffffffffffff80821115610aec57600080fd5b610af888838901610a2a565b94506040870135915080821115610b0e57600080fd5b50610b1b87828801610a2a565b92505060608501358015158114610b3157600080fd5b939692955090935050565b60008060408385031215610b4f57600080fd5b82359150602083013567ffffffffffffffff811115610b6d57600080fd5b610b7985828601610a2a565b9150509250929050565b634e487b7160e01b600052601160045260246000fd5b8082018082111561065357610653610b83565b6000815160005b81811015610bcd5760208185018101518683015201610bb3565b50600093019283525090919050565b604160f81b815260006103d6610bf56001840186610bac565b84610bac565b602160f91b815260006103d6610bf56001840186610bac565b604360f81b815260006103d6610bf56001840186610bac565b8181038181111561065357610653610b83565b808202811582820484141761065357610653610b83565b600082610c7457634e487b7160e01b600052601260045260246000fd5b50049056fea26469706673582212202cc5631db7a3cc5f947fe901b9c0fbc8fbfad7f0a6e7ca78771b01f38d58f9dc64736f6c63430008110033",
  "immutableReferences": {},
  "source": "// SPDX-License-Identifier: MIT\npragma solidity ^0.8.0;\n\nimport \"@openzeppelin/contracts/security/ReentrancyGuard.sol\";\nimport \"@openzeppelin/contracts/access/AccessControl.sol\";\n\n/**\n * @title IZKPVerifier\n * @dev Interface for ZK-SNARK verification functions\n */\ninterface IZKPVerifier {\n    function generateProof(bytes32 txId, bytes memory input, bytes memory witness, bool isVirtual) external returns (bytes32);\n    function validateTransaction(bytes32 txId, bytes memory metadata) external returns (bool);\n}\n\n/**\n * @title ZKPVerifierBase\n * @dev Base contract for ZK-SNARK verification\n */\nabstract contract ZKPVerifierBase {\n    // Verification key structure\n    struct VerificationKey {\n        bytes32 alpha;\n        bytes32 beta;\n        bytes32 gamma;\n        bytes32 delta;\n        mapping(uint256 => bytes32) ic; // Input commitments\n    }\n\n    // Proof structure\n    struct Proof {\n        bytes32 a;\n        bytes32 b;\n        bytes32 c;\n        uint256 timestamp;\n        bool isVerified;\n    }\n\n    // Transaction proof mapping\n    mapping(bytes32 => Proof) public virtualTxProofs;     // P_VT proofs\n    mapping(bytes32 => Proof) public confirmableTxProofs; // P_CT proofs\n    \n    // Verification keys\n    mapping(bytes32 => VerificationKey) public verificationKeys;\n    \n    // Constants\n    uint256 public constant VERIFICATION_TIMEOUT = 1 hours;\n    uint256 public constant MIN_CONFIDENCE_SCORE = 700; // 70%\n    \n    // Events\n    event ProofVerified(bytes32 indexed txId, bool isVirtual, bool isValid);\n    event ProofMismatch(bytes32 indexed txId);\n    event ValidationTimeout(bytes32 indexed txId);\n\n    /**\n     * @dev Base verification function for proofs\n     */\nfunction verifyProof(\n    bytes32 txId,\n    Proof memory proof\n) internal view virtual returns (bool) {\n    VerificationKey storage vk = verificationKeys[txId];\n    return verification_g16(\n        vk.alpha,\n        vk.beta,\n        vk.gamma,\n        vk.delta,\n        proof.a,\n        proof.b,\n        proof.c\n    );\n}\n\n    function verification_g16(\n        bytes32 alpha,\n        bytes32 beta,\n        bytes32 gamma,\n        bytes32 delta,\n        bytes32 a,\n        bytes32 b,\n        bytes32 c\n    ) internal pure returns (bool) {\n        return uint256(keccak256(abi.encodePacked(\n            alpha, beta, gamma, delta, a, b, c\n        ))) != 0;\n    }\n\n    function verifyProofConvergence(\n        Proof memory virtualProof,\n        Proof memory confirmableProof\n    ) internal pure returns (bool) {\n        return keccak256(abi.encodePacked(\n            virtualProof.a,\n            virtualProof.b,\n            virtualProof.c\n        )) == keccak256(abi.encodePacked(\n            confirmableProof.a,\n            confirmableProof.b,\n            confirmableProof.c\n        ));\n    }\n}\n\n/**\n * @title ProofGenerator\n * @dev Handles ZK-SNARK proof generation and validation\n */\nabstract contract ProofGenerator is ZKPVerifierBase, ReentrancyGuard {\n    struct Constraint {\n        bytes32 left;\n        bytes32 right;\n        bytes32 output;\n    }\n    \n    mapping(bytes32 => Constraint[]) public constraints;\n    \n    function computeZKProof(\n    bytes memory input,\n    bytes memory witness\n) internal view returns (Proof memory) {\n    bytes32 a = keccak256(abi.encodePacked(\"A\", input, witness));\n    bytes32 b = keccak256(abi.encodePacked(\"B\", input, witness));\n    bytes32 c = keccak256(abi.encodePacked(\"C\", input, witness));\n    \n    return Proof({\n        a: a,\n        b: b,\n        c: c,\n        timestamp: block.timestamp,\n        isVerified: false\n    });\n}\n}\n\n/**\n * @title TransactionValidator\n * @dev Handles validation of virtual and confirmable transactions\n */\ncontract TransactionValidator is ProofGenerator, IZKPVerifier {\n    struct ValidationState {\n        bool isValidated;\n        uint256 confidenceScore;\n        uint256 validationTimestamp;\n        bool hasTimeoutOccurred;\n    }\n    \n    mapping(bytes32 => ValidationState) public validationStates;\n    \n    function generateProof(\n        bytes32 txId,\n        bytes memory input,\n        bytes memory witness,\n        bool isVirtual\n    ) external override nonReentrant returns (bytes32) {\n        Proof memory proof = computeZKProof(input, witness);\n        \n        if (isVirtual) {\n            virtualTxProofs[txId] = proof;\n        } else {\n            confirmableTxProofs[txId] = proof;\n        }\n        \n        bool isValid = verifyProof(txId, proof);\n        emit ProofVerified(txId, isVirtual, isValid);\n        \n        return proof.a;\n    }\n    \n    function validateTransaction(\n        bytes32 txId,\n        bytes memory metadata\n    ) external override nonReentrant returns (bool) {\n        ValidationState storage state = validationStates[txId];\n        require(!state.isValidated, \"Transaction already validated\");\n        \n        Proof storage virtualProof = virtualTxProofs[txId];\n        Proof storage confirmableProof = confirmableTxProofs[txId];\n        \n        require(virtualProof.timestamp > 0 && confirmableProof.timestamp > 0, \n                \"Missing proofs\");\n        \n        if (block.timestamp > confirmableProof.timestamp + VERIFICATION_TIMEOUT) {\n            state.hasTimeoutOccurred = true;\n            emit ValidationTimeout(txId);\n            return false;\n        }\n        \n        bool proofsMatch = verifyProofConvergence(virtualProof, confirmableProof);\n        if (!proofsMatch) {\n            emit ProofMismatch(txId);\n            return false;\n        }\n        \n        uint256 confidenceScore = calculateConfidenceScore(txId, metadata);\n        if (confidenceScore < MIN_CONFIDENCE_SCORE) {\n            return false;\n        }\n        \n        state.isValidated = true;\n        state.confidenceScore = confidenceScore;\n        state.validationTimestamp = block.timestamp;\n        \n        return true;\n    }\n    \n    function calculateConfidenceScore(\n    bytes32 txId,\n    bytes memory metadata\n) internal view returns (uint256) {\n    uint256 proofMatchScore = 400;\n    uint256 timelinessScore = 300;\n    uint256 metadataScore = 300;\n    \n    Proof storage virtualProof = virtualTxProofs[txId];\n    Proof storage confirmableProof = confirmableTxProofs[txId];\n    \n    uint256 matchScore = verifyProofConvergence(virtualProof, confirmableProof) ?\n        proofMatchScore : 0;\n        \n    uint256 timeDiff = confirmableProof.timestamp - virtualProof.timestamp;\n    uint256 timeScore = timeDiff <= VERIFICATION_TIMEOUT ?\n        timelinessScore * (VERIFICATION_TIMEOUT - timeDiff) / VERIFICATION_TIMEOUT : 0;\n        \n    uint256 metaScore = verifyMetadataConsistency(metadata) ?\n        metadataScore : 0;\n        \n    return matchScore + timeScore + metaScore;\n}\n    \n function verifyMetadataConsistency(\n    bytes memory metadata\n) internal pure returns (bool) {\n    return uint256(keccak256(metadata)) != 0;\n}\n}",
  "sourcePath": "C:\\Users\\Bonsu\\Documents\\crosschainproject\\contracts\\passchain\\ZKPVerifierBase.sol",
  "compiler": {
    "name": "solc",
    "version": "0.8.17+commit.8df45f5f.Emscripten.clang"
  },
  "schemaVersion": "3.4.16",
  "updatedAt": "2025-01-22T20:38:12.181Z",
  "devdoc": {
    "details": "Handles validation of virtual and confirmable transactions",
    "kind": "dev",
    "methods": {},
    "title": "TransactionValidator",
    "version": 1
  },
  "userdoc": {
    "kind": "user",
    "methods": {},
    "version": 1
  }
}