{
  "contractName": "UncertaintyAnalytics",
  "abi": [
    {
      "inputs": [],
      "stateMutability": "nonpayable",
      "type": "constructor"
    },
    {
      "anonymous": false,
      "inputs": [
        {
          "indexed": false,
          "internalType": "uint256",
          "name": "requestId",
          "type": "uint256"
        },
        {
          "indexed": false,
          "internalType": "uint256",
          "name": "cost",
          "type": "uint256"
        },
        {
          "indexed": false,
          "internalType": "string",
          "name": "costType",
          "type": "string"
        }
      ],
      "name": "CostRecorded",
      "type": "event"
    },
    {
      "anonymous": false,
      "inputs": [
        {
          "indexed": true,
          "internalType": "uint256",
          "name": "requestId",
          "type": "uint256"
        },
        {
          "indexed": false,
          "internalType": "address",
          "name": "requester",
          "type": "address"
        }
      ],
      "name": "RequestSubmitted",
      "type": "event"
    },
    {
      "anonymous": false,
      "inputs": [
        {
          "indexed": true,
          "internalType": "uint256",
          "name": "requestId",
          "type": "uint256"
        },
        {
          "indexed": false,
          "internalType": "address",
          "name": "responder",
          "type": "address"
        }
      ],
      "name": "ResponseReceived",
      "type": "event"
    },
    {
      "anonymous": false,
      "inputs": [
        {
          "indexed": true,
          "internalType": "uint256",
          "name": "requestId",
          "type": "uint256"
        },
        {
          "indexed": false,
          "internalType": "string",
          "name": "reason",
          "type": "string"
        }
      ],
      "name": "TransactionFailed",
      "type": "event"
    },
    {
      "inputs": [],
      "name": "BASE_COST",
      "outputs": [
        {
          "internalType": "uint256",
          "name": "",
          "type": "uint256"
        }
      ],
      "stateMutability": "view",
      "type": "function",
      "constant": true
    },
    {
      "inputs": [],
      "name": "MAX_PROCESSING_TIME",
      "outputs": [
        {
          "internalType": "uint256",
          "name": "",
          "type": "uint256"
        }
      ],
      "stateMutability": "view",
      "type": "function",
      "constant": true
    },
    {
      "inputs": [],
      "name": "dataHoldingCost",
      "outputs": [
        {
          "internalType": "uint256",
          "name": "",
          "type": "uint256"
        }
      ],
      "stateMutability": "view",
      "type": "function",
      "constant": true
    },
    {
      "inputs": [],
      "name": "disruptionLevel",
      "outputs": [
        {
          "internalType": "uint256",
          "name": "",
          "type": "uint256"
        }
      ],
      "stateMutability": "view",
      "type": "function",
      "constant": true
    },
    {
      "inputs": [],
      "name": "escalationLevel",
      "outputs": [
        {
          "internalType": "uint256",
          "name": "",
          "type": "uint256"
        }
      ],
      "stateMutability": "view",
      "type": "function",
      "constant": true
    },
    {
      "inputs": [],
      "name": "failedTransactionCount",
      "outputs": [
        {
          "internalType": "uint256",
          "name": "",
          "type": "uint256"
        }
      ],
      "stateMutability": "view",
      "type": "function",
      "constant": true
    },
    {
      "inputs": [],
      "name": "owner",
      "outputs": [
        {
          "internalType": "address",
          "name": "",
          "type": "address"
        }
      ],
      "stateMutability": "view",
      "type": "function",
      "constant": true
    },
    {
      "inputs": [],
      "name": "requestCount",
      "outputs": [
        {
          "internalType": "uint256",
          "name": "",
          "type": "uint256"
        }
      ],
      "stateMutability": "view",
      "type": "function",
      "constant": true
    },
    {
      "inputs": [
        {
          "internalType": "address",
          "name": "",
          "type": "address"
        }
      ],
      "name": "requesterStats",
      "outputs": [
        {
          "internalType": "uint256",
          "name": "",
          "type": "uint256"
        }
      ],
      "stateMutability": "view",
      "type": "function",
      "constant": true
    },
    {
      "inputs": [
        {
          "internalType": "uint256",
          "name": "",
          "type": "uint256"
        }
      ],
      "name": "requests",
      "outputs": [
        {
          "internalType": "uint256",
          "name": "id",
          "type": "uint256"
        },
        {
          "internalType": "address",
          "name": "requester",
          "type": "address"
        },
        {
          "internalType": "uint256",
          "name": "timestamp",
          "type": "uint256"
        },
        {
          "internalType": "uint256",
          "name": "confirmationTime",
          "type": "uint256"
        },
        {
          "internalType": "uint256",
          "name": "executionTime",
          "type": "uint256"
        },
        {
          "internalType": "uint256",
          "name": "cost",
          "type": "uint256"
        },
        {
          "internalType": "bool",
          "name": "isValid",
          "type": "bool"
        },
        {
          "internalType": "bool",
          "name": "isProcessed",
          "type": "bool"
        },
        {
          "internalType": "enum UncertaintyAnalytics.Status",
          "name": "status",
          "type": "uint8"
        }
      ],
      "stateMutability": "view",
      "type": "function",
      "constant": true
    },
    {
      "inputs": [
        {
          "internalType": "address",
          "name": "",
          "type": "address"
        }
      ],
      "name": "responderStats",
      "outputs": [
        {
          "internalType": "uint256",
          "name": "",
          "type": "uint256"
        }
      ],
      "stateMutability": "view",
      "type": "function",
      "constant": true
    },
    {
      "inputs": [],
      "name": "responseCount",
      "outputs": [
        {
          "internalType": "uint256",
          "name": "",
          "type": "uint256"
        }
      ],
      "stateMutability": "view",
      "type": "function",
      "constant": true
    },
    {
      "inputs": [
        {
          "internalType": "uint256",
          "name": "",
          "type": "uint256"
        }
      ],
      "name": "responses",
      "outputs": [
        {
          "internalType": "uint256",
          "name": "requestId",
          "type": "uint256"
        },
        {
          "internalType": "address",
          "name": "responder",
          "type": "address"
        },
        {
          "internalType": "uint256",
          "name": "timestamp",
          "type": "uint256"
        },
        {
          "internalType": "uint256",
          "name": "processingTime",
          "type": "uint256"
        },
        {
          "internalType": "uint256",
          "name": "cost",
          "type": "uint256"
        },
        {
          "internalType": "bool",
          "name": "isValid",
          "type": "bool"
        },
        {
          "internalType": "enum UncertaintyAnalytics.Status",
          "name": "status",
          "type": "uint8"
        }
      ],
      "stateMutability": "view",
      "type": "function",
      "constant": true
    },
    {
      "inputs": [],
      "name": "totalTransactionCost",
      "outputs": [
        {
          "internalType": "uint256",
          "name": "",
          "type": "uint256"
        }
      ],
      "stateMutability": "view",
      "type": "function",
      "constant": true
    },
    {
      "inputs": [],
      "name": "unavailabilityCost",
      "outputs": [
        {
          "internalType": "uint256",
          "name": "",
          "type": "uint256"
        }
      ],
      "stateMutability": "view",
      "type": "function",
      "constant": true
    },
    {
      "stateMutability": "payable",
      "type": "receive",
      "payable": true
    },
    {
      "inputs": [],
      "name": "submitRequest",
      "outputs": [
        {
          "internalType": "uint256",
          "name": "",
          "type": "uint256"
        }
      ],
      "stateMutability": "payable",
      "type": "function",
      "payable": true
    },
    {
      "inputs": [
        {
          "internalType": "uint256",
          "name": "_requestId",
          "type": "uint256"
        }
      ],
      "name": "submitResponse",
      "outputs": [],
      "stateMutability": "nonpayable",
      "type": "function"
    },
    {
      "inputs": [
        {
          "internalType": "uint256",
          "name": "_requestId",
          "type": "uint256"
        }
      ],
      "name": "calculateUnavailabilityCost",
      "outputs": [],
      "stateMutability": "nonpayable",
      "type": "function"
    },
    {
      "inputs": [
        {
          "internalType": "uint256",
          "name": "_requestId",
          "type": "uint256"
        },
        {
          "internalType": "string",
          "name": "_reason",
          "type": "string"
        }
      ],
      "name": "recordFailedTransaction",
      "outputs": [],
      "stateMutability": "nonpayable",
      "type": "function"
    },
    {
      "inputs": [
        {
          "internalType": "uint256",
          "name": "_cost",
          "type": "uint256"
        }
      ],
      "name": "updateDataHoldingCost",
      "outputs": [],
      "stateMutability": "nonpayable",
      "type": "function"
    },
    {
      "inputs": [],
      "name": "getMetrics",
      "outputs": [
        {
          "internalType": "uint256",
          "name": "avgProcessingTime",
          "type": "uint256"
        },
        {
          "internalType": "uint256",
          "name": "successRate",
          "type": "uint256"
        },
        {
          "internalType": "uint256",
          "name": "totalCost",
          "type": "uint256"
        },
        {
          "internalType": "uint256",
          "name": "disruptionCount",
          "type": "uint256"
        }
      ],
      "stateMutability": "view",
      "type": "function",
      "constant": true
    },
    {
      "inputs": [
        {
          "internalType": "uint256",
          "name": "_level",
          "type": "uint256"
        }
      ],
      "name": "updateDisruptionLevel",
      "outputs": [],
      "stateMutability": "nonpayable",
      "type": "function"
    },
    {
      "inputs": [
        {
          "internalType": "uint256",
          "name": "_level",
          "type": "uint256"
        }
      ],
      "name": "updateEscalationLevel",
      "outputs": [],
      "stateMutability": "nonpayable",
      "type": "function"
    },
    {
      "inputs": [],
      "name": "withdraw",
      "outputs": [],
      "stateMutability": "nonpayable",
      "type": "function"
    }
  ],
  "bytecode": "0x608060405234801561001057600080fd5b506000805460ff60a01b1933166001600160a81b03199091161781556001819055600281905560038190556004819055600581905560068190556007819055600855611023806100616000396000f3fe60806040526004361061014f5760003560e01c8063875075bd116100b6578063b988e0411161006f578063b988e041146103f4578063bada5cd91461040a578063c5597bbb1461042a578063d1ba2da514610440578063ec4c81ed14610456578063ed35d7e51461048357600080fd5b8063875075bd1461033257806387b10f76146103485780638da5cb5b1461035e578063a00d952614610396578063b0814857146103b1578063b084517d146103c757600080fd5b8063648f5b4d11610108578063648f5b4d146101fa578063661aab2a1461021a5780636bb7d5851461023a5780637606f7811461025a57806381d12c581461028f5780638655793f1461031c57600080fd5b80633bd67b5a1461015b5780633ccfd60b1461017d5780634835f6161461019257806357c48131146101b2578063599606c1146101dc5780635badbe4c146101e457600080fd5b3661015657005b600080fd5b34801561016757600080fd5b5061017b610176366004610d5f565b6104fc565b005b34801561018957600080fd5b5061017b6105c0565b34801561019e57600080fd5b5061017b6101ad366004610d5f565b610684565b3480156101be57600080fd5b506101c96201518081565b6040519081526020015b60405180910390f35b6101c961072f565b3480156101f057600080fd5b506101c960015481565b34801561020657600080fd5b5061017b610215366004610d78565b61095c565b34801561022657600080fd5b5061017b610235366004610d5f565b6109fb565b34801561024657600080fd5b5061017b610255366004610d5f565b610a2a565b34801561026657600080fd5b5061026f610a59565b6040805194855260208501939093529183015260608201526080016101d3565b34801561029b57600080fd5b506103076102aa366004610d5f565b600960205260009081526040902080546001820154600283015460038401546004850154600586015460069096015494956001600160a01b03909416949293919290919060ff808216916101008104821691620100009091041689565b6040516101d399989796959493929190610e2c565b34801561032857600080fd5b506101c960085481565b34801561033e57600080fd5b506101c960065481565b34801561035457600080fd5b506101c960045481565b34801561036a57600080fd5b5060005461037e906001600160a01b031681565b6040516001600160a01b0390911681526020016101d3565b3480156103a257600080fd5b506101c966038d7ea4c6800081565b3480156103bd57600080fd5b506101c960075481565b3480156103d357600080fd5b506101c96103e2366004610e8b565b600b6020526000908152604090205481565b34801561040057600080fd5b506101c960035481565b34801561041657600080fd5b5061017b610425366004610d5f565b610afa565b34801561043657600080fd5b506101c960025481565b34801561044c57600080fd5b506101c960055481565b34801561046257600080fd5b506101c9610471366004610e8b565b600c6020526000908152604090205481565b34801561048f57600080fd5b506104e961049e366004610d5f565b600a6020526000908152604090208054600182015460028301546003840154600485015460059095015493946001600160a01b03909316939192909160ff8082169161010090041687565b6040516101d39796959493929190610ebb565b6000818152600960205260409020600681015460ff166105555760405162461bcd60e51b815260206004820152600f60248201526e125b9d985b1a59081c995c5d595cdd608a1b60448201526064015b60405180910390fd5b60008160020154426105679190610f1d565b9050620151808111156105bb5760006201518066038d7ea4c6800061058c8285610f1d565b6105969190610f36565b6105a09190610f4d565b905080600660008282546105b49190610f6f565b9091555050505b505050565b6000546001600160a01b031633146105ea5760405162461bcd60e51b815260040161054c90610f82565b600080546040516001600160a01b039091169047908381818185875af1925050503d8060008114610637576040519150601f19603f3d011682016040523d82523d6000602084013e61063c565b606091505b50509050806106815760405162461bcd60e51b815260206004820152601160248201527015da5d1a191c985dd85b0819985a5b1959607a1b604482015260640161054c565b50565b6000546001600160a01b031633146106ae5760405162461bcd60e51b815260040161054c90610f82565b80600560008282546106c09190610f6f565b90915550506040517f35062c96b8a7e1bb7beb320e9c5a325a90a83745f76ba465e82f8fbaa8c8327d906107249060009084909182526020820152606060408201819052600b908201526a44617461486f6c64696e6760a81b608082015260a00190565b60405180910390a150565b60008054600160a01b900460ff161561077a5760405162461bcd60e51b815260206004820152600d60248201526c4e6f207265656e7472616e637960981b604482015260640161054c565b6000805460ff60a01b1916600160a01b17905566038d7ea4c680003410156107db5760405162461bcd60e51b8152602060048201526014602482015273125b9cdd59999a58da595b9d081c185e5b595b9d60621b604482015260640161054c565b600180548101808255604080516101208101825282815233602080830191825242838501908152600060608501818152608086018281523460a0880190815260c088018b815260e08901858152610100808b018781529c87526009909852999094208851815596519a870180546001600160a01b0319166001600160a01b03909c169b909b17909a55925160028601555160038086019190915591516004850155965160058401559551600683018054955161ffff1990961691151561ff001916919091179415159091029390931780845593519194909391929162ff0000191690620100009084908111156108d3576108d3610df4565b021790555090505034600360008282546108ed9190610f6f565b9091555050336000908152600b6020526040812080549161090d83610fa5565b90915550506001546040513381527f67da995c6df7166078290dae7ac4f9c90eeb269d051c434663949b26f04dba1d9060200160405180910390a2506001546000805460ff60a01b1916905590565b6000546001600160a01b031633146109865760405162461bcd60e51b815260040161054c90610f82565b600083815260096020526040812060068101805462ff00001916620300001790556004805491926109b683610fa5565b9190505550837f928c66d179934af77068c1402019b72c4e11e567adb3915ac0838db587fef58184846040516109ed929190610fbe565b60405180910390a250505050565b6000546001600160a01b03163314610a255760405162461bcd60e51b815260040161054c90610f82565b600755565b6000546001600160a01b03163314610a545760405162461bcd60e51b815260040161054c90610f82565b600855565b60008060008060006002541115610aba57600060015b6002548111610aa8576000818152600a6020526040902060030154610a949083610f6f565b915080610aa081610fa5565b915050610a6f565b50600254610ab69082610f4d565b9450505b60015415610aea57600154600454610ad29082610f1d565b610add906064610f36565b610ae79190610f4d565b92505b6003549150600454905090919293565b600054600160a01b900460ff1615610b445760405162461bcd60e51b815260206004820152600d60248201526c4e6f207265656e7472616e637960981b604482015260640161054c565b6000805460ff60a01b1916600160a01b179055600154811115610b9e5760405162461bcd60e51b8152602060048201526012602482015271125b9d985b1a59081c995c5d595cdd08125160721b604482015260640161054c565b60008181526009602052604090206006015460ff16610bf35760405162461bcd60e51b815260206004820152601160248201527014995c5d595cdd081b9bdd081d985b1a59607a1b604482015260640161054c565b6002805460010181556040805160e081018252838152336020808301919091524282840181905260008681526009909252929020909201546060830191610c3a9190610f1d565b81526000602082015260016040820152606001600290526000828152600a602090815260409182902083518155908301516001820180546001600160a01b0319166001600160a01b0390921691909117905590820151600282015560608201516003808301919091556080830151600483015560a083015160058301805460ff198116921515928317825560c086015193919261ffff1990911661ff00199091161790610100908490811115610cf257610cf2610df4565b021790555050336000908152600c602052604081208054925090610d1583610fa5565b909155505060405133815281907f9ee13eb4d21a792de435d483874c6db47bd93cc7f8198ad5785dbd4615dc750d9060200160405180910390a2506000805460ff60a01b19169055565b600060208284031215610d7157600080fd5b5035919050565b600080600060408486031215610d8d57600080fd5b83359250602084013567ffffffffffffffff80821115610dac57600080fd5b818601915086601f830112610dc057600080fd5b813581811115610dcf57600080fd5b876020828501011115610de157600080fd5b6020830194508093505050509250925092565b634e487b7160e01b600052602160045260246000fd5b60048110610e2857634e487b7160e01b600052602160045260246000fd5b9052565b8981526001600160a01b038916602082015260408101889052606081018790526080810186905260a0810185905283151560c082015282151560e08201526101208101610e7d610100830184610e0a565b9a9950505050505050505050565b600060208284031215610e9d57600080fd5b81356001600160a01b0381168114610eb457600080fd5b9392505050565b8781526001600160a01b038716602082015260408101869052606081018590526080810184905282151560a082015260e08101610efb60c0830184610e0a565b98975050505050505050565b634e487b7160e01b600052601160045260246000fd5b81810381811115610f3057610f30610f07565b92915050565b8082028115828204841417610f3057610f30610f07565b600082610f6a57634e487b7160e01b600052601260045260246000fd5b500490565b80820180821115610f3057610f30610f07565b6020808252600990820152682737ba1037bbb732b960b91b604082015260600190565b600060018201610fb757610fb7610f07565b5060010190565b60208152816020820152818360408301376000818301604090810191909152601f909201601f1916010191905056fea26469706673582212204d2d2d9a8ab3360894c3944b63e36cde18e2672d2bf0c8788975870ab064077164736f6c63430008110033",
  "immutableReferences": {},
  "source": "// SPDX-License-Identifier: MIT\npragma solidity ^0.8.0;\n\ncontract UncertaintyAnalytics {\n    // State variables\n    address public owner;\n    bool private locked;\n    \n    struct Request {\n        uint256 id;\n        address requester;\n        uint256 timestamp;\n        uint256 confirmationTime;\n        uint256 executionTime;\n        uint256 cost;\n        bool isValid;\n        bool isProcessed;\n        Status status;\n    }\n    \n    struct Response {\n        uint256 requestId;\n        address responder;\n        uint256 timestamp;\n        uint256 processingTime;\n        uint256 cost;\n        bool isValid;\n        Status status;\n    }\n    \n    enum Status { Pending, Processing, Completed, Failed }\n    \n    uint256 public requestCount;\n    uint256 public responseCount;\n    uint256 public totalTransactionCost;\n    uint256 public failedTransactionCount;\n    uint256 public dataHoldingCost;\n    uint256 public unavailabilityCost;\n    uint256 public disruptionLevel;\n    uint256 public escalationLevel;\n    \n    mapping(uint256 => Request) public requests;\n    mapping(uint256 => Response) public responses;\n    mapping(address => uint256) public requesterStats;\n    mapping(address => uint256) public responderStats;\n    \n    uint256 public constant MAX_PROCESSING_TIME = 1 days;\n    uint256 public constant BASE_COST = 0.001 ether;\n    \n    event RequestSubmitted(uint256 indexed requestId, address requester);\n    event ResponseReceived(uint256 indexed requestId, address responder);\n    event TransactionFailed(uint256 indexed requestId, string reason);\n    event CostRecorded(uint256 requestId, uint256 cost, string costType);\n    \n    modifier onlyOwner() {\n        require(msg.sender == owner, \"Not owner\");\n        _;\n    }\n    \n    modifier noReentrant() {\n        require(!locked, \"No reentrancy\");\n        locked = true;\n        _;\n        locked = false;\n    }\n    \n    constructor() {\n        owner = msg.sender;\n        locked = false;\n        requestCount = 0;\n        responseCount = 0;\n        totalTransactionCost = 0;\n        failedTransactionCount = 0;\n        dataHoldingCost = 0;\n        unavailabilityCost = 0;\n        disruptionLevel = 0;\n        escalationLevel = 0;\n    }\n    \n    function submitRequest() external payable noReentrant returns (uint256) {\n        require(msg.value >= BASE_COST, \"Insufficient payment\");\n        \n        unchecked {\n            requestCount++;\n        }\n        \n        requests[requestCount] = Request({\n            id: requestCount,\n            requester: msg.sender,\n            timestamp: block.timestamp,\n            confirmationTime: 0,\n            executionTime: 0,\n            cost: msg.value,\n            isValid: true,\n            isProcessed: false,\n            status: Status.Pending\n        });\n        \n        totalTransactionCost += msg.value;\n        requesterStats[msg.sender]++;\n        \n        emit RequestSubmitted(requestCount, msg.sender);\n        return requestCount;\n    }\n    \n    function submitResponse(uint256 _requestId) external noReentrant {\n        require(_requestId <= requestCount, \"Invalid request ID\");\n        require(requests[_requestId].isValid, \"Request not valid\");\n        \n        unchecked {\n            responseCount++;\n        }\n        \n        responses[_requestId] = Response({\n            requestId: _requestId,\n            responder: msg.sender,\n            timestamp: block.timestamp,\n            processingTime: block.timestamp - requests[_requestId].timestamp,\n            cost: 0,\n            isValid: true,\n            status: Status.Completed\n        });\n        \n        responderStats[msg.sender]++;\n        \n        emit ResponseReceived(_requestId, msg.sender);\n    }\n    \n    function calculateUnavailabilityCost(uint256 _requestId) external {\n        Request storage request = requests[_requestId];\n        require(request.isValid, \"Invalid request\");\n        \n        uint256 processingTime = block.timestamp - request.timestamp;\n        if (processingTime > MAX_PROCESSING_TIME) {\n            uint256 penalty = (processingTime - MAX_PROCESSING_TIME) * BASE_COST / 86400;\n            unavailabilityCost += penalty;\n        }\n    }\n    \n    function recordFailedTransaction(uint256 _requestId, string calldata _reason) external onlyOwner {\n        Request storage request = requests[_requestId];\n        request.status = Status.Failed;\n        failedTransactionCount++;\n        \n        emit TransactionFailed(_requestId, _reason);\n    }\n    \n    function updateDataHoldingCost(uint256 _cost) external onlyOwner {\n        dataHoldingCost += _cost;\n        emit CostRecorded(0, _cost, \"DataHolding\");\n    }\n    \n    function getMetrics() external view returns (\n        uint256 avgProcessingTime,\n        uint256 successRate,\n        uint256 totalCost,\n        uint256 disruptionCount\n    ) {\n        if (responseCount > 0) {\n            uint256 totalTime = 0;\n            for (uint256 i = 1; i <= responseCount; i++) {\n                totalTime += responses[i].processingTime;\n            }\n            avgProcessingTime = totalTime / responseCount;\n        }\n        \n        if (requestCount > 0) {\n            successRate = ((requestCount - failedTransactionCount) * 100) / requestCount;\n        }\n        \n        totalCost = totalTransactionCost;\n        disruptionCount = failedTransactionCount;\n    }\n    \n    receive() external payable {}\n\n    // Add these functions in UncertaintyAnalytics.sol\nfunction updateDisruptionLevel(uint256 _level) external onlyOwner {\n    disruptionLevel = _level;\n}\n\nfunction updateEscalationLevel(uint256 _level) external onlyOwner {\n    escalationLevel = _level;\n}\n    \n    function withdraw() external onlyOwner {\n        (bool success, ) = payable(owner).call{value: address(this).balance}(\"\");\n        require(success, \"Withdrawal failed\");\n    }\n}",
  "sourcePath": "C:\\Users\\Bonsu\\Documents\\crosschainproject\\contracts\\UncertaintyAnalytics.sol",
  "compiler": {
    "name": "solc",
    "version": "0.8.17+commit.8df45f5f.Emscripten.clang"
  },
  "schemaVersion": "3.4.16",
  "updatedAt": "2025-02-07T14:38:24.452Z",
  "networkType": "ethereum",
  "devdoc": {
    "kind": "dev",
    "methods": {},
    "version": 1
  },
  "userdoc": {
    "kind": "user",
    "methods": {},
    "version": 1
  }
}